:10000000B5EF00F0FF00FF00E1CF7BF0E2CF7CF026
:10001000D9CF7DF0F2EF1EF0D8CF30F0E8CF31F03D
:10002000E0CF32F0E1CF33F0E2CF34F0D9CF35F08A
:10003000DACF36F0F6CF37F0F7CF38F0F8CF39F027
:10004000F5CF3AF000F09EBA9DAA78D00401000ED8
:100050002724D96EDA6A040EDA22CBEC23F0DF6EA5
:10006000ABA4ABB261D028505FE10401000E27249D
:10007000D96EDA6A040EDA223E0EDF6204D0006F17
:10008000010E276E5BD0040E2A6E000E296EFF0E45
:100090002C6EEC0E2B6E2E6A050E2D6E96EC20F05B
:1000A0002A50291014E12750330A11E100F000F022
:1000B000000E92EC24F0010E2A6E380E296E040117
:1000C000040E2C6E000E2B6E53EC23F0276A0401F5
:1000D000040E2A6E000E296EFF0E2C6EE60E2B6E9D
:1000E0002E6A050E2D6E96EC20F02A50291016E18E
:1000F0002750180A13E100F000F0000E92EC24F0F3
:10010000300E0401006F010E2A6E380E296E040EA7
:100110002C6E000E2B6E53EC23F0276A272A5A0E02
:1001200027640CD0276A0AD08B9A9EBAAECF25F0EE
:100130009EBAAECF25F0AB9800F0AB883AC0F5FF81
:1001400039C0F8FF38C0F7FF37C0F6FF36C0DAFF16
:1001500035C0D9FF34C0E2FF33C0E1FF32C0E0FF59
:1001600031C0E8FF30C0D8FF1000D0EF1DF0010E05
:100170000301C56FC80EC46FD2EF05F0DA51250A2E
:100180000BE0C4C1D9FFC5C1DAFFDAC3DFFF01014B
:10019000C44BC52BD2EF05F0D26BD36BCC6BCD6BC0
:1001A00005D00301CC850101C64BC72B010102EC30
:1001B00006F0300AF6E002EC06F022EC24F031E31F
:1001C0000301D26BD36BD2C381F0D3C382F00001A1
:1001D000846B0A0E836FB8EC23F081C0D2F382C027
:1001E000D3F3D00E0101DA6FDB6902EC06F0DC6FAD
:1001F000DD6BDA51DC27DB51DD23DC510301D22733
:100200000101DD510301D3230101C64BC72BC6C138
:10021000F6FFC7C1F7FFF86A0800F55022EC24F09A
:10022000D2E202EC06F02E0A2CE10301CD8D010191
:10023000C64BC72B0301D46BD56B1BD0D4C381F045
:10024000D5C382F0846B0A0E836FB8EC23F002EC06
:1002500006F000018127000E8223D00E81250301C4
:10026000D46FFF0E000182210301D56F0101C64B3F
:10027000C72B010102EC06F022EC24F001E2A9D028
:10028000DDD70301D46BD56BCD89A3D0CD85B1D09B
:10029000C4C3D9FFC5C3DAFFDECFD6F3DDCFD7F3B2
:1002A000020EC427000EC523D751D61104E1FF0E5C
:1002B000D76FCC0ED66FD86BD96B03D00301D84B58
:1002C000D92BD6C3DAF1D7C3DBF1D8510101DA2734
:1002D0000301D9510101DB23DAC1F6FFDBC1F7FFCE
:1002E000000EF86E0F0EF76403D00800F55005D02D
:1002F000F6CFE1FFF7CFE2FFE7500009DFE10301AE
:10030000D551D41109E0D851D45DD951D55904E261
:10031000D4C3D8F3D5C3D9F3D251D85DD351D95969
:1003200007E223EED8F0DE50D25FDD50D35B0CD075
:10033000D26BD36B09D0C4C1D9FFC5C1DAFF200E7F
:10034000DF6E0101C44BC52B0301D207D8A0D30730
:10035000D229D8B4D3291DE0EED7D6C3F6FFD7C330
:10036000F7FF000EF86EC4C1D9FFC5C1DAFF0F0E4A
:10037000F76403D00800F55005D0F6CFE1FFF7CFC2
:10038000E2FFE750DF6E0301D64BD72B0101C44BD0
:10039000C52B0301D807D8A0D907D829D8B4D929A3
:1003A00002E1D2EF05F0D9D7C4C3D9FFC5C3DAFF44
:1003B000DF50DA6F020EC427000EC523030ED76F7D
:1003C000DA0ED66FD96B010ED86F99D7C00ECC1349
:1003D00010D020EC06F0DA5101E1E8D3630AE4E042
:1003E000050A01E153D7150A01E152D7060AEEE0EA
:1003F000E5D7070ECD1501E1DCD2CDA903D0D56B31
:10040000060ED46FC4C3D9FFC5C3DAFFDECFCEF367
:10041000DECFCFF3DECFD0F3DECFD1F3040EC4278F
:10042000000EC523D1AF15D0CEC381F0CFC382F06B
:10043000D0C383F0D1C384F092EC23F081C0CEF31B
:1004400082C0CFF383C0D0F384C0D1F3030E030185
:10045000CC13CA6BCB6B23EECEF0DE50DE10DE1079
:10046000DE106BE0D035D135820FCA6FCB6BFF0E3B
:10047000CB23CA07D8A0CB07CAC381F0CBC382F075
:100480000001846B030E836FB8EC23F081C0CAF3C4
:1004900082C0CBF3CAC387F0CBC388F08A6B0A0E45
:1004A000896F1BEC1EF087C0CAF388C0CBF3EBDB6F
:1004B000000ED8B4CA5D03E2CA07D8A0CB07CA5160
:1004C0000008BCEC0AF0A3C0C6F3A4C0C7F3A5C0E3
:1004D000C8F3A6C0C9F3C6C390F0C7C391F0C8C3A0
:1004E00092F0C9C393F0CEC394F0CFC395F0D0C3BC
:1004F00096F0D1C397F01EEC18F090C0C6F391C0EF
:10050000C7F392C0C8F393C0C9F3A7DB800E876F0F
:100510003F0E886F22EC22F005E20301CA07D8A043
:10052000CB070BD09ADB200E876F410E886F22EC31
:1005300022F003E30301CA4BCB2B0301D551800A00
:10054000F36E800EF35C0D0ED8B4D45D1DE2CEC305
:10055000B4F0CFC3B5F0D0C3B6F0D1C3B7F0D45127
:1005600094EC11F0A3C0B8F0A4C0B9F0A5C0BAF0E3
:10057000A6C0BBF06FEC12F0B4C0CEF3B5C0CFF3A1
:10058000B6C0D0F3B7C0D1F37EDB0A0ED8B4CA5DD3
:1005900027E223EECEF0DE50DE10DE10DE106FE03C
:1005A000CEC3ACF0CFC3ADF0D0C3AEF0D1C3AFF08B
:1005B000C6EC1BF0ACC0DAF1ADC0DBF1AEC0DCF1D3
:1005C000AFC0DDF10101DD51DA11DB11DC1157E1C2
:1005D0000301CB51800A800F020ED8B4CA5D4FE3ED
:1005E000C6C381F0C7C382F0C8C383F0C9C384F017
:1005F0005F0E0001856F700E866F890E876F400E4B
:10060000886F22EC22F003E20301F70E02D003010F
:10061000F80ECA27FF0ECB23CA51BCEC0AF0A3C0C8
:10062000C6F3A4C0C7F3A5C0C8F3A6C0C9F3CEC320
:1006300081F0CFC382F0D0C383F0D1C384F0C6C3AE
:1006400085F0C7C386F0C8C387F0C9C388F0A2ECA1
:1006500018F081C0B8F382C0B9F383C0BAF384C084
:10066000BBF3B8C3D6F3B9C3D7F3BAC3D8F3BBC38C
:10067000D9F30301CE6BCF6BD06BD16B39D0CEC326
:10068000ACF0CFC3ADF0D0C3AEF0D1C3AFF0C6EC89
:100690001BF0ACC0D6F3ADC0D7F3AEC0D8F3AFC03B
:1006A000D9F3CEC3C3F0CFC3C4F0D0C3C5F0D1C318
:1006B000C6F0D6C38BF0D7C38CF0D8C38DF0D9C3A6
:1006C0008EF03CEC23F08BC0C7F08CC0C8F08DC01E
:1006D000C9F08EC0CAF0D1EC22F0C3C0CEF3C4C0C2
:1006E000CFF3C5C0D0F3C6C0D1F30301CA6BCB6B47
:1006F000010EDA6FDA510A0A06E070DAF86A8ADA6D
:1007000002E3DA2BF7D7DAC3DAF10101DB6BDABFE8
:10071000DB070301D4510101DA270301D55101019F
:10072000DB230301CA510101DA270301CB51010187
:10073000DB23DA510301D25F0101DB510301D35BFB
:10074000D551D41103E0D207D8A0D307CCC3DAF136
:10075000030E0101DA1704E00301D207D8A0D30782
:100760000301CCA522D0CCC3DAF1030E0101DA17C4
:100770000DE0C4C1D9FFC5C1DAFF2D0EDF6EC44B39
:10078000C52B04D034DAD207D8A0D3070301D35144
:1007900075DAD8B4D25D4DE3F5D7C4C1D9FFC5C170
:1007A000DAFF200E46DAD8A0D307D35167DAD8B4DF
:1007B000D25DF3E2CCC3DAF1030E0101DA1739E0BE
:1007C000C4C1D9FFC5C1DAFF2D0EDF6E0101C44BD4
:1007D000C52B2FD0D6C381F0D7C382F0D8C383F006
:1007E000D9C384F0FBD9E9D9B6EC1FF081C0BCF3C2
:1007F00082C0BDF383C0BEF384C0BFF3BCC38EF020
:10080000BDC38FF0BEC390F0BFC391F031DACAEC24
:1008100020F08EC0BCF38FC0BDF390C0BEF391C07A
:10082000BFF30301BC51300FC4C1D9FFC5C1DAFF0A
:10083000CCD70301DA07DA2905E0CCD7D8D9CA0723
:10084000D8A0CB07CB511ADAD8B4CA5DF7E2D5519C
:10085000800A800F090ED8B4D45D03E3080EDA6F66
:1008600002D0D4C3DAF3DA51D45F000EDABFFF0E40
:10087000D55BDA5109E0C4C1D9FFC5C1DAFF2E0E3C
:10088000DF6E0101C44BC52B0301DA51BCEC0AF049
:10089000A3C0B4F3A4C0B5F3A5C0B6F3A6C0B7F324
:1008A000CEC394F0CFC395F0D0C396F0D1C397F0E8
:1008B000B4C390F0B5C391F0B6C392F0B7C393F050
:1008C0001EEC18F090C0ACF091C0ADF092C0AEF04C
:1008D00093C0AFF0C6EC1BF0ACC0D6F3ADC0D7F3FD
:1008E000AEC0D8F3AFC0D9F356D0D6C381F0D7C3CA
:1008F00082F0D8C383F0D9C384F070D95ED9B6EC46
:100900001FF081C0C0F382C0C1F383C0C2F384C0B2
:10091000C3F3C0C38EF0C1C38FF0C2C390F0C3C392
:1009200091F0A6D9CAEC20F08EC0C0F38FC0C1F3FD
:1009300090C0C2F391C0C3F30301C051300FC4C1D2
:10094000D9FFC5C1DAFFDF6E0101C44BC52BD6C389
:100950008EF0D7C38FF0D8C390F0D9C391F00301C4
:100960003DD9F86A000EF82209000001F5CF92F097
:100970000900F5CF93F00900F5CF94F00A00F5CF08
:1009800095F0CAEC20F08EC0D6F38FC0D7F390C09C
:10099000D8F391C0D9F30301DA07DA2905E0A5D726
:1009A00026D9D407D8A0D507D551D41101E1FAD062
:1009B000F7D7C4C3D9FFC5C3DAFFDECFDAF1DDCF85
:1009C000DBF1DAC1D6F3DBC1D7F3D86BD96B020EFA
:1009D000C427000EC523D551D41107E1D951D61132
:1009E000D711D81102E1D44BD52B010EDA6FDA51B1
:1009F0000A0A06E0F3D8F86A0DD902E3DA2BF7D732
:100A000049D9D451DA5DD551800A0101DA5903E29E
:100A1000D4C3DAF314D00301D551800A0101DA6F8F
:100A20000301DA51D45D800EDABF7F0E0101DA597D
:100A300006E20301DA51D46FD56BD4BFD5070301A9
:100A4000D351D2110AE0CCC3DAF1030E0101DA1757
:100A500004E00301D207D8A0D3070301CDAD15D020
:100A6000D551800A0101DA6F0301D251D45DD3510F
:100A7000800A0101DA5906E20301D451D25FD5514F
:100A8000D35B03D00301D26BD36B04D9D251DA5DAF
:100A9000D351800A0101DA5908E20301DA51D25F29
:100AA000000EDABFFF0ED35B03D00301D26BD36B12
:100AB000CCA517D0CCC3DAF1030E0101DA1708E098
:100AC000C4C1D9FFC5C1DAFF2D0EDF6EC44BC52BE3
:100AD0000301D351D2115EE08AD8D207D8A0D30740
:100AE000F7D7D351D2110BE0C4C1D9FFC5C1DAFF8A
:100AF000200E9FD8D8A0D307D351D211F5E1CCC393
:100B0000DAF1030E0101DA1745E0C4C1D9FFC5C10E
:100B1000DAFF2D0EDF6E0101C44BC52B3BD0D4C3D1
:100B2000DAF1D5C3DBF10101D890DA37DB37D890A1
:100B3000DA37DB37DF0EDA25F66EFE0EDB21F76ED5
:100B40003CD8D6C381F0D7C382F0D8C383F0D9C3D1
:100B500084F0B6EC1FF081C08EF082C08FF083C0AD
:100B600090F084C091F084D8CAEC20F08EC0DCF103
:100B70008FC0DDF190C0DEF191C0DFF10101DC51E9
:100B8000300F0301DA6FC4C1D9FFC5C1DAFFDAC380
:100B9000DFFFC1D70301D407D8A0D507D429D8B423
:100BA000D529BDE14DD8DA67BEEF00F0C4C1D9FF49
:100BB000C5C1DAFF000EDF6E000CF86A000EF822E5
:100BC00009000001F5CF85F00900F5CF86F0090096
:100BD000F5CF87F00A00F5CF88F01200DA51040D46
:100BE000DF0EF324F66EFE0EF420F76E1200C4C181
:100BF000D9FFC5C1DAFF300EDF6E0101C44BC52B32
:100C00000301300CC6C1F6FFC7C1F7FFF86A080040
:100C1000F5501200000EF8220900F550D65D0900CB
:100C2000F550D7590900F550D8590900F550D95950
:100C30001200DF6E0101C44BC52B0301D207120065
:100C40000101C6C1F6FFC7C1F7FFC64BC72BF86A43
:100C50000800F5CFDAF303011200C6C381F0C7C361
:100C600082F0C8C383F0C9C384F0856B866B120021
:100C70000A0E926F936B946B956B000C800AF36E67
:100C8000800EF35C010C0301CB51800AF36E800EE1
:100C9000F35C1200800EDABF7F0E0101DA6F0301F0
:100CA000120000F0010102B102D0899C01D0898CB0
:100CB000010103B102D0899E01D0898E0101375113
:100CC00021EE05F0DF6203D00651361943E005C17D
:100CD00037F106C136F1170E0001836F640E2AEC5E
:100CE00021F00101060518E15ADA890E93EC17F09C
:100CF000170E836F640E2AEC21F0F20E63DA8C0E6D
:100D000093EC17F0F20E906F1C0E8F6F010E916F27
:100D10008C0E93EC17F01ED042DA8C0E93EC17F089
:100D2000F20E906F1C0E8F6F916B8C0E93EC17F080
:100D3000170E836F640E2AEC21F00101055106E0C5
:100D4000F20E40DA890E93EC17F004D028DA890EFF
:100D500093EC17F001011151F2190BE011C1F2F1FE
:100D6000110504E1010EF1EC1FF003D0000EF1ECCF
:100D70001FF001010851F4194AE008C1F4F10867B5
:100D80000BD0030EC56FDB0EC46FFF0EC76FDC0EFA
:100D9000C66FB7EC00F030D008050FE1030E01017B
:100DA000C56FDB0EC46FFF0EC76FF20EC66FC96B47
:100DB000840EC86FB7EC00F01FD00851020A0CE196
:100DC000030E0101C56FDB0EC46FFF0EC76FE00E8F
:100DD00000DAB7EC00F010D00851030A0DE1030E61
:100DE0000101C56FDB0EC46FFF0EC76FD30EF1D9C3
:100DF000CD6BCC6FB7EC00F0030E0001A56F000EB9
:100E0000A46F030EA76FDB0EA66F15EC1AF001019D
:100E10000751F6192EE007C1F6F1070507E1030EA9
:100E2000C5D9860ECA6FB7EC00F016D00751020A7A
:100E300008E1030E0101BAD9870ECA6FB7EC00F0C2
:100E40000BD0030E0101C56FDB0EC46FFF0EC76F21
:100E5000DD0EC66FB7EC00F000F000F0030E0001ED
:100E6000A56F900EA46F030EA76FDB0EA66F15EC97
:100E70001AF001011751F31915E017C1F3F1250E0E
:100E80000001836F2B0E2AEC21F00101170506E10A
:100E9000F20E98D98A0E93EC17F004D080D98A0EFE
:100EA00093EC17F001011251F51959E012C1F5F157
:100EB00012053AE1030EC56FDB0EC46FFF0EC76F5C
:100EC0003D0EC66FB7EC00F0020E0001A56F680E74
:100ED000A46F030EA76FDB0EA66F15EC1AF0030EBE
:100EE0000101C56FDB0EC46FFF0EC76F270EC66F03
:100EF000B7EC00F0020E0001A56F8C0EA46F030E7C
:100F0000A76FDB0EA66F15EC1AF0836B730E2AEC3D
:100F100021F0C50E0001906F0F0E8F6F010E916FC3
:100F20005E0E93EC17F01BD0020E0001A56F680E49
:100F3000A46F2AEC20F0020E0001A56F8C0EA46FA6
:100F40002AEC20F0836B730E2AEC21F0C50E000111
:100F5000906F0F0E8F6F916B5E0E93EC17F0010E7A
:100F60000101356FFAD000F0F2AE04D0010E01019C
:100F7000346F02D00101346BF29E2DC12FF12EC1CE
:100F800030F1010E326F980E316F2DC1E0F12EC19C
:100F9000E1F12F51E05F3051E15BE151800AF36EE6
:100FA000810EF35CF40ED8B4E05D04E23405D8B4ED
:100FB000F28E12002DC12FF12EC130F13405D8B4BC
:100FC000F28E00F001013351D8A4336BE551E919D9
:100FD00008E1E451E81905E1E351E71902E1E251C2
:100FE000E6193CE0E2C1E6F1E3C1E7F1E4C1E8F172
:100FF000E5C1E9F121EEE2F0DE50DE10DE10DE1098
:1010000017E0030E0101C56FDB0EC46FFF0EC76F43
:10101000BB0EC66FE2C1C8F1E3C1C9F1E4C1CAF1B8
:10102000E5C1CBF1CD6B8B0ECC6FB7EC00F00BD0E4
:10103000030E0101C56FDB0EC46FFF0EC76FDA0E22
:10104000C66FB7EC00F0030E0001A56F6C0EA46F25
:10105000030EA76FDB0EA66F15EC1AF00101ED5120
:101060000C1908E1EC510B1905E1EB510A1902E1E9
:10107000EA51091928E0030E0001C46FF90EC36F8D
:1010800009C1C5F00AC1C6F00BC1C7F00CC1C8F058
:10109000010EC96FCA6F1CEC0CF073D8B7EC00F0EE
:1010A000020E0001A56FB00EA46F030EA76FDB0E3A
:1010B000A66F15EC1AF009C1EAF10AC1EBF10BC1F8
:1010C000ECF10CC1EDF10101F151101908E1F05101
:1010D0000F1905E1EF510E1902E1EE510D1928E04B
:1010E000030E0001C46FF90EC36F0DC1C5F00EC130
:1010F000C6F00FC1C7F010C1C8F0010EC96FCA6FAA
:101100001CEC0CF03ED8B7EC00F0020E0001A56F0D
:10111000D40EA46F030EA76FDB0EA66F15EC1AF0AA
:101120000DC1EEF10EC1EFF10FC1F0F110C1F1F1FF
:101130000101356B010E326FBE0E316F356701D084
:10114000120000F00101356B010E326FD20E316FCB
:10115000356701D0120000F006D731C1E0F132C18D
:10116000E1F1E15103E0010A03E0FDD6E051FBD6D5
:10117000E051980A01E109D7260AE0E06C0AE8E0AC
:10118000F2D6030E0101C56FDB0EC46FFF0EC76FF1
:10119000F70EC66F030EC96FF90EC86F1200F20E7C
:1011A0000001906F1C0E8F6F916B1200C56FDB0EEC
:1011B000C46FFF0EC76FD50EC66FC96B850EC86FA3
:1011C000CB6B850C0001906F1C0E8F6F010E916F21
:1011D000010CC66FC96B840EC86FCB6BCA6F840CD1
:1011E000A651A5110BE0A5C0D9FFA6C0DAFFA3C088
:1011F000DEFFA4C0DDFF02D0A34BA42BA3C0D9FF08
:10120000A4C0DAFFDF50A86F0001A85102EC24F05F
:10121000F3E2A96BA8512D0A05E1010EA96FA34BBA
:10122000A42B03D0A8512B0AFAE0A86BAB6BAC6BD4
:10123000AD6BAE6BAA6BA9B909D02E0EA3C0D9FFB6
:10124000A4C0DAFFDF6202D0A98935D0A3C0D9FFDC
:10125000A4C0DAFFDF5022EC24F030E3A983A851C8
:10126000090A27E0A9B9AA07A82BABC081F0ACC036
:1012700082F0ADC083F0AEC084F00A0E856F000E20
:10128000866B876B886BD6EC21F081C0ABF082C097
:10129000ACF083C0ADF084C0AEF0A3C0D9FFA4C051
:1012A000DAFFDF50D00FAB27000EAC23AD23AE2307
:1012B00002D0A9A9AA2BA34BA42BBDD7A86BA3C06E
:1012C000D9FFA4C0DAFFDF50650A07E0450EA3C0CE
:1012D000D9FFA4C0DAFFDF6242D02D0EA34BA42BAE
:1012E000A3C0D9FFA4C0DAFFDF6202D0A98707D06C
:1012F0002B0EA3C0D9FFA4C0DAFFDF6202D0A34B3C
:10130000A42BA3C0D9FFA4C0DAFFDF50300AF7E056
:10131000A3C0D9FFA4C0DAFFDF5022EC24F01DE304
:10132000A3C0D9FFA4C0DAFFDF50D00FA86FA34B32
:10133000A42BA3C0D9FFA4C0DAFFDF5022EC24F015
:101340000CE3FFD8A34BA42BA3C0D9FFA4C0DAFFA2
:10135000DF5022EC24F001E3F4D8A9B7A86DA8511E
:10136000AA27A651A511D8A4A9A308D0A5C0D9FF22
:10137000A6C0DAFFA3C0DEFFA4C0DDFFABC08BF0C8
:10138000ACC08CF0ADC08DF0AEC08EF0FBEC20F0A8
:101390008BC0ABF08CC0ACF08DC0ADF08EC0AEF0A9
:1013A00020EEABF0DE50DE10DE10DE1005E1A36BA8
:1013B000A46BA56BA66B1200AAAF52D0AA6D1CD06D
:1013C000ABC08BF0ACC08CF0ADC08DF0AEC08EF079
:1013D000F90E8F6F020E906F150E916F500E926F77
:1013E0009DEC19F08BC0ABF08CC0ACF08DC0ADF0B3
:1013F0008EC0AEF0F60EAA27AA51800AA76F0A0E79
:10140000800AA75D1AE3DCD7ABC08BF0ACC08CF0D0
:10141000ADC08DF0AEC08EF08F6B906B200E916FD3
:10142000410E926F9DEC19F08BC0ABF08CC0ACF00C
:101430008DC0ADF08EC0AEF0AA07AA67E5D7ABC0ED
:1014400081F0ACC082F0ADC083F0AEC084F0856B9B
:10145000866B800E876F000E886B22EC22F04FD0D7
:10146000AA51800A7F0F1DE24FD0ABC090F0ACC0F4
:1014700091F0ADC092F0AEC093F0F90E946F020EF1
:10148000956F150E966F500E976F1EEC18F090C06A
:10149000ABF091C0ACF092C0ADF093C0AEF0F60EE0
:1014A000AA270A0EAA5D1AE3E0D7ABC090F0ACC041
:1014B00091F0ADC092F0AEC093F0946B956B200E9E
:1014C000966F410E976F1EEC18F090C0ABF091C074
:1014D000ACF092C0ADF093C0AEF0AA07AA67E5D712
:1014E000816982697F0E836F846FABC085F0ACC069
:1014F00086F0ADC087F0AEC088F022EC22F004E2A6
:10150000A9A12CD0000E32D0A9A112D0ABC081F07D
:10151000ACC082F0ADC083F0AEC084F092EC23F09A
:1015200081C0ABF082C0ACF083C0ADF084C0AEF03F
:10153000ABC0A3F0ACC0A4F0ADC0A5F0AEC0A6F0A7
:101540001200A3C0D9FFA4C0DAFFDF50A76FA851D3
:101550000A0DF350A725D00FA86F1200000EA36F3D
:10156000A46F800EA56F000EA66F000CA36FA46F72
:10157000800EA56FA66F800C0001AB6FABAF6CD077
:10158000AB6DAB51800A120F3BE38A6B0A0E896F79
:10159000846B640E47D981BF820737EC1FF081C08E
:1015A00087F082C088F01BEC1EF0FBD8A70E8725C1
:1015B000F66EC40E8821BBD88A6B640E38D987BFFB
:1015C00088071BEC1EF0D8900ED91ED9C1D81EEC8E
:1015D00018F0F2D881BF820737EC1FF0C9D8A70EE8
:1015E0008125F66EC40E8221A2D81EEC18F090C0A0
:1015F000A3F091C0A4F092C0A5F093C0A6F0120091
:10160000AB51800A750F21E38A6B0A0E10D987BF90
:1016100088071BEC1EF0C5D8F7D89AD8FCD881BF34
:10162000820737EC1FF0A4D8A70E8125F66EC40EF2
:1016300082217DD81EEC18F090C0A3F091C0A4F0D8
:1016400092C0A5F093C0A6F01200AB51040DA70EF6
:10165000F324F66EC40E93D0AB51800A120F3BE315
:101660008A6B0A0E896F846B640EDCD881BF820797
:1016700037EC1FF081C087F082C088F01BEC1EF0B1
:1016800090D8DB0E8725F66EC40E882150D88A6B61
:10169000640ECDD887BF88071BEC1EF0D890A3D866
:1016A000ACD856D81EEC18F087D881BF820737EC2B
:1016B0001FF05ED8DB0E8125F66EC40E822137D86E
:1016C0001EEC18F090C0A3F091C0A4F092C0A5F059
:1016D00093C0A6F01200AB51800A750F21E38A6B0C
:1016E0000A0EA5D887BF88071BEC1EF05AD885D8EC
:1016F0002FD891D881BF820737EC1FF039D8DB0E85
:101700008125F66EC40E822112D81EEC18F090C00E
:10171000A3F091C0A4F092C0A5F093C0A6F012006F
:10172000AB51040DDB0EF324F66EC40E28D0F76E19
:10173000F86A000EF8220900F5CF94F00900F5CF01
:1017400095F00900F5CF96F00A00F5CF97F012005A
:10175000F86A000EF8220900F5CF90F00900F5CFE5
:1017600091F00900F5CF92F00A00F5CF93F0120046
:10177000D89081378237D890813782371200F42091
:10178000F76EF86A000EF8220900F5CFA3F0090001
:10179000F5CFA4F00900F5CFA5F00A00F5CFA6F02B
:1017A0001200D89087378837D89087378837240E2B
:1017B0008727000E8823000C90C0A7F091C0A8F0E6
:1017C00092C0A9F093C0AAF0A7C090F0A8C091F071
:1017D000A9C092F0AAC093F0846B0A0E836FAB513C
:1017E000816F826B120087378837D89087378837A8
:1017F000480E8727000E8823000CDB0E8725F66E27
:10180000C40E8821F76E1200A70E8725F66EC40E4F
:101810008821F76E1200846B0A0E836FAB51816FC3
:10182000826B1200836FAB51816F826B1200896FE4
:10183000AB51876F886B1200C8AF12D0010ECB6F0F
:1018400017D9800E966FBF0E976F1EEC18F090C0E0
:10185000C5F091C0C6F092C0C7F093C0C8F001D0E7
:10186000CB6BCA6710D0C5C0B4F0C6C0B5F0C7C056
:10187000B6F0C8C0B7F0B86BB96BBA6B3F0EBB6FB0
:101880006FEC12F02AD0CA0513E1C5C0B4F0C6C08F
:10189000B5F0C7C0B6F0C8C0B7F0CD0EB86FCC0E6B
:1018A000B96F4C0EBA6F3D0EBB6F6FEC12F015D0D6
:1018B000CA51020A1AE1C5C0B4F0C6C0B5F0C7C02B
:1018C000B6F0C8C0B7F00A0EB86FD70EB96FA30E46
:1018D000BA6F3B0EBB6F6FEC12F0B4C0C5F0B5C071
:1018E000C6F0B6C0C7F0B7C0C8F0CA29CC6F10D0D8
:1018F000BFD8200E966F410E976F1EEC18F090C067
:10190000C5F091C0C6F092C0C7F093C0C8F0CC0734
:10191000CC67EED7C951CA25030FCC6F4FD0CC0787
:10192000C9510101C46FC56BC42B000EC523000152
:10193000CC510101C419C51141E00001A4D8C5C0B2
:10194000ACF0C6C0ADF0C7C0AEF0C8C0AFF0C6ECDA
:101950001BF0ACC0B6F0ADC0B7F0AEC0B8F0AFC0D1
:10196000B9F00A0EBA6F000EBB6BBC6BBD6B63ECBB
:101970001BF0B6C0C4F1B7C0C5F1B8C0C6F1B9C05C
:10198000C7F10101C451300FDF6EC5C08BF0C6C076
:101990008CF0C7C08DF0C8C08EF000018F6B906BCB
:1019A000200E916F410E926F9DEC19F08BC0C5F027
:1019B0008CC0C6F08DC0C7F08EC0C8F00001CC67E7
:1019C000AED7D00E0101C46FC569C3C0D9FFC4C072
:1019D000DAFFDF505FD827E10001CC6B21D0D00EB9
:1019E0000101C46FC56900014ED8DF50010152D812
:1019F00008E10001CC51C91904E045D8200EDF6E82
:101A00000ED00001CB510FE0CC5129D8FF0EC425D8
:101A1000D96EFF0EC521DA6E2D0EDF6E04D0CC2BF1
:101A2000CC51C95DDCE20001C95119D8C429D96E75
:101A3000000EC521DA6E2E0EDF6E0001C9510FD8DF
:101A40000001CA510101C427000EC523020EC4259E
:101A5000D96E000EC521DA6E000EDF6E000CC325B4
:101A60000101C46F000E0001C4210101C56F120005
:101A7000C5C090F0C6C091F0C7C092F0C8C093F046
:101A8000946B956B1200CC51C325D96E000EC42106
:101A9000DA6E1200C66FC76BC451C627C551C72383
:101AA000C751C6111200020E926F580E916F700E40
:101AB000D36E9B8C9107D8A0920700019129D8B4CE
:101AC0009229F8E1D08E030EBA12C80EBB6EBA503E
:101AD000870B1809BA6EBA849F829E929D82030E6C
:101AE0000F015113640E526F51975199519B519DA3
:101AF00051857F807E907D8040EC24F0386B396B7F
:101B00003A6B3B6B3C6B546B0F0E0001826FDFD85E
:101B1000856B0C0ED5D8000E03EC14F00F0E826FFF
:101B2000D6D8010E856F0A0ECBD8010E03EC14F047
:101B30000F0E826FCCD8020E856F080EC1D8020E30
:101B400003EC14F00F0E826FC2D8050E856F0D0ED8
:101B5000B7D8030E03EC14F00F0E826FBFD8856B5D
:101B6000866B886987698A6989698B69040E03ECC9
:101B700014F00F0E826FB2D8010E856FA1D8050E3A
:101B800003EC14F00F0E826FA2D8040E856F0B0EBB
:101B900097D8060E03EC14F00F0E826F98D8030E40
:101BA000856F090E8DD8070E03EC14F00F0E826FAF
:101BB00095D8020E856F84D8080E03EC14F00F0E32
:101BC000826F8CD8030E856F7BD8090E03EC14F05E
:101BD0000F0E826F83D8050E856F040E71D80A0E22
:101BE00003EC14F0816B100E826F000E65EC1EF09A
:101BF000010E816F100E826F010E65EC1EF0020E59
:101C0000816F100E826F020E65EC1EF0030E816F65
:101C1000100E826F030E65EC1EF0040E816F100E25
:101C2000826F040E65EC1EF0050E816F100E826F40
:101C3000050E65EC1EF0060E816F100E826F060E0B
:101C400065EC1EF0070E816F100E826F070E65ECBB
:101C50001EF0080E816F100E826F080E65EC1EF0EC
:101C6000090E816F100E826F090E65EC1EF00A0ED0
:101C7000816F100E826F0A0E65EC1EF0020E816FEE
:101C8000080E826F0B0E65EC1EF0030E816F080EBE
:101C9000826F0C0E65EC1EF031EC24F0949C948E57
:101CA0009F9A9D8A8B9A949A939C939E929C929EC3
:101CB0008A9C8A9E899C899E94988B88F28C1200BB
:101CC000866F886987698A6989698B691200930EB2
:101CD000816F0F0E846F8A0E836F8A0C920E816F54
:101CE0000F0E846F890E836F890C20EE08F03D5033
:101CF000D9263E50DA22DECF62F0DDCF63F020EE4F
:101D00000AF03D50D9263E50DA22DECF66F0DDCF14
:101D100067F020EE1DF03D50D9263E50DA22DF500C
:101D20006A6F20EE08F03B50D9263C50DA22DECF15
:101D30006BF0DDCF6CF020EE0AF03B50D9263C5022
:101D4000DA22DECF68F0DDCF69F020EE1DF03B50E7
:101D5000D9263C50DA22DF506D6F20EE1EF03D5048
:101D6000D9263E50DA22DF50646F20EE1EF03B5041
:101D7000D9263C50DA22DF50656F64C03FF09DD811
:101D800066C0D9FF67C0DAFF6A51DF12B3D89DD8A9
:101D90008BD800F000F000F000F000F000F000F050
:101DA00000F000F000F000F000F000F000F000F0B3
:101DB00000F000F000F000F000F06BC0D9FF6CC044
:101DC000DAFF00016D51DF1265C03FF076D800F0F8
:101DD00000F000F000F000F000F000F000F000F083
:101DE00000F000F000F000F000F000F000F000F073
:101DF00000F000F000F0C282C2B2FED7000154D859
:101E000082D8040E616F606B69D8605F4050615B7F
:101E100064C03FF052D877D86DD868C0D9FF69C088
:101E2000DAFF6D51DF1240D800F000F000F000F052
:101E300000F000F000F000F000F000F000F000F022
:101E400000F000F000F000F000F000F000F000F012
:101E50006BC0D9FF6CC0DAFF6D51DF1265C03FF077
:101E60002CD800F000F000F000F000F000F000F0DE
:101E700000F000F000F000F000F000F000F000F0E2
:101E800000F000F000F000F000F0C282C2B2FED715
:101E900000011BD809D822D860274050612360C0B8
:101EA0003BF061C03CF012006D1D3F6E6BC0D9FF6E
:101EB0006CC0DAFF3F50DF1612003F463F46C2506B
:101EC0003F18830B3F18C26E12006D1D3F6E68C035
:101ED000D9FF69C0DAFF3F50DF161200C350C4CFEC
:101EE0003FF0406A3FC040F03F6A3F26000E40226C
:101EF0003F5012006A1D3F6E62C0D9FF63C0DAFF17
:101F00003F50DF1612006A1D3F6E66C0D9FF67C0E2
:101F1000DAFF3F50DF161200020E00018E6F000E36
:101F20008D6F8A6B8B6B876B20EE04F08D51D926F9
:101F30008E51DA22DECF85F0DDCF86F020EE1CF068
:101F40008551D9268651DA22DF508C6F8C5101E100
:101F5000CCD020EE02F08D51D9268E51DA22DF50FE
:101F6000896F20EE01F08D51D9268E51DA22DF5093
:101F7000886F89A744D08851020A0BE120EE06F051
:101F80008D51D9268E51DA22E00EDE6E2E0EDD6ED8
:101F900036D020EE06F08D51D9268E51DA22DE524F
:101FA000DD50800A800F010ED8B4DF5C010ED8A08E
:101FB000020E886F20EE06F08D51D9268E51DA225E
:101FC000DECF81F0DDCF82F08251800AF36E7B0E8E
:101FD000F35C000ED8B4815D09E220EE06F08D516D
:101FE000D9268E51DA22DE6A050EDD6E20EE06F06D
:101FF0008D51D9268E51DA22DE06000EDD5A89A9CE
:1020000008D08DC0D9FF8EC0DAFFDF508815D8A464
:10201000888F8DC0D9FF8EC0DAFF88C0DFFF89A10D
:1020200022D020EE03F08D51D9268E51DA22DF50D6
:102030008C1910E08C51020A0DE16CD8DF6208D0D7
:1020400020EE01F08D51D9268E51DA22020E01D0F8
:1020500061D8DF6E20EE03F08D51D9268E51DA2241
:102060008CC0DFFF42D089A533D020EE01F08D5126
:10207000D9268E51DA22020EDF6E8C51020A35E12A
:102080008B518A1105E18EC08BF08DC08AF02DD066
:1020900020EE18F08551D9268651DA22DECF81F064
:1020A000DDCF82F020EE04F08A51D9268B51DA225E
:1020B00010EE18F0DE50E126DD50E222E6CF83F08C
:1020C000E5CF84F08151835D82518459DCE30DD0EA
:1020D0008C51020A02E11ED807D020EE01F08D518A
:1020E000D9268E51DA22020EDF6E080E8D27000EE1
:1020F0008E23872B0C0E876517D78B518A11D8B486
:10210000120020EE01F08A51D9268B51DA22010EFD
:10211000DF6E010C20EE01F08D51D9268E51DA22AE
:10212000010C00F0B2EC22F053EC0DF086EC21F043
:10213000020E0001AE6FB00EAD6F0C0EC9D8ACEC44
:102140001EF0020E0001AE6FD40EAD6F450EC0D86A
:10215000ACEC1EF0030E0001AE6F6C0EAD6F240EE2
:10216000AF6F340EB06FF20EB26F1C0EB16F080E6F
:10217000B36FACEC1EF0020E0001AE6F680EAD6FD7
:10218000050EAF6FB06BDC0EB26F520EB16F140E56
:10219000B36FACEC1EF0020E0001AE6F8C0EAD6F93
:1021A000050EAF6FB0D8ACEC1EF0030E0001AE6FA1
:1021B000000EAD6F550EB0D8030EB36FACEC1EF031
:1021C000030E0001AE6F900EAD6F050EA5D8020E86
:1021D000B36FACEC1EF0030E0001AE6F480EAD6F96
:1021E000AF6B91D8ACEC1EF0030E0001AE6F240E65
:1021F000AD6FAF6BB06BDC0EB26F520EB16F160EDF
:10220000B36FACEC1EF0140E836F080E2AEC21F0B5
:1022100069D893EC17F0140E836F410E2AEC21F06D
:1022200061D893EC17F0270E836F030E2AEC21F090
:10223000010160D8FF0EC96F5A0EC86FB7EC00F0ED
:102240003BD8EEEC22F0270E836F3C0E2AEC21F0F7
:10225000010150D8FF0EC96F500EC86FB7EC00F0E7
:102260002BD8EEEC22F0010E0101166F156F146FE2
:10227000136F00F000F00A0E5AEC24F051EC06F057
:1022800025EC19F0C6EC14F081EC15F072EC24F09A
:1022900083EC1DF000F000F0ABB402D0ABA203D091
:1022A000AB9800F0AB888B9AD1A0D1800400F2AE3D
:1022B000F28E79EC1FF0E2D7010E0001A56F9C0EA3
:1022C000A46FDC0EA76F520EA66F010EA86F010C53
:1022D000AF6F1B0EB06FDC0EB26F520EB16F050EFA
:1022E000B36F050CFD0E0001906FA00E8F6F010EF5
:1022F000916F200C010EC56F9C0EC46FFF0EC76F4F
:10230000FB0EC66F1200090EB06FDC0EB26F520EDC
:10231000B16F160EB36F160CAF6F330EB06FF20EB7
:10232000B26F1C0EB16F12000001B36F6D0EB3657A
:1023300065D00A0E856F640E816FB3517FEC23F078
:102340000AEC23F0A76FA86BD890A737A837D890CE
:10235000A737A837240EA727000EA823A70EA72566
:10236000F66EC40EA82197EC0BF0640E856FB35186
:102370000AEC23F0ABD8480E9FD8A8EC0BF01EEC6B
:1023800018F090C0AFF091C0B0F092C0B1F093C01F
:10239000B2F00A0E816FB3517FEC23F0A76FA86BE8
:1023A000D8907FD897EC0BF0AFC090F0B0C091F010
:1023B000B1C092F0B2C093F01EEC18F090C0ABF038
:1023C00091C0ACF092C0ADF093C0AEF0ABC090F055
:1023D000ACC091F0ADC092F0AEC093F0946B956B31
:1023E000966B3F0E976F1EEC18F090C0A3F091C053
:1023F000A4F092C0A5F093C0A6F012000A0EB36537
:1024000036D0816FB3517FEC23F0A76FA86BD890C3
:1024100048D897EC0BF00A0E856FB3510AEC23F005
:1024200055D8240E49D8A8EC0BF01EEC18F090C03B
:10243000AFF091C0B0F092C0B1F093C0B2F0AFC0B5
:1024400090F0B0C091F0B1C092F0B2C093F0946B34
:10245000956B966B3F0E976F1EEC18F090C0A3F033
:1024600091C0A4F092C0A5F093C0A6F01200B351A1
:10247000040DA70EF324F66EC40EF420F76EA8EC3C
:102480000BF0946B956B966B3F0E976F1EEC18F0EC
:1024900090C0A3F091C0A4F092C0A5F093C0A6F0A4
:1024A0001200A737A837D890A737A837A70EA725B7
:1024B000F66EC40EA8211200A927000EAA23A70EAB
:1024C000A925F66EC40EAA21F76E1200A96FAA6B99
:1024D000D890A937AA37D890A937AA371200B4C024
:1024E000BCF0B5C0BDF0B6C0BEF0B7C0BFF0180EAE
:1024F00001D0BCD8E82EFDD7BC51C26FB8C0BCF02B
:10250000B9C0BDF0BAC0BEF0BBC0BFF0180E01D05C
:10251000ADD8E82EFDD7BC51C16FC25109E0C15101
:10252000C25D0FE2C251C15DBC6F210EBC5D09E30B
:10253000B8C0B4F0B9C0B5F0BAC0B6F0BBC0B7F01F
:102540001200C15109E0C251C15D0FE2C151C25D2B
:10255000BC6F210EBC5D09E3B4C0B4F0B5C0B5F0EA
:10256000B6C0B6F0B7C0B7F01200060EC06FB7BF66
:10257000C08FBBBFC08DB68FB76BBA8FBB6BC1515D
:10258000C25D1AE2D890B837B937BA37BB37C1073E
:10259000C151C2190DE0C007C0C0BCF0070EBC1786
:1025A00007E0F0D7D890B733B633B533B433C22B86
:1025B000C151C263F7D71CD0C251C15D19E2D89096
:1025C000B437B537B637B737C207C151C2190DE0B6
:1025D000C007C0C0BCF0070EBC1707E0F0D7D8900A
:1025E000BB33BA33B933B833C12BC151C263F7D748
:1025F000C0AF09D0B41FB51FB61FB71FB42B000E54
:10260000B523B623B723C0AD02D0B81F26D8C06B00
:10261000B451B827B551B923B651BA23B751BB232A
:10262000BBAF04D0B81F19D8010EC06FB8C081F07D
:10263000B9C082F0BAC083F0BBC084F0C2C085F0DC
:10264000C0C086F027EC1CF081C0B4F082C0B5F0A9
:1026500083C0B6F084C0B7F01200B91FBA1FBB1F09
:10266000B82B000EB923BA23BB23000CD890BF337C
:10267000BE33BD33BC33120044C0D9FF45C0DAFFBE
:10268000DECF46F0DDCF47F020EE04F04450D926EF
:102690004550DA22DECF48F0DDCF49F04650485CA5
:1026A0004A6E475049584B6E4B50800AF36E800E6D
:1026B000F35C000ED8B44A5C02E24A6A4B6A20EE30
:1026C00018F04450D9264550DA224AC0DEFF4BC0EC
:1026D000DDFF65D07BD8D8B4DF1804E18BD820EEBD
:1026E0001AF080D820EE04F04450D9264550DA2262
:1026F00044C0E1FF45C0E2FFDECFE6FFDECFE6FFEC
:10270000DECFE6FFDDCFE5FF56D020EE12F04450DD
:10271000D9264550DA22DECF46F0DDCF47F04A50C9
:10272000465C4B5047580CE251D8D8B4DF180BE147
:1027300020EE1CF04450D9264550DA22020EDF6EFE
:1027400020EE1AF04FD845C03CF044C03BF03E6A42
:10275000080E3D6EDBEC1CF02ED020EE14F0445041
:10276000D9264550DA22DECF46F0DDCF47F046507D
:102770004A5C47504B5805E229D8D8B4DF1804E129
:1027800039D820EE1AF02ED845C03CF044C03BF0BA
:10279000030E3E6E200E3D6EDBEC1CF00CD020EEE6
:1027A0001CF04450D9264550DA22DF5093E0010A4C
:1027B000ACE0030AD2E020EE04F04450D9264550A4
:1027C000DA22DE6ADE6ADE6ADD6A120020EE1AF0C4
:1027D0004450D9264550DA22DE06000EDD5AD92AA9
:1027E000DD1CFF0C4450D9264550DA22080EDE6E5F
:1027F000DD6A080C20EE1CF04450D9264550DA2240
:10280000010EDF6E010C8E6F8E51200D000EF32431
:102810008F6F060EF420906F8851800A800F010E92
:10282000D8B4875D1AE320EE12F08F51D92690516B
:10283000DA2287C0DEFF88C0DDFF883588318D6FE2
:1028400087318C6F20EE14F08F51D9269051DA2207
:102850008CC0DEFF8DC0DDFF14D020EE12F08F5152
:10286000D9269051DA224C0EDE6E040EDD6E20EE7B
:1028700014F08F51D9269051DA22260EDE6E020E08
:10288000DD6E20EE08F08F51D9269051DA2281C0FA
:10289000DEFF82C0DDFF20EE0AF08F51D926905175
:1028A000DA2283C0DEFF84C0DDFF20EE1DF08F51F1
:1028B000D9269051DA2285C08CF0010E8D6F8C2BB9
:1028C00002D0D8908D378C2FFCD78D51DF6E20EE43
:1028D0001EF08F51D9269051DA2286C0DFFF20EEFC
:1028E0001CF08F51D9269051DA22DF6A20EE1AF0BF
:1028F0008F51D9269051DA223A0EDE6EDD6A8A5166
:10290000800A800F010ED8B4895D0BE320EE10F031
:102910008F51D9269051DA2289C0DEFF8AC0DDFFAF
:1029200009D020EE10F08F51D9269051DA22200ED6
:10293000DE6EDD6A20EE10F08F51D9269051DA223A
:1029400010EE0EF08F51E1269051E222DECFE6FF2D
:10295000DDCFE5FF20EE18F08F51D9269051DA2215
:10296000DE6ADD6A20EE04F08F51D9269051DA221A
:10297000DE6ADE6ADE6ADD6A20EE0CF08F51D9264F
:102980009051DA22000EDE6EDD6E000C95D000F064
:10299000010E0001D86FFCEC21F0F2AE03D0010E65
:1029A000D96F01D0D96BF29E2DC1D1F02EC1D2F0DA
:1029B000010ED46FE60ED36F92D8820EF35CEE0E4A
:1029C000D8B4C95D04E2D905D8B4F28E12002DC185
:1029D000D1F02EC1D2F0D905D8B4F28E00F03BEC84
:1029E00016F0C3C0CDF0C4C0CEF0C5C0CFF0C6C095
:1029F000D0F000F000F000017FD8D8B4DE18700EDF
:102A0000D8B4DE18C20ED8B4DE181EE075D8D8B41B
:102A1000DE18AA0ED8B4DE18420ED8B4DE1814E0C0
:102A2000F2AE03D0010ED96F01D0D96BF29ECDC0AA
:102A3000E2F1CEC0E3F1CFC0E4F1D0C0E5F1D905B9
:102A4000D8B4F28EDA6B15D0DA2B040EDA6511D019
:102A5000DA6BF2AE03D0010ED96F01D0D96BF29EC2
:102A60000101E26BE36BE46BE56B0001D905D8B4BF
:102A7000F28EF2AE03D0010ED96F01D0D96BF29E67
:102A80002DC1D1F02EC1D2F0010ED46FFE0ED36F46
:102A900026D8800EF35C640ED8B4C95D04E2D90573
:102AA000D8B4F28E12002DC1D1F02EC1D2F0D905CA
:102AB000D8B4F28E00F06BD70001D3C0C9F0D4C0F7
:102AC000CAF0CA5103E0010A03E061D7C9515FD7D8
:102AD000C951E60A01E170D7180ADAE058D72DC1CA
:102AE000C9F02EC1CAF00001D151C95FD251CA5BF1
:102AF000CA51800AF36E120020EECDF0000EDE18EF
:102B0000000C000E13EC24F00009D8B4120000F001
:102B100000F0010E0101336F3951420A14E14051B6
:102B2000310A06E10A0E5AEC24F0010E0101021BE3
:102B30004551310AD8A412000A0E5AEC24F0010EB5
:102B40000101031B010C040E0101C56F640EC46F6B
:102B5000FF0EC76F620EC66F00C1C8F1C96B01C11D
:102B6000CAF1CB6B03C1CCF1CD6B02C1CEF1CF6BFF
:102B700004C1D0F1D16B05C1D2F1D36B06C1D4F140
:102B8000D56B07C1D6F1D76B08C1D8F1D96BB7ECBB
:102B900000F0040E0001856F640E846FDEEC23F0FC
:102BA00060D841C1C8F1C96B42C1CAF1CB6B44C105
:102BB000CCF1CD6BB7EC00F0010E0001B06F9C0EB4
:102BC000AF6FF0EC23F0AFC009F1B0C00AF1B1C0B3
:102BD0000BF1B2C00CF145D849C1C8F1C96B4AC16B
:102BE000CAF1CB6B4CC1CCF1CD6BB7EC00F0010E50
:102BF0000001B06F9C0EAF6FF0EC23F0AFC00DF191
:102C0000B0C00EF1B1C00FF1B2C010F101015251CC
:102C1000310A03E1010E116F01D0116B5851300AD6
:102C200003E1010E126F01D0126B5E51310A03E114
:102C3000010E136F04D05E51300AD8B4136B645187
:102C4000310A03E1010E146F04D06451300AD8B484
:102C5000146B6A51310A03E1010E176F010C176BF7
:102C600012000101010EC56F9C0EC46FFF0EC76FED
:102C7000C40EC66F1200D8C0C7F0010E0001C86FA5
:102C8000C72B02D0D890C837C72FFCD7C851941291
:102C900085EC1CF0000907E0CC0EFCEC1AF0BE0E2F
:102CA000FCEC1AF002D0000E87D00101CA6BCB6B8E
:102CB0008AD830EC1DF0DF6E010185D8DF50CA19CB
:102CC0000001C76FC86BA70EC725F66EC30EC821DB
:102CD000F76EF86A000EF82208000101F5CFCAF17C
:102CE000CB2B080ECB65E4D7CA6702D01F6703D091
:102CF000000E000161D0185119C1C7F00001C86B66
:102D0000C7C0C8F0C76BC7110101C46F0001C8512B
:102D10000101C56F0F0EC41500018B6F8C6B48EC61
:102D200022F08BC090F08CC091F08DC092F08EC0DC
:102D300093F0946B956B800E966F3D0E976F1EEC23
:102D400018F090C0C6F191C0C7F192C0C8F193C00D
:102D5000C9F1C6C1B4F0C7C1B5F0C8C1B6F0C9C1A8
:102D6000B7F0040E0001C76F0101C535C533C43388
:102D70000001C72FF9D7C4C18BF0C5C18CF048EC56
:102D800022F08BC0B8F08CC0B9F08DC0BAF08EC004
:102D9000BBF06FEC12F0B4C0C6F1B5C0C7F1B6C05D
:102DA000C8F1B7C0C9F1C6C1C3F0C7C1C4F0C8C13A
:102DB000C5F0C9C1C6F01200C36FC46F700EC56FF5
:102DC000C20EC66FC20C180ECB25D96EDA6A010E80
:102DD000DA2212002050200D000EF3240001786F3B
:102DE000060EF420796F070E746F400E736F20503B
:102DF0000A0A05E1060E766F000E756F06D0200EEA
:102E00007825756F000E7921766F776B20EE1CF0B8
:102E10007851D9267951DA22DF506E6F6EBF54D0C7
:102E200079C03CF078C03BF076C03EF075C03DF014
:102E300075EC0EF03BC071F03CC072F061D86F5180
:102E4000800A706F71516E5D7251800A70590AE28A
:102E500020EE0CF07851D9267951DA22DE2A000EC4
:102E6000DD2203D020EE0CF056D84AD820EE04F034
:102E70007851D9267951DA226E51DE266F51DE2241
:102E8000000E6FBFFF0EDE22DD2220EE0EF043D8D3
:102E9000D92ADD1CFF0ED8B4DF1816E179C045F041
:102EA00078C044F03CEC13F020EE10F07851D926B5
:102EB0007951DA2210EE0EF07851E1267951E222B2
:102EC000DECFE6FFDDCFE5FF79C076F078C075F0A4
:102ED0007451791902E17351781905E1060E796F81
:102EE000000E786F04D0200E7827000E7923772B00
:102EF0000A0E77658BD7202A20640A0C206A1200FC
:102F000020EE0CF07851D9267951DA22DECF6EF01E
:102F1000DDCF6FF012007851D9267951DA22DE0622
:102F2000000EDD5A000C946F9B6B8FC0F6FF90C0B3
:102F3000F7FFF86A0800F5CF95F08F296BD8F5CF29
:102F400096F0E00E9425A26FA36BFF0EA323A2C000
:102F500081F0A3C082F0020E8F255CD8F550836FFC
:102F6000846BB8EC23F081C0A2F082C0A3F0030E02
:102F7000A227000EA32359D892C0F6FF93C0F7FFF3
:102F8000F86A0800F5CF9EF050D89229976F000E8E
:102F90009321986FDCC09DF0DBC09CF09DC09FF03A
:102FA0009A6B2ED09CC0A0F0A16B996B24D0A16726
:102FB0000CD097C0F6FF98C0F7FFF86A0800F5CF6D
:102FC0009BF0974B982B800EA16F9B51A1150FE0A2
:102FD000910506E19FC08AF0A051AFEC21F007D027
:102FE000916705D09FC08AF0A05159EC21F0A02B29
:102FF000D890A133992B9651995DD9E39F2B9A2BA9
:1030000095519A5DCFE39C519E25DB6F9DC0DCF00E
:103010009E511200926F000E9021936F92C0F6FFA6
:1030200093C0F7FFF86A080012008FC092F090C0BA
:1030300093F0A2519227A3519323120090C098F0CD
:1030400091C099F092C09AF093C09BF0180E01D0F5
:1030500073D8E82EFDD798519C6F00019C6705D06E
:10306000906B916B926B936B120094C098F095C02B
:1030700099F096C09AF097C09BF0180E01D05CD8DA
:10308000E82EFDD79851A26F0001A26705D0906B82
:10309000916B926B936B1200A2517B0F9C2793C094
:1030A000A2F09751A21B800EA217928F968F976B5A
:1030B0009D6B9E6B9F6BA06B070EA16F90A102D0C2
:1030C00094512BD832D89437953796379737A12F0C
:1030D000F5D7110EA16F90A102D094511ED825D81A
:1030E000A0339F339E339D33A12FF5D79DC081F030
:1030F0009EC082F09FC083F0A0C084F09CC085F089
:10310000A2C086F027EC1CF081C090F082C091F044
:1031100083C092F084C093F012009D2795519E23A6
:1031200096519F239751A0231200D8909333923346
:1031300091339033D8901200D8909B339A339933BF
:103140009833120081C089F082C08AF083C08BF06E
:1031500084C08CF0180E01D072D8E82EFDD78951AA
:10316000926F0001926705D0816B826B836B846BD9
:10317000120085C089F086C08AF087C08BF088C0B5
:103180008CF0180E01D05BD8E82EFDD78951916FD5
:103190000001916701D0E8D7838F846B878F886B9C
:1031A0008D6B8E6B8F6B906B7F0E925F9151A00F2A
:1031B000925F200E916FD8908D378E378F37903772
:1031C0008551815D8651825987518359885184592F
:1031D00009E38551815F8651825B8751835B88510A
:1031E000845B8D81D8908137823783378437912FE4
:1031F000E2D792AF0FD09251800A896FE10E800A18
:10320000895DB2E3D89090338F338E338D33923F04
:10321000F9D70CD01F0E926507D0A6D7D8908D375E
:103220008E378F37903792079267F8D78DC081F02D
:103230008EC082F08FC083F090C084F01200D890CE
:103240008C338B338A3389331200A8EC24F00201CB
:10325000380509E10A0E5AEC24F0010E0101021BA7
:10326000050E89EC24F00201400509E10A0E5AEC32
:1032700024F0010E0101031B040E89EC24F002016D
:1032800030050BE10A0E5AEC24F0010E0101001B7F
:1032900000B102D08A9E01D08A8E020100050BE1A6
:1032A0000A0E5AEC24F0010E0101011B01B102D0FB
:1032B0008A9C01D08A8C0201080506E10A0E5AECAC
:1032C00024F0010E0101041B0201480508E101017F
:1032D000085105E00A0E5AEC24F00101080702012A
:1032E000500509E1030E0101085D05E20A0E5AECE2
:1032F00024F00101082B0201200509E10A0E5AEC15
:1033000024F001010751010ED8A4000E076F02013D
:103310002805D8A412000A0E5AEC24F00101075126
:1033200004E000018F6B906B05D0000E0001906FE0
:10333000020E8F6F8FC007F112008BC093F08CC00C
:1033400094F08DC095F08EC096F0180E01D067D81D
:10335000E82EFDD793519C6F00019C6705D08B6BC5
:103360008C6B8D6B8E6B12008FC093F090C094F0BD
:1033700091C095F092C096F0180E01D050D8E82E6A
:10338000FDD793519D6F00019D6705D08B6B8C6BB2
:103390008D6B8E6B12009D51890F9C5F8EC09DF0CE
:1033A00092519D1B800E9D178D8F8E6B918F926B0E
:1033B000200E9B6FD8909737983799379A378F514F
:1033C0008B5D90518C5991518D5992518E5909E3D1
:1033D0008F518B5F90518C5B91518D5B92518E5BC5
:1033E0009781D8908B378C378D378E379B2FE2D7CC
:1033F00097C081F098C082F099C083F09AC084F0A1
:103400009CC085F09DC086F027EC1CF081C08BF03D
:1034100082C08CF083C08DF084C08EF01200D890F2
:1034200096339533943393331200AA6BAB6B53D816
:103430002AEC21F00001AC6B0BD05BD8916B42D829
:10344000D96E000EA921DA6EDF5093EC17F0AC2B89
:103450005BD8F3E340D82AEC21F0ABC0ACF02DD020
:10346000AC51A625D96E000EA721DA6EDF5002E11D
:10347000010EAA6FAA670ED0AC51A625D96E000E18
:10348000A721DA6E1FD8E16E000EA921E26EDFCF10
:10349000E7FF07D017D8D96E000EA921DA6E200EEB
:1034A000DF6E27D8010E916F0DD8D96E000EA921BD
:1034B000DA6EDF5093EC17F0AC2B000125D8D8B0B2
:1034C0001200CED7AC51A425A86F000EA521A96F7C
:1034D000050EA825120020EE01F0A451D926A55111
:1034E000DA22DF50836FA4C0D9FFA5C0DAFFDF5016
:1034F000120020EE03F0A451D926A551DA22DECF26
:103500008FF0DDCF90F0120020EE02F0A451D9260A
:10351000A551DA22DF50AC5D1200000183C089F0B2
:103520008A6B8B6B8235893701E38A818951916F70
:103530000001916705D0816B826B836B846B1200F5
:1035400087C089F08A6B8B6B8635893701E38A8166
:103550008951906F0001906701D0EDD7828F836B06
:10356000868F876B8C6B8D6B8E6B8F6B7F0E915FF5
:103570009051980F915F180E906FD8908C378D37BF
:103580008E378F378551815D865182598751835996
:1035900007E38551815F8651825B8751835B8C8114
:1035A000D890813782378337902FE7D791AF0FD0EC
:1035B0009151800A896FE90E800A895DBCE3D89039
:1035C0008F338E338D338C33913FF9D70CD0170E58
:1035D000916507D0B0D7D8908C378D378E378F371D
:1035E00091079167F8D78CC081F08DC082F08EC0B2
:1035F00083F08FC084F01200856F000EF2BE010EC2
:10360000D66FF29E54D88B12866BD8C083F0010E11
:10361000846F832B02D0D8908437832FFCD7841DEE
:103620009416D8C083F0010E846F832B02D0D890FB
:103630008437832FFCD7841D8B16826B050E816F18
:1036400066EC24F086C083F0010E846F832B02D0D9
:10365000D8908437832FFCD78451851503E027D871
:103660008B120CD0D8C083F0010E846F832B02D054
:10367000D8908437832FFCD7841D8B16826B4E0E17
:10368000816F66EC24F013D88B12826B3C0E816F35
:1036900066EC24F0862B070E8665B7D7D6A101D03D
:1036A000F28ED6B101D0F29E02D894121200D8C088
:1036B00083F0010E846F832B02D0D8908437832F40
:1036C000FCD784511200BF6BB951800A800F08E10A
:1036D000000EB85D05E1000EB75D02E1000EB65DBB
:1036E00003E24BD8010EBF6FBD51800A800F08E185
:1036F000000EBC5D05E1000EBB5D02E1000EBA5D8F
:1037000008E2BD1FBC1FBB1FBA6D000EBB23BC234C
:10371000BD23BD51BA11BB11BC1123E0010EBE6F18
:1037200006D0D890BA37BB37BC37BD37BE2BBDAF3C
:10373000F8D7BA51B65DBB51B759BC51B859BD5154
:10374000B95908E3BA51B65FBB51B75BBC51B85B1E
:10375000BD51B95BD890BD33BC33BB33BA33BE2F38
:10376000E8D7BF5101E009D8B6C0B6F0B7C0B7F08E
:10377000B8C0B8F0B9C0B9F01200B91FB81FB71F70
:10378000B66D000EB723B823B923000C0001ACC0FE
:10379000B0F0ADC0B1F0AEC0B2F0AFC0B3F0180E33
:1037A00001D04FD8E82EFDD7B051B56F0001B567F5
:1037B00005D0AC6BAD6BAE6BAF6B1200ACC0B0F0B4
:1037C000ADC0B1F0AEC0B2F0AFC0B3F0200E01D0CA
:1037D00038D8E82EFDD7B051B46FAE8FAF6B960ED0
:1037E000B55FB5AF0FD0B551800AB06FE90E800A52
:1037F000B05DDFE3D890AF33AE33AD33AC33B53F1C
:10380000F9D70CD01F0EB56507D0D3D7D890AC37F9
:10381000AD37AE37AF37B507B567F8D7B45108E065
:10382000AF1FAE1FAD1FAC6D000EAD23AE23AF2397
:10383000ACC0ACF0ADC0ADF0AEC0AEF0AFC0AFF05C
:103840001200D890B333B233B133B0331200855184
:1038500005E0845181118211831107E1816B826B34
:10386000836B846B1200852B4AD8876B886B896BBE
:10387000FE0E84158A6F8A5187118811891108E01C
:10388000F2D7852B812B000E82238323842337D804
:10389000876B886B896B84518A6F8A518711881175
:1038A000891107E0EED78507D890813782378337B3
:1038B000843783AFF8D785B102D07F0E8317D890B5
:1038C000853385C087F0886B896B8A6B87C08AF0E7
:1038D000896B886B876B875181138851821389515B
:1038E00083138A5184138651D8A4848F81C081F0B8
:1038F00082C082F083C083F084C084F01200D8902C
:10390000843383338233813312004FD802D0D8906E
:103910008437832FFCD7841D941600F0D8C083F021
:10392000010E0001846F832B02D0D8908437832F3F
:10393000FCD7841D8B16010E826F270E816F66ECFB
:1039400024F0010E826F270E816F66EC24F0000ECA
:10395000F2BE010ED66FF29E28D802D0D8908437DE
:10396000832FFCD784519412826B4E0E816F66ECCC
:1039700024F01BD802D0D8908437832FFCD78451F1
:103980008214010ED8A4000E856FD6A101D0F28E4C
:10399000D6B101D0F29E010E826F270E816F66ECC8
:1039A00024F0855101E0010C000CD8C083F0010E19
:1039B000846F832B010C20EE16F03B50D9263C502F
:1039C000DA22DFCF3FF0DE2ADFCF40F0000EDD222B
:1039D0003D503F5C3E504058D8A0120020EE16F0FB
:1039E0003B50D9263C50DA22000EDE6EDD6E030E0F
:1039F0003F6E3BC0D9FF3CC0DAFF1AD8DE5E4150B3
:103A0000DE5A4250DE5A4350DD5A030E3F6E20EE1E
:103A100004F03B50D9263C50DA220AD8DE26415029
:103A2000DE224250DE224350DD22DD52DD52120002
:103A3000DECF40F0DECF41F0DECF42F0DECF43F00C
:103A40003F6601D007D043344332423241324032E4
:103A50003F2EF6D73BC0D9FF3CC0DAFF40501200E2
:103A60000001856B000EF2BE010ED66FF29E3FD8AC
:103A70008B12866BD8C083F0010E846F832B02D02B
:103A8000D8908437832FFCD7841D9416D8C083F038
:103A9000010E846F832B02D0D8908437832FFCD7FC
:103AA000841D8B16826B050E816F66EC24F01FD887
:103AB0009412826B100E816F66EC24F0D8908533DF
:103AC00016D8821402E0858F01D0859F826B4E0E3E
:103AD000816F66EC24F0862B070E8665CBD7D6A1C6
:103AE00001D0F28ED6B101D0F29E85511200D8C01D
:103AF00083F0010E846F832B02D0D8908437832FFC
:103B0000FCD78451120001011451161910E014C1A0
:103B100016F1146706D0010E056F266A010E026FBA
:103B200006D0026B130503E1266601D0056B135125
:103B3000151910E013C115F1136706D0010E056FBA
:103B4000266A010E036F06D0036B140503E1266697
:103B500001D0056B020110050BE10A0E5AEC24F0AE
:103B60000101056703D0010E061B02D0056B066B31
:103B700002011805D8A412000101065106E00A0E40
:103B80005AEC24F00101066B1200056712000A0EC0
:103B90005AEC24F01F0E0101056F010E266E010C78
:103BA00006EE00F011EE60F0EE6AE550E150FCE147
:103BB000E250FAE105EE00F011EE00F0EE6AE55099
:103BC000E150FCE1E250FAE104EE00F0C80EEE6ACA
:103BD000E806FDE103EE00F0B40EEE6AE806FDE152
:103BE00002EE00F0F80EEE6AE806FDE101EE00F0EC
:103BF000C40EEE6AE806FDE100EECDF0110EEE6AAD
:103C0000E806FDE100EE01F0280EEE6AE806FDE1AF
:103C1000FC0EF66E480EF76E000EF86E01EEE2F046
:103C200010EE15F00900F5CFEEFFE550E150FAE196
:103C3000000191EF10F08C6B8A51800AF36E800EB8
:103C4000F35C000ED8B4895D06E2896D8A1FD8B096
:103C50008A2B010E8C6F8851800AF36E800EF35C04
:103C6000000ED8B4875D06E2876D881FD8B0882B18
:103C7000010E8C1B8D6B8E6B8A5189111BE0010E1E
:103C80008B6F04D0D89089378A378B2B8AAFFAD7BD
:103C9000D8908D378E378951875D8A51885905E3D1
:103CA0008951875F8A51885B8D81D8908A338933A7
:103CB0008B2FEED78C5104E08D6D8E1FD8B08E2BDC
:103CC0008DC087F08EC088F01200856F8551080D79
:103CD000000EF3240001866F020EF420876F86C069
:103CE000D9FF87C0DAFF820EDF6E20EE01F0865129
:103CF000D9268751DA22020EDF6E20EE02F08651BD
:103D0000D9268751DA2282C0DFFF8151200D000EB3
:103D1000836F060E846FF3508327F450842320EEC4
:103D200004F08651D9268751DA2283C0DEFF84C091
:103D3000DDFF20EE06F08651D9268751DA22E00E0B
:103D4000DE6E2E0EDD6E20EE03F08651D9268751F1
:103D5000DA22010EDF6E010C20EE02F0AD51D92601
:103D6000AE51DA22B3C0DFFF20EE03F0AD51D92609
:103D7000AE51DA22B1C0DEFFB2C0DDFFADC0D9FF67
:103D8000AEC0DAFFAFC0DFFF20EE01F0AD51D926A3
:103D9000AE51DA22B0C0DFFFB66B0FD0B651AD2501
:103DA000B46F000EAE21B56F050EB425D96E000EAE
:103DB000B521DA6E200EDF6EB62B20EE02F0AD518B
:103DC000D926AE51DA22DF50B65DE8E3AEC0A5F0E9
:103DD000ADC0A4F0050EAD25A66F000EAE21A76FF5
:103DE00015EF1AF0DACF7EF0F3CF7FF0F4CF80F04A
:103DF0009DB29EA215D01B4A1C2A01012D4B2E2BD1
:103E0000114A122AE90E115C030E125805E3116AD9
:103E1000126A010E9AEC24F0EAEC16F0BC6A9E924B
:103E20007DB07EA017D01450131010E01306D8A058
:103E3000140689881F2A1F0400017A6F7AA102D014
:103E4000899801D0898800F000F001D089980F018D
:103E5000536B7E9080C0F4FF7FC0F3FF7EC0DAFF1B
:103E60007DC0D9FF7CC0E2FF7BC0E1FF1100866B03
:103E70008251800AF36E800EF35C000ED8B4815D2F
:103E800006E2816D821FD8B0822B010E866F8451AD
:103E9000800AF36E800EF35C000ED8B4835D04E2FA
:103EA000836D841FD8B0842B8451831117E0010ED9
:103EB000856F04D0D89083378437852B84AFFAD7A9
:103EC0008351815D8451825904E38351815F845120
:103ED000825BD89084338333852FF2D7865104E0F8
:103EE000816D821FD8B0822B81C081F082C082F0A8
:103EF00012000001816B8151010FD96EDA6A020E46
:103F0000DF6205D08151010FD96EDA6ADF6A815113
:103F1000010FD96EDA6A010EDF6203D08151010F01
:103F200020D8812B070E8165E6D7816B8151D50F93
:103F3000D96EDA6A020EDF6205D08151D50FD96ED3
:103F4000DA6ADF6A8151D50FD96EDA6A010EDF6253
:103F500003D08151D50F05D8812B8151D8A41200EF
:103F6000E5D7D96EDA6A020EDF6E020C896B8A6BB6
:103F70008B6B8C6B885185118611871129E0010E9E
:103F80008D6F06D0D89085378637873788378D2B49
:103F900088AFF8D7D89089378A378B378C378551D7
:103FA000815D86518259875183598851845909E32B
:103FB0008551815F8651825B8751835B8851845B29
:103FC0008981D89088338733863385338D2FE2D724
:103FD00089C081F08AC082F08BC083F08CC084F0ED
:103FE00012000001A46FA46718D0170E836F2C0E67
:103FF0002AEC21F0FF0E0001906F070E8F6F916B7E
:10400000200E93EC17F0170E836F2C0E2AEC21F084
:10401000FE0E0001906FA20E17D0170E836F2C0EAC
:104020002AEC21F0FE0E0001906FA20E8F6F916BB3
:10403000200E93EC17F0170E836F2C0E2AEC21F054
:10404000FF0E0001906F070E8F6F010E916F200E13
:1040500093EF17F020EE01F0A451D926A551DA22F2
:10406000DF50836FA4C0D9FFA5C0DAFFDF502AEC70
:1040700021F00001A86B1BD020EE03F0A451D9263B
:10408000A551DA22DECF8FF0DDCF90F0916BA851F1
:10409000A425A66F000EA521A76F050EA625D96E33
:1040A000000EA721DA6EDF5093EC17F0A82B20EE5C
:1040B00002F0A451D926A551DA22DF50A85DD8B06C
:1040C0001200DAD70001876F8C6A9568400EDB5DBD
:1040D00003E28B868B9405D03F0EDB6502D08B9676
:1040E0008B848D828D84896B01D0892B070E896525
:1040F000FCD78D80896B01D0892B070E8965FCD791
:1041000083CF88F08D90896B01D0892B070E89654C
:10411000FCD7956A876702D0DB2B05D0DCC083F023
:10412000DB512AEC21F000018851120022D029C075
:10413000D9FF2AC0DAFFDF500AE025D8F5CF2FF0EB
:1041400029C0D9FF2AC0DAFFDF502F180EE029C09E
:10415000D9FF2AC0DAFFDF502F6E15D8F5502F5C3B
:10416000296E2A6AD8A02A061200294A2A2A2B4A2E
:104170002C2A2D06D8A02E062D28D8B42E28D7E11B
:10418000296A2A6A12002BC0F6FF2CC0F7FFF86AD2
:1041900008001200955192119311941123E0010E21
:1041A000966F06D0D8909237933794379537962BE1
:1041B00095AFF8D792518E5D93518F599451905984
:1041C0009551915908E392518E5F93518F5B9451B1
:1041D000905B9551915BD8909533943393339233A0
:1041E000962FE8D78EC08EF08FC08FF090C090F0E1
:1041F00091C091F012008F6B8E51800A800F08E100
:10420000000E8D5D05E1000E8C5D02E1000E8B5D00
:104210000AE28E1F8D1F8C1F8B6D000E8C238D2349
:104220008E23010E8F6F8BC081F08CC082F08DC009
:1042300083F08EC084F0960E856F8FC086F027ECD9
:104240001CF081C08BF082C08CF083C08DF084C0E4
:104250008EF01200866F846B7F0E866501D0866BB0
:104260003F0E836501D0836B86C0DBF083C0DCF03A
:104270008339E8461F0BDD6F3F0E866504D0400E84
:10428000865F010E846F86514009856F84C081F07E
:104290008551A5EC23F00001DD51B809856F816BD4
:1042A0008551A5EC23F0010E0001816F8551A5EF2A
:1042B00023F08D6F8AC083F08D512AEC21F0010E1E
:1042C00062EC20F08E6F010E62EC20F08E6F8AC0DF
:1042D0008BF016D802D0D8908C378B2FFCD78C510E
:1042E0008E15D8B412008AC08BF00AD802D0D890AC
:1042F0008C378B2FFCD78C1D8E178E516CEF22F0D4
:10430000070E8B17010E8C6F8B2B010C94969494D7
:1043100094909690969296948B90020E6AEC23F06D
:104320008B80010E6AEC23F0DB6BDC6BDD6B816B49
:104330003F0EA5EC23F0010E0001816F3F0EA5ECAE
:1043400023F00001816BC00EA5EC23F0010E0001EB
:10435000816FC00EA5EC23F0000E24EF23F08D6FCB
:104360008AC083F08D512AEC21F0010E62EC20F01E
:104370008E6F010E62EC20F08E6F8AC08BF00AD82F
:104380008E15D8A412008AC08BF004D88E138E51DB
:104390006CEF22F0070E8B17010E8C6F8B2B02D067
:1043A000D8908C378B2FFCD78C511200896B8A6B7D
:1043B0008B6B8C6B81A108D08551892786518A230C
:1043C00087518B2388518C23D89085378637873740
:1043D0008837D89084338333823381338451811179
:1043E00082118311E7E189C081F08AC082F08BC01D
:1043F00083F08CC084F0120085EC1CF0000906E00C
:10440000CC0EFCEC1AF0440EFCEC1AF0826B100E91
:10441000816F66EC24F010D802D0D8908837872FAF
:10442000FCD7881D941608D802D0D8908837872FDB
:10443000FCD788518B121200D8C087F0010E886F0C
:10444000872B010C84AF09D0816D821FD8B0822BDD
:10445000831FD8B0832B800E845788AF09D0856D19
:10446000861FD8B0862B871FD8B0872B800E885721
:10447000800E841B881B8551815D8651825987512E
:1044800083598851845902E2D8901200D8801200D2
:104490008F6B8C51800AF36E800EF35C000ED8B4E3
:1044A0008B5D05E28B6D8C1FD8B08C2B8F2B8BC056
:1044B00081F08CC082F0836B846B960E856F8FC009
:1044C00086F027EC1CF081C08BF082C08CF083C09A
:1044D0008DF084C08EF01200836F7F0EDB6501D0FB
:1044E0007F0C400EDB5D03E28B868B9405D03F0E84
:1044F000DB6502D08B968B84DB51400A05E1010E0F
:10450000816F400EA5EC23F08D928D84956A83C057
:104510008CFF8FEC22F00001DB2B8C6A1200050E61
:104520000001D76F000100F000F000F000F000F093
:10453000D72F93EF22F08D80030E0001D76F00017B
:1045400000F000F000F000F000F0D72FA0EF22F014
:104550008D9000F000F000F000F000F0D72FA9EFF0
:1045600022F0030C0001816B8151010FD96EDA6AD0
:10457000DF6A812B070E8165F7D7816B8151D50FDB
:10458000D96EDA6ADF6A812B8151F8E0816B815143
:10459000090FD96EDA6ADF6A812B030E8165F7D7BE
:1045A000030C800ECA1BC3C0B4F0C4C0B5F0C5C0B4
:1045B000B6F0C6C0B7F0C7C0B8F0C8C0B9F0C9C03F
:1045C000BAF0CAC0BBF06FEC12F0B4C0C3F0B5C013
:1045D000C4F0B6C0C5F0B7C0C6F01200A96BA4C045
:1045E000D9FFA5C0DAFF11D0A7C090F0A6C08FF008
:1045F000A8C091F0AA5193EC17F0A92B0001A95182
:10460000A425D96E000EA521DA6EDF50AA6FAA6725
:10461000EBD71200866F886B855114E0010E876F0F
:1046200003D0D8908537872B85AFFBD7D8908837B4
:104630008551865D03E38551865F8881D8908533F7
:10464000872FF4D7885112000001876F896B895139
:10465000080DF3CF83F0000E2AEC21F00001886BE7
:1046600087516CEC22F0882B7F0E8865F9D7892B57
:10467000070E8965ECD7070C8BC081F08CC082F0E7
:104680008DC083F08EC084F0960E856F000E866B11
:1046900027EC1CF081C08BF082C08CF083C08DF0C1
:1046A00084C08EF012002AC02EF029C02DF004D054
:1046B0002D4A2E2A2B4A2C2A2BC0D9FF2CC0DAFFD8
:1046C0002DC0E1FF2EC0E2FFDFCFE7FFE750D8B4F7
:1046D0001200EED7816F040E826FFA0ED76F0001C1
:1046E00000F000F000F000F000F0D72F70EF23F0A2
:1046F00000F00001822FF1D7812FEDD7FA0C826FE5
:10470000080E836F846BD89082358435846FD8907F
:1047100082378151845D02E38151845F832FF3D717
:1047200084511200000120EE81F0DE50DE10DE1018
:10473000DE1002E0800E841B81C081F082C082F016
:1047400083C083F084C084F01200826F816703D03D
:104750008B868B9404D0810502E18B968B848D929D
:104760008D94956A82C08CFF8FEC22F08C6A1200C7
:1047700081518303F3CF85F0F4CF86F08151840318
:10478000F350862782518303F350862785C081F03A
:1047900086C082F01200286A296A2A6A00F09EBA4E
:1047A00007D0294A2A2A100E295C270E2A58F6E338
:1047B0009EBAA4EF24F0010E286E000C09D084C02C
:1047C000D9FF85C0DAFFDF504EEC24F0844B852BF7
:1047D00084C0D9FF85C0DAFFDF50D8B41200EFD70C
:1047E000B0C0A4F0AFC0A3F0000EA66BA56BF0ECB8
:1047F00008F0A3C0AFF0A4C0B0F0A5C0B1F0A6C04F
:10480000B2F01200836F010E826F8351200A07E01D
:104810000E0E835D03E2090E835DD8A0826B82C019
:1048200081F081311200816F8151010FD96EDA6AF6
:10483000020EDF62000C8151010FD96EDA6A000EA0
:10484000DF6E010C0001836F826B3A0E835D05E21F
:104850002F0E836502D0010E826F82C081F08131FC
:104860001200670EAF6EAC94B896AC98AB8EAB8866
:10487000AB9A9D989D9AAC9CAB9CAC9AAC8A670C09
:10488000C26AC16AC06AC08EC050C70B0809C06E38
:10489000C050F80B0109C06EC2801200836F8BBA42
:1048A00004D08B8A050E6AEC23F0ACA2FED783C03D
:1048B000ADFF12000001816F92988151280DF3CF56
:1048C00013F0F4CF14F0010E236E010C01D000F0B0
:1048D00000018107D8A082078129D8B48229D8B4E1
:1048E0001200F5D71C501E1802E11B501D18D8B439
:1048F00012001BC01DF01CC01EF012000000A041E1
:104900000000C8C2CDCCC742CDCCC7420A0A0A0AB1
:104910000A000001816F8151010FD96EDA6A010E20
:10492000DF6E010C296E2950010FD96EDA6A010E73
:10493000DF6E010C3B6E3B50010FD96EDA6A010E3F
:10494000DF6E010C01D000F09EAAFDD7AE50120020
:104950008CEF0FF0FF00FF00FF00FF00FF00FF00E3
:10C3A000FF00FF00FF0000005EBCE2613FDD83C2D2
:10C3B0009C7E20A3FD1F419DC3217FFCA2401E5FE8
:10C3C00001E3BD3E6082DC237D9FC1421CFEA0E1F3
:10C3D000BF5D0380DE3C62BEE0025CDF81633D7CCA
:10C3E00022C09E1D43A1FF4618FAA427799BC5844D
:10C3F000DA3866E5BB5907DB856739BAE4065819B0
:10C4000047A5FB7826C49A653BD987045AB8E6A7A6
:10C41000F91B45C6987A24F8A6441A99C7257B3A91
:10C420006486D85B05E7B98CD2306EEDB3510F4E00
:10C4300010F2AC2F7193CD114FADF3702ECC92D37F
:10C440008D6F31B2EC0E50AFF1134DCE90722C6D5A
:10C4500033D18F0C52B0EE326C8ED0530DEFB1F061
:10C46000AE4C1291CF2D73CA947628ABF5174908BC
:10C4700056B4EA6937D58B5709EBB536688AD49537
:10C48000CB2977F4AA4816E9B7550B88D6346A2B1E
:10C490007597C94A14F6A8742AC896154BA9F7B619
:10C4A000E80A54D7896B350000803FCDCCCC3D0ADB
:10C4B000D7233C6F12833A17B7D138ACC52737BDA5
:10C4C00037863595BFD63377CC2B325F708930FFF6
:10C4D000E6DB2E08E53C1E6042A20D0000803F0016
:10C4E0000020410000C84200007A4400401C460081
:10C4F00050C347002474498096184B20BCBE4C287A
:10C500006B6E4EF9021550EC78AD60CAF2497117A6
:10C51000205D070000000000000000000000000097
:10C52000000000000000000000000000000000000B
:10C5300000000000000000000000000000000000FB
:10C5400000000000000000000000000000000000EB
:10C5500000000000000000000000000000000000DB
:10C5600000000000000000000000000000000007C4
:10C5700000000000000000000000000000000000BB
:10C58000000000007000000070000000700000005B
:10C5900070000000700000007000000070000000DB
:10C5A000700000007000000070000000000000003B
:10C5B000000000007000000070000000000000009B
:10C5C0000000000000000000000000000900000062
:10C5D00000000000000000000000000000770000E4
:10C5E000007700000077000000770000007700006F
:10C5F000000000000000000000000000000000003B
:10C60000000000000000000000000000000000002A
:10C61000000000000000000000000000000000001A
:10C6200000000000000000000010000000000000FA
:10C6300000000000000000000000000000000318DF
:10C64000000003180000073000001FFC00001FFC62
:10C65000000006300000063000000C6000007FF88B
:10C6600000007FF800000C6000000C60000018C0A3
:10C67000000018C0000000000000000000000000E2
:10C680000000000000000C0000000000000000009E
:10C69000000000000000000000000006000000068E
:10C6A0000000001FC000003FC00000764000007680
:10C6B0000000007E0000003FC000001FE0000007F7
:10C6C000E0000046E0000066E000007FC000003FA0
:10C6D00080000006000000060000000600000000C8
:10C6E0000000001700000000000000000000000033
:10C6F00000000000000000001E0300003F060000D4
:10C7000073860000738C0000738C00007398F00037
:10C710007399F8003F339C001E339C0000639C001B
:10C7200000639C0000C39C0000C1F8000180F00081
:10C7300000000000000000000000000000000000F9
:10C740000F000000000000000000000000000000DA
:10C7500000000000000F8000001FE0000038E00033
:10C760000038E000003CE000001FC000001F1C007B
:10C77000003F9C000073DC000071F8000070F800BE
:10C7800000787800003FFE00000F9F0000000000CE
:10C790000000000000000000000000000005000094
:10C7A0000000000000000000000000000000700019
:10C7B00000007000000070000000700000007000B9
:10C7C0000000000000000000000000000000000069
:10C7D0000000000000000000000000000000000059
:10C7E0000000000000000000000000000000000049
:10C7F0000000000000000000000009000000000030
:10C8000000000000000000000000000F0000001EFB
:10C810000000001C0000003C000000380000003850
:10C820000000007000000070000000700000007048
:10C830000000007000000070000000700000003870
:10C84000000000380000003C0000001C0000001E3A
:10C850000000000F000000090000000000000000C0
:10C860000000000000000000780000003C00000014
:10C870001C0000001E0000000E0000000E00000062
:10C88000070000000700000007000000070000008C
:10C890000700000007000000070000000E00000075
:10C8A0000E0000001E0000001C0000003C00000004
:10C8B000780000000C0000000000000000000000F4
:10C8C0000000000000060000002640000076E000A6
:10C8D000001F8000000F0000001F80000076E000B5
:10C8E00000264000000600000000000000000000DC
:10C8F0000000000000000000000000000000000038
:10C900000000000000000000000000000000000027
:10C910000010000000000000000000000000000007
:10C920000000000000000000000000000000018086
:10C9300000000180000001800000018000000180F3
:10C9400000003FFC00003FFC00000180000001806F
:10C950000000018000000180000001800000000054
:10C9600000000000000000000000000000000600C1
:10C9700000000000000000000000000000000000B7
:10C9800000000000000000000000000000000000A7
:10C990000000000000000000000000000000000097
:10C9A00000000000000000000000003800000070DF
:10C9B000000000700000006000000060000000E067
:10C9C000000000C00000000000000008000000009F
:10C9D0000000000000000000000000000000000057
:10C9E0000000000000000000000000000000000047
:10C9F0000000000000000000000000007E000000B9
:10CA00007E0000007E00000000000000000000002A
:10CA10000000000000000000000000000000000016
:10CA20000000000000000000060000000000000000
:10CA300000000000000000000000000000000000F6
:10CA400000000000000000000000000000000000E6
:10CA500000000000000000000000000000000000D6
:10CA60000000000000700000007000000070000076
:10CA70000070000000000000000000000000000046
:10CA800000000000000B000000000000000000009B
:10CA90000000000000000380000003800000070089
:10CAA000000007000000070000000E0000000E005C
:10CAB00000000E0000000E0000001C0000001C0022
:10CAC00000001C0000001C000000380000003800BE
:10CAD000000038000000700000007000000000003E
:10CAE00000000C000000000000000000000000003A
:10CAF000000000000000000F0000003FC0000039EF
:10CB0000C0000070E0000070E0000070E000007005
:10CB1000E0000070E0000070E0000070E0000070D5
:10CB2000E0000039C000003FC000000F000000001E
:10CB30000000000000000000000000000000000CE9
:10CB400000000000000000000000000000000000E5
:10CB50000000000007000000070000003F00000088
:10CB60003F00000007000000070000000700000071
:10CB70000700000007000000070000000700000099
:10CB8000070000003FE000003FE000000000000060
:10CB90000000000000000000000000000C00000089
:10CBA0000000000000000000000000000000000085
:10CBB000003F8000007FC0000061E0000040E00016
:10CBC0000000E0000000E0000001E0000003C00001
:10CBD00000078000000F0000001E0000003C000065
:10CBE000007FF000007FF000000000000000000067
:10CBF0000000000000000000000C00000000000029
:10CC000000000000000000000000000000003F8065
:10CC100000007FC0000060E0000040E0000001E094
:10CC200000000F8000000FC0000001E0000000E0E5
:10CC3000000000E0000040E0000061E000007FC074
:10CC400000003F00000000000000000000000000A5
:10CC50000000000000000C000000000000000000C8
:10CC6000000000000000000000000001C000000300
:10CC7000C0000007C0000007C000000DC000001980
:10CC8000C0000019C0000031C0000061C000007F7A
:10CC9000F000007FF0000001C0000001C0000001B2
:10CCA000C0000000000000000000000000000000C4
:10CCB0000000000C00000000000000000000000068
:10CCC00000000000000000003FE000003FE0000026
:10CCD0003800000038000000380000003F800000ED
:10CCE0003FC0000001E0000000E0000000E00000A4
:10CCF00040E0000061C000007FC000003F00000075
:10CD00000000000000000000000000000000000023
:10CD10000C00000000000000000000000000000007
:10CD2000000000000007C000001FC000003C000021
:10CD3000003800000070000000778000007FC00015
:10CD40000071E0000070E0000070E0000070E000A2
:10CD50000039E000003FC000000F8000000000002C
:10CD6000000000000000000000000000000C0000B7
:10CD700000000000000000000000000000000000B3
:10CD800000007FE000007FE0000000E0000001C044
:10CD9000000001C000000380000007000000070041
:10CDA00000000E0000000E0000001C000000380013
:10CDB00000003800000070000000000000000000CB
:10CDC000000000000000000000000C000000000057
:10CDD0000000000000000000000000000000001F34
:10CDE0008000003FC0000070E0000070E0000070B4
:10CDF000E000003FC000001F8000003FC000007145
:10CE0000E0000070E0000070E0000079E000003F0A
:10CE1000C000001F800000000000000000000000B3
:10CE2000000000000000000C0000000000000000F6
:10CE30000000000000000000000000000F000000E3
:10CE40003FC0000039C0000070E0000070E000004A
:10CE500070E0000078E000003FE000001EE000000D
:10CE600000E0000001C0000003C000003F8000009F
:10CE70003E00000000000000000000000000000074
:10CE8000000000000700000000000000000000009B
:10CE90000000000000000000000000000000000092
:10CEA0000000000000000000003800000038000012
:10CEB0000038000000380000000000000000000002
:10CEC0000038000000380000003800000038000082
:10CED0000000000000000000000000000000000052
:10CEE000000700000000000000000000000000003B
:10CEF0000000000000000000000000000000000032
:10CF00000000000000003800000038000000380079
:10CF100000003800000000000000000000001C00BD
:10CF20000000380000003800000030000000300031
:10CF30000000700000006000000000000000100011
:10CF400000000000000000000000000000000000E1
:10CF500000000000000000000000000004000000CD
:10CF60003C000000FC000003F800001FC000003F70
:10CF70000000003F0000001FC0000003F800000098
:10CF8000FC0000003C000000040000000000000065
:10CF90000000000000000000000000100000000081
:10CFA0000000000000000000000000000000000081
:10CFB0000000000000000000000000000000000071
:10CFC0003FF800003FF800000000000000000000F3
:10CFD000000000003FF800003FF8000000000000E3
:10CFE0000000000000000000000000000000000041
:10CFF0000000000000000000100000000000000021
:10D000000000000000000000000000000000000020
:10D010000000000000200000003C0000003F000075
:10D02000001FC0000003F8000000FC000000FC002E
:10D030000003F800001FC000003F0000003C00009B
:10D0400000200000000000000000000000000000C0
:10D0500000000000000B00000000000000000000C5
:10D06000000000000000000000003F0000007F8082
:10D0700000007FC0000043C0000001C0000001C0EC
:10D080000000038000000F0000001E0000001C00D4
:10D0900000001C000000000000001C0000001C003C
:10D0A0000000000000000000000000000000000080
:10D0B000000011000000000000000000000000005F
:10D0C0000000000000000003E000000FF800001C5A
:10D0D0001C00003806000031F6000063F300006613
:10D0E00033000066330000663300006633000063DF
:10D0F000FE000033FE0000380000001C1000000F8E
:10D10000F0000003F0000000000000000000000D2F
:10D11000000000000000000000000000000000000F
:10D12000000000000F8000000F8000000F80000052
:10D130001DC000001DC000001DC0000038E0000040
:10D1400038E0000038E000007FF000007FF00000D1
:10D1500070700000F0780000E0380000000000006F
:10D160000000000000000000000000000D000000B2
:10D1700000000000000000000000000000000000AF
:10D18000007F8000007FC0000071E0000070E000C0
:10D190000070E0000071C000007F8000007FE000B0
:10D1A0000070F00000707000007070000070F000FF
:10D1B000007FE000007FC0000000000000000000D1
:10D1C0000000000000000000000D00000000000052
:10D1D000000000000000000000000000000007E068
:10D1E00000001FF000003C3000003810000070000C
:10D1F000000070000000700000007000000070006F
:10D20000000070000000381000003C3000001FF0EB
:10D21000000007E000000000000000000000000027
:10D220000000000000000E000000000000000000F0
:10D2300000000000000000000000007F8000007F70
:10D24000E0000070F00000707000007038000070A6
:10D25000380000703800007038000070380000702E
:10D260003800007070000070F000007FE000007F68
:10D27000800000000000000000000000000000002E
:10D280000000000C00000000000000000000000092
:10D2900000000000000000007FE000007FE00000D0
:10D2A0007000000070000000700000007FE00000CF
:10D2B0007FE00000700000007000000070000000BF
:10D2C00070000000700000007FE000007FE00000C0
:10D2D000000000000000000000000000000000004E
:10D2E0000B00000000000000000000000000000033
:10D2F00000000000007FE000007FE0000070000000
:10D300000070000000700000007FE000007FE0007F
:10D31000007000000070000000700000007000004D
:10D3200000700000007000000070000000000000AD
:10D33000000000000000000000000000000E0000DF
:10D3400000000000000000000000000000000000DD
:10D35000000007E000001FF800003C38000038081B
:10D360000000700000007000000071F8000071F80B
:10D3700000007038000070380000383800003C3879
:10D3800000001FF8000007E000000000000000009F
:10D39000000000000000000000000F00000000007E
:10D3A000000000000000000000000000000000700D
:10D3B0001C0000701C0000701C0000701C0000703D
:10D3C0001C00007FFC00007FFC0000701C0000704F
:10D3D0001C0000701C0000701C0000701C0000701D
:10D3E0001C0000701C000000000000000000000095
:10D3F0000000000000000009000000000000000024
:10D400000000000000000000000000007F0000009D
:10D410007F0000001C0000001C0000001C00000039
:10D420001C0000001C0000001C0000001C0000008C
:10D430001C0000001C0000001C0000007F00000019
:10D440007F0000000000000000000000000000005D
:10D45000000000000A0000000000000000000000C2
:10D460000000000000000000003F8000003F80003E
:10D4700000038000000380000003800000038000A0
:10D480000003800000038000000380000003800090
:10D49000000380000007800000FF000000FC000087
:10D4A000000000000000000000000000000000007C
:10D4B000000D00000000000000000000000000005F
:10D4C0000000000000007078000070F0000071E0C3
:10D4D000000073C0000073800000778000007F00B0
:10D4E00000007F0000007B80000073C0000071E03E
:10D4F000000070E0000070F0000070780000000094
:10D5000000000000000000000000000000000B0010
:10D51000000000000000000000000000000000000B
