:10000000CBEF00F0FF00FF00E1CF6DF0E2CF6EF02C
:10001000D9CF6FF002EF1FF0D8CF09F0E8CF0AF088
:10002000E0CF0BF0E1CF0CF0E2CF0DF0D9CF0EF026
:10003000DACF0FF0F6CF10F0F7CF11F0F8CF12F0C3
:10004000F5CF13F000F09EBA9DAA8ED00401000EE9
:100050004A24D96EDA6A040EDA22F1EC23F0DF6E5C
:10006000ABA4ABB277D04B5075E10401000E4A242B
:10007000D96EDA6A040EDA223E0EDF6204D0006F17
:10008000010E4A6E71D0040E026E000E016EFF0E5C
:10009000046EEC0E036E066A050E056EA6EC20F0EB
:1000A000025001101FE14A50330A1CE100F000F039
:1000B000000EA9EC24F0010E026E270E016E040161
:1000C000040E046E000E036E63EC23F0040E026E49
:1000D000000E016E046A036A066A5A0E056E7AEC17
:1000E00023F04A6A0401040E026E000E016EFF0E38
:1000F000046EE60E036E066A050E056EA6EC20F091
:100100000250011021E14A50180A1EE100F000F0EF
:10011000000EA9EC24F0300E0401006F010E026EF7
:10012000270E016E040E046E000E036E63EC23F0C6
:10013000040E026E000E016E046A036A066A5A0E0D
:10014000056E7AEC23F04A6A4A2A5A0E4A640CD0A9
:100150004A6A0AD08B9A9EBAAECF49F09EBAAECF09
:1001600049F0AB9800F0AB8813C0F5FF12C0F8FF60
:1001700011C0F7FF10C0F6FF0FC0DAFF0EC0D9FFA5
:100180000DC0E2FF0CC0E1FF0BC0E0FF0AC0E8FFBA
:1001900009C0D8FF1000E0EF1DF0C10E0101C36FD0
:1001A000E4EF05F0D851250A0BE0BDC0D9FFBEC071
:1001B000DAFFD8C1DFFF0001BD4BBE2BE4EF05F035
:1001C000D06BD16BCA6BCB6B05D00101CA85000126
:1001D000BF4BC02B000109EC06F0300AF6E009EC39
:1001E00006F057EC24F030E30101D06BD16BD0C1A5
:1001F00073F0D1C174F00001766B0A0E756FDEECFE
:1002000023F073C0D0F174C0D1F1D00ED36FD46994
:1002100009EC06F0D56FD66BD351D527D451D62330
:10022000D5510101D0270001D6510101D123000190
:10023000BF4BC02BBFC0F6FFC0C0F7FFF86A080075
:10024000F55057EC24F0D3E209EC06F02E0A2BE12E
:100250000101CB8D0001BF4BC02B0101D26BD36BD1
:100260001AD0D2C173F0D3C174F0766B0A0E756FD9
:10027000DEEC23F009EC06F07327000E7423D00E99
:1002800073250101D26FFF0E000174210101D36FAC
:100290000001BF4BC02B000109EC06F057EC24F025
:1002A00001E2A3D0DED70101D26BD36BCB899DD005
:1002B000CB85ABD0C351D96EDA6ADECFD4F1DDCFB6
:1002C000D5F1020EC327D551D41104E1FF0ED56F2D
:1002D000CC0ED46FD66BD76B03D00101D64BD72B86
:1002E000D4C1D3F0D5C1D4F0D6510001D327010138
:1002F000D7510001D423D3C0F6FFD4C0F7FF000EBE
:10030000F86E0F0EF76403D00800F55005D0F6CF55
:10031000E1FFF7CFE2FFE7500009DFE10101D35130
:10032000D21109E0D651D25DD751D35904E2D2C1DE
:10033000D6F1D3C1D7F1D051D65DD151D75907E20B
:1003400021EED6F0DE50D05FDD50D15B0CD0D06B0B
:10035000D16B09D0BDC0D9FFBEC0DAFF200EDF6E61
:100360000001BD4BBE2B0101D007D8A0D107D02979
:10037000D8B4D1291DE0EED7D4C1F6FFD5C1F7FF1F
:10038000000EF86EBDC0D9FFBEC0DAFF0F0EF764D5
:1003900003D00800F55005D0F6CFE1FFF7CFE2FF1C
:1003A000E750DF6E0101D44BD52B0001BD4BBE2BB6
:1003B0000101D607D8A0D707D629D8B4D72902E19A
:1003C000E4EF05F0D9D7C351D96EDA6ADF50D86FA0
:1003D000020EC327010ED56FD80ED46FD76B010E56
:1003E000D66F9CD7C00ECA1310D032EC06F0D8518D
:1003F00001E1EED3630AE7E0050A01E159D7150AE6
:1004000001E158D7060AEEE0E5D7070ECB1501E16A
:10041000D8D2CBA903D0D36B060ED26FC351D96EFD
:10042000DA6ADECFCCF1DECFCDF1DECFCEF1DECF9A
:10043000CFF1040EC327CFAF15D0CCC173F0CDC11F
:1004400074F0CEC175F0CFC176F0B8EC23F073C074
:10045000CCF174C0CDF175C0CEF176C0CFF1030EF2
:100460000101CA13C86BC96B21EECCF0DE50DE105F
:10047000DE10DE106BE0CE35CF35820FC86FC96B52
:10048000FF0EC923C807D8A0C907C8C173F0C9C1E6
:1004900074F00001766B030E756FDEEC23F073C011
:1004A000C8F174C0C9F1C8C179F0C9C17AF07C6BD8
:1004B0000A0E7B6F2BEC1EF079C0C8F17AC0C9F12F
:1004C000F4DB000ED8B4C85D03E2C807D8A0C907A2
:1004D000C8510008D1EC0AF095C0C4F196C0C5F12E
:1004E00097C0C6F198C0C7F1C4C182F0C5C183F0FE
:1004F000C6C184F0C7C185F0CCC186F0CDC187F0FC
:10050000CEC188F0CFC189F02DEC18F082C0C4F1C3
:1005100083C0C5F184C0C6F185C0C7F1B0DB800ED1
:10052000796F3F0E7A6F32EC22F005E20101C807C5
:10053000D8A0C9070BD0A3DB200E796F410E7A6FCC
:1005400032EC22F003E30101C84BC92B0101D35166
:10055000800AF36E800EF35C0D0ED8B4D25D1DE2FE
:10056000CCC1A6F0CDC1A7F0CEC1A8F0CFC1A9F0F3
:10057000D2519DEC11F095C0AAF096C0ABF097C097
:10058000ACF098C0ADF046EC13F0A6C0CCF1A7C01B
:10059000CDF1A8C0CEF1A9C0CFF187DB0A0ED8B447
:1005A000C85D26E221EECCF0DE50DE10DE10DE105B
:1005B0006EE0CCC19EF0CDC19FF0CEC1A0F0CFC106
:1005C000A1F0D7EC1BF09EC0D3F09FC0D4F0A0C028
:1005D000D5F0A1C0D6F0D651D311D411D51157E121
:1005E0000101C951800A800F020ED8B4C85D4FE3E3
:1005F000C4C173F0C5C174F0C6C175F0C7C176F04F
:100600005F0E0001776F700E786F890E796F400E64
:100610007A6F32EC22F003E20101F70E02D0010101
:10062000F80EC827FF0EC923C851D1EC0AF095C0B7
:10063000C4F196C0C5F197C0C6F198C0C7F1CCC14E
:1006400073F0CDC174F0CEC175F0CFC176F0C4C1E6
:1006500077F0C5C178F0C6C179F0C7C17AF0B1ECC6
:1006600018F073C0B7F174C0B8F175C0B9F176C0B5
:10067000BAF1B7C1D4F1B8C1D5F1B9C1D6F1BAC197
:10068000D7F10101CC6BCD6BCE6BCF6B39D0CCC128
:100690009EF0CDC19FF0CEC1A0F0CFC1A1F0D7ECAC
:1006A0001BF09EC0D4F19FC0D5F1A0C0D6F1A1C06F
:1006B000D7F1CCC1B5F0CDC1B6F0CEC1B7F0CFC146
:1006C000B8F0D4C17DF0D5C17EF0D6C17FF0D7C1DE
:1006D00080F04CEC23F07DC0B9F07EC0BAF07FC052
:1006E000BBF080C0BCF0E1EC22F0B5C0CCF1B6C0EC
:1006F000CDF1B7C0CEF1B8C0CFF10101C86BC96B65
:10070000010ED86FD8510A0A06E07ADAF86A94DA4C
:1007100002E3D82BF7D7D8C1D3F00001D46BD3BFF5
:10072000D4070101D2510001D3270101D3510001A7
:10073000D4230101C8510001D3270101C95100018F
:10074000D423D3510101D05F0001D4510101D15B09
:10075000D351D21103E0D007D8A0D107CAC1D3F03A
:10076000030E0001D31704E00101D007D8A0D10780
:100770000101CAA522D0CAC1D3F0030E0001D317CC
:100780000DE0BDC0D9FFBEC0DAFF2D0EDF6EBD4B40
:10079000BE2B04D046DAD007D8A0D1070101D15131
:1007A0007FDAD8B4D05D4DE3F5D7BDC0D9FFBEC068
:1007B000DAFF200E50DAD8A0D107D15171DAD8B4BF
:1007C000D05DF3E2CAC1D3F0030E0001D31739E0C4
:1007D000BDC0D9FFBEC0DAFF2D0EDF6E0001BD4BDC
:1007E000BE2B2FD0D4C173F0D5C174F0D6C175F033
:1007F000D7C176F005DAF3D9C6EC1FF073C0BBF1B0
:1008000074C0BCF175C0BDF176C0BEF1BBC180F053
:10081000BCC181F0BDC182F0BEC183F03BDADAEC2D
:1008200020F080C0BBF181C0BCF182C0BDF183C0AB
:10083000BEF10101BB51300FBDC0D9FFBEC0DAFF10
:10084000CCD70101D807D82905E0CCD7EAD9C80709
:10085000D8A0C907C95124DAD8B4C85DF7E2D3518A
:10086000800A800F090ED8B4D25D03E3080ED86F5A
:1008700002D0D2C1D8F1D851D25F000ED8BFFF0E3E
:10088000D35BD85109E0BDC0D9FFBEC0DAFF2E0E40
:10089000DF6E0001BD4BBE2B0101D851D1EC0AF037
:1008A00095C0B3F196C0B4F197C0B5F198C0B6F158
:1008B000CCC186F0CDC187F0CEC188F0CFC189F020
:1008C000B3C182F0B4C183F0B5C184F0B6C185F084
:1008D0002DEC18F082C09EF083C09FF084C0A0F081
:1008E00085C0A1F0D7EC1BF09EC0D4F19FC0D5F11C
:1008F000A0C0D6F1A1C0D7F156D0D4C173F0D5C1F4
:1009000074F0D6C175F0D7C176F07AD968D9C6EC43
:100910001FF073C0BFF174C0C0F175C0C1F176C0E3
:10092000C2F1BFC180F0C0C181F0C1C182F0C2C1BB
:1009300083F0B0D9DAEC20F080C0BFF181C0C0F103
:1009400082C0C1F183C0C2F10101BF51300FBDC0EF
:10095000D9FFBEC0DAFFDF6E0001BD4BBE2BD4C194
:1009600080F0D5C181F0D6C182F0D7C183F00101FA
:1009700047D9F86A000EF82209000001F5CF84F08B
:100980000900F5CF85F00900F5CF86F00A00F5CF14
:1009900087F0DAEC20F080C0D4F181C0D5F182C0BC
:1009A000D6F183C0D7F10101D807D82905E0A5D732
:1009B00038D9D207D8A0D307D351D21101E104D13D
:1009C000F7D7C351D96EDA6ADECFD3F0DDCFD4F0DA
:1009D000D3C0D4F1D4C0D5F1D66BD76B020EC327E8
:1009E000D351D21107E1D751D411D511D61102E15B
:1009F000D24BD32B010ED86FD8510A0A06E000D98A
:100A0000F86A1AD902E3D82BF7D756D9D251D85D54
:100A1000D351800A0001D35903E2D2C1D8F114D0D6
:100A20000101D351800A0001D36F0101D851D25D79
:100A3000800ED8BF7F0E0001D35906E20101D851C4
:100A4000D26FD36BD2BFD3070101D151D0110AE0CD
:100A5000CAC1D3F0030E0001D31704E00101D0078F
:100A6000D8A0D1070101CBAD15D0D351800A000128
:100A7000D36F0101D051D25DD151800A0001D35909
:100A800006E20101D251D05FD351D15B03D0010105
:100A9000D06BD16B11D9D051D85DD151800A0001F2
:100AA000D35908E20101D851D05F000ED8BFFF0E24
:100AB000D15B03D00101D06BD16BCAA517D0CAC1DD
:100AC000D3F0030E0001D31708E0BDC0D9FFBEC0AC
:100AD000DAFF2D0EDF6EBD4BBE2B0101D151D011BF
:100AE0006BE09FD8D007D8A0D107F7D7D151D0114C
:100AF0000BE0BDC0D9FFBEC0DAFF200EACD8D8A035
:100B0000D107D151D011F5E1CAC1D3F0030E0001D4
:100B1000D31752E0BDC0D9FFBEC0DAFF2D0EDF6E85
:100B20000001BD4BBE2B48D0D2C1D3F0D3C1D4F00D
:100B30000001D890D337D437D890D337D437DF0ECD
:100B4000D325F66EFE0ED421F76EF86A000EF82259
:100B50000900F5CF77F00900F5CF78F00900F5CF5F
:100B600079F00A00F5CF7AF0D4C173F0D5C174F0F2
:100B7000D6C175F0D7C176F0C6EC1FF073C080F017
:100B800074C081F075C082F076C083F083D8DAEC4F
:100B900020F080C0D5F081C0D6F082C0D7F083C0ED
:100BA000D8F0D551300F0101D86FBDC0D9FFBEC0FC
:100BB000DAFFD8C1DFFFB4D70101D207D8A0D3072D
:100BC000D229D8B4D329B0E14DD8D867D2EF00F0FC
:100BD000BDC0D9FFBEC0DAFF000EDF6E000CF86AA0
:100BE000000EF82209000001F5CF77F00900F5CFDB
:100BF00078F00900F5CF79F00A00F5CF7AF012000D
:100C0000D851040DDF0EF324F66EFE0EF420F76EBD
:100C10001200BFC0F6FFC0C0F7FFF86A0800F55029
:100C20001200BDC0D9FFBEC0DAFF300EDF6E00017A
:100C3000BD4BBE2B0101300C000EF8220900F5500F
:100C4000D45D0900F550D5590900F550D659090071
:100C5000F550D7591200DF6E0001BD4BBE2B0101CC
:100C6000D00712000001BFC0F6FFC0C0F7FFBF4BA6
:100C7000C02BF86A0800F5CFD8F101011200C4C1F9
:100C800073F0C5C174F0C6C175F0C7C176F0776B5B
:100C9000786B12000A0E846F856B866B876B000C75
:100CA000800AF36E800EF35C010C0101C951800AC9
:100CB000F36E800EF35C1200800ED8BF7F0E000131
:100CC000D36F0101120000F0010102B102D0899C32
:100CD00001D0898C010103B102D0899E01D0898E97
:100CE0000101265121EE05F0DF6203D006512519DE
:100CF0003EE005C126F106C125F1170E0001756F12
:100D0000640E3AEC21F00101060513E156DA890E72
:100D1000A2EC17F0170E756F640E3AEC21F0F20E8C
:100D2000000166DAA2EC17F0F20E62DAA2EC17F01C
:100D30001ED043DA8C0EA2EC17F0F20E826F1C0E5E
:100D4000816F836B8C0EA2EC17F0170E756F640E1B
:100D50003AEC21F00101055106E0F20E4FDA890E5E
:100D6000A2EC17F004D029DA890EA2EC17F00101E9
:100D70001151E7190BE011C1E7F1110504E1010E72
:100D800001EC20F003D0000E01EC20F0010108512D
:100D9000E9194BE008C1E9F108670CD0030E000126
:100DA000BE6FB40EBD6FFF0EC06FDC0EBF6FCDEC1B
:100DB00000F030D008050FE1030E0001BE6FB40E45
:100DC000BD6FFF0EC06FF20EBF6FC26B840EC16F9E
:100DD000CDEC00F01FD00851020A0CE1030E000117
:100DE000BE6FB40EBD6FFF0EC06FE00EFAD9CDEC32
:100DF00000F010D00851030A0DE1030E0001BE6F90
:100E0000B40EBD6FFF0EC06FD30EEBD9C66BC56FAE
:100E1000CDEC00F0030E0001976F000E966F030EED
:100E2000996FB40E986F34EC19F001010751EB196A
:100E30002BE007C1EBF1070506E1B1D9860EC36FC0
:100E4000CDEC00F014D00751020A06E1A8D9870EB4
:100E5000C36FCDEC00F00BD0030E0001BE6FB40EDB
:100E6000BD6FFF0EC06FDD0EBF6FCDEC00F000F068
:100E700000F0030E0001976F900E966F030E996FAE
:100E8000B40E986F34EC19F001011751E81915E010
:100E900017C1E8F1250E0001756F2B0E3AEC21F019
:100EA0000101170506E1F20EA9D98A0EA2EC17F08E
:100EB00004D083D98A0EA2EC17F001011251EA196D
:100EC0005AE012C1EAF112053BE1030E0001BE6FC8
:100ED000B40EBD6FFF0EC06F3D0EBF6FCDEC00F0C6
:100EE000020E0001976F680E966F030E996FB40E95
:100EF000986F34EC19F0030E0001BE6FB40EBD6F95
:100F0000FF0EC06F270EBF6FCDEC00F0020E000188
:100F1000976F8C0E966F030E996FB40E986F34EC2A
:100F200019F0756B730E3AEC21F0C50E0001826F5B
:100F30000F0E816F010E836F5E0EA2EC17F01BD0B7
:100F4000020E0001976F680E966F3AEC20F0020EC9
:100F50000001976F8C0E966F3AEC20F0756B730E54
:100F60003AEC21F0C50E0001826F0F0E816F836B8A
:100F70005E0EA2EC17F0010E0101246FFCD000F010
:100F8000F2AE04D0010E0101236F02D00101236BE8
:100F9000F29E1CC11EF11DC11FF1010E216F800EBA
:100FA000206F1CC1D9F11DC1DAF11E51D95F1F514B
:100FB000DA5BDA51800AF36E810EF35CF40ED8B47A
:100FC000D95D04E22305D8B4F28E12001CC11EF1D3
:100FD0001DC11FF12305D8B4F28E00F0010122518A
:100FE000D8A4226B1B51DE1908E11A51DD1905E165
:100FF0001951DC1902E11851DB193CE018C1DBF191
:1010000019C1DCF11AC1DDF11BC1DEF121EE18F0CE
:10101000DE50DE10DE10DE1017E0030E0001BE6FA2
:10102000B40EBD6FFF0EC06FBB0EBF6F18C1C1F015
:1010300019C1C2F01AC1C3F01BC1C4F0C66B8B0E3C
:10104000C56FCDEC00F00BD0030E0001BE6FB40EE7
:10105000BD6FFF0EC06FDA0EBF6FCDEC00F0030E58
:101060000001976F6C0E966F030E996FB40E986F18
:1010700034EC19F00101E2510C1908E1E1510B19AE
:1010800005E1E0510A1902E1DF51091929E0030ED7
:101090000001B66FD20EB56F09C1B7F00AC1B8F042
:1010A0000BC1B9F00CC1BAF0010EBB6FBC6F31ECD3
:1010B0000CF0030E89D8CDEC00F0020E0001976F02
:1010C000B00E966F030E996FB40E986F34EC19F052
:1010D00009C1DFF10AC1E0F10BC1E1F10CC1E2F19C
:1010E0000101E651101908E1E5510F1905E1E4513C
:1010F0000E1902E1E3510D1929E0030E0001B66F4C
:10110000D20EB56F0DC1B7F00EC1B8F00FC1B9F076
:1011100010C1BAF0010EBB6FBC6F31EC0CF0030EC6
:1011200053D8CDEC00F0020E0001976FD40E966FED
:10113000030E996FB40E986F34EC19F00DC1E3F102
:101140000EC1E4F10FC1E5F110C1E6F10101246B1C
:10115000010E216FA60E206F246701D0120000F04F
:101160000101246B010E216FBA0E206F246701D09C
:10117000120000F004D720C1D9F121C1DAF1DA510F
:1011800003E0010A03E0FBD6D951F9D6D951800A10
:1011900001E107D7260AE0E01C0AE8E0F0D6030EDA
:1011A0000001BE6FB40EBD6FFF0EC06FD50EBF6FD6
:1011B000C26B850EC16FC46B850CF20E0001826F8D
:1011C0001C0E816F836B12000001BE6FB40EBD6FE9
:1011D000FF0EC06FF70EBF6F030EC26FD20EC16F4E
:1011E0001200BF6FC26B840EC16FC46BC36F840CDF
:1011F000826F1C0E816F010E836F8C0C0001826F59
:101200001C0E816F010E836F010C985197110BE03A
:1012100097C0D9FF98C0DAFF95C0DEFF96C0DDFF0A
:1012200002D0954B962B95C0D9FF96C0DAFFDF50C0
:101230009A6F00019A5128EC24F0F3E29B6B9A51CB
:101240002D0A05E1010E9B6F954B962B03D09A5109
:101250002B0AFAE09A6B9D6B9E6B9F6BA06B9C6B4D
:101260009BB909D02E0E95C0D9FF96C0DAFFDF6278
:1012700002D09B8935D095C0D9FF96C0DAFFDF50E8
:1012800057EC24F030E39B839A51090A27E09BB97D
:101290009C079A2B9DC073F09EC074F09FC075F0A0
:1012A000A0C076F00A0E776F000E786B796B7A6BC0
:1012B000E6EC21F073C09DF074C09EF075C09FF005
:1012C00076C0A0F095C0D9FF96C0DAFFDF50D00FEE
:1012D0009D27000E9E239F23A02302D09BA99C2B19
:1012E000954B962BBDD79A6B95C0D9FF96C0DAFF68
:1012F000DF50650A07E0450E95C0D9FF96C0DAFFBA
:10130000DF6242D02D0E954B962B95C0D9FF96C02B
:10131000DAFFDF6202D09B8707D02B0E95C0D9FF82
:1013200096C0DAFFDF6202D0954B962B95C0D9FFAD
:1013300096C0DAFFDF50300AF7E095C0D9FF96C0BB
:10134000DAFFDF5057EC24F01DE395C0D9FF96C0BB
:10135000DAFFDF50D00F9A6F954B962B95C0D9FFCF
:1013600096C0DAFFDF5057EC24F00CE3FFD8954B22
:10137000962B95C0D9FF96C0DAFFDF5057EC24F0CA
:1013800001E3F4D89BB79A6D9A519C279851971115
:10139000D8A49BA308D097C0D9FF98C0DAFF95C006
:1013A000DEFF96C0DDFF9DC07DF09EC07EF09FC039
:1013B0007FF0A0C080F00BEC21F07DC09DF07EC0DE
:1013C0009EF07FC09FF080C0A0F020EE9DF0DE5028
:1013D000DE10DE10DE1005E1956B966B976B986B57
:1013E00012009CAF52D09C6D1CD09DC07DF09EC061
:1013F0007EF09FC07FF0A0C080F0F90E816F020EDA
:10140000826F150E836F500E846F26EC1AF07DC02C
:101410009DF07EC09EF07FC09FF080C0A0F0F60ED1
:101420009C279C51800A996F0A0E800A995D1AE3E5
:10143000DCD79DC07DF09EC07EF09FC07FF0A0C035
:1014400080F0816B826B200E836F410E846F26ECDF
:101450001AF07DC09DF07EC09EF07FC09FF080C0DE
:10146000A0F09C079C67E5D79DC073F09EC074F008
:101470009FC075F0A0C076F0776B786B800E796FA7
:10148000000E7A6B32EC22F04FD09C51800A7F0F15
:101490001DE24FD09DC082F09EC083F09FC084F0BB
:1014A000A0C085F0F90E866F020E876F150E886F4B
:1014B000500E896F2DEC18F082C09DF083C09EF015
:1014C00084C09FF085C0A0F0F60E9C270A0E9C5D9C
:1014D0001AE3E0D79DC082F09EC083F09FC084F0E5
:1014E000A0C085F0866B876B200E886F410E896FD8
:1014F0002DEC18F082C09DF083C09EF084C09FF058
:1015000085C0A0F09C079C67E5D7736974697F0E5E
:10151000756F766F9DC077F09EC078F09FC079F0B0
:10152000A0C07AF032EC22F004E29BA12CD0000E95
:1015300032D09BA112D09DC073F09EC074F09FC0AA
:1015400075F0A0C076F0B8EC23F073C09DF074C0C5
:101550009EF075C09FF076C0A0F09DC095F09EC033
:1015600096F09FC097F0A0C098F0120095C0D9FFE8
:1015700096C0DAFFDF50996F9A510A0DF350992502
:10158000D00F9A6F1200000E956F966F800E976FB6
:10159000000E986F000C956F966F800E976F986F86
:1015A000800C00019D6F9DAF6CD09D6D9D51800A98
:1015B000120F3BE37C6B0A0E7B6F766B640E47D990
:1015C00073BF740747EC1FF073C079F074C07AF0F2
:1015D0002BEC1EF0FBD8A70E7925F66EC40E7A21EF
:1015E000BBD87C6B640E38D979BF7A072BEC1EF020
:1015F000D890F7D81ED9C1D82DEC18F0FCD873BFFD
:10160000740747EC1FF0DBD8A70E7325F66EC40EE7
:101610007421A2D82DEC18F082C095F083C096F00A
:1016200084C097F085C098F012009D51800A750F14
:1016300021E37C6B0A0E10D979BF7A072BEC1EF0E0
:10164000C5D8F7D89AD8FCD873BF740747EC1FF0F9
:10165000B6D8A70E7325F66EC40E74217DD82DEC76
:1016600018F082C095F083C096F084C097F085C0D2
:1016700098F012009D51040DA70EF324F66EC40ECF
:101680008CD09D51800A120F3BE37C6B0A0E7B6F5E
:10169000766B640EDCD873BF740747EC1FF073C021
:1016A00079F074C07AF02BEC1EF090D8DB0E79251F
:1016B000F66EC40E7A2150D87C6B640ECDD879BFFB
:1016C0007A072BEC1EF0D8908CD8ACD856D82DECDD
:1016D00018F091D873BF740747EC1FF070D8DB0E79
:1016E0007325F66EC40E742137D82DEC18F082C025
:1016F00095F083C096F084C097F085C098F01200F2
:101700009D51800A750F21E37C6B0A0EA5D879BF25
:101710007A072BEC1EF05AD885D82FD891D873BFF2
:10172000740747EC1FF04BD8DB0E7325F66EC40E22
:10173000742112D82DEC18F082C095F083C096F079
:1017400084C097F085C098F012009D51040DDB0E07
:10175000F324F66EC40E21D0F76EF86A000EF8225C
:101760000900F5CF86F00900F5CF87F00900F5CF25
:1017700088F00A00F5CF89F01200F86A000EF8220E
:101780000900F5CF82F00900F5CF83F00900F5CF0D
:1017900084F00A00F5CF85F01200F420F76EF86AA5
:1017A000000EF8220900F5CF95F00900F5CF96F06C
:1017B0000900F5CF97F00A00F5CF98F01200D89005
:1017C00073377437D890733774371200D8907937DD
:1017D0007A37D89079377A37240E7927000E7A2312
:1017E000000C79377A37D89079377A37480E7927CD
:1017F000000E7A23000C82C099F083C09AF084C056
:101800009BF085C09CF099C082F09AC083F09BC089
:1018100084F09CC085F0766B0A0E756F9D51736FD6
:10182000746B1200DB0E7925F66EC40E7A21F76E0A
:101830001200A70E7925F66EC40E7A21F76E1200FB
:10184000766B0A0E756F9D51736F746B1200756F16
:101850009D51736F746B12007B6F9D51796F7A6B22
:101860001200BAAF12D0010EC16FFCD8800E886F83
:10187000BF0E896F2DEC18F082C0B7F083C0B8F0AE
:1018800084C0B9F085C0BAF001D0C16BBC6710D07C
:10189000B7C0A6F0B8C0A7F0B9C0A8F0BAC0A9F008
:1018A000AA6BAB6BAC6B3F0EAD6F46EC13F02AD05E
:1018B000BC0513E1B7C0A6F0B8C0A7F0B9C0A8F046
:1018C000BAC0A9F0CD0EAA6FCC0EAB6F4C0EAC6FA8
:1018D0003D0EAD6F46EC13F015D0BC51020A1AE173
:1018E000B7C0A6F0B8C0A7F0B9C0A8F0BAC0A9F0B8
:1018F0000A0EAA6FD70EAB6FA30EAC6F3B0EAD6F87
:1019000046EC13F0A6C0B7F0A7C0B8F0A8C0B9F075
:10191000A9C0BAF0BC29C26F10D0A4D8200E886F1D
:10192000410E896F2DEC18F082C0B7F083C0B8F07B
:1019300084C0B9F085C0BAF0C207C267EED7BB5108
:10194000BC25030FC26F49D0C207BB51BD6FBE6B30
:10195000BD2B000EBE23C251BD19BE113EE08DD875
:10196000B7C09EF0B8C09FF0B9C0A0F0BAC0A1F057
:10197000D7EC1BF09EC0A8F09FC0A9F0A0C0AAF0B1
:10198000A1C0ABF00A0EAC6F000EAD6BAE6BAF6BCF
:1019900074EC1BF0A8C0BDF0A9C0BEF0AAC0BFF097
:1019A000ABC0C0F0BD51300FDF6EB7C07DF0B8C026
:1019B0007EF0B9C07FF0BAC080F0816B826B200EE0
:1019C000836F410E846F26EC1AF07DC0B7F07EC0A5
:1019D000B8F07FC0B9F080C0BAF0C267B5D7D00EFA
:1019E000BD6FBE69B5C0D9FFB6C0DAFF4DD824E1DE
:1019F000C26B1FD0D00EBD6FBE693FD845D807E17E
:101A0000C251BB1904E039D8200EDF6E11D0C1518C
:101A100013E0C251B525BD6F000EB621BE6FFF0E9B
:101A2000BD25D96EFF0EBE21DA6E2D0EDF6E04D0FD
:101A3000C22BC251BB5DDEE231D8BD29D96E000E8A
:101A4000BE21DA6E2E0EDF6E29D8BC51BD27000EE6
:101A5000BE23020EBD25D96E000EBE21DA6E000E29
:101A6000DF6E000CB7C082F0B8C083F0B9C084F05C
:101A7000BAC085F0866B876B1200C251B525D96E4E
:101A8000000EB621DA6E1200DF50BF6FC06BBD5181
:101A9000BF27BE51C023C051BF111200BB51B52595
:101AA000BD6F000EB621BE6F1200020E846F580E7D
:101AB000836F700ED36E9B8C8307D8A084070001C0
:101AC0008329D8B48429F8E1D08E030EBA12C80E47
:101AD000BB6EBA50870B1809BA6EBA849F829E9269
:101AE0009D82030E0F015113640E526F519751994D
:101AF000519B519D51857F807E907D8065EC24F0C7
:101B0000386B396B3A6B3B6B3C6B546B0F0E0001BF
:101B1000746FDFD8776B0C0ED5D8000EDAEC14F0AA
:101B20000F0E746FD6D8010E776F0A0ECBD8010E48
:101B3000DAEC14F00F0E746FCCD8020E776F080E2B
:101B4000C1D8020EDAEC14F00F0E746FC2D8050E75
:101B5000776F0D0EB7D8030EDAEC14F00F0E746F1A
:101B6000BFD8776B786B7A6979697C697B697D69A5
:101B7000040EDAEC14F00F0E746FB2D8010E776F0A
:101B8000A1D8050EDAEC14F00F0E746FA2D8040E73
:101B9000776F0B0E97D8060EDAEC14F00F0E746FF9
:101BA00098D8030E776F090E8DD8070EDAEC14F073
:101BB0000F0E746F95D8020E776F84D8080EDAEC8A
:101BC00014F00F0E746F8CD8030E776F7BD8090E4C
:101BD000DAEC14F00F0E746F83D8050E776F040ED5
:101BE00071D80A0EDAEC14F0736B100E746F000EDD
:101BF00075EC1EF0010E736F100E746F010E75EC14
:101C00001EF0020E736F100E746F020E75EC1EF054
:101C1000030E736F100E746F030E75EC1EF0040E3E
:101C2000736F100E746F040E75EC1EF0050E736F5B
:101C3000100E746F050E75EC1EF0060E736F100E0D
:101C4000746F060E75EC1EF0070E736F100E746F36
:101C5000070E75EC1EF0080E736F100E746F080EF1
:101C600075EC1EF0090E736F100E746F090E75EC93
:101C70001EF00A0E736F100E746F0A0E75EC1EF0D4
:101C8000020E736F080E746F0B0E75EC1EF0030ED0
:101C9000736F080E746F0C0E75EC1EF048EC24F098
:101CA000949C948E9F9A9D8A8B9A949A939C939ECF
:101CB000929C929E8A9C8A9E899C899E94988B88ED
:101CC000F28C1200786F7A6979697C697B697D6929
:101CD0001200930E736F0F0E766F8A0E756F8A0C5B
:101CE000920E736F0F0E766F890E756F890C20EE52
:101CF00008F01650D9261750DA22DECF1CF0DDCFBF
:101D00001DF020EE0AF01650D9261750DA22DECF49
:101D100020F0DDCF21F020EE1DF01650D92617500F
:101D2000DA22DF50246E20EE08F01450D926155028
:101D3000DA22DECF25F0DDCF26F020EE0AF01450B7
:101D4000D9261550DA22DECF22F0DDCF23F020EEA7
:101D50001DF01450D9261550DA22DF50276E20EEE0
:101D60001EF01650D9261750DA22DF501E6E20EED4
:101D70001EF01450D9261550DA22DF501F6E1EC0F7
:101D800018F09FD820C0D9FF21C0DAFF2450DF12FD
:101D9000BCD8271C9ED800F000F000F000F000F046
:101DA00000F000F000F000F000F000F000F000F0B3
:101DB00000F000F000F000F000F000F000F025C0AE
:101DC000D9FF26C0DAFF2750DF121FC018F079D8DC
:101DD00000F000F000F000F000F000F000F000F083
:101DE00000F000F000F000F000F000F000F000F073
:101DF00000F000F000F000F0C282C2B2FED7271C53
:101E0000186E25C0D9FF26C0DAFF1850DF1686D815
:101E1000040E1B6E1A6A6DD81A5E19501B5A1EC02A
:101E200018F04FD87BD871D822C0D9FF23C0DAFF71
:101E30002750DF12271C186E25C0D9FF26C0DAFFF5
:101E40001850DF1600F000F000F000F000F000F095
:101E500000F000F000F000F000F000F000F000F002
:101E600000F000F000F000F000F000F025C0D9FF15
:101E700026C0DAFF2750DF121FC018F022D800F06A
:101E800000F000F000F000F000F000F000F000F0D2
:101E900000F000F000F000F000F000F000F000F0C2
:101EA00000F000F000F0C282C2B2FED7271C11D8A9
:101EB00020D81A2619501B221AC014F01BC015F086
:101EC000120018461846C2501818830B1818C26E14
:101ED0001200186E22C0D9FF23C0DAFF1850DF1697
:101EE000271C186E25C0D9FF26C0DAFF1850DF1650
:101EF0001200C350C4CF18F0196A18C019F0186A3C
:101F00001826000E192218501200241C186E1CC02E
:101F1000D9FF1DC0DAFF1850DF161200241C186EFE
:101F200020C0D9FF21C0DAFF1850DF161200020EC0
:101F30000001806F000E7F6F7C6B7D6B796B20EEF4
:101F400004F07F51D9268051DA22DECF77F0DDCF41
:101F500078F020EE1CF07751D9267851DA22DF5044
:101F60007E6F7E5101E1CCD020EE02F07F51D92668
:101F70008051DA22DF507B6F20EE01F07F51D926AD
:101F80008051DA22DF507A6F7BA744D07A51020A5F
:101F90000BE120EE06F07F51D9268051DA22E00EC7
:101FA000DE6E2E0EDD6E36D020EE06F07F51D92685
:101FB0008051DA22DE52DD50800A800F010ED8B443
:101FC000DF5C010ED8A0020E7A6F20EE06F07F5182
:101FD000D9268051DA22DECF73F0DDCF74F0745150
:101FE000800AF36E7B0EF35C000ED8B4735D09E2D9
:101FF00020EE06F07F51D9268051DA22DE6A050EE6
:10200000DD6E20EE06F07F51D9268051DA22DE0601
:10201000000EDD5A7BA908D07FC0D9FF80C0DAFF4F
:10202000DF507A15D8A47A8F7FC0D9FF80C0DAFF3D
:102030007AC0DFFF7BA122D020EE03F07F51D926AA
:102040008051DA22DF507E1910E07E51020A0DE144
:102050006CD8DF6208D020EE01F07F51D926805184
:10206000DA22020E01D061D8DF6E20EE03F07F513C
:10207000D9268051DA227EC0DFFF42D07BA533D043
:1020800020EE01F07F51D9268051DA22020EDF6E58
:102090007E51020A35E17D517C1105E180C07DF061
:1020A0007FC07CF02DD020EE18F07751D9267851E2
:1020B000DA22DECF73F0DDCF74F020EE04F07C5135
:1020C000D9267D51DA2210EE18F0DE50E126DD50DF
:1020D000E222E6CF75F0E5CF76F07351755D74516D
:1020E0007659DCE30DD07E51020A02E11ED807D0FA
:1020F00020EE01F07F51D9268051DA22020EDF6EE8
:10210000080E7F27000E8023792B0C0E796517D7D8
:102110007D517C11D8B4120020EE01F07C51D926FB
:102120007D51DA22010EDF6E010C20EE01F07F51AD
:10213000D9268051DA22010C00F0C2EC22F055ECD5
:102140000DF096EC21F0020E0001A06FB00E9F6F13
:102150000C0EC7D8BCEC1EF0020E0001A06FD40E0E
:102160009F6F450EBED8BCEC1EF0030E0001A06FA1
:102170006C0E9F6F240EA16F340EA26FF20EA46F2F
:102180001C0EA36F080EA56FBCEC1EF0020E000122
:10219000A06F680E9F6F050EA16FA26BDC0EA46F7F
:1021A000520EA36F140EA56FBCEC1EF0020E0001C0
:1021B000A06F8C0E9F6F050EA16FA5D8BCEC1EF012
:1021C000030E0001A06F000E9F6F550EAED8030ED8
:1021D000A56FBCEC1EF0030E0001A06F900E9F6F68
:1021E000050EA3D8020EA56FBCEC1EF0030E000175
:1021F000A06F480E9F6FA16B86D8BCEC1EF0030E3B
:102200000001A06F240E9F6FA16BA26BDC0EA46F68
:10221000520EA36F160EA56FBCEC1EF0140E756F58
:10222000080E3AEC21F067D8A2EC17F0140E756F87
:10223000410E3AEC21F05FD8A2EC17F0270E756F33
:10224000030E3AEC21F0010E67D8FF0EC26F5A0E52
:10225000C16FCDEC00F039D8FEEC22F0270E756F7F
:102260003C0E3AEC21F0010E57D8FF0EC26F500E13
:10227000C16FCDEC00F029D8FEEC22F0010E010177
:10228000166F156F146F136F00F000F00A0E7FECDD
:1022900024F063EC06F0AEEC19F09DEC15F078EC50
:1022A00012F093EC1DF000F000F0ABB402D0ABA242
:1022B00003D0AB9800F0AB888B9AD1A0D1800400FA
:1022C000F2AEF28E89EC1FF0E4D7010E0001976F99
:1022D0008B0E966FDC0E996F520E986F010E9A6FEF
:1022E000010CA16F1B0EA26FDC0EA46F520EA36F28
:1022F000050EA56F050CFD0E0001826FA00E816F0B
:10230000010E836F200C090EA26FDC0EA46F520E1B
:10231000A36F160EA56F160C0001BE6F8B0EBD6F5E
:10232000FF0EC06FFB0EBF6F1200A16F330EA26FC6
:10233000F20EA46F1C0EA36F12000001A56F6D0EAC
:10234000A56565D00A0E776F640E736FA551A5EC75
:1023500023F01AEC23F0996F9A6BD89099379A373B
:10236000D89099379A37240E9927000E9A23A70EF2
:102370009925F66EC40E9A21ACEC0BF0640E776FC3
:10238000A5511AEC23F0ABD8480E9FD8BDEC0BF04A
:102390002DEC18F082C0A1F083C0A2F084C0A3F09D
:1023A00085C0A4F00A0E736FA551A5EC23F0996FB8
:1023B0009A6BD8907FD8ACEC0BF0A1C082F0A2C091
:1023C00083F0A3C084F0A4C085F02DEC18F082C087
:1023D0009DF083C09EF084C09FF085C0A0F09DC09A
:1023E00082F09EC083F09FC084F0A0C085F0866B11
:1023F000876B886B3F0E896F2DEC18F082C095F0CB
:1024000083C096F084C097F085C098F012000A0E41
:10241000A56536D0736FA551A5EC23F0996F9A6B23
:10242000D89048D8ACEC0BF00A0E776FA5511AEC97
:1024300023F055D8240E49D8BDEC0BF02DEC18F044
:1024400082C0A1F083C0A2F084C0A3F085C0A4F034
:10245000A1C082F0A2C083F0A3C084F0A4C085F024
:10246000866B876B886B3F0E896F2DEC18F082C0EE
:1024700095F083C096F084C097F085C098F0120064
:10248000A551040DA70EF324F66EC40EF420F76ECA
:10249000BDEC0BF0866B876B886B3F0E896F2DEC64
:1024A00018F082C095F083C096F084C097F085C084
:1024B00098F0120099379A37D89099379A37A70E23
:1024C0009925F66EC40E9A2112009B27000E9C23BC
:1024D000A70E9B25F66EC40E9C21F76E12009B6F13
:1024E0009C6BD8909B379C37D8909B379C371200B9
:1024F000000E39EC24F00009D8B4120000F000F00E
:10250000010E0101226F2851420A14E12F51310AB4
:1025100006E10A0E7FEC24F0010E0101021B34518A
:10252000310AD8A412000A0E7FEC24F0010E01013A
:10253000031B010C040E0001BE6F640EBD6FFF0E85
:10254000C06F620EBF6F00C1C1F0C26B01C1C3F0AA
:10255000C46B03C1C5F0C66B02C1C7F0C86B04C130
:10256000C9F0CA6B05C1CBF0CC6B06C1CDF0CE6B08
:1025700007C1CFF0D06B08C1D1F0D26BCDEC00F029
:10258000040E0001776F640E766F04EC24F074D8AB
:1025900030C1C1F0C26B31C1C3F0C46B33C1C5F0EF
:1025A000C66BCDEC00F0010E0001A26F8B0EA16F87
:1025B00016EC24F0A1C009F1A2C00AF1A3C00BF1EE
:1025C000A4C00CF159D838C1C1F0C26B39C1C3F0F5
:1025D000C46B3BC1C5F0C66BCDEC00F0010E000131
:1025E000A26F8B0EA16F16EC24F0A1C00DF1A2C05A
:1025F0000EF1A3C00FF1A4C010F101014151310A45
:1026000003E1010E116F01D0116B4751300A03E154
:10261000010E126F01D0126B4D51310A05E1010E0E
:10262000136F0001E86B0BD04D51300A08E1010E29
:102630000001E86503D00101136B01D0E82B010113
:102640005351310A05E1010E146F0001E76B0BD005
:102650005351300A08E1010E0001E76503D0010182
:10266000146B01D0E72B01015951310A03E1010E2E
:10267000176F010C176B1200010E0001BE6F8B0E5D
:10268000BD6FFF0EC06FC40EBF6F1200A6C0AEF0CC
:10269000A7C0AFF0A8C0B0F0A9C0B1F0180E01D02B
:1026A000BCD8E82EFDD7AE51B46FAAC0AEF0ABC017
:1026B000AFF0ACC0B0F0ADC0B1F0180E01D0ADD8E5
:1026C000E82EFDD7AE51B36FB45109E0B351B45DFC
:1026D0000FE2B451B35DAE6F210EAE5D09E3AAC047
:1026E000A6F0ABC0A7F0ACC0A8F0ADC0A9F0120036
:1026F000B35109E0B451B35D0FE2B351B45DAE6FB5
:10270000210EAE5D09E3A6C0A6F0A7C0A7F0A8C041
:10271000A8F0A9C0A9F01200060EB26FA9BFB28F2F
:10272000ADBFB28DA88FA96BAC8FAD6BB351B45D4B
:102730001AE2D890AA37AB37AC37AD37B307B351ED
:10274000B4190DE0B207B2C0AEF0070EAE1707E045
:10275000F0D7D890A933A833A733A633B42BB351FD
:10276000B463F7D71CD0B451B35D19E2D890A63743
:10277000A737A837A937B407B351B4190DE0B2078A
:10278000B2C0AEF0070EAE1707E0F0D7D890AD3369
:10279000AC33AB33AA33B32BB351B463F7D7B2AF77
:1027A00009D0A61FA71FA81FA91FA62B000EA7238D
:1027B000A823A923B2AD02D0AA1F26D8B26BA65176
:1027C000AA27A751AB23A851AC23A951AD23ADAF84
:1027D00004D0AA1F19D8010EB26FAAC073F0ABC003
:1027E00074F0ACC075F0ADC076F0B4C077F0B2C094
:1027F00078F038EC1CF073C0A6F074C0A7F075C078
:10280000A8F076C0A9F01200AB1FAC1FAD1FAA2B19
:10281000000EAB23AC23AD23000CD890B133B03302
:10282000AF33AE3312001DC0D9FF1EC0DAFFDECFBA
:102830001FF0DDCF20F020EE04F01D50D9261E50F1
:10284000DA22DECF21F0DDCF22F01F50215C236E93
:1028500020502258246E2450800AF36E800EF35CC0
:10286000000ED8B4235C02E2236A246A20EE18F03A
:102870001D50D9261E50DA2223C0DEFF24C0DDFF02
:1028800065D07BD8D8B4DF1804E18BD820EE1AF0DD
:1028900080D820EE04F01D50D9261E50DA221DC02B
:1028A000E1FF1EC0E2FFDECFE6FFDECFE6FFDECFB8
:1028B000E6FFDDCFE5FF56D020EE12F01D50D92601
:1028C0001E50DA22DECF1FF0DDCF20F023501F5C38
:1028D000245020580CE251D8D8B4DF180BE120EE78
:1028E0001CF01D50D9261E50DA22020EDF6E20EE9B
:1028F0001AF04FD81EC015F01DC014F0176A080E4C
:10290000166EECEC1CF02ED020EE14F01D50D926E3
:102910001E50DA22DECF1FF0DDCF20F01F50235CE7
:102920002050245805E229D8D8B4DF1804E139D85A
:1029300020EE1AF02ED81EC015F01DC014F0030EA4
:10294000176E200E166EECEC1CF00CD020EE1CF076
:102950001D50D9261E50DA22DF5093E0010AACE068
:10296000030AD2E020EE04F01D50D9261E50DA22D0
:10297000DE6ADE6ADE6ADD6A120020EE1AF01D50A1
:10298000D9261E50DA22DE06000EDD5AD92ADD1CB9
:10299000FF0C1D50D9261E50DA22080EDE6EDD6AAD
:1029A000080C20EE1CF01D50D9261E50DA22010E14
:1029B000DF6E010C806F8051200D000EF324816FBB
:1029C000060EF420826F7A51800A800F010ED8B46F
:1029D000795D1AE320EE12F08151D9268251DA2274
:1029E00079C0DEFF7AC0DDFF7A357A317F6F7931C9
:1029F0007E6F20EE14F08151D9268251DA227EC0FA
:102A0000DEFF7FC0DDFF14D020EE12F08151D92609
:102A10008251DA224C0EDE6E040EDD6E20EE14F0D2
:102A20008151D9268251DA22260EDE6E020EDD6E2B
:102A300020EE08F08151D9268251DA2273C0DEFFE0
:102A400074C0DDFF20EE0AF08151D9268251DA22CE
:102A500075C0DEFF76C0DDFF20EE1DF08151D92666
:102A60008251DA2277C07EF0010E7F6F7E2B02D07A
:102A7000D8907F377E2FFCD77F51DF6E20EE1EF07F
:102A80008151D9268251DA2278C0DFFF20EE1CF076
:102A90008151D9268251DA22DF6A20EE1AF0815163
:102AA000D9268251DA223A0EDE6EDD6A7C51800A26
:102AB000800F010ED8B47B5D0BE320EE10F0815146
:102AC000D9268251DA227BC0DEFF7CC0DDFF09D02F
:102AD00020EE10F08151D9268251DA22200EDE6ECE
:102AE000DD6A20EE10F08151D9268251DA2210EEF3
:102AF0000EF08151E1268251E222DECFE6FFDDCFEA
:102B0000E5FF20EE18F08151D9268251DA22DE6AE3
:102B1000DD6A20EE04F08151D9268251DA22DE6A84
:102B2000DE6ADE6ADD6A20EE0CF08151D926825120
:102B3000DA22000EDE6EDD6E000C95D000F0010E84
:102B40000001E46F0CEC22F0F2AE03D0010EE56F51
:102B500001D0E56BF29E1CC1DDF01DC1DEF0010E5F
:102B6000E06FCA0EDF6F92D8820EF35CEE0ED8B41F
:102B7000C35D04E2E505D8B4F28E12001CC1DDF09D
:102B80001DC1DEF0E505D8B4F28E00F002EC17F0BE
:102B9000B5C0D9F0B6C0DAF0B7C0DBF0B8C0DCF031
:102BA00000F000F000017FD8D8B4DE18700ED8B461
:102BB000DE18C20ED8B4DE181EE075D8D8B4DE1800
:102BC000AA0ED8B4DE18420ED8B4DE1814E0F2AE65
:102BD00003D0010EE56F01D0E56BF29ED9C018F16C
:102BE000DAC019F1DBC01AF1DCC01BF1E505D8B47D
:102BF000F28EE66B15D0E62B040EE66511D0E66B7F
:102C0000F2AE03D0010EE56F01D0E56BF29E01013B
:102C1000186B196B1A6B1B6B0001E505D8B4F28EAB
:102C2000F2AE03D0010EE56F01D0E56BF29E1CC140
:102C3000DDF01DC1DEF0010EE06FE20EDF6F26D881
:102C4000800EF35C640ED8B4C35D04E2E505D8B42D
:102C5000F28E12001CC1DDF01DC1DEF0E505D8B416
:102C6000F28E00F06BD70001DFC0C3F0E0C0C4F00B
:102C7000C45103E0010A03E061D7C3515FD7C351D8
:102C8000CA0A01E170D7280ADAE058D71CC1C3F09C
:102C90001DC1C4F00001DD51C35FDE51C45BC451EE
:102CA000800AF36E120020EED9F0000EDE18000C40
:102CB0004650200D000EF32400016A6F060EF4202A
:102CC0006B6F070E666F400E656F46500A0A05E18E
:102CD000060E686F000E676F06D0200E6A25676FBC
:102CE000000E6B21686F696B20EE1CF06A51D926CB
:102CF0006B51DA22DF50606F60BF55D06BC015F0AA
:102D00006AC014F068C017F067C016F077EC0EF0D8
:102D100014C063F015C064F0000161D86151800AED
:102D2000626F6351605D6451800A62590AE220EE6D
:102D30000CF06A51D9266B51DA22DE2A000EDD2210
:102D400003D020EE0CF056D84AD820EE04F06A5199
:102D5000D9266B51DA226051DE266151DE22000E47
:102D600061BFFF0EDE22DD2220EE0EF043D8D92A0D
:102D7000DD1CFF0ED8B4DF1816E16BC01EF06AC070
:102D80001DF013EC14F020EE10F06A51D9266B51AF
:102D9000DA2210EE0EF06A51E1266B51E222DECF0C
:102DA000E6FFDDCFE5FF6BC068F06AC067F06651F3
:102DB0006B1902E165516A1905E1060E6B6F000E91
:102DC0006A6F04D0200E6A27000E6B23692B0A0E4F
:102DD00069658AD7462A46640A0C466A120020EEC4
:102DE0000CF06A51D9266B51DA22DECF60F0DDCFCC
:102DF00061F012006A51D9266B51DA22DE06000E0C
:102E0000DD5A000CE4C0B9F0010E0001BA6FB92B15
:102E100002D0D890BA37B92FFCD7BA51941296EC99
:102E20001CF0000907E0CC0E0DEC1BF0BE0E0DEC03
:102E30001BF001D025D0C16BC26BC251280FD96ED7
:102E4000DA6A41EC1DF0DF6EC251280FD96EDA6AE2
:102E5000DF50C119B96FBA6BA70EB925F66EC30E54
:102E6000BA21F76EF86A000EF8220800F5CFC1F01B
:102E7000C22B080EC265E1D7C16702D02F6602D00F
:102E8000000E59D0285029C0B9F0BA6BB9C0BAF0B9
:102E9000B96BB911BB6FBA51BC6F0F0EBB157D6F0B
:102EA0007E6B58EC22F07DC082F07EC083F07FC044
:102EB00084F080C085F0866B876B800E886F3D0E36
:102EC000896F2DEC18F082C0BDF083C0BEF084C0C5
:102ED000BFF085C0C0F0BDC0A6F0BEC0A7F0BFC0A7
:102EE000A8F0C0C0A9F0040EB96FBC35BC33BB3329
:102EF000B92FFBD7BBC07DF0BCC07EF058EC22F0F0
:102F00007DC0AAF07EC0ABF07FC0ACF080C0ADF059
:102F100046EC13F0A6C0BDF0A7C0BEF0A8C0BFF03D
:102F2000A9C0C0F0BDC0B5F0BEC0B6F0BFC0B7F01C
:102F3000C0C0B8F01200B56FB66F700EB76FC20E9A
:102F4000B86FC20C866F8D6B81C0F6FF82C0F7FF31
:102F5000F86A0800F5CF87F081296BD8F5CF88F0A3
:102F6000E00E8625946F956BFF0E952394C073F049
:102F700095C074F0020E81255CD8F550756F766BA4
:102F8000DEEC23F073C094F074C095F0030E942728
:102F9000000E952359D884C0F6FF85C0F7FFF86A64
:102FA0000800F5CF90F050D88429896F000E852154
:102FB0008A6FEAC08FF0E9C08EF08FC091F08C6B01
:102FC0002ED08EC092F0936B8B6B24D093670CD075
:102FD00089C0F6FF8AC0F7FFF86A0800F5CF8DF0C8
:102FE000894B8A2B800E936F8D5193150FE08305CB
:102FF00006E191C07CF09251BFEC21F007D08367CD
:1030000005D091C07CF0925169EC21F0922BD890C0
:1030100093338B2B88518B5DD9E3912B8C2B87516C
:103020008C5DCFE38E519025E96F8FC0EAF090510F
:103030001200846F000E8221856F84C0F6FF85C068
:10304000F7FFF86A0800120081C084F082C085F0A2
:103050009451842795518523120082C08AF083C041
:103060008BF084C08CF085C08DF0180E01D073D821
:10307000E82EFDD78A518E6F00018E6705D0826BD6
:10308000836B846B856B120086C08AF087C08BF0DF
:1030900088C08CF089C08DF0180E01D05CD8E82E65
:1030A000FDD78A51946F0001946705D0826B836BC2
:1030B000846B856B120094517B0F8E2785C094F032
:1030C0008951941B800E9417848F888F896B8F6B26
:1030D000906B916B926B070E936F82A102D0865119
:1030E0002BD832D88637873788378937932FF5D74B
:1030F000110E936F82A102D086511ED825D892332B
:10310000913390338F33932FF5D78FC073F090C0E6
:1031100074F091C075F092C076F08EC077F094C0D4
:1031200078F038EC1CF073C082F074C083F075C086
:1031300084F076C085F012008F2787519023885144
:103140009123895192231200D8908533843383339D
:103150008233D8901200D8908D338C338B338A33DE
:10316000120073C07BF074C07CF075C07DF076C037
:103170007EF0180E01D072D8E82EFDD77B51846FF7
:103180000001846705D0736B746B756B766B1200EE
:1031900077C07BF078C07CF079C07DF07AC07EF09B
:1031A000180E01D05BD8E82EFDD77B51836F00014C
:1031B000836701D0E8D7758F766B798F7A6B7F6BD9
:1031C000806B816B826B7F0E845F8351A00F845F65
:1031D000200E836FD8907F378037813782377751C1
:1031E000735D78517459795175597A51765909E35B
:1031F0007751735F7851745B7951755B7A51765B67
:103200007F81D8907337743775377637832FE2D73D
:1032100084AF0FD08451800A7B6FE10E800A7B5D02
:10322000B2E3D8908233813380337F33843FF9D740
:103230000CD01F0E846507D0A6D7D8907F37803773
:103240008137823784078467F8D77FC073F080C0E6
:1032500074F081C075F082C076F01200D8907E3391
:103260007D337C337B3312009C6B9D6B57D83AECDB
:1032700021F000019E6B0BD05FD8836B46D8D96ECE
:10328000000E9B21DA6EDF50A2EC17F09E2B20EE91
:1032900002F05DD8F1E342D83AEC21F09DC09EF0F7
:1032A0002DD09E519825D96E000E9921DA6EDF50EF
:1032B00002E1010E9C6F9C670ED09E519825D96E3D
:1032C000000E9921DA6E21D8E16E000E9B21E26E8C
:1032D000DFCFE7FF07D019D8D96E000E9B21DA6E39
:1032E000200EDF6E29D8010E836F0FD8D96E000E25
:1032F0009B21DA6EDF50A2EC17F09E2B000120EE2E
:1033000002F025D8D8B01200CCD79E5196259A6FDE
:10331000000E97219B6F050E9A25120020EE01F0FA
:103320009651D9269751DA22DF50756F96C0D9FF92
:1033300097C0DAFFDF50120020EE03F09651D92635
:103340009751DA22DECF81F0DDCF82F01200965164
:10335000D9269751DA22DF509E5D1200BFEC24F08F
:103360000201380509E10A0E7FEC24F0010E01018B
:10337000021B050E97EC24F00201400509E10A0E3C
:103380007FEC24F0010E0101031B040E97EC24F0E6
:10339000020130050BE10A0E7FEC24F0010E010161
:1033A000001B00B102D08A9E01D08A8E0201000566
:1033B0000BE10A0E7FEC24F0010E0101011B01B1AB
:1033C00002D08A9C01D08A8C0201080506E10A0E0F
:1033D0007FEC24F0010E0101041B0201480508E105
:1033E0000101085105E00A0E7FEC24F001010807F5
:1033F0000201500509E1030E0101085D05E20A0E14
:103400007FEC24F00101082B0201200509E10A0EDE
:103410007FEC24F001010751010ED8A4000E076FC4
:1034200002012805D8A412000A0E7FEC24F0010145
:10343000075104E00001816B826B05D0000E000192
:10344000826F020E816F81C007F112007DC085F08E
:103450007EC086F07FC087F080C088F0180E01D053
:1034600067D8E82EFDD785518E6F00018E6705D095
:103470007D6B7E6B7F6B806B120081C085F082C09C
:1034800086F083C087F084C088F0180E01D050D831
:10349000E82EFDD785518F6F00018F6705D07D6BBA
:1034A0007E6B7F6B806B12008F51890F8E5F80C0A7
:1034B0008FF084518F1B800E8F177F8F806B838FCF
:1034C000846B200E8D6FD89089378A378B378C3775
:1034D00081517D5D82517E5983517F59845180593C
:1034E00009E381517D5F82517E5B83517F5B845113
:1034F000805B8981D8907D377E377F3780378D2FED
:10350000E2D789C073F08AC074F08BC075F08CC0AC
:1035100076F08EC077F08FC078F038EC1CF073C076
:103520007DF074C07EF075C07FF076C080F0120030
:10353000D89088338733863385331200000175C0F5
:103540007BF07C6B7D6B74357B3701E37C817B5139
:10355000836F0001836705D0736B746B756B766B3B
:10356000120079C07BF07C6B7D6B78357B3701E393
:103570007C817B51826F0001826701D0EDD7748F0F
:10358000756B788F796B7E6B7F6B806B816B7F0E39
:10359000835F8251980F835F180E826FD8907E37B9
:1035A0007F37803781377751735D785174597951FE
:1035B000755907E37751735F7851745B7951755B87
:1035C0007E81D890733774377537822FE7D783AFF2
:1035D0000FD08351800A7B6FE90E800A7B5DBCE3CC
:1035E000D890813380337F337E33833FF9D70CD03B
:1035F000170E836507D0B0D7D8907E377F378037D6
:10360000813783078367F8D77EC073F07FC074F07B
:1036100080C075F081C076F01200776F000EF2BEA8
:10362000010EE26FF29E54D88B12786BE4C075F0F5
:10363000010E766F752B02D0D8907637752FFCD798
:10364000761D9416E4C075F0010E766F752B02D0CE
:10365000D8907637752FFCD7761D8B16746B050EB8
:10366000736F8BEC24F078C075F0010E766F752BBC
:1036700002D0D8907637752FFCD77651771503E0B6
:1036800027D88B120CD0E4C075F0010E766F752B25
:1036900002D0D8907637752FFCD7761D8B16746BB9
:1036A0004E0E736F8BEC24F013D88B12746B3C0EA0
:1036B000736F8BEC24F0782B070E7865B7D7E2A1F7
:1036C00001D0F28EE2B101D0F29E02D89412120023
:1036D000E4C075F0010E766F752B02D0D890763766
:1036E000752FFCD776511200B16BAB51800A800F59
:1036F00008E1000EAA5D05E1000EA95D02E1000EE1
:10370000A85D03E24BD8010EB16FAF51800A800F64
:1037100008E1000EAE5D05E1000EAD5D02E1000EB8
:10372000AC5D08E2AF1FAE1FAD1FAC6D000EAD2348
:10373000AE23AF23AF51AC11AD11AE1123E0010E9A
:10374000B06F06D0D890AC37AD37AE37AF37B02BAF
:10375000AFAFF8D7AC51A85DAD51A959AE51AA5938
:10376000AF51AB5908E3AC51A85FAD51A95BAE5165
:10377000AA5BAF51AB5BD890AF33AE33AD33AC3354
:10378000B02FE8D7B15101E009D8A8C0A8F0A9C06E
:10379000A9F0AAC0AAF0ABC0ABF01200AB1FAA1FE1
:1037A000A91FA86D000EA923AA23AB23000C0001BA
:1037B0009EC0A2F09FC0A3F0A0C0A4F0A1C0A5F03D
:1037C000180E01D04FD8E82EFDD7A251A76F0001E7
:1037D000A76705D09E6B9F6BA06BA16B12009EC06C
:1037E000A2F09FC0A3F0A0C0A4F0A1C0A5F0200E3D
:1037F00001D038D8E82EFDD7A251A66FA08FA16BBB
:10380000960EA75FA7AF0FD0A751800AA26FE90E4F
:10381000800AA25DDFE3D890A133A0339F339E33AB
:10382000A73FF9D70CD01F0EA76507D0D3D7D890E4
:103830009E379F37A037A137A707A767F8D7A651AC
:1038400008E0A11FA01F9F1F9E6D000E9F23A023B5
:10385000A1239EC09EF09FC09FF0A0C0A0F0A1C079
:10386000A1F01200D890A533A433A333A2331200E1
:10387000775105E0765173117411751107E1736B7F
:10388000746B756B766B1200772B4AD8796B7A6BF9
:103890007B6BFE0E76157C6F7C5179117A117B1152
:1038A00008E0F2D7772B732B000E74237523762351
:1038B00037D8796B7A6B7B6B76517C6F7C51791141
:1038C0007A117B1107E0EED77707D89073377437FA
:1038D0007537763775AFF8D777B102D07F0E751789
:1038E000D890773377C079F07A6B7B6B7C6B79C03B
:1038F0007CF07B6B7A6B796B795173137A5174130B
:103900007B5175137C5176137851D8A4768F73C090
:1039100073F074C074F075C075F076C076F0120064
:10392000D890763375337433733312004FD802D086
:10393000D8907637752FFCD7761D941600F0E4C02A
:1039400075F0010E0001766F752B02D0D890763796
:10395000752FFCD7761D8B16010E746F270E736FB3
:103960008BEC24F0010E746F270E736F8BEC24F038
:10397000000EF2BE010EE26FF29E28D802D0D8905F
:103980007637752FFCD776519412746B4E0E736F89
:103990008BEC24F01BD802D0D8907637752FFCD74B
:1039A00076518214010ED8A4000E776FE2A101D0E7
:1039B000F28EE2B101D0F29E010E746F270E736F8A
:1039C0008BEC24F0775101E0010C000CE4C075F0A1
:1039D000010E766F752B010C20EE16F01450D926CF
:1039E0001550DA22DFCF18F0DE2ADFCF19F0000EF3
:1039F000DD221650185C17501958D8A0120020EE7E
:103A000016F01450D9261550DA22000EDE6EDD6E47
:103A1000030E186E14C0D9FF15C0DAFF1AD8DE5E87
:103A20001A50DE5A1B50DE5A1C50DD5A030E186E17
:103A300020EE04F01450D9261550DA220AD8DE26DA
:103A40001A50DE221B50DE221C50DD22DD52DD52D8
:103A50001200DECF19F0DECF1AF0DECF1BF0DECF82
:103A60001CF0186601D007D01C341C321B321A32ED
:103A70001932182EF6D714C0D9FF15C0DAFF195025
:103A80001200776B000EF2BE010EE26FF29E3FD87D
:103A90008B12786BE4C075F0010E766F752B02D037
:103AA000D8907637752FFCD7761D9416E4C075F044
:103AB000010E766F752B02D0D8907637752FFCD714
:103AC000761D8B16746B050E736F8BEC24F01FD86C
:103AD0009412746B100E736F8BEC24F0D8907733C4
:103AE00016D8821402E0778F01D0779F746B4E0E48
:103AF000736F8BEC24F0782B070E7865CBD7E2A19F
:103B000001D0F28EE2B101D0F29E77511200E4C0F2
:103B100075F0010E766F752B02D0D8907637752F21
:103B2000FCD77651120001011451161910E014C18E
:103B300016F1146706D0010E056F4C6A010E026F74
:103B400006D0026B130503E14C6601D0056B1351DF
:103B5000151910E013C115F1136706D0010E056F9A
:103B60004C6A010E036F06D0036B140503E14C662B
:103B700001D0056B020110050BE10A0E7FEC24F069
:103B80000101056703D0010E061B02D0056B066B11
:103B900002011805D8A412000101065106E00A0E20
:103BA0007FEC24F00101066B1200056712000A0E7B
:103BB0007FEC24F01F0E0101056F010E4C6E010C0D
:103BC00006EE00F011EE60F0EE6AE550E150FCE127
:103BD000E250FAE105EE00F011EE00F0EE6AE55079
:103BE000E150FCE1E250FAE104EE00F0C80EEE6AAA
:103BF000E806FDE103EE00F0B40EEE6AE806FDE132
:103C000002EE00F0F80EEE6AE806FDE101EE00F0CB
:103C1000B30EEE6AE806FDE100EED9F0130EEE6A8F
:103C2000E806FDE100EE28F0250EEE6AE806FDE16B
:103C3000400EF66E490EF76E000EF86E01EEDBF0E8
:103C400010EE11F00900F5CFEEFFE550E150FAE17A
:103C500000019CEF10F07E6B7C51800AF36E800EA9
:103C6000F35C000ED8B47B5D06E27B6D7C1FD8B0A0
:103C70007C2B010E7E6F7A51800AF36E800EF35C0E
:103C8000000ED8B4795D06E2796D7A1FD8B07A2B30
:103C9000010E7E1B7F6B806B7C517B111BE0010E44
:103CA0007D6F04D0D8907B377C377D2B7CAFFAD7E3
:103CB000D8907F3780377B51795D7C517A5905E305
:103CC0007B51795F7C517A5B7F81D8907C337B33E9
:103CD0007D2FEED77E5104E07F6D801FD8B0802B02
:103CE0007FC079F080C07AF01200776F7751080DAD
:103CF000000EF3240001786F020EF420796F78C073
:103D0000D9FF79C0DAFF820EDF6E20EE01F0785124
:103D1000D9267951DA22020EDF6E20EE02F07851B8
:103D2000D9267951DA2274C0DFFF7351200D000EBD
:103D3000756F060E766FF3507527F450762320EEDC
:103D400004F07851D9267951DA2275C0DEFF76C0A9
:103D5000DDFF20EE06F07851D9267951DA22E00E07
:103D6000DE6E2E0EDD6E20EE03F07851D9267951ED
:103D7000DA22010EDF6E010C20EE02F09F51D926EF
:103D8000A051DA22A5C0DFFF20EE03F09F51D92613
:103D9000A051DA22A3C0DEFFA4C0DDFF9FC0D9FF7F
:103DA000A0C0DAFFA1C0DFFF20EE01F09F51D926AD
:103DB000A051DA22A2C0DFFFA86B0FD0A8519F2527
:103DC000A66F000EA021A76F050EA625D96E000EC6
:103DD000A721DA6E200EDF6EA82B20EE02F09F5195
:103DE000D926A051DA22DF50A85DE8E3A0C097F001
:103DF0009FC096F0050E9F25986F000EA021996F29
:103E000034EF19F0DACF70F0F3CF71F0F4CF72F035
:103E10009DB29EA215D0434A442A01011C4B1D2B82
:103E20003D4A3E2AE90E3D5C030E3E5805E33D6ADD
:103E30003E6A010EB1EC24F058EC16F0BC6A9E927A
:103E40007DB07EA017D040503F1010E03F06D8A0B4
:103E500040068988452A450400016C6F6CA102D098
:103E6000899801D0898800F000F001D089980F016D
:103E7000536B7E9072C0F4FF71C0F3FF70C0DAFF25
:103E80006FC0D9FF6EC0E2FF6DC0E1FF1100786B1B
:103E90007451800AF36E800EF35C000ED8B4735D2B
:103EA00006E2736D741FD8B0742B010E786F7651D3
:103EB000800AF36E800EF35C000ED8B4755D04E2E8
:103EC000756D761FD8B0762B7651751117E0010EFF
:103ED000776F04D0D89075377637772B76AFFAD7CF
:103EE0007551735D7651745904E37551735F765162
:103EF000745BD89076337533772FF2D7785104E01E
:103F0000736D741FD8B0742B73C073F074C074F0E9
:103F100012000001736B7351310FD96EDA6A020E11
:103F2000DF6205D07351310FD96EDA6ADF6A7351DF
:103F3000310FD96EDA6A010EDF6203D07351310F8F
:103F400020D8732B070E7365E6D7736B7351E10F9F
:103F5000D96EDA6A020EDF6205D07351E10FD96EB5
:103F6000DA6ADF6A7351E10FD96EDA6A010EDF6235
:103F700003D07351E10F05D8732B7351D8A41200ED
:103F8000E5D7D96EDA6A020EDF6E020C7B6B7C6BB2
:103F90007D6B7E6B7A5177117811791129E0010ED2
:103FA0007F6F06D0D8907737783779377A377F2B7D
:103FB0007AAFF8D7D8907B377C377D377E3777510B
:103FC000735D78517459795175597A51765909E36D
:103FD0007751735F7851745B7951755B7A51765B79
:103FE0007B81D8907A337933783377337F2FE2D758
:103FF0007BC073F07CC074F07DC075F07EC076F03D
:1040000012000001966F966718D0170E756F2C0E70
:104010003AEC21F0FF0E0001826F070E816F836B77
:10402000200EA2EC17F0170E756F2C0E3AEC21F053
:10403000FE0E0001826FA20E17D0170E756F2C0EA8
:104040003AEC21F0FE0E0001826FA20E816F836BAD
:10405000200EA2EC17F0170E756F2C0E3AEC21F023
:10406000FF0E0001826F070E816F010E836F200E1D
:10407000A2EF17F020EE01F09651D9269751DA22DF
:10408000DF50756F96C0D9FF97C0DAFFDF503AEC6A
:1040900021F000019A6B1BD020EE03F09651D92637
:1040A0009751DA22DECF81F0DDCF82F0836B9A5117
:1040B0009625986F000E9721996F050E9825D96E59
:1040C000000E9921DA6EDF50A2EC17F09A2B20EE49
:1040D00002F09651D9269751DA22DF509A5DD8B076
:1040E0001200DAD70001796F8C6A9568400EE95D9D
:1040F00003E28B868B9405D03F0EE96502D08B9648
:104100008B848D828D847B6B01D07B2B070E7B652E
:10411000FCD78D807B6B01D07B2B070E7B65FCD79A
:1041200083CF7AF08D907B6B01D07B2B070E7B6564
:10413000FCD7956A796702D0E92B05D0EAC075F003
:10414000E9513AEC21F000017A51120022D001C06D
:10415000D9FF02C0DAFFDF500AE025D8F5CF07F01B
:1041600001C0D9FF02C0DAFFDF5007180EE001C01E
:10417000D9FF02C0DAFFDF50076E15D8F550075C93
:10418000016E026AD8A002061200014A022A034AFE
:10419000042A0506D8A006060528D8B40628D7E1C3
:1041A000016A026A120003C0F6FF04C0F7FFF86A52
:1041B00008001200875184118511861123E0010E39
:1041C000886F06D0D8908437853786378737882B15
:1041D00087AFF8D78451805D8551815986518259C6
:1041E0008751835908E38451805F8551815B8651F3
:1041F000825B8751835BD8908733863385338433E2
:10420000882FE8D780C080F081C081F082C082F022
:1042100083C083F01200816B8051800A800F08E117
:10422000000E7F5D05E1000E7E5D02E1000E7D5D0A
:104230000AE2801F7F1F7E1F7D6D000E7E237F237D
:104240008023010E816F7DC073F07EC074F07FC04B
:1042500075F080C076F0960E776F81C078F038ECFC
:104260001CF073C07DF074C07EF075C07FF076C026
:1042700080F01200786F766B7F0E786501D0786BD6
:104280003F0E756501D0756B78C0E9F075C0EAF036
:104290007539E8461F0BEB6F3F0E786504D0400E72
:1042A000785F010E766F78514009776F76C073F0B2
:1042B0007751CBEC23F00001EB51B809776F736BAA
:1042C0007751CBEC23F0010E0001736F7751CBEFE8
:1042D00023F07F6F7CC075F07F513AEC21F0010E26
:1042E00072EC20F0806F010E72EC20F0806F7CC0C9
:1042F0007DF016D802D0D8907E377D2FFCD77E5126
:104300008015D8B412007CC07DF00AD802D0D890B5
:104310007E377D2FFCD77E1D801780517CEF22F0E9
:10432000070E7D17010E7E6F7D2B010C94969494E1
:1043300094909690969296948B90020E90EC23F027
:104340008B80010E90EC23F0E96BEA6BEB6B736BE7
:104350003F0ECBEC23F0010E0001736F3F0ECBEC50
:1043600023F00001736BC00ECBEC23F0010E0001B3
:10437000736FC00ECBEC23F0000E34EF23F07F6F91
:104380007CC075F07F513AEC21F0010E72EC20F008
:10439000806F010E72EC20F0806F7CC07DF00AD837
:1043A0008015D8A412007CC07DF004D88013805101
:1043B0007CEF22F0070E7D17010E7E6F7D2B02D061
:1043C000D8907E377D2FFCD77E5112007B6B7C6BA3
:1043D0007D6B7E6B73A108D077517B2778517C234E
:1043E00079517D237A517E23D89077377837793782
:1043F0007A37D890763375337433733376517311BB
:1044000074117511E7E17BC073F07CC074F07DC05E
:1044100075F07EC076F0120096EC1CF0000906E004
:10442000CC0E0DEC1BF0440E0DEC1BF0746B100E5B
:10443000736F8BEC24F010D802D0D8907A37792F94
:10444000FCD77A1D941608D802D0D8907A37792FE5
:10445000FCD77A518B121200E4C079F0010E7A6F0A
:10446000792B010C76AF09D0736D741FD8B0742B03
:10447000751FD8B0752B800E76577AAF09D0776D3F
:10448000781FD8B0782B791FD8B0792B800E7A5747
:10449000800E761B7A1B7751735D78517459795170
:1044A00075597A51765902E2D8901200D8801200DC
:1044B000816B7E51800AF36E800EF35C000ED8B4DF
:1044C0007D5D05E27D6D7E1FD8B07E2B812B7DC08A
:1044D00073F07EC074F0756B766B960E776F81C04B
:1044E00078F038EC1CF073C07DF074C07EF075C0BD
:1044F0007FF076C080F01200756F7F0EE96501D005
:104500007F0C400EE95D03E28B868B9405D03F0E55
:10451000E96502D08B968B84E951400A05E1010ED2
:10452000736F400ECBEC23F08D928D84956A75C02D
:104530008CFF9FEC22F00001E92B8C6A1200050E23
:104540000001E36F000100F000F000F000F000F067
:10455000E32FA3EF22F08D80030E0001E36F000133
:1045600000F000F000F000F000F0E32FB0EF22F0D8
:104570008D9000F000F000F000F000F0E32FB9EFB4
:1045800022F0030C0001736B7351310FD96EDA6A9C
:10459000DF6A732B070E7365F7D7736B7351E10FE7
:1045A000D96EDA6ADF6A732B7351F8E0736B73515B
:1045B000390FD96EDA6ADF6A732B030E7365F7D78A
:1045C000030C800EBC1BB5C0A6F0B6C0A7F0B7C0E8
:1045D000A8F0B8C0A9F0B9C0AAF0BAC0ABF0BBC08F
:1045E000ACF0BCC0ADF046EC13F0A6C0B5F0A7C06F
:1045F000B6F0A8C0B7F0A9C0B8F012009B6B96C087
:10460000D9FF97C0DAFF11D099C082F098C081F02D
:104610009AC083F09C51A2EC17F09B2B00019B5198
:104620009625D96E000E9721DA6EDF509C6F9C673D
:10463000EBD71200786F7A6B775114E0010E796F27
:1046400003D0D8907737792B77AFFBD7D8907A37CC
:104650007751785D03E37751785F7A81D89077332B
:10466000792FF4D77A5112000001796F7B6B7B515F
:10467000080DF3CF75F0000E3AEC21F000017A6BD3
:1046800079517CEC22F07A2B7F0E7A65F9D77B2B5F
:10469000070E7B65ECD7070C7DC073F07EC074F00D
:1046A0007FC075F080C076F0960E776F000E786B45
:1046B00038EC1CF073C07DF074C07EF075C07FF0E4
:1046C00076C080F0120002C006F001C005F004D0F0
:1046D000054A062A034A042A03C0D9FF04C0DAFFA8
:1046E00005C0E1FF06C0E2FFDFCFE7FFE750D8B427
:1046F0001200EED702C008F001C007F008D007C0D2
:10470000D9FF08C0DAFF03C0DFFF074A082A050601
:10471000D8A006060528D8B40628D8B41200EFD7CA
:10472000736F040E746FFA0EE36F000100F000F077
:1047300000F000F000F0E32F96EF23F000F000010E
:10474000742FF1D7732FEDD7FA0C746F080E756FB5
:10475000766BD89074357635766FD8907437735100
:10476000765D02E37351765F752FF3D776511200B1
:10477000000120EE73F0DE50DE10DE10DE1002E0ED
:10478000800E761B73C073F074C074F075C075F042
:1047900076C076F01200746F736703D08B868B94AB
:1047A00004D0730502E18B968B848D928D94956A6B
:1047B00074C08CFF9FEC22F08C6A12007351750359
:1047C000F3CF77F0F4CF78F073517603F350782776
:1047D00074517503F350782777C073F078C074F084
:1047E00012004B6A016A026A00F09EBA07D0014AC1
:1047F000022A100E015C270E0258F6E39EBABBEFA8
:1048000024F0010E4B6E000C09D076C0D9FF77C0A2
:10481000DAFFDF5073EC24F0764B772B76C0D9FFAC
:1048200077C0DAFFDF50D8B41200EFD7A2C096F0FD
:10483000A1C095F0000E986B976B05EC09F095C040
:10484000A1F096C0A2F097C0A3F098C0A4F0120007
:10485000756F010E746F7551200A07E00E0E755DBD
:1048600003E2090E755DD8A0746B74C073F07331E8
:104870001200736F7351310FD96EDA6A020EDF6264
:10488000000C7351310FD96EDA6A000EDF6E010C25
:10489000670EAF6EAC94B896AC98AB8EAB88AB9A03
:1048A0009D989D9AAC9CAB9CAC9AAC8A670C756F3A
:1048B000746B3A0E755D05E22F0E756502D0010E20
:1048C000746F74C073F073311200C26AC16AC06A37
:1048D000C08EC050C70B0809C06EC050F80B01094C
:1048E000C06EC2801200756F8BBA04D08B8A050E21
:1048F00090EC23F0ACA2FED775C0ADFF1200000112
:10490000736F92987351280DF3CF3FF0F4CF40F0BE
:10491000010E476E010C01D000F000017307D8A012
:1049200074077329D8B47429D8B41200F5D70001DC
:10493000736F7351310FD96EDA6A010EDF6E010C9D
:104940000000C8C2CDCCC742CDCCC7420A0A0A0A71
:104950000A00016E0150310FD96EDA6A010EDF6E66
:10496000010C146E1450310FD96EDA6A010EDF6E2D
:10497000010C01D000F09EAAFDD7AE50120097EFB7
:104980000FF0FF00FF00FF00FF00FF00FF00FF002F
:10C3A000FF00FF00FF0000005EBCE2613FDD83C2D2
:10C3B0009C7E20A3FD1F419DC3217FFCA2401E5FE8
:10C3C00001E3BD3E6082DC237D9FC1421CFEA0E1F3
:10C3D000BF5D0380DE3C62BEE0025CDF81633D7CCA
:10C3E00022C09E1D43A1FF4618FAA427799BC5844D
:10C3F000DA3866E5BB5907DB856739BAE4065819B0
:10C4000047A5FB7826C49A653BD987045AB8E6A7A6
:10C41000F91B45C6987A24F8A6441A99C7257B3A91
:10C420006486D85B05E7B98CD2306EEDB3510F4E00
:10C4300010F2AC2F7193CD114FADF3702ECC92D37F
:10C440008D6F31B2EC0E50AFF1134DCE90722C6D5A
:10C4500033D18F0C52B0EE326C8ED0530DEFB1F061
:10C46000AE4C1291CF2D73CA947628ABF5174908BC
:10C4700056B4EA6937D58B5709EBB536688AD49537
:10C48000CB2977F4AA4816E9B7550B88D6346A2B1E
:10C490007597C94A14F6A8742AC896154BA9F7B619
:10C4A000E80A54D7896B350000803FCDCCCC3D0ADB
:10C4B000D7233C6F12833A17B7D138ACC52737BDA5
:10C4C00037863595BFD63377CC2B325F708930FFF6
:10C4D000E6DB2E08E53C1E6042A20D0000803F0016
:10C4E0000020410000C84200007A4400401C460081
:10C4F00050C347002474498096184B20BCBE4C287A
:10C500006B6E4EF9021550EC78AD60CAF2497117A6
:10C51000205D070000000000000000000000000097
:10C52000000000000000000000000000000000000B
:10C5300000000000000000000000000000000000FB
:10C5400000000000000000000000000000000000EB
:10C5500000000000000000000000000000000000DB
:10C5600000000000000000000000000000000007C4
:10C5700000000000000000000000000000000000BB
:10C58000000000007000000070000000700000005B
:10C5900070000000700000007000000070000000DB
:10C5A000700000007000000070000000000000003B
:10C5B000000000007000000070000000000000009B
:10C5C0000000000000000000000000000900000062
:10C5D00000000000000000000000000000770000E4
:10C5E000007700000077000000770000007700006F
:10C5F000000000000000000000000000000000003B
:10C60000000000000000000000000000000000002A
:10C61000000000000000000000000000000000001A
:10C6200000000000000000000010000000000000FA
:10C6300000000000000000000000000000000318DF
:10C64000000003180000073000001FFC00001FFC62
:10C65000000006300000063000000C6000007FF88B
:10C6600000007FF800000C6000000C60000018C0A3
:10C67000000018C0000000000000000000000000E2
:10C680000000000000000C0000000000000000009E
:10C69000000000000000000000000006000000068E
:10C6A0000000001FC000003FC00000764000007680
:10C6B0000000007E0000003FC000001FE0000007F7
:10C6C000E0000046E0000066E000007FC000003FA0
:10C6D00080000006000000060000000600000000C8
:10C6E0000000001700000000000000000000000033
:10C6F00000000000000000001E0300003F060000D4
:10C7000073860000738C0000738C00007398F00037
:10C710007399F8003F339C001E339C0000639C001B
:10C7200000639C0000C39C0000C1F8000180F00081
:10C7300000000000000000000000000000000000F9
:10C740000F000000000000000000000000000000DA
:10C7500000000000000F8000001FE0000038E00033
:10C760000038E000003CE000001FC000001F1C007B
:10C77000003F9C000073DC000071F8000070F800BE
:10C7800000787800003FFE00000F9F0000000000CE
:10C790000000000000000000000000000005000094
:10C7A0000000000000000000000000000000700019
:10C7B00000007000000070000000700000007000B9
:10C7C0000000000000000000000000000000000069
:10C7D0000000000000000000000000000000000059
:10C7E0000000000000000000000000000000000049
:10C7F0000000000000000000000009000000000030
:10C8000000000000000000000000000F0000001EFB
:10C810000000001C0000003C000000380000003850
:10C820000000007000000070000000700000007048
:10C830000000007000000070000000700000003870
:10C84000000000380000003C0000001C0000001E3A
:10C850000000000F000000090000000000000000C0
:10C860000000000000000000780000003C00000014
:10C870001C0000001E0000000E0000000E00000062
:10C88000070000000700000007000000070000008C
:10C890000700000007000000070000000E00000075
:10C8A0000E0000001E0000001C0000003C00000004
:10C8B000780000000C0000000000000000000000F4
:10C8C0000000000000060000002640000076E000A6
:10C8D000001F8000000F0000001F80000076E000B5
:10C8E00000264000000600000000000000000000DC
:10C8F0000000000000000000000000000000000038
:10C900000000000000000000000000000000000027
:10C910000010000000000000000000000000000007
:10C920000000000000000000000000000000018086
:10C9300000000180000001800000018000000180F3
:10C9400000003FFC00003FFC00000180000001806F
:10C950000000018000000180000001800000000054
:10C9600000000000000000000000000000000600C1
:10C9700000000000000000000000000000000000B7
:10C9800000000000000000000000000000000000A7
:10C990000000000000000000000000000000000097
:10C9A00000000000000000000000003800000070DF
:10C9B000000000700000006000000060000000E067
:10C9C000000000C00000000000000008000000009F
:10C9D0000000000000000000000000000000000057
:10C9E0000000000000000000000000000000000047
:10C9F0000000000000000000000000007E000000B9
:10CA00007E0000007E00000000000000000000002A
:10CA10000000000000000000000000000000000016
:10CA20000000000000000000060000000000000000
:10CA300000000000000000000000000000000000F6
:10CA400000000000000000000000000000000000E6
:10CA500000000000000000000000000000000000D6
:10CA60000000000000700000007000000070000076
:10CA70000070000000000000000000000000000046
:10CA800000000000000B000000000000000000009B
:10CA90000000000000000380000003800000070089
:10CAA000000007000000070000000E0000000E005C
:10CAB00000000E0000000E0000001C0000001C0022
:10CAC00000001C0000001C000000380000003800BE
:10CAD000000038000000700000007000000000003E
:10CAE00000000C000000000000000000000000003A
:10CAF000000000000000000F0000003FC0000039EF
:10CB0000C0000070E0000070E0000070E000007005
:10CB1000E0000070E0000070E0000070E0000070D5
:10CB2000E0000039C000003FC000000F000000001E
:10CB30000000000000000000000000000000000CE9
:10CB400000000000000000000000000000000000E5
:10CB50000000000007000000070000003F00000088
:10CB60003F00000007000000070000000700000071
:10CB70000700000007000000070000000700000099
:10CB8000070000003FE000003FE000000000000060
:10CB90000000000000000000000000000C00000089
:10CBA0000000000000000000000000000000000085
:10CBB000003F8000007FC0000061E0000040E00016
:10CBC0000000E0000000E0000001E0000003C00001
:10CBD00000078000000F0000001E0000003C000065
:10CBE000007FF000007FF000000000000000000067
:10CBF0000000000000000000000C00000000000029
:10CC000000000000000000000000000000003F8065
:10CC100000007FC0000060E0000040E0000001E094
:10CC200000000F8000000FC0000001E0000000E0E5
:10CC3000000000E0000040E0000061E000007FC074
:10CC400000003F00000000000000000000000000A5
:10CC50000000000000000C000000000000000000C8
:10CC6000000000000000000000000001C000000300
:10CC7000C0000007C0000007C000000DC000001980
:10CC8000C0000019C0000031C0000061C000007F7A
:10CC9000F000007FF0000001C0000001C0000001B2
:10CCA000C0000000000000000000000000000000C4
:10CCB0000000000C00000000000000000000000068
:10CCC00000000000000000003FE000003FE0000026
:10CCD0003800000038000000380000003F800000ED
:10CCE0003FC0000001E0000000E0000000E00000A4
:10CCF00040E0000061C000007FC000003F00000075
:10CD00000000000000000000000000000000000023
:10CD10000C00000000000000000000000000000007
:10CD2000000000000007C000001FC000003C000021
:10CD3000003800000070000000778000007FC00015
:10CD40000071E0000070E0000070E0000070E000A2
:10CD50000039E000003FC000000F8000000000002C
:10CD6000000000000000000000000000000C0000B7
:10CD700000000000000000000000000000000000B3
:10CD800000007FE000007FE0000000E0000001C044
:10CD9000000001C000000380000007000000070041
:10CDA00000000E0000000E0000001C000000380013
:10CDB00000003800000070000000000000000000CB
:10CDC000000000000000000000000C000000000057
:10CDD0000000000000000000000000000000001F34
:10CDE0008000003FC0000070E0000070E0000070B4
:10CDF000E000003FC000001F8000003FC000007145
:10CE0000E0000070E0000070E0000079E000003F0A
:10CE1000C000001F800000000000000000000000B3
:10CE2000000000000000000C0000000000000000F6
:10CE30000000000000000000000000000F000000E3
:10CE40003FC0000039C0000070E0000070E000004A
:10CE500070E0000078E000003FE000001EE000000D
:10CE600000E0000001C0000003C000003F8000009F
:10CE70003E00000000000000000000000000000074
:10CE8000000000000700000000000000000000009B
:10CE90000000000000000000000000000000000092
:10CEA0000000000000000000003800000038000012
:10CEB0000038000000380000000000000000000002
:10CEC0000038000000380000003800000038000082
:10CED0000000000000000000000000000000000052
:10CEE000000700000000000000000000000000003B
:10CEF0000000000000000000000000000000000032
:10CF00000000000000003800000038000000380079
:10CF100000003800000000000000000000001C00BD
:10CF20000000380000003800000030000000300031
:10CF30000000700000006000000000000000100011
:10CF400000000000000000000000000000000000E1
:10CF500000000000000000000000000004000000CD
:10CF60003C000000FC000003F800001FC000003F70
:10CF70000000003F0000001FC0000003F800000098
:10CF8000FC0000003C000000040000000000000065
:10CF90000000000000000000000000100000000081
:10CFA0000000000000000000000000000000000081
:10CFB0000000000000000000000000000000000071
:10CFC0003FF800003FF800000000000000000000F3
:10CFD000000000003FF800003FF8000000000000E3
:10CFE0000000000000000000000000000000000041
:10CFF0000000000000000000100000000000000021
:10D000000000000000000000000000000000000020
:10D010000000000000200000003C0000003F000075
:10D02000001FC0000003F8000000FC000000FC002E
:10D030000003F800001FC000003F0000003C00009B
:10D0400000200000000000000000000000000000C0
:10D0500000000000000B00000000000000000000C5
:10D06000000000000000000000003F0000007F8082
:10D0700000007FC0000043C0000001C0000001C0EC
:10D080000000038000000F0000001E0000001C00D4
:10D0900000001C000000000000001C0000001C003C
:10D0A0000000000000000000000000000000000080
:10D0B000000011000000000000000000000000005F
:10D0C0000000000000000003E000000FF800001C5A
:10D0D0001C00003806000031F6000063F300006613
:10D0E00033000066330000663300006633000063DF
:10D0F000FE000033FE0000380000001C1000000F8E
:10D10000F0000003F0000000000000000000000D2F
:10D11000000000000000000000000000000000000F
:10D12000000000000F8000000F8000000F80000052
:10D130001DC000001DC000001DC0000038E0000040
:10D1400038E0000038E000007FF000007FF00000D1
:10D1500070700000F0780000E0380000000000006F
:10D160000000000000000000000000000D000000B2
:10D1700000000000000000000000000000000000AF
:10D18000007F8000007FC0000071E0000070E000C0
:10D190000070E0000071C000007F8000007FE000B0
:10D1A0000070F00000707000007070000070F000FF
:10D1B000007FE000007FC0000000000000000000D1
:10D1C0000000000000000000000D00000000000052
:10D1D000000000000000000000000000000007E068
:10D1E00000001FF000003C3000003810000070000C
:10D1F000000070000000700000007000000070006F
:10D20000000070000000381000003C3000001FF0EB
:10D21000000007E000000000000000000000000027
:10D220000000000000000E000000000000000000F0
:10D2300000000000000000000000007F8000007F70
:10D24000E0000070F00000707000007038000070A6
:10D25000380000703800007038000070380000702E
:10D260003800007070000070F000007FE000007F68
:10D27000800000000000000000000000000000002E
:10D280000000000C00000000000000000000000092
:10D2900000000000000000007FE000007FE00000D0
:10D2A0007000000070000000700000007FE00000CF
:10D2B0007FE00000700000007000000070000000BF
:10D2C00070000000700000007FE000007FE00000C0
:10D2D000000000000000000000000000000000004E
:10D2E0000B00000000000000000000000000000033
:10D2F00000000000007FE000007FE0000070000000
:10D300000070000000700000007FE000007FE0007F
:10D31000007000000070000000700000007000004D
:10D3200000700000007000000070000000000000AD
:10D33000000000000000000000000000000E0000DF
:10D3400000000000000000000000000000000000DD
:10D35000000007E000001FF800003C38000038081B
:10D360000000700000007000000071F8000071F80B
:10D3700000007038000070380000383800003C3879
:10D3800000001FF8000007E000000000000000009F
:10D39000000000000000000000000F00000000007E
:10D3A000000000000000000000000000000000700D
:10D3B0001C0000701C0000701C0000701C0000703D
:10D3C0001C00007FFC00007FFC0000701C0000704F
:10D3D0001C0000701C0000701C0000701C0000701D
:10D3E0001C0000701C000000000000000000000095
:10D3F0000000000000000009000000000000000024
:10D400000000000000000000000000007F0000009D
:10D410007F0000001C0000001C0000001C00000039
:10D420001C0000001C0000001C0000001C0000008C
:10D430001C0000001C0000001C0000007F00000019
:10D440007F0000000000000000000000000000005D
:10D45000000000000A0000000000000000000000C2
:10D460000000000000000000003F8000003F80003E
:10D4700000038000000380000003800000038000A0
:10D480000003800000038000000380000003800090
:10D49000000380000007800000FF000000FC000087
:10D4A000000000000000000000000000000000007C
:10D4B000000D00000000000000000000000000005F
:10D4C0000000000000007078000070F0000071E0C3
:10D4D000000073C0000073800000778000007F00B0
:10D4E00000007F0000007B80000073C0000071E03E
