:1000000008EF01F0FF00FF00FACF7BF0FBCF7CF0A0
:10001000E9CF7DF009EF31F0D8CF2EF0E8CF2FF007
:10002000E0CF30F0FACF31F0FBCF32F0E9CF33F050
:10003000EACF34F0E1CF35F0E2CF36F0D9CF37F068
:10004000DACF38F0F3CF39F0F4CF3AF0F6CF3BF017
:10005000F7CF3CF0F8CF3DF0F5CF3EF000F09EBA80
:100060009DAAB3D02050010D0401000EF324D96ED7
:100070000401040EF420DA6E55EC38F0DF6EABA408
:10008000ABB299D02150D8A496D02050010D0401D4
:10009000000EF324D96E0401040EF420DA6E3E0E35
:1000A000DF6205D03E0E0401006F010E82D0040114
:1000B000040E266E0401000E256EFF0E286EED0E56
:1000C000276E000E2A6E050E296EE1EC35F02650E3
:1000D0002510D8A429D02050330AD8A425D000F068
:1000E00000F0000E7CEC39F00201020E266E0201D7
:1000F000000E256E0401040E286E0401000E276E0A
:10010000D1EC38F00401040E266E0401000E256EB9
:10011000000E286E000E276E000E2A6E5A0E296EF3
:10012000FEEC38F0000E206E0401040E266E040171
:10013000000E256EFF0E286EE70E276E000E2A6E4B
:10014000050E296EE1EC35F026502510D8A42CD0F0
:100150002050180AD8A428D000F000F0000E7CEC43
:1001600039F0300E0401006F0201020E266E02010A
:10017000000E256E0401040E286E0401000E276E89
:10018000D1EC38F00401040E266E0401000E256E39
:10019000000E286E000E276E000E2A6E5A0E296E73
:1001A000FEEC38F0000E206E202A5A0E20640DD08E
:1001B000000E206E0AD08B9A9EBAAECF1FF09EBA68
:1001C000AECF1FF0AB9800F0AB883EC0F5FF3DC04E
:1001D000F8FF3CC0F7FF3BC0F6FF3AC0F4FF39C060
:1001E000F3FF38C0DAFF37C0D9FF36C0E2FF35C0B1
:1001F000E1FF34C0EAFF33C0E9FF32C0FBFF31C08A
:10020000FAFF30C0E0FF2FC0E8FF2EC0D8FF10007B
:10021000F6EF33F00101010E0301E56F0101B10EAC
:100220000301E46F9CEF08F00301FA51250AD8B4EA
:100230000CD0ADC1D9FFAEC1DAFF0301FAC3DFFFB5
:100240000101AD4BAE2B9CEF08F0000E0301F36FE4
:10025000000E0301F26F000E0301ED6F000E0301AB
:10026000EC6F05D00301EC850101AF4BB02B010110
:10027000AFC1F6FF0101B0C1F7FFF86A0800F55001
:10028000300AD8B4EFD70101AFC1F6FF0101B0C108
:10029000F7FFF86A0800F550E8EC38F0D8A049D02C
:1002A000000E0301F36F000E0301F26FF2C389F039
:1002B000F3C38AF0000E00018C6F0A0E00018B6FF1
:1002C0003AEC38F0000189C0F2F300018AC0F3F380
:1002D000D00E0101C36FFF0EC46F0101AFC1F6FF65
:1002E0000101B0C1F7FFF86A0800F5500101C56FC0
:1002F000C66B0101C3510101C5270101C4510101B0
:10030000C6230101C5510301F2270101C6510301B2
:10031000F3230101AF4BB02B0101AFC1F6FF010187
:10032000B0C1F7FFF86A0800F550E8EC38F0D8B033
:10033000BDD70101AFC1F6FF0101B0C1F7FFF86AF7
:100340000800F5502E0AD8A441D00301ED8D01011B
:10035000AF4BB02B000E0301F56F000E0301F46FDD
:1003600027D0F4C389F0F5C38AF0000E00018C6F2A
:100370000A0E00018B6F3AEC38F00101AFC1F6FFB5
:100380000101B0C1F7FFF86A0800F55000018927A4
:10039000000E00018A23D00E000189250301F46FAD
:1003A000FF0E00018A210301F56F0101AF4BB02B55
:1003B0000101AFC1F6FF0101B0C1F7FFF86A080003
:1003C000F550E8EC38F0D8A0E0D0CBD7000E030110
:1003D000F56F000E0301F46F0301ED89D6D0030120
:1003E000ED85F4D0E4C3D9FFE5C3DAFF0301DECF26
:1003F000F6F30301DDCFF7F3020E0301E427000E4D
:100400000301E5230301F751F611D8A406D0FF0E2E
:100410000301F76FCD0E0301F66F000E0301F96FB4
:10042000000E0301F86F03D00301F84BF92B030111
:10043000F6C3C3F10301F7C3C4F10301F85101018D
:10044000C3270301F9510101C423C3C1F6FFC4C18D
:10045000F7FF000EF86E0F0EF76403D00800F5509A
:1004600005D0F6CFE9FFF7CFEAFFEF500009D8A497
:10047000DBD70301F551F411D8B40ED00301F851C4
:100480000301F45D0301F9510301F559D8B004D01B
:10049000F4C3F8F3F5C3F9F30301F2510301F85D76
:1004A0000301F3510301F959D8B00AD0030123EE37
:1004B000F8F0DE500301F25FDD500301F35B10D072
:1004C000000E0301F36F000E0301F26F09D0ADC1FE
:1004D000D9FFAEC1DAFF200EDF6E0101AD4BAE2BAE
:1004E0000301F207D8A0F3070301F229D8B4F329D6
:1004F000D8B41FD0ECD70301F6C3F6FF0301F7C34E
:10050000F7FF000EF86EADC1D9FFAEC1DAFF0F0ED6
:10051000F76403D00800F55005D0F6CFE9FFF7CF18
:10052000EAFFEF50DF6E0301F64BF72B0101AD4BF5
:10053000AE2B0301F807D8A0F9070301F829D8B4B6
:10054000F929D8B49CEF08F0D6D7E4C3D9FFE5C3A6
:10055000DAFFDF500301FA6F020E0301E427000EF9
:100560000301E5230301030E0301F76F0301FA0EF4
:100570000301F66F000E0301F96F010E0301F86F1E
:1005800078D7C00E0301EC1321D00101AFC1F6FFF3
:100590000101B0C1F7FF0101AF4BB02BF86A0800B1
:1005A0000301F5CFFAF30301FA51000AD8B4AEEF14
:1005B00008F0630AD8B4C9D7050AD8B410D7150A09
:1005C000D8B410D7060AD8B4DCD7CCD7070E0301AD
:1005D000ED15D8B4FDEF06F00301EDA906D0000E2D
:1005E0000301F56F060E0301F46FE4C3D9FFE5C301
:1005F000DAFF0301DECFEEF30301DECFEFF30301F9
:10060000DECFF0F30301DECFF1F3040E0301E427A4
:10061000000E0301E5230301F1AF15D0EEC389F00D
:10062000EFC38AF0F0C38BF0F1C38CF0C7EC37F066
:1006300089C0EEF38AC0EFF38BC0F0F38CC0F1F306
:10064000030E0301EC13000E0301EB6F000E030118
:10065000EA6F030123EEEEF0DE50DE10DE10DE1056
:10066000D8B4A1D00301F0350301F135820F0301A5
:10067000EA6F0301EB6BFF0EEB230301EA07D8A03F
:10068000EB07EAC389F0EBC38AF0000E00018C6F20
:10069000030E00018B6F3AEC38F0000189C0EAF3D9
:1006A00000018AC0EBF3EAC38FF0EBC390F0000EB9
:1006B0000001926F0A0E0001916F29EC30F00001E9
:1006C0008FC0EAF3000190C0EBF30301EB51800A05
:1006D000F36E800EF35C000ED8B4EA5DD8B004D09F
:1006E0000301EA07D8A0EB070301EA510008B9ECBF
:1006F0000CF089C1E6F38AC1E7F38BC1E8F38CC142
:10070000E9F3E6C398F0E7C399F0E8C39AF0E9C3C8
:100710009BF0EEC39CF0EFC39DF0F0C39EF0F1C3DD
:100720009FF0B1EC25F098C0E6F399C0E7F39AC0CA
:10073000E8F39BC0E9F3E6C389F0E7C38AF0E8C3B6
:100740008BF0E9C38CF0000E00018D6F000E0001EC
:100750008E6F800E00018F6F3F0E0001906F2BECAB
:100760002EF0D8B005D00301EA07D8A0EB071BD0C4
:10077000E6C389F0E7C38AF0E8C38BF0E9C38CF0E5
:10078000000E00018D6F000E00018E6F200E000123
:100790008F6F410E0001906F2BEC2EF0D8A003D08C
:1007A0000301EA4BEB2B0301F551800AF36E800E37
:1007B000F35C0D0ED8B4F45DD8B01ED0EEC396F144
:1007C000EFC397F1F0C398F1F1C399F10301F4512C
:1007D0004FEC16F089C19AF18AC19BF18BC19CF153
:1007E0008CC19DF120EC1BF096C1EEF397C1EFF3A5
:1007F00098C1F0F399C1F1F30301EB51800AF36E54
:10080000800EF35C0A0ED8B4EA5DD8B02BD0030199
:1008100023EEEEF0DE50DE10DE10DE10D8B47FD016
:10082000EEC392F1EFC393F1F0C394F1F1C395F1EC
:10083000A2EC2BF092C1C3F193C1C4F194C1C5F1F4
:1008400095C1C6F10101C651C311C411C511D8A487
:1008500066D00301EB51800A800F020ED8B4EA5D26
:10086000D8A05DD0E6C389F0E7C38AF0E8C38BF077
:10087000E9C38CF05F0E00018D6F700E00018E6F6A
:10088000890E00018F6F400E0001906F2BEC2EF04F
:10089000D8B003D00301F70E02D00301F80E030114
:1008A000EA27FF0E0301EB230301EA51B9EC0CF038
:1008B00089C1E6F38AC1E7F38BC1E8F38CC1E9F3A0
:1008C000EEC389F0EFC38AF0F0C38BF0F1C38CF074
:1008D000E6C38DF0E7C38EF0E8C38FF0E9C390F074
:1008E000A4EC21F089C0D8F38AC0D9F38BC0DAF325
:1008F0008CC0DBF3D8C3F6F3D9C3F7F3DAC3F8F34C
:10090000DBC3F9F3000E0301EE6F000E0301EF6F7E
:10091000000E0301F06F000E0301F16F3CD0EEC337
:1009200092F1EFC393F1F0C394F1F1C395F1A2EC0E
:100930002BF092C1F6F393C1F7F394C1F8F395C18C
:10094000F9F3EEC3A5F1EFC3A6F1F0C3A7F1F1C32C
:10095000A8F1F6C393F0F7C394F0F8C395F0F9C388
:1009600096F06FEC38F093C0A9F194C0AAF195C04D
:10097000ABF196C0ACF152EC37F0A5C1EEF3A6C1D5
:10098000EFF3A7C1F0F3A8C1F1F3000E0301EB6F81
:10099000000E0301EA6F010E0301FA6F0301FA5121
:1009A0000A0AD8B421D00301FA51040DF60EF3243B
:1009B000F66EC40EF420F76EF86A000EF8220900F5
:1009C000F5500301F65D0900F5500301F7590900E0
:1009D000F5500301F8590900F5500301F959D8A061
:1009E00003D00301FA2BDAD70301FAC3C3F10101E3
:1009F000C46BC3BFC4070301F4510101C327030142
:100A0000F5510101C4230301EA510101C327030188
:100A1000EB510101C4230101C3510301F25F010144
:100A2000C4510301F35B0301F551F411D8B404D0B0
:100A30000301F207D8A0F307030E0301EC1501012F
:100A4000C36F000E0301ED150101C46F0101C45114
:100A5000C311D8B404D00301F207D8A0F3070301EF
:100A6000ECA53FD0030E0301EC150101C36F000E8E
:100A70000301ED150101C46F0101C451C311D8B4C4
:100A800017D0ADC1D9FFAEC1DAFF2D0EDF6E010167
:100A9000AD4BAE2B0DD0ADC1D9FFAEC1DAFF300EDC
:100AA000DF6E0101AD4BAE2B0301F207D8A0F307B7
:100AB0000301F351800AF36E800EF35C010ED8B48B
:100AC000F25DD8A085D0E7D7ADC1D9FFAEC1DAFFBE
:100AD000200EDF6E0101AD4BAE2B0301F207D8A053
:100AE000F3070301F351800AF36E800EF35C010EED
:100AF000D8B4F25DD8B0E8D7030E0301EC150101BC
:100B0000C36F000E0301ED150101C46F0101C45153
:100B1000C311D8B45DD0ADC1D9FFAEC1DAFF2D0E7F
:100B200053D0F6C389F0F7C38AF0F8C38BF0F9C34A
:100B30008CF00301FA51040DF60EF324F66EC40E88
:100B4000F420F76EF86A000EF82209000001F5CFD4
:100B50008DF009000001F5CF8EF009000001F5CFFE
:100B60008FF00A000001F5CF90F075EC31F089C0EC
:100B7000DCF38AC0DDF38BC0DEF38CC0DFF3DCC3B3
:100B800096F0DDC397F0DEC398F0DFC399F00A0E4C
:100B900000019A6F000E00019B6F000E00019C6F18
:100BA000000E00019D6F07EC33F096C0DCF397C098
:100BB000DDF398C0DEF399C0DFF30301DC51300FA1
:100BC000ADC1D9FFAEC1DAFFDF6E0101AD4BAE2B77
:100BD0000301FA070301FA29D8B40ED0A2D7ADC198
:100BE000D9FFAEC1DAFF300EDF6E0101AD4BAE2B87
:100BF0000301EA07D8A0EB070301EB51800AF36E6B
:100C0000800EF35C010ED8B4EA5DD8B0E8D70301DA
:100C1000F551800A800F090ED8B4F45DD8A004D035
:100C2000080E0301FA6F02D0F4C3FAF30301FA517C
:100C30000301F45F000E0301FABFFF0E0301F55B31
:100C40000301FA51D8B409D0ADC1D9FFAEC1DAFF62
:100C50002E0EDF6E0101AD4BAE2B0301FA51B9EC44
:100C60000CF089C1D4F38AC1D5F38BC1D6F38CC102
:100C7000D7F3EEC39CF0EFC39DF0F0C39EF0F1C339
:100C80009FF0D4C398F0D5C399F0D6C39AF0D7C3D8
:100C90009BF0B1EC25F098C092F199C093F19AC005
:100CA00094F19BC095F1A2EC2BF092C1F6F393C1A5
:100CB000F7F394C1F8F395C1F9F385D0F6C389F041
:100CC000F7C38AF0F8C38BF0F9C38CF00301FA5133
:100CD000040DF60EF324F66EC40EF420F76EF86AD7
:100CE000000EF82209000001F5CF8DF00900000187
:100CF000F5CF8EF009000001F5CF8FF00A0000015A
:100D0000F5CF90F075EC31F089C0E0F38AC0E1F3E3
:100D10008BC0E2F38CC0E3F3E0C396F0E1C397F03D
:100D2000E2C398F0E3C399F00A0E00019A6F000E37
:100D300000019B6F000E00019C6F000E00019D6F73
:100D400007EC33F096C0E0F397C0E1F398C0E2F30C
:100D500099C0E3F30301E051300FADC1D9FFAEC13B
:100D6000DAFFDF6E0101AD4BAE2BF6C396F0F7C391
:100D700097F0F8C398F0F9C399F00301FA51040D04
:100D8000F60EF324F66EC40EF420F76EF86A000E29
:100D9000F82209000001F5CF9AF009000001F5CF13
:100DA0009BF009000001F5CF9CF00A000001F5CF8F
:100DB0009DF007EC33F096C0F6F397C0F7F398C0B8
:100DC000F8F399C0F9F30301FA070301FA29D8B43B
:100DD0000ED074D7ADC1D9FFAEC1DAFF300EDF6ED1
:100DE0000101AD4BAE2B0301F407D8A0F5070301B9
:100DF000F551F411D8B4A0D1EDD7E4C3D9FFE5C3C0
:100E0000DAFFDECFC3F1DDCFC4F10301C3C1F6F3D6
:100E10000301C4C1F7F30301F86B0301F96B020E80
:100E20000301E427000E0301E5230301F551F4114A
:100E3000D8A40AD00301F951F611F711F811D8A47A
:100E400003D00301F44BF52B010E0301FA6F0301EC
:100E5000FA510A0AD8B421D00301FA51040DF60E52
:100E6000F324F66EC40EF420F76EF86A000EF82232
:100E70000900F5500301F65D0900F5500301F7592B
:100E80000900F5500301F8590900F5500301F9591B
:100E9000D8A003D00301FA2BDAD7800E0301FABFE2
:100EA0007F0E0101C36F0301F4510301FA5D0301D9
:100EB000F551800A0101C359D8B003D0F4C3FAF345
:100EC0001AD00301F551800A0101C36F0301FA51E1
:100ED0000301F45D800E0301FABF7F0E0101C359C7
:100EE000D8B009D00301FA510301F46F0301F56B87
:100EF0000301F4BFF5070301F351F211D8B413D085
:100F0000030E0301EC150101C36F000E0301ED1583
:100F10000101C46F0101C451C311D8B404D003014D
:100F2000F207D8A0F3070301EDAD1FD00301F5517F
:100F3000800A0101C36F0301F2510301F45D030153
:100F4000F351800A0101C359D8B009D00301F4510B
:100F50000301F25F0301F5510301F35B06D0000EBC
:100F60000301F36F000E0301F26F800E0301FABF5D
:100F70007F0E0101C36F0301F2510301FA5D03010A
:100F8000F351800A0101C359D8B00BD00301FA51C3
:100F90000301F25F000E0301FABFFF0E0301F35BD2
:100FA00006D0000E0301F36F000E0301F26F030180
:100FB000ECA52CD0030E0301EC150101C36F000E4C
:100FC0000301ED150101C46F0101C451C311D8B46F
:100FD00009D0ADC1D9FFAEC1DAFF2D0EDF6E010120
:100FE000AD4BAE2B03010301F351F211D8B49AD0EB
:100FF000ADC1D9FFAEC1DAFF300EDF6E0101AD4BDE
:10100000AE2B0301F207D8A0F307EDD70301F3518C
:10101000F211D8B412D0ADC1D9FFAEC1DAFF200EA3
:10102000DF6E0101AD4BAE2B0301F207D8A0F30731
:101030000301F351F211D8A4EED7030E0301EC150E
:101040000101C36F000E0301ED150101C46F010121
:10105000C451C311D8B466D0ADC1D9FFAEC1DAFF57
:101060002D0EDF6E5CD00301F4C3C3F10301F5C3A1
:10107000C4F10101D890C337C4370101D890C337F8
:10108000C437F60E0101C325F66EC40EC421F76EF7
:10109000F86A000EF82209000001F5CF8DF0090072
:1010A0000001F5CF8EF009000001F5CF8FF00A00A6
:1010B0000001F5CF90F0F6C389F0F7C38AF0F8C3CA
:1010C0008BF0F9C38CF075EC31F089C096F08AC0D2
:1010D00097F08BC098F08CC099F00A0E00019A6FBF
:1010E000000E00019B6F000E00019C6F000E0001BE
:1010F0009D6F07EC33F096C0C5F197C0C6F198C05C
:10110000C7F199C0C8F10101C551300F0301FA6F51
:10111000ADC1D9FFAEC1DAFF0301FAC3DFFF0101A0
:10112000AD4BAE2B0301F407D8A0F5070301F4295A
:10113000D8B4F529D8A497D70101AFC1F6FF0101B2
:10114000B0C1F7FF0101AF4BB02BF86A08000301F3
:10115000F5CFFAF30301FA6714EF01F0ADC1D9FF3F
:10116000AEC1DAFF000EDF6E120000F00001ADB17B
:1011700002D0899C01D0898C0001AEB102D0899E39
:1011800001D0898E01011851000120EEB0F0DF621C
:1011900006D00001B15101011719D8B474D0B0C004
:1011A00018F1B1C017F1170E00018B6F640E89ECB6
:1011B00034F00001B105D8A42BD0F20E0001986FD5
:1011C000450E0001976F000E0001996F890E87ECA4
:1011D00027F0170E00018B6F640E89EC34F0F20ECD
:1011E0000001986F450E0001976F010E0001996F85
:1011F0008C0E87EC27F0F20E0001986F450E00016F
:10120000976F010E0001996F8C0E87EC27F03BD091
:10121000F20E0001986F450E0001976F000E00015D
:10122000996F8C0E87EC27F0F20E0001986F450E37
:101230000001976F000E0001996F8C0E87EC27F06C
:10124000170E00018B6F640E89EC34F00001B05171
:10125000D8B40DD0F20E0001986F450E0001976FC3
:10126000010E0001996F890E87EC27F00CD0F20E69
:101270000001986F450E0001976F000E0001996FF5
:10128000890E87EC27F00001BC510101D719D8B4B1
:101290000DD0BCC0D7F10001BC05D8A404D0010E0C
:1012A00059EC33F003D0000E59EC33F00001B35188
:1012B0000101D919D8B48CD0B3C0D9F10001B367FA
:1012C00011D00401040E0101AE6F0401C80E01012A
:1012D000AD6FFF0E0101B06FDD0E0101AF6F0AECC3
:1012E00001F064D00001B305D8A417D00401040EA6
:1012F0000101AE6F0401C80E0101AD6FFF0E0101C7
:10130000B06FF30E0101AF6F000E0101B26F840EDA
:101310000101B16F0AEC01F049D00001B351020A9A
:10132000D8A41DD00401040E0101AE6F0401C80E43
:101330000101AD6FFF0E0101B06FE10E0101AF6F52
:10134000000E0101B26F840E0101B16F000E0101A8
:10135000B46F840E0101B36F0AEC01F027D00001D5
:10136000B351030AD8A422D00401040E0101AE6FC8
:101370000401C80E0101AD6FFF0E0101B06FD40E64
:101380000101AF6F000E0101B26F840E0101B16F58
:10139000000E0101B46F840E0101B36F000E010154
:1013A000B66F840E0101B56F0AEC01F00201020E66
:1013B00000019D6F0201640E00019C6F0401040E88
:1013C00000019F6F0401C80E00019E6F6EEC28F0B3
:1013D0000001B2510101DB19D8B469D0B2C0DBF110
:1013E0000001B205D8A41DD00401040E0101AE6FA6
:1013F0000401C80E0101AD6FFF0E0101B06FD60EE2
:101400000101AF6F000E0101B26F850E0101B16FD6
:10141000000E0101B46F860E0101B36F0AEC01F0FA
:1014200032D00001B251020AD8A41DD00401040E2A
:101430000101AE6F0401C80E0101AD6FFF0E010185
:10144000B06FD60E0101AF6F000E0101B26F850EB5
:101450000101B16F000E0101B46F870E0101B36F7E
:101460000AEC01F010D00401040E0101AE6F04017A
:10147000C80E0101AD6FFF0E0101B06FDE0E01015C
:10148000AF6F0AEC01F000F000F00301030E000161
:101490009D6F0301B00E00019C6F0401040E00015A
:1014A0009F6F0401C80E00019E6F6EEC28F00001D2
:1014B000C2510101D819D8B425D0C2C0D8F1250E27
:1014C00000018B6F2B0E89EC34F00001C205D8A40B
:1014D0000DD0F20E0001986F450E0001976F010EBE
:1014E0000001996F8A0E87EC27F00CD0F20E0001F4
:1014F000986F450E0001976F000E0001996F8A0EDC
:1015000087EC27F00001BD510101DA19D8B483D06E
:10151000BDC0DAF10001BD05D8A457D00401040E06
:101520000101AE6F0401C80E0101AD6FFF0E010194
:10153000B06F3E0E0101AF6F0AEC01F00101010E28
:1015400000019D6F0101410E00019C6F0401040E1A
:1015500000019F6F0401C80E00019E6F6EEC28F021
:101560000401040E0101AE6F0401C80E0101AD6F4C
:10157000FF0E0101B06F280E0101AF6F0AEC01F000
:101580000101010E00019D6F0101650E00019C6FBC
:101590000401040E00019F6F0401C80E00019E6F3C
:1015A0006EEC28F0000E00018B6F730E89EC34F0A6
:1015B000C50E0001986F380E0001976F010E0001F3
:1015C000996F5E0E87EC27F026D00101010E000115
:1015D0009D6F0101410E00019C6FA8EC33F00101E9
:1015E000010E00019D6F0101650E00019C6FA8ECCA
:1015F00033F0000E00018B6F730E89EC34F0C50ED2
:101600000001986F380E0001976F000E0001996F6E
:101610005E0E87EC27F0010E0101156F8BD100F0F3
:10162000F2AE02D0010E01D0000E0101146FF29E45
:101630000DC10FF10EC110F1010E0101126F890EE3
:101640000101116F01010FC1C9F1010110C1CAF1FE
:101650000101C91FCA1FC94BCA2B01010D5101014C
:10166000C92701010E510101CA230101CA51800A93
:10167000F36E810EF35CF40ED8B4C95DD8B006D019
:1016800001011405D8A41200F28E12000DC10FF151
:101690000EC110F101011405D8B4F28E00F0010161
:1016A000162B01011351D8B403D0000E0101136FA2
:1016B00001010C510101CE190EE101010B51010193
:1016C000CD1909E101010A510101CC1904E101011F
:1016D00009510101CB19D8B452D009C1CBF10AC1CB
:1016E000CCF10BC1CDF10CC1CEF1010121EE09F01D
:1016F000DE50DE10DE10DE10D8B41FD00401040E60
:101700000101AE6F0401C80E0101AD6FFF0E0101B2
:10171000B06FBC0E0101AF6F09C1B1F10AC1B2F1E6
:101720000BC1B3F10CC1B4F1000E0101B66F8B0E09
:101730000101B56F0AEC01F010D00401040E0101A3
:10174000AE6F0401C80E0101AD6FFF0E0101B06F55
:10175000DB0E0101AF6F0AEC01F00201020E000185
:101760009D6F0201D00E00019C6F0401040E000168
:101770009F6F0401C80E00019E6F6EEC28F00101FE
:10178000D2510001B7190EE10101D1510001B61982
:1017900009E10101D0510001B51904E10101CF5166
:1017A0000001B419D8B44AD00401040E0101A76F96
:1017B0000401E60E0101A66FB4C0A8F1B5C0A9F1FD
:1017C000B6C0AAF1B7C0ABF1010E0101AC6F010EBA
:1017D0000101AD6F83EC14F00401040E0101AE6F42
:1017E0000401C80E0101AD6FFF0E0101B06FF80ECC
:1017F0000101AF6F0401040E0101B26F0401E60E96
:101800000101B16F0AEC01F00201020E00019D6FAF
:101810000201880E00019C6F0401040E00019F6FFD
:101820000401C80E00019E6F6EEC28F0B4C0CFF129
:10183000B5C0D0F1B6C0D1F1B7C0D2F10101D651D7
:101840000001BB190EE10101D5510001BA1909E1EE
:101850000101D4510001B91904E10101D351000182
:10186000B819D8B44AD00401040E0101A76F0401CD
:10187000E60E0101A66FB8C0A8F1B9C0A9F1BAC0BF
:10188000AAF1BBC0ABF1010E0101AC6F010E010169
:10189000AD6F83EC14F00401040E0101AE6F04017E
:1018A000C80E0101AD6FFF0E0101B06FF80E01010E
:1018B000AF6F0401040E0101B26F0401E60E0101D5
:1018C000B16F0AEC01F00201020E00019D6F0201EE
:1018D000AC0E00019C6F0401040E00019F6F040117
:1018E000C80E00019E6F6EEC28F0B8C0D3F1B9C0ED
:1018F000D4F1BAC0D5F1BBC0D6F1000E0101156F0D
:10190000010E0101126FAF0E0101116F0101156788
:1019100001D0120000F0000E0101156F010E01014F
:10192000126FC30E0101116F0101156701D0120082
:1019300000F075D6010111C1C9F1010112C1CAF14E
:101940000101CA51000AD8B404D0010AD8B405D0A4
:1019500066D60101C951000A62D60101C951890A3E
:10196000D8B470D6260AD8B4D1D76C0AD8B4DCD78C
:1019700056D60101916F010191AF77D10101916DAF
:1019800001019151800A120FD8A0D3D0000E00019E
:10199000926F0A0E0001916F000E00018C6F640EB1
:1019A00000018B6F010191510001896F00018A6B69
:1019B000000189BF8A0745EC32F0000189C08FF031
:1019C00000018AC090F029EC30F00001D8908F37E8
:1019D00090370001D8908F379037240E00018F2761
:1019E000000E000190238E0E00018F25F66EC40EAE
:1019F00000019021F76EF86A000EF822090000013C
:101A0000F5CF9CF009000001F5CF9DF00900000121
:101A1000F5CF9EF00A000001F5CF9FF0000E000107
:101A2000926F640E0001916F0101915100018F6F5F
:101A30000001906B00018FBF900729EC30F000018E
:101A4000D8908F3790370001D8908F379037480E55
:101A500000018F27000E000190238E0E00018F25BC
:101A6000F66EC40E00019021F76EF86A000EF8229F
:101A700009000001F5CF98F009000001F5CF99F0B9
:101A800009000001F5CF9AF00A000001F5CF9BF0A4
:101A9000B1EC25F098C08DF199C08EF19AC08FF10C
:101AA0009BC090F18DC198F08EC199F08FC19AF0D2
:101AB00090C19BF0000E00018C6F0A0E00018B6F2D
:101AC000010191510001896F00018A6B000189BFFA
:101AD0008A0745EC32F00001D89089378A37000137
:101AE000D89089378A378E0E00018925F66EC40E8C
:101AF00000018A21F76EF86A000EF8220900000141
:101B0000F5CF9CF009000001F5CF9DF00900000120
:101B1000F5CF9EF00A000001F5CF9FF0B1EC25F063
:101B200098C089F199C08AF19AC08BF19BC08CF161
:101B3000120001019151800A750FD8A079D0000ED2
:101B40000001926F0A0E0001916F01019151000195
:101B50008F6F0001906B00018FBF900729EC30F070
:101B60000001D8908F3790370001D8908F37903789
:101B7000240E00018F27000E000190238E0E00011D
:101B80008F25F66EC40E00019021F76EF86A000EE4
:101B9000F82209000001F5CF98F009000001F5CF07
:101BA00099F009000001F5CF9AF00A000001F5CF85
:101BB0009BF0000E00018C6F0A0E00018B6F01017B
:101BC00091510001896F00018A6B000189BF8A076A
:101BD00045EC32F00001D89089378A370001D8905F
:101BE00089378A378E0E00018925F66EC40E0001F2
:101BF0008A21F76EF86A000EF82209000001F5CF7D
:101C00009CF009000001F5CF9DF009000001F5CF1F
:101C10009EF00A000001F5CF9FF0B1EC25F098C0CE
:101C200089F199C08AF19AC08BF19BC08CF11200A6
:101C300001019151040D8E0EF324F66EC40EF420B2
:101C4000F76EF86A000EF82209000101F5CF89F15C
:101C500009000101F5CF8AF109000101F5CF8BF1EF
:101C60000A000101F5CF8CF1120001019151800AA7
:101C7000120FD8A0D3D0000E0001926F0A0E0001FF
:101C8000916F000E00018C6F640E00018B6F0101DB
:101C900091510001896F00018A6B000189BF8A0799
:101CA00045EC32F0000189C08FF000018AC090F04D
:101CB00029EC30F00001D8908F3790370001D89090
:101CC0008F379037240E00018F27000E00019023DC
:101CD000C20E00018F25F66EC40E00019021F76E32
:101CE000F86A000EF82209000001F5CF9CF0090007
:101CF0000001F5CF9DF009000001F5CF9EF00A002C
:101D00000001F5CF9FF0000E0001926F640E0001FC
:101D1000916F0101915100018F6F0001906B0001E3
:101D20008FBF900729EC30F00001D8908F379037A3
:101D30000001D8908F379037480E00018F27000E92
:101D400000019023C20E00018F25F66EC40E000123
:101D50009021F76EF86A000EF82209000001F5CF15
:101D600098F009000001F5CF99F009000001F5CFC6
:101D70009AF00A000001F5CF9BF0B1EC25F098C075
:101D80008DF199C08EF19AC08FF19BC090F18DC1F9
:101D900098F08EC199F08FC19AF090C19BF0000E1F
:101DA00000018C6F0A0E00018B6F0101915100013F
:101DB000896F00018A6B000189BF8A0745EC32F008
:101DC0000001D89089378A370001D89089378A373F
:101DD000C20E00018925F66EC40E00018A21F76E3D
:101DE000F86A000EF82209000001F5CF9CF0090006
:101DF0000001F5CF9DF009000001F5CF9EF00A002B
:101E00000001F5CF9FF0B1EC25F098C089F199C0A1
:101E10008AF19AC08BF19BC08CF1120001019151A3
:101E2000800A750FD8A079D0000E0001926F0A0EBB
:101E30000001916F0101915100018F6F0001906BC2
:101E400000018FBF900729EC30F00001D8908F3748
:101E500090370001D8908F379037240E00018F27DC
:101E6000000E00019023C20E00018F25F66EC40EF5
:101E700000019021F76EF86A000EF82209000001B7
:101E8000F5CF98F009000001F5CF99F009000001A5
:101E9000F5CF9AF00A000001F5CF9BF0000E00018B
:101EA0008C6F0A0E00018B6F010191510001896F47
:101EB00000018A6B000189BF8A0745EC32F00001FE
:101EC000D89089378A370001D89089378A37C20E6F
:101ED00000018925F66EC40E00018A21F76EF86AAA
:101EE000000EF82209000001F5CF9CF00900000166
:101EF000F5CF9DF009000001F5CF9EF00A0000012A
:101F0000F5CF9FF0B1EC25F098C089F199C08AF126
:101F10009AC08BF19BC08CF1120001019151040D0C
:101F2000C20EF324F66EC40EF420F76EF86A000EAB
:101F3000F82209000101F5CF89F109000101F5CF6F
:101F40008AF109000101F5CF8BF10A000101F5CFFB
:101F50008CF1120001018C518B11D8B40ED08BC1C1
:101F6000D9FF8CC1DAFF010189C1DEFF01018AC1FD
:101F7000DDFF03D00101894B8A2B89C1D9FF8AC1BA
:101F8000DAFFDF5001018E6F01018E511EEC38F037
:101F9000D8B0F0D7000E01018F6F01018E512D0ACC
:101FA000D8A404D0010E01018F6F05D001018E511C
:101FB0002B0AD8A403D00101894B8A2B000E010102
:101FC0008E6F000E0101916F000E0101926F000EE5
:101FD0000101936F000E0101946F000E0101906FDB
:101FE00001018FB90AD02E0E89C1D9FF8AC1DAFF4B
:101FF000DF6203D001018F8950D089C1D9FF8AC126
:10200000DAFFDF50E8EC38F0D8A04BD001018F8325
:1020100001018E51090AD8B43BD001018FA902D029
:102020000101900701018E2B91C189F092C18AF0C4
:1020300093C18BF094C18CF00A0E00018D6F000EDD
:1020400000018E6F000E00018F6F000E0001906F77
:102050009EEC35F089C091F18AC092F18BC093F16A
:102060008CC094F189C1D9FF8AC1DAFFDF50010128
:102070008D6FD00E01018D2701018D510101912736
:10208000000E01019223010193230101942305D045
:1020900001018FB902D00101902B0101894B8A2BDC
:1020A0009FD7000E01018E6F89C1D9FF8AC1DAFF67
:1020B000DF50650AD8B407D0450E89C1D9FF8AC15F
:1020C000DAFFDF626DD02D0E0101894B8A2B89C1A9
:1020D000D9FF8AC1DAFFDF6203D001018F8707D001
:1020E0002B0E89C1D9FF8AC1DAFFDF6203D001015B
:1020F000894B8A2B89C1D9FF8AC1DAFFDF50300AA8
:10210000D8B4F5D789C1D9FF8AC1DAFFDF50E8EC2E
:1021100038F0D8A040D089C1D9FF8AC1DAFFDF509A
:10212000D00F01018E6F0101894B8A2B89C1D9FF24
:102130008AC1DAFFDF50E8EC38F0D8A02CD089C192
:10214000D9FF8AC1DAFFDF5001018D6F01018E5185
:102150000A0DF35001018D25D00F01018E6F010191
:10216000894B8A2B89C1D9FF8AC1DAFFDF50E8EC9D
:1021700038F0D8A010D089C1D9FF8AC1DAFFDF506A
:1021800001018D6F01018E510A0DF35001018D2562
:10219000D00F01018E6F01018FA702D001018E6D5A
:1021A00001018E510101902701018C518B11D8B48E
:1021B0000DD001018FA30AD08BC1D9FF8CC1DAFFEA
:1021C000010189C1DEFF01018AC1DDFF91C193F0E8
:1021D00092C194F093C195F094C196F024EC36F03E
:1021E00093C091F194C092F195C093F196C094F18F
:1021F000010121EE91F0DE50DE10DE10DE10D8A4D9
:102200000DD0000E0101896F000E01018A6F000ED2
:1022100001018B6F000E01018C6F1200010190AF64
:1022200088D00101906D21D091C193F092C194F0BA
:1022300093C195F094C196F0F90E0001976F020ECC
:102240000001986F150E0001996F500E00019A6FF2
:102250004DEC29F093C091F194C092F195C093F1A7
:1022600096C094F1F60E0101902701019051800A69
:1022700001018D6F0A0E800A01018D5DD8A021D069
:10228000D3D791C193F092C194F093C195F094C1CA
:1022900096F0000E0001976F000E0001986F200E5F
:1022A0000001996F410E00019A6F4DEC29F093C027
:1022B00091F194C092F195C093F196C094F101010F
:1022C000900701019067DDD791C189F092C18AF032
:1022D00093C18BF094C18CF0000E00018D6F000E45
:1022E00000018E6F800E00018F6F000E0001906F55
:1022F0002BEC2EF0D8B0A3D001018FA10DD0000E91
:102300000101896F000E01018A6F800E01018B6F40
:10231000800E01018C6F1200000E0101896F000E0A
:1023200001018A6F800E01018B6F000E01018C6F1D
:10233000120001019051800A7F0FD8B022D07FD0C7
:1023400091C198F092C199F093C19AF094C19BF019
:10235000F90E00019C6F020E00019D6F150E000129
:102360009E6F500E00019F6FB1EC25F098C091F167
:1023700099C092F19AC093F19BC094F1F60E0101BD
:1023800090270A0E0101905DD8A021D0D9D791C124
:1023900098F092C199F093C19AF094C19BF0000E0D
:1023A00000019C6F000E00019D6F200E00019E6FCA
:1023B000410E00019F6FB1EC25F098C091F199C0DA
:1023C00092F19AC093F19BC094F101019007010131
:1023D0009067DDD7FF0E0001896FFF0E00018A6F45
:1023E0007F0E00018B6F7F0E00018C6F91C18DF00D
:1023F00092C18EF093C18FF094C190F02BEC2EF02F
:10240000D8B01DD001018FA10DD0000E0101896F40
:10241000000E01018A6F800E01018B6F800E010199
:102420008C6F1200000E0101896F000E01018A6F8E
:10243000800E01018B6F000E01018C6F12000101F3
:102440008FA112D091C189F092C18AF093C18BF013
:1024500094C18CF0C7EC37F089C091F18AC092F139
:102460008BC093F18CC094F191C189F192C18AF132
:1024700093C18BF194C18CF11200020E00019A6F8E
:10248000580E0001996F700ED36E9B8C0001990756
:10249000D8A09A0700019929D8B49A29D8A4F6D7C8
:1024A000D08E030EBA12C80EBB6EBA50870B180935
:1024B000BA6EBA849F829E929D82030E0F015113C1
:1024C000640E0F01526F0F0151970F0151990F01C7
:1024D000519B0F01519D0F0151857F807E907D8022
:1024E00027EC39F0000E0F01386F000E0F01396F25
:1024F000000E0F013A6F000E0F013B6F000E0F012F
:102500003C6F000E0F01546F0F0E00018A6F930E87
:102510000001896F0F0E00018C6F8A0E00018B6F16
:10252000000E00018D6F0C0E00018E6FFF0E00017A
:10253000906F00018F69FF0E0001926F0001916999
:10254000FF0E0001936F000E8DEC20F00F0E0001C6
:102550008A6F930E0001896F0F0E00018C6F8A0E37
:1025600000018B6F010E00018D6F0A0E00018E6F4E
:10257000FF0E0001906F00018F69FF0E0001926F46
:1025800000019169FF0E0001936F010E8DEC20F0A8
:102590000F0E00018A6F930E0001896F0F0E00016C
:1025A0008C6F8A0E00018B6F020E00018D6F080E7A
:1025B00000018E6FFF0E0001906F00018F69FF0E0A
:1025C0000001926F00019169FF0E0001936F020EEE
:1025D0008DEC20F00F0E00018A6F930E0001896FC1
:1025E0000F0E00018C6F8A0E00018B6F050E00012B
:1025F0008D6F0D0E00018E6FFF0E0001906F0001B8
:102600008F69FF0E0001926F00019169FF0E0001BA
:10261000936F030E8DEC20F00F0E00018A6F920E67
:102620000001896F0F0E00018C6F890E00018B6F06
:10263000000E00018D6F000E00018E6FFF0E000175
:10264000906F00018F69FF0E0001926F0001916988
:10265000FF0E0001936F040E8DEC20F00F0E0001B1
:102660008A6F920E0001896F0F0E00018C6F890E28
:1026700000018B6F010E00018D6F010E00018E6F46
:10268000FF0E0001906F00018F69FF0E0001926F35
:1026900000019169FF0E0001936F050E8DEC20F093
:1026A0000F0E00018A6F930E0001896F0F0E00015B
:1026B0008C6F8A0E00018B6F040E00018D6F0B0E64
:1026C00000018E6FFF0E0001906F00018F69FF0EF9
:1026D0000001926F00019169FF0E0001936F060ED9
:1026E0008DEC20F00F0E00018A6F930E0001896FB0
:1026F0000F0E00018C6F8A0E00018B6F030E00011C
:102700008D6F090E00018E6FFF0E0001906F0001AA
:102710008F69FF0E0001926F00019169FF0E0001A9
:10272000936F070E8DEC20F00F0E00018A6F920E52
:102730000001896F0F0E00018C6F890E00018B6FF5
:10274000020E00018D6F020E00018E6FFF0E000160
:10275000906F00018F69FF0E0001926F0001916977
:10276000FF0E0001936F080E8DEC20F00F0E00019C
:102770008A6F920E0001896F0F0E00018C6F890E17
:1027800000018B6F030E00018D6F030E00018E6F31
:10279000FF0E0001906F00018F69FF0E0001926F24
:1027A00000019169FF0E0001936F090E8DEC20F07E
:1027B0000F0E00018A6F920E0001896F0F0E00014B
:1027C0008C6F890E00018B6F050E00018D6F040E5A
:1027D00000018E6FFF0E0001906F00018F69FF0EE8
:1027E0000001926F00019169FF0E0001936F0A0EC4
:1027F0008DEC20F0000E0001896F100E00018A6F31
:10280000000EA7EC32F0010E0001896F100E0001DE
:102810008A6F010EA7EC32F0020E0001896F100ED4
:1028200000018A6F020EA7EC32F0030E0001896FDF
:10283000100E00018A6F030EA7EC32F0040E0001A7
:10284000896F100E00018A6F040EA7EC32F0050E9E
:102850000001896F100E00018A6F050EA7EC32F09F
:10286000060E0001896F100E00018A6F060EA7EC9C
:1028700032F0070E0001896F100E00018A6F070EFB
:10288000A7EC32F0080E0001896F100E00018A6F6C
:10289000080EA7EC32F0090E0001896F100E00013E
:1028A0008A6F090EA7EC32F00A0E0001896F100E34
:1028B00000018A6F0A0EA7EC32F0020E0001896F48
:1028C000080E00018A6F0B0EA7EC32F0030E000118
:1028D000896F080E00018A6F0C0EA7EC32F038ECFD
:1028E00039F0949C948E9F9A9D8A8B9A949A939C8B
:1028F000939E929C929E8A9C8A9E899C899E949883
:102900008B88F28C12000101ABAF22D0010E0101C5
:10291000B26FA8C198F0A9C199F0AAC19AF0ABC151
:102920009BF0000E00019C6F000E00019D6F800E59
:1029300000019E6FBF0E00019F6FB1EC25F098C0A3
:10294000A8F199C0A9F19AC0AAF19BC0ABF103D03C
:10295000000E0101B26F0101AD6717D0A8C196F159
:10296000A9C197F1AAC198F1ABC199F1000E01017B
:102970009A6F000E01019B6F000E01019C6F3F0ECC
:1029800001019D6F20EC1BF036D00101AD05D8A4EC
:1029900017D0A8C196F1A9C197F1AAC198F1ABC10E
:1029A00099F1CD0E01019A6FCC0E01019B6F4C0E77
:1029B00001019C6F3D0E01019D6F20EC1BF01BD0AF
:1029C0000101AD51020AD8A41ED0A8C196F1A9C137
:1029D00097F1AAC198F1ABC199F10A0E01019A6F62
:1029E000D70E01019B6FA30E01019C6F3B0E0101ED
:1029F0009D6F20EC1BF096C1A8F197C1A9F198C179
:102A0000AAF199C1ABF10101AD290101B36F20D049
:102A1000A8C198F0A9C199F0AAC19AF0ABC19BF0E6
:102A2000000E00019C6F000E00019D6F200E000142
:102A30009E6F410E00019F6FB1EC25F098C0A8F188
:102A400099C0A9F19AC0AAF19BC0ABF10101B307EB
:102A50000101B367DDD70101AC510101AD25030FC1
:102A60000101B36F68D00101B3070101AC5101014D
:102A7000AE6FAF6B010E0101AE27000EAF23010157
:102A8000B3510101AE19AF11D8B455D00101B35102
:102A9000010DF3500101A625D96EF4500101A721C3
:102AA000DA6EA8C192F1A9C193F1AAC194F1ABC1A8
:102AB00095F1A2EC2BF092C19CF193C19DF194C1D0
:102AC0009EF195C19FF10A0E0101A06F000E010158
:102AD000A16F000E0101A26F000E0101A36F5CEC5B
:102AE0002CF09CC1AEF19DC1AFF19EC1B0F19FC170
:102AF000B1F10101AE51300FDF6EA8C193F0A9C151
:102B000094F0AAC195F0ABC196F0000E0001976F4A
:102B1000000E0001986F200E0001996F410E000118
:102B20009A6F4DEC29F093C0A8F194C0A9F195C01B
:102B3000AAF196C0ABF10101B36795D7D00E0101A0
:102B4000AE6FFF0EAF6FA6C1D9FFA7C1DAFFDF508E
:102B50000101B06FB16B0101AE510101B02701015C
:102B6000AF510101B1230101B151B011D8A464D01A
:102B7000000E0101B36F5AD0D00E0101AE6FFF0EEF
:102B8000AF6F0101B351010DF3500101A625D96EBC
:102B9000F4500101A721DA6EDF500101B06FB16B73
:102BA0000101AE510101B0270101AF510101B12373
:102BB0000101B151B011D8A414D00101B3510101E8
:102BC000AC19D8B40ED00101B351010DF35001017D
:102BD000A625D96EF4500101A721DA6E200EDF6E12
:102BE00023D00101B251D8B427D0FF0E0101AE6F3E
:102BF000FF0EAF6F0101B3510101B06FB16B010165
:102C0000AE510101B0270101AF510101B123010112
:102C1000B0510101A625D96E0101B1510101A721D1
:102C2000DA6E2D0EDF6E08D00101B32B0101B35116
:102C30000101AC5DD8B0A0D70101AC510101AE6F6C
:102C4000AF6B010E0101AE27000EAF230101AE51A3
:102C50000101A625D96E0101AF510101A721DA6E4C
:102C60002E0EDF6E0101AD510101ACC1AEF10101CB
:102C7000AF6B0101AE27000EAF23020E0101AE279C
:102C8000000EAF230101AE510101A625D96E01014D
:102C9000AF510101A721DA6E000EDF6E12000101B3
:102CA000956F6D0E01019565E8D0000E0001926FE1
:102CB0000A0E0001916F000E00018C6F640E00017E
:102CC0008B6F0101000195C189F000018A6B45EC11
:102CD00032F0000189C08FF000018AC090F029EC29
:102CE00030F00001D8908F3790370001D8908F379F
:102CF0009037240E00018F27000E000190238E0EC6
:102D000000018F25F66EC40E00019021F76EF86A5F
:102D1000000EF82209000001F5CF9CF00900000127
:102D2000F5CF9DF009000001F5CF9EF00A000001EB
:102D3000F5CF9FF0000E0001926F640E0001916FBD
:102D40000101000195C18FF00001906B29EC30F07A
:102D50000001D8908F3790370001D8908F37903787
:102D6000480E00018F27000E000190238E0E0001F7
:102D70008F25F66EC40E00019021F76EF86A000EE2
:102D8000F82209000001F5CF98F009000001F5CF05
:102D900099F009000001F5CF9AF00A000001F5CF83
:102DA0009BF0B1EC25F098C091F199C092F19AC0D6
:102DB00093F19BC094F1000E00018C6F0A0E00018C
:102DC0008B6F0101000195C189F000018A6B45EC10
:102DD00032F00001D89089378A370001D8908937BE
:102DE0008A378E0E00018925F66EC40E00018A21F5
:102DF000F76EF86A000EF82209000001F5CF9CF08A
:102E000009000001F5CF9DF009000001F5CF9EF00B
:102E10000A000001F5CF9FF091C198F092C199F09E
:102E200093C19AF094C19BF0B1EC25F098C08DF15C
:102E300099C08EF19AC08FF19BC090F18DC198F02E
:102E40008EC199F08FC19AF090C19BF0000E0001E5
:102E50009C6F000E00019D6F000E00019E6F3F0EE3
:102E600000019F6FB1EC25F098C089F199C08AF1FB
:102E70009AC08BF19BC08CF112000A0E010195657E
:102E800091D0000E00018C6F0A0E00018B6F0101C2
:102E9000000195C189F000018A6B45EC32F0000118
:102EA000D89089378A370001D89089378A378E0EB3
:102EB00000018925F66EC40E00018A21F76EF86ABA
:102EC000000EF82209000001F5CF9CF00900000176
:102ED000F5CF9DF009000001F5CF9EF00A0000013A
:102EE000F5CF9FF0000E0001926F0A0E0001916F66
:102EF0000101000195C18FF00001906B29EC30F0C9
:102F00000001D8908F3790370001D8908F379037D5
:102F1000240E00018F27000E000190238E0E000169
:102F20008F25F66EC40E00019021F76EF86A000E30
:102F3000F82209000001F5CF98F009000001F5CF53
:102F400099F009000001F5CF9AF00A000001F5CFD1
:102F50009BF0B1EC25F098C091F199C092F19AC024
:102F600093F19BC094F191C198F092C199F093C1F3
:102F70009AF094C19BF0000E00019C6F000E0001BE
:102F80009D6F000E00019E6F3F0E00019F6FB1EC20
:102F900025F098C089F199C08AF19AC08BF19BC045
:102FA0008CF1120001019551040D8E0EF324F66E82
:102FB000C40EF420F76EF86A000EF8220900000132
:102FC000F5CF98F009000001F5CF99F00900000154
:102FD000F5CF9AF00A000001F5CF9BF0000E00013A
:102FE0009C6F000E00019D6F000E00019E6F3F0E52
:102FF00000019F6FB1EC25F098C089F199C08AF16A
:103000009AC08BF19BC08CF1120000F000F0CFEC65
:1030100034F03DEC12F09AEC36F00201020E0001A1
:10302000A56F0201880E0001A46F0C0E0001A66FAF
:103030001B0E0001A76FDC0E0001A96F7B0E0001C3
:10304000A86F050E0001AA6FDFEC31F00201020E3D
:103050000001A56F0201AC0E0001A46F450E000136
:10306000A66F1B0E0001A76FDC0E0001A96F7B0E7F
:103070000001A86F050E0001AA6FDFEC31F002011C
:10308000020E0001A56F0201D00E0001A46F240EF4
:103090000001A66F340E0001A76FF20E0001A96FA8
:1030A000450E0001A86F080E0001AA6FDFEC31F099
:1030B0000101010E0001A56F0101410E0001A46F85
:1030C000050E0001A66F000E0001A76FDC0E0001C7
:1030D000A96F7B0E0001A86F140E0001AA6FDFEC30
:1030E00031F00101010E0001A56F0101650E000123
:1030F000A46F050E0001A66F090E0001A76FDC0E7C
:103100000001A96F7B0E0001A86F160E0001AA6FC7
:10311000DFEC31F00201020E0001A56F0201640E26
:103120000001A46F550E0001A66F330E0001A76FBA
:10313000F20E0001A96F450E0001A86F030E0001F9
:10314000AA6FDFEC31F00301030E0001A56F03014C
:10315000B00E0001A46F050E0001A66F330E000132
:10316000A76FF20E0001A96F450E0001A86F020EB5
:103170000001AA6FDFEC31F00301030E0001A56F1F
:1031800003018C0E0001A46F000E0001A66F090E52
:103190000001A76FDC0E0001A96F7B0E0001A86F74
:1031A000160E0001AA6FDFEC31F00301030E0001DF
:1031B000A56F0301680E0001A46F000E0001A66F49
:1031C000000E0001A76FDC0E0001A96F7B0E00014D
:1031D000A86F160E0001AA6FDFEC31F0140E00018B
:1031E0008B6F080E89EC34F0FD0E0001986FC90E4C
:1031F0000001976F010E0001996F200E87EC27F0F8
:10320000140E00018B6F410E89EC34F0FD0E0001AD
:10321000986FC90E0001976F010E0001996F200E83
:1032200087EC27F0270E00018B6F030E89EC34F03A
:103230000101010E0101AE6F0101190E0101AD6F17
:10324000FF0E0101B06FFC0E0101AF6FFF0E010117
:10325000B26F5B0E0101B16F0AEC01F00101010ECA
:1032600000019D6F0101190E00019C6FDC0E000131
:103270009F6F7B0E00019E6F010E0001A06F2AEC74
:1032800037F0270E00018B6F3C0E89EC34F0010102
:10329000010E0101AE6F0101190E0101AD6FFF0EAC
:1032A0000101B06FFC0E0101AF6FFF0E0101B26FA3
:1032B000510E0101B16F0AEC01F00101010E000194
:1032C0009D6F0101190E00019C6FDC0E00019F6FC4
:1032D0007B0E00019E6F010E0001A06F2AEC37F0FB
:1032E000010E0001C16F010E0001C06F010E00014F
:1032F000BF6F010E0001BE6F00F000F00A0E62EC1D
:1033000039F0B5EC08F0A1EC2DF0B8EC22F013EC9C
:103310001EF09AEC30F000F000F0ABB402D0ABA29B
:1033200003D0AB9800F0AB888B9AD1A0D180040079
:10333000F2AEF28EB1EC2FF0E4D70301030E0001E0
:10334000966F0301000E0001956F000E0001936F50
:10335000000E0001926F000E00018F6F5CD1000122
:1033600020EE04F000019551D92600019651DA2291
:103370000001DECF8DF00001DDCF8EF0000120EEE8
:103380001CF000018D51D92600018E51DA22DF5048
:103390000001946F00019451D8B435D1000120EEA2
:1033A00002F000019551D92600019651DA22DF5032
:1033B0000001916F000120EE01F000019551D92626
:1033C00000019651DA22DF500001906F000191A7B1
:1033D0005BD000019051020AD8A40ED0000120EE6B
:1033E00006F000019551D92600019651DA22E00E2F
:1033F000DE6E2E0EDD6E48D0000120EE06F00001DC
:103400009551D92600019651DA22DE52DD50800A0C
:10341000800F010ED8B4DF5CD8A002D0010E01D01D
:10342000020E0001906F000120EE06F000019551A0
:10343000D92600019651DA22DECF89F0DDCF8AF05D
:1034400000018A51800AF36E7B0EF35C000ED8B443
:10345000895DD8B00DD0000120EE06F00001955135
:10346000D92600019651DA22000EDE6E050EDD6EC1
:10347000000120EE06F000019551D9260001965179
:10348000DA22DE06000EDD5A000191A90CD095C0AB
:10349000D9FF96C0DAFFDF50000190150009D8B4BB
:1034A00002D00001908F95C0D9FF96C0DAFF0001CD
:1034B00090C0DFFF000191A142D0000120EE03F097
:1034C00000019551D92600019651DA22DF50000102
:1034D0009419D8B427D000019451020AD8A422D05C
:1034E000000120EE01F000019551D926000196510E
:1034F000DA22010EDF620BD0000120EE01F00001A4
:103500009551D92600019651DA22020E0AD0000107
:1035100020EE01F000019551D92600019651DA22E2
:10352000010EDF6E000120EE03F000019551D92657
:1035300000019651DA22000194C0DFFF64D000013F
:1035400091A546D0000120EE01F000019551D92649
:1035500000019651DA22020EDF6E00019451020A38
:10356000D8A451D0000193519211D8B42AD00001AF
:1035700020EE18F000018D51D92600018E51DA227B
:10358000DECF89F0DDCF8AF0000120EE04F00001EB
:103590009251D92600019351DA2210EE18F0DE5034
:1035A000E126DD50E222E6CF8BF0E5CF8CF0000182
:1035B000895100018B5D00018A5100018C59D8B0FE
:1035C00022D0000196C093F0000195C092F01BD06C
:1035D00000019451020AD8A40BD0000120EE01F0A2
:1035E00000019551D92600019651DA22010E0AD028
:1035F000000120EE01F000019551D92600019651FD
:10360000DA22020EDF6E080E00019527000E00017F
:10361000962300018F2B0C0E00018F65A0D60001B0
:1036200093519211D8B41200000120EE01F0000174
:103630009251D92600019351DA22010EDF6E120059
:10364000010196C19EF1010197C19FF1010198C14D
:10365000A0F1010199C1A1F1180E06D00101D89085
:10366000A133A0339F339E33E82EF8D701019E513A
:103670000101A46F01019AC19EF101019BC19FF15B
:1036800001019CC1A0F101019DC1A1F1180E06D05C
:103690000101D890A133A0339F339E33E82EF8D791
:1036A00001019E510101A36F0101A451D8B412D0B0
:1036B0000101A3510101A45DD8B015D00101A451AD
:1036C00000080101A32501019E6F210E01019E5DED
:1036D000D8A009D09AC196F19BC197F19CC198F1ED
:1036E0009DC199F112000101A351D8B412D001017A
:1036F000A4510101A35DD8B015D00101A351000868
:103700000101A42501019E6F210E01019E5DD8A03B
:1037100009D096C196F197C197F198C198F199C1D6
:1037200099F11200060E0101A26F010199AF02D0BA
:103730000101A28F01019DAF02D00101A28D010103
:10374000988FFF0E01019617FF0E01019717FF0ECC
:1037500001019817000E0101991701019C8FFF0EBE
:1037600001019A17FF0E01019B17FF0E01019C1723
:10377000000E01019D170101A3510101A45DD8B004
:103780002ED00101D89001019A3701019B37010128
:103790009C3701019D370101A3070101A3510101DC
:1037A000A419D8B416D00101A207A2C19EF1070E38
:1037B00001019E17D8B40DD0E4D70101D8900101C2
:1037C00099330101983301019733010196330101C7
:1037D000A42B0101A3510101A463EFD733D0010150
:1037E000A4510101A35DD8B02DD00101D8900101F1
:1037F0009637010197370101983701019937010187
:10380000A4070101A3510101A419D8B416D00101E4
:10381000A207A2C19EF1070E01019E17D8B40DD0D8
:10382000E4D70101D89001019D3301019C330101CE
:103830009B3301019A330101A32B0101A351010123
:10384000A463EFD70101A2AF16D0FF0E0101961BB2
:10385000FF0E0101971BFF0E0101981BFF0E0101D6
:10386000991B010E01019627000E0101972301010A
:103870009823010199230101A2AD16D0FF0E010189
:103880009A1BFF0E01019B1BFF0E01019C1BFF0EEB
:1038900001019D1B010E01019A27000E01019B23CE
:1038A00001019C2301019D23000E0101A26F010172
:1038B000965101019A270101975101019B230101B2
:1038C000985101019C230101995101019D2301019E
:1038D0009DAF19D0FF0E01019A1BFF0E01019B1B2A
:1038E000FF0E01019C1BFF0E01019D1B010E01013A
:1038F0009A27000E01019B2301019C2301019D23B6
:10390000010E0101A26F9AC189F09BC18AF09CC18E
:103910008BF09DC18CF0A4C18DF0A2C18EF0E3ECC0
:103920002AF089C096F18AC097F18BC098F18CC0BB
:1039300099F1120020EE08F04150D9264250DA22C7
:103940000001DECF62F00001DDCF63F020EE0AF06F
:103950004150D9264250DA220001DECF66F0000144
:10396000DDCF67F020EE1DF04150D9264250DA221B
:10397000DF5000016A6F20EE08F03F50D92640501A
:10398000DA220001DECF6BF00001DDCF6CF020EE1B
:103990000AF03F50D9264050DA220001DECF68F00D
:1039A0000001DDCF69F020EE1DF03F50D9264050D8
:1039B000DA22DF5000016D6F20EE1EF04150D92653
:1039C0004250DA22DF500001646F20EE1EF03F50BB
:1039D000D9264050DA22DF500001656F64C043F001
:1039E00043464346C2504318830B4318C26E66C019
:1039F000D9FF67C0DAFF00016A51DF1200016A5186
:103A0000FF0A436E62C0D9FF63C0DAFF4350DF167E
:103A100000016D51FF0A436E68C0D9FF69C0DAFF2B
:103A20004350DF1600016D51FF0A436E6BC0D9FF92
:103A30006CC0DAFF4350DF1600F000F000F000F039
:103A400000F000F000F000F000F000F000F000F0F6
:103A500000F000F000F000F000F000F000F000F0E6
:103A60006BC0D9FF6CC0DAFF00016D51DF1265C079
:103A700043F043464346C2504318830B4318C26E7B
:103A800000F000F000F000F000F000F000F000F0B6
:103A900000F000F000F000F000F000F000F000F0A6
:103AA00000F000F000F000F0C282C2B2FED70001C8
:103AB0006D51FF0A436E6BC0D9FF6CC0DAFF4350F3
:103AC000DF1600016A51FF0A436E66C0D9FF67C066
:103AD000DAFF4350DF16040E0001616F000E000193
:103AE000606FC350C4CF43F0446A43C044F0436A9C
:103AF0004326000E442243500001605F4450000101
:103B0000615B64C043F043464346C2504318830B95
:103B10004318C26E00016A51FF0A436E66C0D9FFA6
:103B200067C0DAFF4350DF1600016A51FF0A436E97
:103B300062C0D9FF63C0DAFF4350DF1668C0D9FF07
:103B400069C0DAFF00016D51DF1200016D51FF0AFB
:103B5000436E6BC0D9FF6CC0DAFF4350DF1600F034
:103B600000F000F000F000F000F000F000F000F0D5
:103B700000F000F000F000F000F000F000F000F0C5
:103B800000F000F000F06BC0D9FF6CC0DAFF00015C
:103B90006D51DF1265C043F043464346C25043189F
:103BA000830B4318C26E00F000F000F000F000F04C
:103BB00000F000F000F000F000F000F000F000F085
:103BC00000F000F000F000F000F000F000F0C28221
:103BD000C2B2FED700016D51FF0A436E68C0D9FF23
:103BE00069C0DAFF4350DF1600016D51FF0A436ED2
:103BF0006BC0D9FF6CC0DAFF4350DF16C350C4CF8F
:103C000043F0446A43C044F0436A4326000E442212
:103C100043500001602744500001612360C03FF021
:103C200061C040F01200000EE5EC37F00009D8B496
:103C3000120000F000F0010E0101136F02010151AA
:103C4000420AD8A42DD002010851310AD8A406D0C6
:103C50000A0E62EC39F0010E0001AD1B02010D519C
:103C6000310AD8A406D00A0E62EC39F0010E000128
:103C7000AE1B0201020E00018A6F0201000E00015C
:103C8000896F000E00018C6F000E00018B6F000E1B
:103C900000018E6F5A0E00018D6F02EC38F0120099
:103CA0000401040E0101AE6F0401640E0101AD6F49
:103CB000FF0E0101B06F630E0101AF6F0001010142
:103CC000ABC0B1F10101B26B00010101ACC0B3F1B5
:103CD0000101B46B00010101AEC0B5F10101B66B89
:103CE00000010101ADC0B7F10101B86B0001010194
:103CF000AFC0B9F10101BA6B00010101B0C0BBF165
:103D00000101BC6B00010101B1C0BDF10101BE6B3D
:103D100000010101B2C0BFF10101C06B000101014E
:103D2000B3C0C1F10101C26B0AEC01F00401040E41
:103D300000018D6F0401640E00018C6F14EC39F0EA
:103D40000101010E0101AE6F0101190E0101AD6FFC
:103D5000FF0E0101B06FC50E0101AF6F020101013D
:103D600009C2B1F10101B26B020101010AC2B3F152
:103D70000101B46B020101010CC2B5F10101B66B86
:103D80000AEC01F00101010E0101966F0101190E0B
:103D90000101956FBAEC38F095C1B4F096C1B5F059
:103DA00097C1B6F098C1B7F00101010E0101AE6FE5
:103DB0000101190E0101AD6FFF0E0101B06FC50EBB
:103DC0000101AF6F0201010111C2B1F10101B26B3A
:103DD0000201010112C2B3F10101B46B0201010140
:103DE00014C2B5F10101B66B0AEC01F00101010E3C
:103DF0000101966F0101190E0101956FBAEC38F0BF
:103E000095C1B8F096C1B9F097C1BAF098C1BBF0AE
:103E100002011A51310AD8A402D0010E01D0000EBD
:103E20000001BC6F02012051300AD8A402D0010E5B
:103E300001D0000E0001BD6F02012651310AD8A445
:103E400007D00001D36702D0010E0CD0010E0ED0B6
:103E500002012651300AD8A40BD00001D305D8A402
:103E600004D0000E0001D36F03D0000E0001BE6F1E
:103E700002012C51310AD8A407D00001D26702D028
:103E8000010E0CD0010E0ED002012C51300AD8A424
:103E90000BD00001D205D8A404D0000E0001D26FCF
:103EA00003D0000E0001BF6F02013251310AD8A4C5
:103EB00002D0010E01D0000E0001C26F0201020EFD
:103EC00000018A6F0201000E0001896F000E0001DF
:103ED0008C6F000E00018B6F000E00018E6F5A0E6A
:103EE00000018D6F02EC38F0120020EE04F0435018
:103EF000D9264450DA22DECF65F0DDCF66F043C02C
:103F0000D9FF44C0DAFFDECF67F0DDCF68F00001F3
:103F1000671F681F674B682B00016551000167250B
:103F20000001696F000166510001682100016A6F9C
:103F300000016A51800AF36E800EF35C000ED8B463
:103F4000695DD8B006D0000E00016A6F000E000156
:103F5000696F20EE18F04350D9264450DA22000150
:103F600069C0DEFF00016AC0DDFFBCD020EE1AF0A0
:103F70004350D9264450DA22DE06000EDD5AD92AF3
:103F8000DD50FF0AFF0ED8B4DF18D8A412D020EEFF
:103F90001CF04350D9264450DA22010EDF6E20EE89
:103FA0001AF04350D9264450DA22080EDE6E000E75
:103FB000DD6E20EE04F04350D9264450DA2243C08F
:103FC000E1FF44C0E2FFDECFE6FFDECFE6FFDECF5B
:103FD000E6FFDDCFE5FFE552E55294D020EE12F08A
:103FE0004350D9264450DA22DECF65F0DDCF66F0AB
:103FF000000169510001655D00016A5100016659C7
:10400000D8B019D020EE1AF04350D9264450DA2205
:10401000DE06000EDD5AD92ADD50FF0AFF0ED8B4A5
:10402000DF18D8A412D020EE1CF04350D9264450FB
:10403000DA22020EDF6E20EE1AF04350D9264450E9
:10404000DA22080EDE6E000EDD6E44C040F043C082
:104050003FF0000E426E080E416E38EC2FF052D049
:1040600020EE14F04350D9264450DA22DECF65F01A
:10407000DDCF66F0000165510001695D0001665108
:1040800000016A59D8B019D020EE1AF04350D92651
:104090004450DA22DE06000EDD5AD92ADD50FF0A2E
:1040A000FF0ED8B4DF18D8A412D020EE1CF0435075
:1040B000D9264450DA22010EDF6E20EE1AF043506A
:1040C000D9264450DA22080EDE6E000EDD6E44C0A2
:1040D00040F043C03FF0030E426E200E416E38ECBC
:1040E0002FF010D020EE1CF04350D9264450DA2295
:1040F000DF50000AD8B43AD7010AD8B46FD7030A00
:10410000D8B4AED720EE04F04350D9264450DA227A
:10411000DE6ADE6ADE6ADD6A12000001966F000167
:104120009651200D000EF3240001976F060EF42027
:104130000001986F00019051800A800F010ED8B4E1
:104140008F5DD8A027D0000120EE12F0000197511A
:10415000D92600019851DA2200018FC0DEFF00014C
:1041600090C0DDFF00019035000190310001956F96
:1041700000018F310001946F000120EE14F0000166
:104180009751D92600019851DA2294C0DEFF95C0DC
:10419000DDFF1AD0000120EE12F000019751D92660
:1041A00000019851DA224C0EDE6E040EDD6E000125
:1041B00020EE14F000019751D92600019851DA221F
:1041C000260EDE6E020EDD6E000120EE08F000010C
:1041D0009751D92600019851DA22000189C0DEFFEB
:1041E00000018AC0DDFF000120EE0AF000019751B6
:1041F000D92600019851DA2200018BC0DEFF0001B0
:104200008CC0DDFF000120EE1DF000019751D92682
:1042100000019851DA228DC094F0010E0001956FD3
:104220000001942B03D00001D89095370001942F02
:10423000FAD700019551DF6E000120EE1EF000015B
:104240009751D92600019851DA2200018EC0DFFF74
:10425000000120EE1CF000019751D9260001985171
:10426000DA22000EDF6E000120EE1AF000019751F5
:10427000D92600019851DA223A0EDE6E000EDD6E6C
:1042800000019251800A800F010ED8B4915DD8A030
:1042900010D0000120EE10F000019751D926000146
:1042A0009851DA22000191C0DEFF000192C0DDFFCB
:1042B0000DD0000120EE10F000019751D926000129
:1042C0009851DA22200EDE6E000EDD6E000120EE27
:1042D00010F000019751D92600019851DA2200010F
:1042E00010EE0EF000019751E12600019851E222F4
:1042F000DECFE6FFDDCFE5FF000120EE18F0000184
:104300009751D92600019851DA22000EDE6E000E78
:10431000DD6E000120EE04F000019751D926000166
:104320009851DA22DE6ADE6ADE6ADD6A000120EE7A
:104330000CF000019751D92600019851DA22000EA5
:10434000DE6E000EDD6E1200000189C091F00001EA
:104350008AC092F000018BC093F000018CC094F0F1
:10436000180E06D00001D8909433933392339133D2
:10437000E82EF8D70001915100019A6F00019A6769
:104380000DD0000E0001896F000E00018A6F000E33
:1043900000018B6F000E00018C6F120000018DC0B8
:1043A00091F000018EC092F000018FC093F00001E7
:1043B00090C094F0180E06D00001D8909433933337
:1043C00092339133E82EF8D7000191510001996F93
:1043D000000199670DD0000E0001896F000E0001E9
:1043E0008A6F000E00018B6F000E00018C6F1200AF
:1043F00000018B8FFF0E00018917FF0E00018A1745
:10440000FF0E00018B17000E00018C1700018F8F2B
:10441000FF0E00018D17FF0E00018E17FF0E000129
:104420008F17000E00019017000E0001956F000E0F
:104430000001966F000E0001976F000E0001986F4B
:104440007F0E00019A5F00019951A00F00019A5F51
:10445000200E0001996F0001D890000195370001EE
:104460009637000197370001983700018D51000100
:10447000895D00018E5100018A5900018F510001B0
:104480008B590001905100018C59D8A012D0000125
:104490008D510001895F00018E5100018A5B00018E
:1044A0008F5100018B5B0001905100018C5B00017A
:1044B00095810001D8900001893700018A370001F9
:1044C0008B3700018C370001992FC5D700019AAFB7
:1044D00026D000019A51800A0001916FE10E800AF6
:1044E0000001915DD8B00DD0000E0001896F000E63
:1044F00000018A6F000E00018B6F000E00018C6FAF
:1045000012000001D8900001983300019733000198
:1045100096330001953300019A3FF3D720D01F0E48
:1045200000019A6519D0000E0001896F000E00018C
:104530008A6F000E00018B6F000E00018C6F12005D
:104540000001D89000019537000196370001973798
:104550000001983700019A0700019A67F1D795C0CA
:1045600089F096C08AF097C08BF098C08CF012004A
:10457000010E0001D06FEAD000F0010E0001CE6FF5
:1045800063EC36F0F2AE02D0010E01D0000E000155
:10459000CF6FF29E0DC1C7F00EC1C8F0010E000131
:1045A000CA6FD30E0001C96F0001C7C0B3F100018B
:1045B000C8C0B4F10101B31FB41FB34BB42B010148
:1045C0000D510101B32701010E510101B423010175
:1045D000B451800AF36E820EF35CEE0ED8B4B35D74
:1045E000D8B006D00001CF05D8A41200F28E120078
:1045F0000DC1C7F00EC1C8F00001CF05D8B4F28ECE
:1046000000F0A0EC26F0A5C1C3F0A6C1C4F0A7C17C
:10461000C5F0A8C1C6F000F000F0000120EEC3F024
:10462000000EDE18000ED8B4DE18700ED8B4DE18F6
:10463000C20ED8B4DE18D8B428D0000120EEC3F0E2
:10464000000EDE18000ED8B4DE18AA0ED8B4DE189C
:10465000420ED8B4DE18D8B418D0F2AE02D0010E93
:1046600001D0000E0001CF6FF29EC3C009F1C4C09B
:104670000AF1C5C00BF1C6C00CF10001CF05D8B4DA
:10468000F28E000E0001D16F21D00001D12B040E5B
:104690000001D1651BD0000E0001D16FF2AE02D037
:1046A000010E01D0000E0001CF6FF29E000E01013D
:1046B000096F000E01010A6F000E01010B6F000E61
:1046C00001010C6F0001CF05D8B4F28EF2AE02D01A
:1046D000010E01D0000E0001CF6FF29E0DC1C7F098
:1046E0000EC1C8F0010E0001CA6FEB0E0001C96FC8
:1046F0000001C7C0B3F10001C8C0B4F10101B31F8C
:10470000B41FB34BB42B01010D510101B3270101BB
:104710000E510101B4230101B451800AF36E800EE1
:10472000F35C640ED8B4B35DD8B006D00001CF05F9
:10473000D8A41200F28E12000DC1C7F00EC1C8F04D
:104740000001CF05D8B4F28E00F016D70001C9C021
:10475000B3F10001CAC0B4F10101B451000AD8B4E8
:1047600004D0010AD8B405D007D70101B351000A1B
:1047700003D70101B351D30AD8B416D7380AD8B435
:10478000B7D7FAD61C50200D000EF3240001786F25
:10479000060EF4200001796F070E0001746F400EC1
:1047A0000001736F1C500A0AD8A407D0060E00013E
:1047B000766F000E0001756F0AD0200E000178257B
:1047C0000001756F000E000179210001766F000E67
:1047D0000001776FCBD0000120EE1CF00001785172
:1047E000D92600017951DA22DF5000016E6F0001F5
:1047F0006EBF9CD0000179C040F0000178C03FF04E
:10480000000176C042F0000175C041F09AEC1CF046
:104810003FC071F040C072F0000120EE0CF00001CA
:104820007851D92600017951DA22DECF6EF0DDCF42
:104830006FF000016F51800A0001706F000171512B
:1048400000016E5D00017251800A00017059D8B0FC
:104850000DD0000120EE0CF000017851D9260001A6
:104860007951DA22DE2A000EDD220CD0000120EE82
:104870000CF000017851D92600017951DA22DE06C8
:10488000000EDD5A000120EE0CF000017851D9260F
:1048900000017951DA22DECF6EF0DDCF6FF000013A
:1048A00020EE04F000017851D92600017951DA2276
:1048B00000016E51DE266F51DE22000E6FBFFF0E2B
:1048C000DE22DD22DD52DD52000120EE0EF000017D
:1048D0007851D92600017951DA22DE06000EDD5A20
:1048E000D92ADD50FF0AFF0ED8B4DF18D8A41ED095
:1048F000000179C044F0000178C043F075EC1FF06E
:10490000000120EE10F000017851D9260001795104
:10491000DA22000110EE0EF000017851E1260001CC
:104920007951E222DECFE6FFDDCFE5FF000179C05D
:1049300076F0000178C075F000017451000179191A
:1049400004E10001735100017819D8A407D0060EC4
:104950000001796F000E0001786F06D0200E000173
:104960007827000E000179230001772B0A0E000141
:10497000776531D71C2A0A0E1C641200000E1C6ECB
:10498000120000018BC091F00001926B936B00014B
:104990008A350001913701E39281000191510001B4
:1049A000996F000199670DD0000E0001896F000E0C
:1049B00000018A6F000E00018B6F000E00018C6FEA
:1049C000120000018FC091F00001926B936B000107
:1049D0008E350001913701E3928100019151000170
:1049E000986F000198670DD0000E0001896F000ECE
:1049F00000018A6F000E00018B6F000E00018C6FAA
:104A0000120000018A8FFF0E00018917FF0E0001BE
:104A10008A17000E00018B1700018E8FFF0E000118
:104A20008D17FF0E00018E17000E00018F17000E6C
:104A30000001946F000E0001956F000E0001966F4B
:104A4000000E0001976F7F0E0001995F00019851E1
:104A5000980F0001995F180E0001986F0001D8901F
:104A60000001943700019537000196370001973710
:104A700000018D510001895D00018E5100018A59AC
:104A800000018F5100018B59D8A00ED000018D512B
:104A90000001895F00018E5100018A5B00018F5186
:104AA00000018B5B000194810001D89000018937DF
:104AB00000018A3700018B370001982FCFD7000102
:104AC00099AF26D000019951800A0001916FE90E3B
:104AD000800A0001915DD8B00DD0000E0001896FF1
:104AE000000E00018A6F000E00018B6F000E0001A6
:104AF0008C6F12000001D8900001973300019633AB
:104B000000019533000194330001993FF3D720D081
:104B1000170E0001996519D0000E0001896F000E73
:104B200000018A6F000E00018B6F000E00018C6F78
:104B300012000001D8900001943700019537000160
:104B40009637000197370001990700019967F1D75F
:104B500094C089F095C08AF096C08BF097C08CF015
:104B60001200000198C0A0F0000199C0A1F000015E
:104B70009AC0A2F000019BC0A3F0180E06D000015D
:104B8000D890A333A233A133A033E82EF8D7000185
:104B9000A0510001A46F0001A4670DD0000E000118
:104BA000986F000E0001996F000E00019A6F000EC1
:104BB00000019B6F120000019CC0A0F000019DC08D
:104BC000A1F000019EC0A2F000019FC0A3F0180E4A
:104BD00006D00001D890A333A233A133A033E82E2E
:104BE000F8D70001A0510001AA6F0001AA670DD0FB
:104BF000000E0001986F000E0001996F000E000179
:104C00009A6F000E00019B6F12000001AA517B0FEA
:104C10000001A4279BC0AAF000019F510001AA1B1C
:104C2000800E0001AA1700019A8F00019E8FFF0ECF
:104C300000019C17FF0E00019D17FF0E00019E173B
:104C4000000E00019F17000E0001A56F000E00016D
:104C5000A66F000E0001A76F000E0001A86F070EDF
:104C60000001A96F000198A110D000019C51000122
:104C7000A52700019D510001A62300019E510001BE
:104C8000A72300019F510001A8230001D890000133
:104C90009B3300019A3300019933000198330001DE
:104CA000D89000019C3700019D3700019E3700011C
:104CB0009F370001A92FD6D7110E0001A96F00015F
:104CC00098A110D000019C510001A52700019D5121
:104CD0000001A62300019E510001A72300019F515E
:104CE0000001A8230001D89000019B3300019A33F2
:104CF00000019933000198330001D8900001A833D6
:104D00000001A7330001A6330001A5330001A92F3C
:104D1000D6D7A5C089F0A6C08AF0A7C08BF0A8C0DE
:104D20008CF0A4C08DF0AAC08EF0E3EC2AF089C00C
:104D300098F08AC099F08BC09AF08CC09BF012005A
:104D4000CEC0A9F1010E0101AA6F0101A92B03D068
:104D50000101D890AA370101A92FFAD70101AA5160
:104D60009412B3EC2EF00009D8B407D0CC0E20EC8E
:104D70002AF0BE0E20EC2AF00DD0000E0101A56F26
:104D8000000E0101A66F700E0101A76FC20E010196
:104D9000A86F1200000E0101B16F000E0101B26F89
:104DA0002FD00101B251010D0101000EF324D96E83
:104DB0000101010EF420DA6E09EC2DF0DF6E010125
:104DC000B251010D0101000EF324D96E0101010E53
:104DD000F420DA6EDF500101B1190101A96FAA6B4D
:104DE000570E0101A925F66EC30EAA21F76EF86AC7
:104DF000000EF82208000101F5CFB1F10101B22B3C
:104E0000080E0101B265CDD70101B16703D00101E0
:104E100007670DD0000E0101A56F000E0101A66FFE
:104E2000700E0101A76FC20E0101A86F12000101EF
:104E30000051010101C1A9F10101AA6BA9C1AAF1A7
:104E40000101A96B0101A9110101AB6F0101AA5177
:104E50000101AC6F0F0E0101AB150001936F000152
:104E6000946BCDEC36F093C098F094C099F095C057
:104E70009AF096C09BF0000E00019C6F000E00019E
:104E80009D6F800E00019E6F3D0E00019F6FB1EC83
:104E900025F098C0ADF199C0AEF19AC0AFF19BC0BA
:104EA000B0F10101040E0101A96F0101AC3501014E
:104EB000AC330101AB330101A92FF7D7ABC193F09C
:104EC000ACC194F0CDEC36F093C096F194C097F15C
:104ED00095C098F196C099F1ADC19AF1AEC19BF120
:104EE000AFC19CF1B0C19DF120EC1BF096C1ADF1BA
:104EF00097C1AEF198C1AFF199C1B0F1ADC1A5F1C3
:104F0000AEC1A6F1AFC1A7F1B0C1A8F11200010175
:104F1000896F000E0101956F000E0101906F000175
:104F200097C0F6FF000198C0F7FFF86A080001017A
:104F3000F5CF8AF1010E0001972500019A6F000E4E
:104F40000001982100019B6F9AC0F6FF9BC0F7FFFC
:104F5000F86A08000101F5CF8BF1E00E0101892507
:104F60000101976F0101986BFF0E982397C189F09B
:104F700098C18AF0020E0001972500019A6F000E79
:104F80000001982100019B6F9AC0F6FF9BC0F7FFBC
:104F9000F86A0800F55000018B6F00018C6B3AEC49
:104FA00038F0000189C097F100018AC098F1030E22
:104FB00001019727000E01019823000197C09AF084
:104FC000000198C09BF00101975100019A2701014F
:104FD000985100019B239AC0F6FF9BC0F7FFF86A27
:104FE00008000101F5CF93F1010E010197250001A1
:104FF0009A6F000E0101982100019B6F00019A51E8
:105000000001972501018C6F00019B51000198213F
:1050100001018D6FD5C092F1D4C091F192C194F18C
:10502000000E01018F6F49D091C195F1000E010171
:10503000966F000E01018E6F36D00101966711D078
:1050400001018CC1F6FF01018DC1F7FFF86A08006C
:105050000101F5CF90F101018C4B8D2B800E0101E8
:10506000966F01019051010196150009D8B414D032
:1050700000019905D8A407D094C192F0010195517F
:105080005AEC35F009D00001996706D094C192F02E
:105090000101955115EC35F00101952B0101D890D6
:1050A000963301018E2B01018B5101018E5DD8A039
:1050B000C4D70101942B01018F2B01018A510101F9
:1050C0008F5DD8A0B1D70101915101019325000155
:1050D000D46F92C1D5F0010193511200000E00016E
:1050E000A16F000E0001A26F000120EE01F000018F
:1050F0009C51D92600019D51DA22DF5000018B6FAF
:105100009CC0D9FF9DC0DAFFDF5089EC34F0A2C00B
:10511000A3F028D0000120EE03F000019C51D92615
:1051200000019D51DA220001DECF97F00001DDCFB2
:1051300098F0000E0001996F0001A351010D050EBA
:10514000F326000EF422F35000019C25D96EF45092
:1051500000019D21DA6EDF5087EC27F00001A06F7F
:105160000001A32B000120EE02F000019C51D92682
:1051700000019D51DA22DF500001A35DD8A0CAD7FB
:10518000000120EE01F000019C51D92600019D5143
:10519000DA22DF5000018B6F9CC0D9FF9DC0DAFF7F
:1051A000DF5089EC34F0A2C0A3F068D00001A35115
:1051B000010DF35000019E25D96EF45000019F218E
:1051C000DA6EDF50D8A403D0010E0001A16F0001F8
:1051D000A1671DD00001A351010DF35000019E25D0
:1051E000D96EF45000019F21DA6E0001A351010D28
:1051F000050EF326000EF422F35000019C25E16E0B
:10520000F45000019D21E26EDFCFE7FF11D00001D5
:10521000A351010D050EF326000EF422F3500001F8
:105220009C25D96EF45000019D21DA6E200EDF6EB0
:10523000000120EE03F000019C51D92600019D5190
:10524000DA220001DECF97F00001DDCF98F0010EE9
:105250000001996F0001A351010D050EF326000E08
:10526000F422F35000019C25D96EF45000019D21D9
:10527000DA6EDF5087EC27F00001A32B000120EE4F
:1052800002F000019C51D92600019D51DA22DF5025
:105290000001A35DD8B0120089D7000193C09BF034
:1052A000000194C09CF0000195C09DF0000196C0E3
:1052B0009EF0180E06D00001D8909E339D339C338B
:1052C0009B33E82EF8D700019B510001A46F000129
:1052D000A4670DD0000E0001936F000E0001946FC3
:1052E000000E0001956F000E0001966F1200000184
:1052F00097C09BF0000198C09CF0000199C09DF000
:1053000000019AC09EF0180E06D00001D8909E337E
:105310009D339C339B33E82EF8D700019B5100014D
:10532000A56F0001A5670DD0000E0001936F000E60
:105330000001946F000E0001956F000E0001966F42
:1053400012000001A551890F0001A45F96C0A5F0CD
:1053500000019A510001A51B800E0001A517000154
:10536000958FFF0E00019317FF0E00019417FF0E9B
:1053700000019517000E000196170001998FFF0E8E
:1053800000019717FF0E00019817FF0E00019917F3
:10539000000E00019A17200E0001A36F0001D890A3
:1053A00000019F370001A0370001A1370001A2379B
:1053B000000197510001935D00019851000194593B
:1053C000000199510001955900019A510001965927
:1053D000D8A012D0000197510001935F00019851AD
:1053E0000001945B000199510001955B00019A5105
:1053F0000001965B00019F810001D8900001933766
:105400000001943700019537000196370001A32F62
:10541000C5D79FC089F0A0C08AF0A1C08BF0A2C000
:105420008CF0A4C08DF0A5C08EF0E3EC2AF089C00A
:1054300093F08AC094F08BC095F08CC096F0120067
:1054400000018D6F000EF2BE010E0001CC6FF29EC6
:10545000CEC08BF0010E00018C6F00018B2B03D0AE
:105460000001D8908C3700018B2FFAD700018C51A6
:105470008B12000E00018E6F88D0CEC08BF0010E13
:1054800000018C6F00018B2B03D00001D8908C376A
:1054900000018B2FFAD700018C51FF0A9416CEC061
:1054A0008BF0010E00018C6F00018B2B03D00001EB
:1054B000D8908C3700018B2FFAD700018C51FF0A4E
:1054C0008B16000E00018A6F050E0001896F6FECCC
:1054D00039F08EC08BF0010E00018C6F00018B2B18
:1054E00003D00001D8908C3700018B2FFAD7000130
:1054F0008C5100018D150009D8B412D0CEC08BF0AC
:10550000010E00018C6F00018B2B03D00001D8909D
:105510008C3700018B2FFAD700018C518B1212D0DF
:10552000CEC08BF0010E00018C6F00018B2B03D0DD
:105530000001D8908C3700018B2FFAD700018C51D5
:10554000FF0A8B16000E00018A6F4E0E0001896F54
:105550006FEC39F0CEC08BF0010E00018C6F0001B2
:105560008B2B03D00001D8908C3700018B2FFAD7FA
:1055700000018C518B12000E00018A6F3C0E00015D
:10558000896F6FEC39F000018E2B070E00018E65DC
:1055900074D70001CCA101D0F28E0001CCB101D0B2
:1055A000F29ECEC08BF0010E00018C6F00018B2BA0
:1055B00003D00001D8908C3700018B2FFAD700015F
:1055C0008C519412120000018D51D8B407D0000103
:1055D0008C5189118A118B11D8A419D0000E0001A9
:1055E000896F000E00018A6F000E00018B6F000EA4
:1055F00000018C6F120000018D2B0001D89000017A
:105600008C3300018B3300018A3300018933000E93
:105610000001891500018F6F000E00018A1500013D
:10562000906F000E00018B150001916FFE0E0001BE
:105630008C150001926F000192518F119011911100
:10564000D8B417D0D8D700018D2B010E00018927BF
:10565000000E00018A2300018B2300018C2300012E
:10566000D89000018C3300018B3300018A33000194
:105670008933000E0001891500018F6F000E0001B3
:105680008A150001906F000E00018B150001916FCB
:10569000FF0E00018C150001926F000192518F11D5
:1056A00090119111D8B40DD0CED700018D07000113
:1056B000D8900001893700018A3700018B3700013B
:1056C0008C3700018BAFF1D700018DB10CD0FF0EEC
:1056D00000018917FF0E00018A177F0E00018B174A
:1056E000FF0E00018C170001D8908D3300018DC092
:1056F0008FF00001906B916B926B8FC092F0000164
:10570000916B906B8F6B00018F5100018913000129
:10571000905100018A130001915100018B13000187
:10572000925100018C1300018E51D8B402D00001B7
:105730008C8F89C089F08AC08AF08BC08BF08CC0B6
:105740008CF01200010192C196F1010193C197F111
:10575000010194C198F1010195C199F1180E06D08B
:105760000101D8909933983397339633E82EF8D7C0
:105770000101965101019B6F01019B670DD0000E45
:105780000101926F000E0101936F000E0101946FF1
:10579000000E0101956F1200010192C196F1010105
:1057A00093C197F1010194C198F1010195C199F15B
:1057B000200E06D00101D890993398339733963351
:1057C000E82EF8D70101965101019A6F0101948FDB
:1057D000FF0E01019217FF0E01019317FF0E010149
:1057E0009417000E01019517960E01019B5F0101B0
:1057F0009BAF26D001019B51800A0101966FE90EF3
:10580000800A0101965DD8B00DD0000E0101926FA3
:10581000000E0101936F000E0101946F000E010153
:10582000956F12000101D890010195330101943365
:10583000010193330101923301019B3FF3D720D043
:105840001F0E01019B6519D0000E0101926F000E21
:105850000101936F000E0101946F000E0101956F1D
:1058600012000101D8900101923701019337010123
:1058700094370101953701019B0701019B67F1D71F
:1058800001019A51D8B40FD00101951F0101941F55
:105890000101931F0101926D000E0101932301018B
:1058A00094230101952392C192F193C193F194C184
:1058B00094F195C195F11200000E0101A56F01014F
:1058C0009F51800A800F0BE1000E01019E5D07E1F0
:1058D000000E01019D5D03E1000E01019C5DD8B049
:1058E00012D001019F1F01019E1F01019D1F010197
:1058F0009C6D000E01019D2301019E2301019F2348
:10590000010E0101A56F0101A351800A800F0BE177
:10591000000E0101A25D07E1000E0101A15D03E19E
:10592000000E0101A05DD8B00FD00101A31F01013D
:10593000A21F0101A11F0101A06D000E0101A12301
:105940000101A2230101A3230101A351A011A1116F
:10595000A211D8B442D0010E0101A46F0CD00101F4
:10596000D8900101A0370101A1370101A23701013F
:10597000A3370101A42B0101A3AFF1D70101A0516D
:1059800001019C5D0101A15101019D590101A2513B
:1059900001019E590101A35101019F59D8A010D0C6
:1059A0000101A05101019C5F0101A15101019D5B19
:1059B0000101A25101019E5B0101A35101019F5B05
:1059C0000101D8900101A3330101A2330101A133E8
:1059D0000101A0330101A42FD1D70101A551D8B4F1
:1059E0000FD001019F1F01019E1F01019D1F010199
:1059F0009C6D000E01019D2301019E2301019F2347
:105A00009CC19CF19DC19DF19EC19EF19FC19FF1E2
:105A10001200000E00018D6F000EF2BE010E00019B
:105A2000CC6FF29ECEC08BF0010E00018C6F000196
:105A30008B2B03D00001D8908C3700018B2FFAD725
:105A400000018C518B12000E00018E6F6BD0CEC006
:105A50008BF0010E00018C6F00018B2B03D0000135
:105A6000D8908C3700018B2FFAD700018C51FF0A98
:105A70009416CEC08BF0010E00018C6F00018B2BB1
:105A800003D00001D8908C3700018B2FFAD700018A
:105A90008C51FF0A8B16000E00018A6F050E000163
:105AA000896F6FEC39F0CEC08BF0010E00018C6F66
:105AB00000018B2B03D00001D8908C3700018B2F75
:105AC000FAD700018C519412000E00018A6F100E5B
:105AD0000001896F6FEC39F00001D8908D33CEC092
