:10000000F8EF01F0FF00FF00E1CF81F0E2CF82F0D6
:10001000D9CF83F0B4EF16F0D8CF18F0E8CF19F0AD
:10002000E0CF1AF0D9CF1BF0DACF1CF0F6CF1DF0DD
:10003000F7CF1EF0F8CF1FF0F5CF20F000F09EBAFA
:100040009DAAC3D1C8EC1AF00101196F1951EA0A2F
:10005000D8B4FF001951550AD8B4ABB4ADD1ABB286
:10006000ABD1435001E0A8D1C8EC1AF001011A6FDE
:10007000ABA4ABB2A1D1435001E09ED18FD1C8EC6B
:100080001AF001011B6FABA4ABB296D1435001E053
:1000900093D1C8EC1AF001011C6FABA4ABB28CD1A8
:1000A000435001E089D1236A10D01D0E2324D96E5C
:1000B000DA6A010EDA22C8EC1AF0DF6EABA4ABB23A
:1000C0007BD1435001E078D1232A01011C51136EEA
:1000D000146A020E1326000E14222350156E166A9F
:1000E0001650800A176E1350155C1450800A17586A
:1000F000DCE3010E0A6E190E096E1C51040F0B6E23
:1001000012EC18F0000901E157D1236A14D066EC13
:100110001BF0010121EE1BF0DF50DF2A016E026AA5
:100120001D0E2324D96EDA6A010EDA22DF50036E27
:1001300072EC19F0232A01011C51235CE8E3010E43
:100140000A6E190E096E020E0B6E6AEC18F0236A25
:100150000101190E2324D96EDA6A010EDA22DF506A
:1001600060EC1BF0232A030E2364F2D725D1020E84
:10017000236E0101190E2324D96EDA6A010EDA22E8
:10018000C8EC1AF0DF6EABA4ABB216D1435001E05D
:1001900013D1232A050E2364ECD70101010E0A6E48
:1001A000190E096E040E0B6E12EC18F0000901E135
:1001B00003D11BC121F01CC122F0236A0FD0010121
:1001C0001B0E2324D96EDA6A010EDA2221C001F057
:1001D000026AEEEC1AF0DF6E212A232A2250235CF9
:1001E000EEE30101010E0A6E190E096E2250020F94
:1001F0000B6E6AEC18F0236A0BD00101190E232450
:10020000D96EDA6A010EDA22DF5060EC1BF0232A85
:100210002250136E146A040E1326000E142223506B
:10022000156E166A1650800A176E1350155C14501E
:10023000800A175801E3C0D0E0D7020E236E0101F7
:10024000190E2324D96EDA6A010EDA22C8EC1AF0EC
:10025000DF6EABA4ABB2B0D0435001E0ADD0232AE7
:10026000040E2364ECD70101010E0A6E190E096E0B
:10027000030E0B6E12EC18F0000901E19DD0050E83
:1002800043EC1BF00101010E0A6E190E096E020EFD
:100290000B6E6AEC18F0236A0101190E2324D96E43
:1002A000DA6A010EDA22DF5060EC1BF0232A030E1B
:1002B0002364F2D781D0020E236E0101190E23248C
:1002C000D96EDA6A010EDA22C8EC1AF0DF6EABA43E
:1002D000ABB272D0435070E1232A030E2364EDD7F2
:1002E0000101010E0A6E190E096E020E0B6E12EC60
:1002F00018F0000961E03FEC18F00101010E0A6EF0
:10030000190E096E020E0B6E6AEC18F0236A0101D9
:10031000190E2324D96EDA6A010EDA22DF5060EC5E
:100320001BF0232A030E2364F2D746D0020E236E5D
:100330000101190E2324D96EDA6A010EDA22C8EC03
:100340001AF0DF6EABA4ABB237D0435035E1232AAD
:10035000040E2364EDD70101010E0A6E190E096E19
:10036000030E0B6E12EC18F0000926E00CD0010E03
:100370004BEC1BF010D0020E4BEC1BF00CD0030E1C
:100380004BEC1BF008D001011B51010AF0E0030AFD
:10039000F2E0010AF4E000F000F00ED01A51080A71
:1003A00001E16DD6010A01E1E2D6030A01E145D778
:1003B000010A81E01B0ABAE09EBAAECF42F09EBAB3
:1003C000AECF42F0AB9800F0AB8820C0F5FF1FC065
:1003D000F8FF1EC0F7FF1DC0F6FF1CC0DAFF1BC0F0
:1003E000D9FF1AC0E0FF19C0E8FF18C0D8FF1000FD
:1003F000FBEF15F0010E0201716FDB0E706FBCD3C5
:100400008F51250A0AE0D7C1D9FFD8C1DAFF8FC2C0
:10041000DFFF0101D74BD82BAFD3856B866B836B86
:10042000846B0101DBDBFFEC1AF02FE30201856B2B
:10043000866B85C287F086C288F000018A6B0A0E3F
:10044000896FB5EC1AF087C085F288C086F2D00EAD
:100450000101DF6FE069C2DBE16FE26BDF51E12791
:10046000E051E223E151020185270101E25102013D
:1004700086230101D94BDA2BD9C1F6FFDAC1F7FF88
:100480000800F550FFEC1AF0D4E2A8DB2E0A29E1AF
:100490000201848D0101D94BDA2B02018D6B8E6B29
:1004A0001AD08DC287F08EC288F08A6B0A0E896FCF
:1004B000B5EC1AF093DB00018727000E8823D00EDD
:1004C000872502018D6FFF0E0001882102018E6FCA
:1004D0000101D94BDA2B010181DBFFEC1AF008E3B3
:1004E000E0D702018D6B8E6B848902D0848507D0A2
:1004F0007CDB8F5101E143D3660AF8E03DD3070E60
:10050000841501E1B1D284A903D08E6B060E8D6FE4
:1005100070C2D9FF71C2DAFFDECF89F2DECF8AF274
:10052000DECF8BF2DECF8CF2040E7027000E71232B
:100530008CAF15D089C287F08AC288F08BC289F04F
:100540008CC28AF08FEC1AF087C089F288C08AF2D8
:1005500089C08BF28AC08CF2030E02018313876B71
:10056000886B22EE89F0DE50DE10DE10DE106BE0CC
:100570008B358C35820F876F886BFF0E882387073A
:10058000D8A0880787C287F088C288F000018A6BEC
:10059000030E896FB5EC1AF087C087F288C088F225
:1005A00087C28DF088C28EF0906B0A0E8F6FE3ECDD
:1005B00014F08DC087F28EC088F23FDB000ED8B4F5
:1005C000875D03E28707D8A08807875100082FECD2
:1005D00006F0A9C07AF2AAC07BF2ABC07CF2ACC034
:1005E0007DF27AC296F07BC297F07CC298F07DC211
:1005F00099F089C29AF08AC29BF08BC29CF08CC29F
:100600009DF090EC10F096C07AF297C07BF298C003
:100610007CF299C07DF200DB800E8D6F3F0E8E6FF5
:10062000DFEC18F005E202018707D8A088070BD09D
:10063000F3DA200E8D6F410E8E6FDFEC18F003E3BE
:100640000201874B882B02018E51800AF36E800EC7
:10065000F35C0D0ED8B48D5D1DE289C2BAF08AC27A
:10066000BBF08BC2BCF08CC2BDF08D51A4EC0BF082
:10067000A9C0BEF0AAC0BFF0ABC0C0F0ACC0C1F012
:10068000BEEC0AF0BAC089F2BBC08AF2BCC08BF2E1
:10069000BDC08CF2D2DA0A0ED8B4875D27E222EE12
:1006A00089F0DE50DE10DE10DE106FE089C2B2F09D
:1006B0008AC2B3F08BC2B4F08CC2B5F0E5EC12F094
:1006C000B2C0DFF1B3C0E0F1B4C0E1F1B5C0E2F116
:1006D0000101E251DF11E011E11157E102018851FE
:1006E000800A800F020ED8B4875D4FE37AC287F08C
:1006F0007BC288F07CC289F07DC28AF05F0E000167
:100700008B6F700E8C6F890E8D6F400E8E6FDFECCD
:1007100018F003E20201F70E02D00201F80E87275B
:10072000FF0E882387512FEC06F0A9C07AF2AAC0E9
:100730007BF2ABC07CF2ACC07DF289C287F08AC28A
:1007400088F08BC289F08CC28AF07AC28BF07BC2AF
:100750008CF07CC28DF07DC28EF014EC11F087C05D
:100760006CF288C06DF289C06EF28AC06FF26CC202
:100770007EF26DC27FF26EC280F26FC281F2020120
:10078000896B8A6B8B6B8C6B39D089C2B2F08AC251
:10079000B3F08BC2B4F08CC2B5F0E5EC12F0B2C08D
:1007A0007EF2B3C07FF2B4C080F2B5C081F289C2DC
:1007B000CFF18AC2D0F18BC2D1F18CC2D2F17EC20C
:1007C00091F07FC292F080C293F081C294F023EC4A
:1007D0001AF091C0D3F192C0D4F193C0D5F194C076
:1007E000D6F1D3EC19F0CFC189F2D0C18AF2D1C1D0
:1007F0008BF2D2C18CF20201876B886B010E8F6F76
:10080000E3D9F5507E5D0900F5507F590900F55098
:1008100080590900F550815904E38F2B8F510A0A42
:10082000EFE18FC2DFF10101E06BDFBFE007020102
:100830008D510101DF2702018E510101E0230201E8
:1008400087510101DF27020188510101E023DF51B7
:100850000201855F0101E0510201865B8E518D111D
:1008600003E08507D8A0860783C2DFF1030E0101EC
:10087000DF170BE002018507D8A0860706D0D7C195
:10088000D9FFE2D9D74BD82BF5D702018651E2D94F
:10089000D8B4855DF4E283C2DFF1030E0101DF17F6
:1008A00030E0D7C1D9FFD8C1DAFF2D0EDF6E0101CC
:1008B000D74BD82B26D06AD979EC16F087C072F2C4
:1008C00088C073F289C074F28AC075F272C287F070
:1008D00073C288F074C289F075C28AF0A8D955EC49
:1008E00017F087C072F288C073F289C074F28AC0B0
:1008F00075F202017251300FD7C1D9FFD8C1DAFFAA
:10090000D5D702018F078F2905E0D5D77AD9870778
:10091000D8A0880788519ED9D8B4875DF7E28E5158
:10092000800A800F090ED8B48D5D03E3080E8F6F27
:1009300002D08DC28FF28F518D5F000E8FBFFF0EE0
:100940008E5B8F5109E0D7C1D9FFD8C1DAFF2E0ED7
:10095000DF6E0101D74BD82B02018F512FEC06F02F
:10096000A9C068F2AAC069F2ABC06AF2ACC06BF26F
:1009700089C29AF08AC29BF08BC29CF08CC29DF017
:1009800068C296F069C297F06AC298F06BC299F09B
:1009900090EC10F096C0B2F097C0B3F098C0B4F0ED
:1009A00099C0B5F0E5EC12F0B2C07EF2B3C07FF2B0
:1009B000B4C080F2B5C081F249D0E8D879EC16F025
:1009C00087C076F288C077F289C078F28AC079F25F
:1009D00076C287F077C288F078C289F079C28AF04F
:1009E00026D955EC17F087C076F288C077F289C017
:1009F00078F28AC079F202017651300FD7C1D9FF5F
:100A0000D8C1DAFFDF6E0101D74BD82B7EC287F049
:100A10007FC288F080C289F081C28AF00201D4D8F6
:100A20000001F5CF8BF00900F5CF8CF00900F5CF70
:100A30008DF00A00F5CF8EF055EC17F087C07EF2EE
:100A400088C07FF289C080F28AC081F202018F07DC
:100A50008F2905E0B2D7D5D88D07D8A08E078E5143
:100A60008D1101E189D0F7D78E518D1107E18151A8
:100A70007E117F11801102E18D4B8E2B800E8FBF76
:100A80007F0E0101DF6F02018D518F5D8E51800A53
:100A90000101DF5903E28DC28FF214D002018E51A1
:100AA000800A0101DF6F02018F518D5D800E8FBFC3
:100AB0007F0E0101DF5906E202018F518D6F8E6BAF
:100AC0008DBF8E070201865185110AE083C2DFF1D6
:100AD000030E0101DF1704E002018507D8A0860795
:100AE000020184AD15D08E51800A0101DF6F020131
:100AF00085518D5D8651800A0101DF5906E20201B0
:100B00008D51855F8E51865B03D00201856B866BAC
:100B1000800E8FBF7F0E0101DF6F020185518F5D57
:100B20008651800A0101DF5908E202018F51855F79
:100B3000000E8FBFFF0E865B03D00201856B866BB4
:100B4000865185110CE0D7C1D9FF7ED8D74BD82B61
:100B500002018507D8A0860786518511F4E183C27A
:100B6000DFF1030E0101DF1707E0D7C1D9FFD8C1BC
:100B7000DAFF2D0EDF6E4DD438D88F6741D4D7C140
:100B8000D9FFD8C1DAFF000EDF6E000C7EC287F0FD
:100B90007FC288F080C289F081C28AF08F51040D33
:100BA000CF0EF324F66EFF0EF420F76E090000015D
:100BB000F5CF8BF00900F5CF8CF00900F5CF8DF063
:100BC0000A00F5CF8EF012008F51040DCF0EF324E2
:100BD000F66EFF0EF420F76E09001200D9C1F6FF81
:100BE000DAC1F7FF0800F55012000101D9C1F6FF84
:100BF000DAC1F7FFD94BDA2B0800F5CF8FF20201EB
:100C00001200D7C1D9FFD8C1DAFF300EDF6E010163
:100C1000D74BD82B0201300C7AC287F07BC288F008
:100C20007CC289F07DC28AF08B6B8C6B12000A0E3D
:100C30008B6F8C6B8D6B8E6B000C02018851800A60
:100C4000F36E800EF35C1200D8C1DAFF200EDF6E67
:100C50000101200C800AF36E800EF35C010C000190
:100C6000B16FB1AF74D0B16DB151800A120F3FE3D3
:100C7000906B0A0E8F6F8A6B640E41D987BF88070D
:100C8000B9EC15F087C08DF088C08EF0E3EC14F05D
:100C9000EDD81B0E8D25F66EF40E8E21CBD8906B01
:100CA000640E32D98DBF8E07E3EC14F0D89007D9CB
:100CB0001B0E8D25F66EF40E8E21CAD890EC10F026
:100CC000E7D887BF8807B9EC15F0DBD81B0E87255E
:100CD000F66EF40E8821AED890EC10F096C0A9F014
:100CE00097C0AAF098C0ABF099C0ACF01200B15117
:100CF000800A750F25E3906B0A0E06D98DBF8E070B
:100D0000E3EC14F0B3D81B0E8D25F66EF40E8E2195
:100D10009FD8EED887BF8807B9EC15F0B2D81B0E64
:100D20008725F66EF40E882185D890EC10F096C0D9
:100D3000A9F097C0AAF098C0ABF099C0ACF012002F
:100D4000B151040D1B0EF324F66EF40EC2D0B15156
:100D5000800A120F3FE3906B0A0E8F6F8A6B640E4E
:100D6000CED887BF8807B9EC15F087C08DF088C052
:100D70008EF0E3EC14F07AD84F0E8D25F66EF40E5B
:100D80008E2158D8906B640EBFD88DBF8E07E3ECD0
:100D900014F0D89094D84F0E8D25F66EF40E8E2157
:100DA00057D890EC10F074D887BF8807B9EC15F0CD
:100DB00068D84F0E8725F66EF40E88213BD890EC4C
:100DC00010F096C0A9F097C0AAF098C0ABF099C0F7
:100DD000ACF01200B151800A750F25E3906B0A0E3A
:100DE00093D88DBF8E07E3EC14F040D84F0E8D25BD
:100DF000F66EF40E8E212CD87BD887BF8807B9EC0D
:100E000015F03FD84F0E8725F66EF40E882112D8C4
:100E100090EC10F096C0A9F097C0AAF098C0ABF083
:100E200099C0ACF01200B151040D4F0EF324F66ED0
:100E3000F40E4FD0F76E0900F5CF9AF00900F5CF08
:100E40009BF00900F5CF9CF00A00F5CF9DF0120051
:100E5000F76E0900F5CF96F00900F5CF97F009007D
:100E6000F5CF98F00A00F5CF99F01200D8908D37A1
:100E70008E37D8908D378E37240E8D27000E8E2317
:100E8000000CD89087378837D8908737883712007A
:100E900096C0ADF097C0AEF098C0AFF099C0B0F07A
:100EA000ADC096F0AEC097F0AFC098F0B0C099F06A
:100EB0008A6B0A0E896FB151876F886B12008D376C
:100EC0008E37D8908D378E37480E8D27000E8E23A3
:100ED000000CF420F76E0900F5CFA9F00900F5CF5A
:100EE000AAF00900F5CFABF00A00F5CFACF0120084
:100EF0008A6B0A0E896FB151876F886B1200896FF8
:100F0000B151876F886B12008F6FB1518D6F8E6BEF
:100F10001200020E986F580E976F700ED36E9B8C56
:100F20009707D8A0980700019729D8B49829F8E125
:100F3000D08E030EBA12C80EBB6EBA50870B1809BA
:100F4000BA6EBA849F829E929D82030E0F01511346
:100F5000640E526F51975199519B519D51857F80DD
:100F60007E907D801DEC1BF0386B396B3A6B3B6BD0
:100F70003C6B0F0E0001886FDCD88B6B0C0ED2D847
:100F8000000E44EC0DF00F0E886FD3D8010E8B6F5E
:100F90000A0EC8D8010E44EC0DF00F0E886FC9D8A8
:100FA000020E8B6F080EBED8020E44EC0DF00F0E31
:100FB000886FBFD8050E8B6F0D0EB4D8030E44ECAE
:100FC0000DF00F0E886FBCD88B6B8C6B8E698D69A2
:100FD00090698F699169040E44EC0DF00F0E886FD3
:100FE000AFD8010E8B6F9ED8050E44EC0DF00F0E9E
:100FF000886F9FD8040E8B6F0B0E94D8060E44ECAE
:101000000DF00F0E886F95D8030E8B6F090E8AD8DE
:10101000070E44EC0DF00F0E886F92D8020E8B6F06
:1010200081D8080E44EC0DF00F0E886F89D8030E9E
:101030008B6F78D8090E44EC0DF00F0E886F80D8B6
:10104000040E8B6F6FD80A0E44EC0DF0876B100EF8
:10105000886F000E73EC15F0010E876F100E886F0D
:10106000010E73EC15F0020E876F100E886F020EE2
:1010700073EC15F0030E876F100E886F030E73EC80
:1010800015F0040E876F100E886F040E73EC15F0C8
:10109000050E876F100E886F050E73EC15F0060EA7
:1010A000876F100E886F060E73EC15F0070E876FB2
:1010B000100E886F070E73EC15F0080E876F100E78
:1010C000886F080E73EC15F0090E876F100E886F8D
:1010D000090E73EC15F00A0E876F100E886F0A0E5A
:1010E00073EC15F0020E876F180E886F0B0E73EC01
:1010F00015F0030E876F180E886F0C0E73EC15F049
:101100000EEC1BF0949C948E9F9A9D8A939C939EC8
:10111000929C929E8A9C8A9E899C899E94988B8898
:10112000F28C12008C6F8E698D6990698F6991695C
:101130001200930E876F0F0E8A6F8A0E896F8A0CCA
:10114000920E876F0F0E8A6F890E896F890C20EEC1
:1011500008F06251D9266351DA22DECF68F0DDCF84
:1011600069F020EE0AF06251D9266351DA22DECF0F
:101170006CF0DDCF6DF020EE1DF06251D926635189
:10118000DA22DF50706F20EE08F06051D9266151ED
:10119000DA22DECF71F0DDCF72F020EE0AF060517E
:1011A000D9266151DA22DECF6EF0DDCF6FF020EE6E
:1011B0001DF06051D9266151DA22DF50736F20EEA5
:1011C0001EF06251D9266351DA22DF506A6F20EE99
:1011D0001EF06051D9266151DA22DF506B6F6AC070
:1011E00064F0A6D86CC0D9FF6DC0DAFF7051DF1271
:1011F000B3D895D88BD800F000F000F000F000F0E4
:1012000000F000F000F000F000F000F000F000F05E
:1012100000F000F000F000F000F000F000F071C00D
:10122000D9FF72C0DAFF00017351DF126BC064F0A6
:101230007FD800F000F000F000F000F000F000F0C7
:1012400000F000F000F000F000F000F000F000F01E
:1012500000F000F000F000F000F0C282C2B2FED751
:10126000000154D882D8040E676F666B69D8665F38
:101270006551675B6AC064F05BD877D86DD86EC083
:10128000D9FF6FC0DAFF7351DF1240D800F000F0D1
:1012900000F000F000F000F000F000F000F000F0CE
:1012A00000F000F000F000F000F000F000F000F0BE
:1012B00000F000F071C0D9FF72C0DAFF7351DF1285
:1012C0006BC064F035D800F000F000F000F000F0E2
:1012D00000F000F000F000F000F000F000F000F08E
:1012E00000F000F000F000F000F000F000F0C2822A
:1012F000C2B2FED7000113D809D822D8662765519B
:10130000672366C060F067C061F01200731D646FF0
:1013100071C0D9FF72C0DAFF6451DF161200731D6D
:10132000646F6EC0D9FF6FC0DAFF6451DF16120020
:1013300064476447C2506419830B6419C26E12007B
:10134000C350C4CF64F0656B64C065F0646B642700
:10135000000E652364511200701D646F68C0D9FFD0
:1013600069C0DAFF6451DF161200701D646F6CC033
:10137000D9FF6DC0DAFF6451DF161200020E0001C2
:10138000946F000E936F906B916B8D6B20EE04F059
:101390009351D9269451DA22DECF8BF0DDCF8CF039
:1013A00020EE1CF08B51D9268C51DA22DF50926F3F
:1013B000925101E1BFD020EE02F09351D926945111
:1013C000DA22DF508F6F20EE01F09351D92694512D
:1013D000DA22DF508E6F8FA737D08E51020A04E1D8
:1013E000C5D8190EDD6E30D020EE06F09351D92607
:1013F0009451DA22DE52DD50800A800F010ED8B4FB
:10140000DF5C010ED8A0020E8E6F20EE06F0935125
:10141000D9269451DA22DECF87F0DDCF88F08851CB
:10142000800AF36E7B0EF35C000ED8B4875D03E296
:101430009DD8050EDD6E20EE06F09351D92694510D
:10144000DA22DE06000EDD5A8FA908D093C0D9FF3C
:1014500094C0DAFFDF508E15D8A48E8F93C0D9FFC9
:1014600094C0DAFF8EC0DFFF8FA122D020EE03F000
:101470009351D9269451DA22DF50921910E09251FB
:10148000020A0DE16CD8DF6208D020EE01F0935122
:10149000D9269451DA22020E01D061D8DF6E20EEF7
:1014A00003F09351D9269451DA2292C0DFFF42D043
:1014B0008FA533D020EE01F09351D9269451DA2232
:1014C000020EDF6E9251020A35E19151901105E151
:1014D00094C091F093C090F02DD020EE18F08B5175
:1014E000D9268C51DA22DECF87F0DDCF88F020EECE
:1014F00004F09051D9269151DA2210EE18F0DE5006
:10150000E126DD50E222E6CF89F0E5CF8AF087516F
:10151000895D88518A59DCE30DD09251020A02E1BB
:101520001ED807D020EE01F09351D9269451DA222B
:10153000020EDF6E080E9327000E94238D2B0C0EE7
:101540008D6524D791519011D8B4120020EE01F08E
:101550009051D9269151DA22010EDF6E010C20EE56
:1015600001F09351D9269451DA22010C20EE06F0B5
:101570009351D9269451DA22DE6A12000001BAC0D2
:10158000C8F1BBC0C9F1BCC0CAF1BDC0CBF1180ED7
:1015900001D0D3D8E82EFDD7C851CE6F0001BEC010
:1015A000C8F1BFC0C9F1C0C0CAF1C1C0CBF1180EAB
:1015B00001D0C3D8E82EFDD7C851CD6FCE5109E078
:1015C000CD51CE5D0FE2CE51CD5DC86F210EC85D0D
:1015D00009E3BEC0BAF0BFC0BBF0C0C0BCF0C1C020
:1015E000BDF01200CD5109E0CE51CD5D0FE2CD51DD
:1015F000CE5DC86F210EC85D09E3BAC0BAF0BBC0AA
:10160000BBF0BCC0BCF0BDC0BDF01200060ECC6F7C
:101610000001BDAF02D00101CC8F0001C1AF02D0EB
:101620000101CC8D0001BC8FBD6BC08FC16B01016E
:10163000CD51CE5D1EE20001D890BE37BF37C03716
:10164000C1370101CD07CD51CE190FE0CC07CCC178
:10165000C8F1070EC81709E0EED70001D890BD33D6
:10166000BC33BB33BA330101CE2BCD51CE63F5D79A
:1016700020D0CE51CD5D1DE20001D890BA37BB37E6
:10168000BC37BD370101CE07CD51CE190FE0CC07D5
:10169000CCC1C8F1070EC81709E0EED70001D890F9
:1016A000C133C033BF33BE330101CD2BCD51CE6327
:1016B000F5D7CCAF0AD00001BA1FBB1FBC1FBD1F9E
:1016C000BA2B000EBB23BC23BD230101CCAD03D03C
:1016D0000001BE1F29D80101CC6B0001BA51BE2701
:1016E000BB51BF23BC51C023BD51C123C1AF05D0E5
:1016F000BE1F1AD8010E0101CC6FBEC087F0BFC05B
:1017000088F0C0C089F0C1C08AF0CEC18BF0CCC1D6
:101710008CF046EC13F087C0BAF088C0BBF089C0EB
:10172000BCF08AC0BDF01200BF1FC01FC11FBE2B7E
:10173000000EBF23C023C123000C0101D890CB337E
:10174000CA33C933C83312000001B96F6D0EB965D1
:1017500065D00A0E8B6F640E876FB9517CEC1AF05E
:10176000F1EC19F0AD6FAE6BD890AD37AE37D890C5
:10177000AD37AE37240EAD27000EAE231B0EAD25C0
:10178000F66EF40EAE211AEC07F0640E8B6FB951B1
:10179000F1EC19F0A9D8480E9ED828EC07F090EC8F
:1017A00010F096C0B5F097C0B6F098C0B7F099C0E9
:1017B000B8F00A0E876FB9517CEC1AF0AD6FAE6BC2
:1017C000D8907ED81AEC07F0B5C096F0B6C097F066
:1017D000B7C098F0B8C099F090EC10F096C0B1F096
:1017E00097C0B2F098C0B3F099C0B4F0B1C096F011
:1017F000B2C097F0B3C098F0B4C099F09A6B9B6BED
:101800009C6B3F0E9D6F90EC10F096C0A9F097C0B6
:10181000AAF098C0ABF099C0ACF012000A0EB965FE
:1018200036D0876FB9517CEC1AF0AD6FAE6BD890A3
:1018300047D81AEC07F00A0E8B6FB951F1EC19F08A
:1018400053D8240E48D828EC07F090EC10F096C03E
:10185000B5F097C0B6F098C0B7F099C0B8F0B5C071
:1018600096F0B6C097F0B7C098F0B8C099F09A6BF0
:101870009B6B9C6B3F0E9D6F90EC10F096C0A9F097
:1018800097C0AAF098C0ABF099C0ACF01200B95163
:10189000040D1B0EF324F66EF40EF42028EC07F072
:1018A0009A6B9B6B9C6B3F0E9D6F90EC10F096C0FB
:1018B000A9F097C0AAF098C0ABF099C0ACF01200A4
:1018C000AD37AE37D890AD37AE371B0EAD25F66EBF
:1018D000F40EAE211200AF27000EB0231B0EAF2571
:1018E000F66EF40EB0211200AF6FB06BD890AF3728
:1018F000B037D890AF37B037120069C0D9FF6AC08F
:10190000DAFFDECF6BF0DDCF6CF020EE04F0695132
:10191000D9266A51DA22DECF6DF0DDCF6EF06B5141
:101920006D5D6F6F6C516E59706F7051800AF36E00
:10193000800EF35C000ED8B46F5D02E26F6B706BCB
:1019400020EE18F06951D9266A51DA226FC0DEFF05
:1019500070C0DDFF65D07BD8D8B4DF1804E18BD828
:1019600020EE1AF080D820EE04F06951D9266A5191
:10197000DA2269C0E1FF6AC0E2FFDECFE6FFDECF18
:10198000E6FFDECFE6FFDDCFE5FF56D020EE12F01A
:101990006951D9266A51DA22DECF6BF0DDCF6CF0C7
:1019A0006F516B5D70516C590CE251D8D8B4DF188F
:1019B0000BE120EE1CF06951D9266A51DA22020EA1
:1019C000DF6E20EE1AF04FD86AC061F069C060F097
:1019D000636B080E626FA5EC13F02ED020EE14F0AE
:1019E0006951D9266A51DA22DECF6BF0DDCF6CF077
:1019F0006B516F5D6C51705905E229D8D8B4DF186E
:101A000004E139D820EE1AF02ED86AC061F069C01E
:101A100060F0030E636F200E626FA5EC13F00CD024
:101A200020EE1CF06951D9266A51DA22DF5093E08A
:101A3000010AACE0030AD2E020EE04F06951D92695
:101A40006A51DA22DE6ADE6ADE6ADD6A120020EEA0
:101A50001AF06951D9266A51DA22DE06000EDD5AE3
:101A6000D92ADD1CFF0C6951D9266A51DA22080EE9
:101A7000DE6EDD6A080C20EE1CF06951D9266A5131
:101A8000DA22010EDF6E010C946F9451200D000ECE
:101A9000F324956F040EF420966F8E51800A800F08
:101AA000010ED8B48D5D1AE320EE12F09551D926BF
:101AB0009651DA228DC0DEFF8EC0DDFF8E358E316D
:101AC000936F8D31926F20EE14F09551D926965177
:101AD000DA2292C0DEFF93C0DDFF0FD020EE12F0BD
:101AE0008CD8030EDD6E20EE14F09551D926965158
:101AF000DA22900EDE6E010EDD6E20EE08F09551BA
:101B0000D9269651DA2287C0DEFF88C0DDFF20EE9D
:101B10000AF09551D9269651DA2289C0DEFF8AC093
:101B2000DDFF20EE1DF09551D9269651DA228BC0AB
:101B300092F0010E936F922B02D0D8909337922F90
:101B4000FCD79351DF6E20EE1EF09551D9269651A9
:101B5000DA228CC0DFFF20EE1CF09551D926965179
:101B6000DA22DF6A20EE1AF09551D9269651DA2250
:101B70003A0EDE6EDD6A9051800A800F010ED8B4F5
:101B80008F5D0BE320EE10F09551D9269651DA22A5
:101B90008FC0DEFF90C0DDFF04D020EE10F02DD806
:101BA000DD6A20EE10F09551D9269651DA2210EE1A
:101BB0000EF09551E1269651E222DECFE6FFDDCF11
:101BC000E5FF20EE18F09551D9269651DA22DE6A0B
:101BD000DD6A20EE04F09551D9269651DA22DE6AAC
:101BE000DE6ADE6ADD6A20EE0CF09551D926965148
:101BF000DA22000EDE6EDD6E000C9551D92696516C
:101C0000DA22200EDE6E200C8DD000F0010E0001D5
:101C1000D36FB9EC18F0F2AE03D0010ED46F01D03F
:101C2000D46BF29EC6C0CAF0C7C0CBF0CD6BA40E79
:101C3000CC6F89D8820EF35CEE0ED8B4DD5D05E280
:101C40000001D405D8B4F28E12008DD8D8B4F28E2B
:101C500000F067EC0FF0CFC132F0D0C133F0D1C14A
:101C600034F0D2C135F000F000F084D8D8B4DE18DA
:101C7000700ED8B4DE18C20ED8B4DE1820E07AD8C0
:101C8000D8B4DE18AA0ED8B4DE18420ED8B4DE18C6
:101C900016E0F2AE04D0010E0001D46F02D00001B4
:101CA000D46BF29E32C0C2F033C0C3F034C0C4F073
:101CB00035C0C5F0D405D8B4F28ED56B14D0000170
:101CC000D52B040ED5650FD0D56BF2AE03D0010E27
:101CD000D46F01D0D46BF29EC26BC36BC46BC56B67
:101CE000D405D8B4F28EF2AE03D0010ED46F01D079
:101CF000D46BF29EC6C0CAF0C7C0CBF0CD6BC00E8D
:101D0000CC6F21D8800EF35C640ED8B4DD5D05E2A3
:101D10000001D405D8B4F28E120025D8D8B4F28EC2
:101D200000F073D7CCC0DDF1CDC0DEF10101DE5192
:101D300001E06BD7DD5101E168D7A40A01E179D751
:101D4000640ADFE062D70001C6C0DDF1C7C0DEF182
:101D5000CA510101DD5F0001CB510101DE5BDE51A3
:101D6000800AF36E1200C6C0CAF0C7C0CBF00001F3
:101D7000D405120020EE32F0000EDE18000CCF5118
:101D8000200D000EF3247E6F040EF4207F6F050EED
:101D90007A6F400E796FCF510A0A05E1040E7C6F0D
:101DA000000E7B6F06D0200E7E257B6F000E7F21FC
:101DB0007C6F7D6B20EE1CF07E51D9267F51DA229C
:101DC000DF50746F74BF54D07FC061F07EC060F08C
:101DD0007CC063F07BC062F0A7EC08F060C077F0D5
:101DE00061C078F061D87551800A766F7751745D63
:101DF0007851800A76590AE220EE0CF07E51D926FD
:101E00007F51DA22DE2A000EDD2203D020EE0CF014
:101E100056D84AD820EE04F07E51D9267F51DA22D6
:101E20007451DE267551DE22000E75BFFF0EDE22D4
:101E3000DD2220EE0EF043D8D92ADD1CFF0ED8B4E7
:101E4000DF1816E17FC06AF07EC069F07DEC0CF00F
:101E500020EE10F07E51D9267F51DA2210EE0EF0DE
:101E60007E51E1267F51E222DECFE6FFDDCFE5FFA6
:101E70007FC07CF07EC07BF07A517F1902E17951FE
:101E80007E1905E1040E7F6F000E7E6F04D0200ED8
:101E90007E27000E7F237D2B0A0E7D658BD7CF2BEF
:101EA000CF650A0CCF6B120020EE0CF07E51D926C4
:101EB0007F51DA22DECF74F0DDCF75F012007E5153
:101EC000D9267F51DA22DE06000EDD5A000CD3C07F
:101ED000D3F1010E0101D46FD32B02D0D890D437A7
:101EE000D32FFCD7D45194124DEC14F0000907E025
:101EF000CC0E7EEC12F0BE0E7EEC12F003D0000E83
:101F000001017BD00101DB6BDC6B7ED8FAEC13F0B6
:101F1000DF6E010179D8DF50DB19D36FD46B1B0E54
:101F2000D325F66EF20ED421F76E0800F5CFDBF163
:101F3000DC2B080EDC65E9D7DB6702D0076702D02F
:101F4000000E5BD0005101C1D3F1D46BD3C1D4F1E9
:101F5000D36BD311D56FD451D66F0F0ED5150001A9
:101F6000916F926B05EC19F091C096F092C097F0CA
:101F700093C098F094C099F09A6B9B6B800E9C6F05
:101F80003D0E9D6F90EC10F096C0D7F197C0D8F140
:101F900098C0D9F199C0DAF1D7C1BAF0D8C1BBF075
:101FA000D9C1BCF0DAC1BDF00101040ED36FD63542
:101FB000D633D533D32FFBD7D5C191F0D6C192F00C
:101FC00005EC19F091C0BEF092C0BFF093C0C0F014
:101FD00094C0C1F0BEEC0AF0BAC0D7F1BBC0D8F1D2
:101FE000BCC0D9F1BDC0DAF1D7C1CFF1D8C1D0F1B1
:101FF000D9C1D1F1DAC1D2F11200CF6FD06F700E1A
:10200000D16FC20ED26FC20C000EDC25D96EDA6A17
:10201000010EDA2212009A6FA16B95C0F6FF96C0EE
:10202000F7FF0800F5CF9BF0952967D8F5CF9CF016
:10203000E00E9A25A86FA96BFF0EA923A8C087F010
:10204000A9C088F0020E952558D8F550896F8A6B83
:10205000B5EC1AF087C0A8F088C0A9F0030EA82735
:10206000000EA92354D898C0F6FF99C0F7FF0800C6
:10207000F5CFA4F04CD898299D6F000E99219E6F42
:10208000D7C0A3F0D6C0A2F0A3C0A5F0A06B2BD000
:10209000A2C0A6F0A76B9F6B21D0A7670BD09DC0F5
:1020A000F6FF9EC0F7FF0800F5CFA1F09D4B9E2BD9
:1020B000800EA76FA151A7150DE0975106E0A5C0AE
:1020C00090F0A65192EC18F005D0A5C090F0A65162
:1020D000E5EC17F0A62BD890A7339F2B9C519F5D62
:1020E000DCE3A52BA02B9B51A05DD2E3A251A4253C
:1020F000D66FA3C0D7F0A4511200986F000E96219E
:10210000996F98C0F6FF99C0F7FF0800120095C0BC
:1021100098F096C099F0A8519827A95199231200D8
:1021200096C09EF097C09FF098C0A0F099C0A1F013
:10213000180E01D073D8E82EFDD79E51A26F000172
:10214000A26705D0966B976B986B996B12009AC03B
:102150009EF09BC09FF09CC0A0F09DC0A1F0180E07
:1021600001D05CD8E82EFDD79E51A86F0001A8676A
:1021700005D0966B976B986B996B1200A8517B0FEB
:10218000A22799C0A8F09D51A81B800EA817988F70
:102190009C8F9D6BA36BA46BA56BA66B070EA76FA3
:1021A00096A102D09A512BD832D89A379B379C37B8
:1021B0009D37A72FF5D7110EA76F96A102D09A5180
:1021C0001ED825D8A633A533A433A333A72FF5D71C
:1021D000A3C087F0A4C088F0A5C089F0A6C08AF08B
:1021E000A2C08BF0A8C08CF046EC13F087C096F02C
:1021F00088C097F089C098F08AC099F01200A32790
:102200009B51A4239C51A5239D51A6231200D89035
:102210009933983397339633D8901200D890A133DE
:10222000A0339F339E33120087C08FF088C090F098
:1022300089C091F08AC092F0180E01D072D8E82EB1
:10224000FDD78F51986F0001986705D0876B886B19
:10225000896B8A6B12008BC08FF08CC090F08DC0A0
:1022600091F08EC092F0180E01D05BD8E82EFDD709
:102270008F51976F0001976701D0E8D7898F8A6BDC
:102280008D8F8E6B936B946B956B966B7F0E985FB7
:102290009751A00F985F200E976FD890933794377F
:1022A000953796378B51875D8C5188598D51895957
:1022B0008E518A5909E38B51875F8C51885B8D5110
:1022C000895B8E518A5B9381D890873788378937AD
:1022D0008A37972FE2D798AF0FD09851800A8F6F27
:1022E000E10E800A8F5DB2E3D89096339533943334
:1022F0009333983FF9D70CD01F0E986507D0A6D717
:10230000D890933794379537963798079867F8D7CA
:1023100093C087F094C088F095C089F096C08AF089
:102320001200D8909233913390338F331200B06BF8
:1023300056D8B6EC17F00001B16B0BD05ED8976B96
:1023400045D8D96E000EAF21DA6EDF500BEC10F0DD
:10235000B12B20EE02F05CD8F1E341D8B6EC17F0D7
:102360000001B16B2DD0B151AC25D96E000EAD215D
:10237000DA6EDF5002E1010EB06FB0670ED0B151DE
:10238000AC25D96E000EAD21DA6E20D8E16E000EBC
:10239000AF21E26EDFCFE7FF07D018D8D96E000E6D
:1023A000AF21DA6E200EDF6E28D8010E976F0ED89F
:1023B000D96E000EAF21DA6EDF500BEC10F0B12BAE
:1023C00020EE02F025D8D8B01200CDD7B151AA2501
:1023D000AE6F000EAB21AF6F050EAE25120020EEE2
:1023E00001F0AA51D926AB51DA22DF50896FAAC079
:1023F000D9FFABC0DAFFDF50120020EE03F0AA5184
:10240000D926AB51DA22DECF95F0DDCF96F012005F
:10241000AA51D926AB51DA22DF50B15D120000017A
:1024200089C08FF0906B916B88358F3701E3908175
:102430008F51976F0001976705D0876B886B896B09
:102440008A6B12008DC08FF0906B916B8C358F373B
:1024500001E390818F51966F0001966701D0EDD70F
:10246000888F896B8C8F8D6B926B936B946B956B54
:102470007F0E975F9651980F975F180E966FD890C2
:1024800092379337943795378B51875D8C518859A4
:102490008D51895907E38B51875F8C51885B8D5132
:1024A000895B9281D890873788378937962FE7D70D
:1024B00097AF0FD09751800A8F6FE90E800A8F5D1A
:1024C000BCE3D8909533943393339233973FF9D745
:1024D0000CD0170E976507D0B0D7D89092379337A6
:1024E0009437953797079767F8D792C087F093C0CE
:1024F00088F094C089F095C08AF012008B6F000EAE
:10250000F2BE010ED16FF29E54D88B128C6BD3C0E9
:1025100089F0010E8A6F892B02D0D8908A37892FD3
:10252000FCD78A1D9416D3C089F0010E8A6F892BBF
:1025300002D0D8908A37892FFCD78A1D8B16886BDA
:10254000050E876F37EC1BF08CC089F0010E8A6F87
:10255000892B02D0D8908A37892FFCD78A518B15C6
:1025600003E027D88B120CD0D3C089F0010E8A6FFC
:10257000892B02D0D8908A37892FFCD78A1D8B16D9
:10258000886B4E0E876F37EC1BF013D88B12886B5D
:102590003C0E876F37EC1BF08C2B070E8C65B7D782
:1025A000D1A101D0F28ED1B101D0F29E02D8941205
:1025B0001200D3C089F0010E8A6F892B02D0D89007
:1025C0008A37892FFCD78A5112000001B2C0B6F0B9
:1025D000B3C0B7F0B4C0B8F0B5C0B9F0180E01D0B0
:1025E0004FD8E82EFDD7B651BB6F0001BB6705D0B1
:1025F000B26BB36BB46BB56B1200B2C0B6F0B3C0C4
:10260000B7F0B4C0B8F0B5C0B9F0200E01D038D8DA
:10261000E82EFDD7B651BA6FB48FB56B960EBB5F7F
:10262000BBAF0FD0BB51800AB66FE90E800AB65D12
:10263000DFE3D890B533B433B333B233BB3FF9D70C
:102640000CD01F0EBB6507D0D3D7D890B237B337A5
:10265000B437B537BB07BB67F8D7BA5108E0B51F29
:10266000B41FB31FB26D000EB323B423B523B2C0A1
:10267000B2F0B3C0B3F0B4C0B4F0B5C0B5F012005E
:10268000D890B933B833B733B633120000018B5149
:1026900005E08A5187118811891107E1876B886BE2
:1026A000896B8A6B12008B2B4AD88D6B8E6B8F6B6C
:1026B000FE0E8A15906F90518D118E118F1108E0CA
:1026C000F2D78B2B872B000E882389238A2337D8B8
:1026D0008D6B8E6B8F6B8A51906F90518D118E1117
:1026E0008F1107E0EED78B07D89087378837893767
:1026F0008A3789AFF8D78BB102D07F0E8917D8906F
:102700008B338BC08DF08E6B8F6B906B8DC090F088
:102710008F6B8E6B8D6B8D5187138E5188138F51FC
:10272000891390518A138C51D8A48A8F87C087F05F
:1027300088C088F089C089F08AC08AF01200D890D9
:102740008A33893388338733120020EE16F06051C4
:10275000D9266151DA22DFCF64F0DE2ADFCF65F0BF
:10276000000EDD226251645D63516559D8A01200EC
:1027700020EE16F06051D9266151DA22000EDE6E8D
:10278000DD6E030E646F60C0D9FF61C0DAFF1AD836
:10279000DE5E6651DE5A6751DE5A6851DD5A030E1D
:1027A000646F20EE04F06051D9266151DA220AD814
:1027B000DE266651DE226751DE226851DD22DD52BF
:1027C000DD521200DECF65F0DECF66F0DECF67F0BF
:1027D000DECF68F0646701D007D0683568336733AF
:1027E00066336533642FF6D760C0D9FF61C0DAFF66
:1027F0006551120000018B6B000EF2BE010ED16F0D
:10280000F29E3FD88B128C6BD3C089F0010E8A6F79
:10281000892B02D0D8908A37892FFCD78A1D94162D
:10282000D3C089F0010E8A6F892B02D0D8908A37E5
:10283000892FFCD78A1D8B16886B050E876F37ECA6
:102840001BF01FD89412886B100E876F37EC1BF0AB
:10285000D8908B3316D8821402E08B8F01D08B9FD7
:10286000886B4E0E876F37EC1BF08C2B070E8C6538
:10287000CBD7D1A101D0F28ED1B101D0F29E8B5134
:102880001200D3C089F0010E8A6F892B02D0D89034
:102890008A37892FFCD78A51120032D8941600F05B
:1028A0002FD88B16010E886F270E876F37EC1BF021
:1028B000010E886F270E876F37EC1BF0000EF2BEFB
:1028C000010ED16FF29E29D89412886B4E0E876F3D
:1028D00037EC1BF022D88214010ED8A4000E8B6FA7
:1028E000D1A101D0F28ED1B101D0F29E010E886F3C
:1028F000270E876F37EC1BF08B5101E0010C000CA9
:10290000D3C089F0010E00018A6F892B02D0D890C4
:102910008A37892FFCD78A1D1200D3C089F0010E97
:102920008A6F892B02D0D8908A37892FFCD78A5199
:10293000120000F0B4EC19F089EC07F02AEC19F061
:10294000010E0001B36F990EB26F3C0EB46F160EFC
:10295000B56FF40EB76F830EB66F0A0EB86F2DEC1D
:1029600015F0320E896F280EB6EC17F024D8410E00
:102970000BEC10F0320E896FB6EC17F01CD8420E3B
:102980000BEC10F000F000F0F28E0A0E2BEC1BF0B6
:10299000EDEC16F094EC19F004EC0EF000F000F001
:1029A000ABB402D0ABA203D0AB9800F0AB8804006C
:1029B0003CEC16F0EDD7F40E0001966F830E956F88
:1029C000010E976F010C926B9051800AF36E800E8E
:1029D000F35C000ED8B48F5D06E28F6D901FD8B007
:1029E000902B010E926F8E51800AF36E800EF35C75
:1029F000000ED8B48D5D06E28D6D8E1FD8B08E2B83
:102A0000010E921B936B946B90518F111BE0010E82
:102A1000916F04D0D8908F379037912B90AFFAD721
:102A2000D890933794378F518D5D90518E5905E32F
:102A30008F518D5F90518E5B9381D89090338F33FF
:102A4000912FEED7925104E0936D941FD8B0942B40
:102A500093C08DF094C08EF0120020EE02F0B251BF
:102A6000D926B351DA22B8C0DFFF20EE03F0B2510D
:102A7000D926B351DA22B6C0DEFFB7C0DDFFB2C03F
:102A8000D9FFB3C0DAFFB4C0DFFF20EE01F0B251CE
:102A9000D926B351DA22B5C0DFFFBB6B0FD0BB51D3
:102AA000B225B96F000EB321BA6F050EB925D96EE4
:102AB000000EBA21DA6E200EDF6EBB2B20EE02F084
:102AC000B251D926B351DA22DF50BB5DE8E3B3C07F
:102AD000ABF0B2C0AAF0050EB225AC6F000EB32168
:102AE000AD6F97EF11F08B6F8B51080D000EF32433
:102AF00000018C6F020EF4208D6F8CC0D9FF8DC049
:102B0000DAFF820EDF6E20EE01F08C51D9268D5156
:102B1000DA22020EDF6E20EE02F08C51D9268D51A2
:102B2000DA2288C0DFFF8751200D000E896F040E66
:102B30008A6FF3508927F4508A2320EE04F08C51D9
:102B4000D9268D51DA2289C0DEFF8AC0DDFF20EE52
:102B500006F08C51D9268D51DA22DE6A190EDD6E0F
:102B600020EE03F08C51D9268D51DA22010EDF6E52
:102B7000010C8C6B8851800AF36E800EF35C000EA2
:102B8000D8B4875D06E2876D881FD8B0882B010E08
:102B90008C6F8A51800AF36E800EF35C000ED8B4FD
:102BA000895D04E2896D8A1FD8B08A2B8A51891108
:102BB00017E0010E8B6F04D0D89089378A378B2BA2
:102BC0008AAFFAD78951875D8A51885904E38951C0
:102BD000875F8A51885BD8908A3389338B2FF2D7ED
:102BE0008C5104E0876D881FD8B0882B87C087F090
:102BF00088C088F0120004EE00F011EE60F0EE6A7A
:102C0000E550E150FCE1E250FAE103EE00F011EE94
:102C100000F0EE6AE550E150FCE1E250FAE102EE2C
:102C200000F0680EEE6AE806FDE101EE00F0C80E65
:102C3000EE6AE806FDE100EEC2F0170EEE6AE80665
:102C4000FDE100EE24F0200EEE6AE806FDE1D20E72
:102C5000F66E360EF76E000EF86E00EE44F010EED3
:102C600004F00900F5CFEEFFE550E150FAE1000E67
:102C7000F86E000199EF14F00001876B8751240F63
:102C8000D96EDA6A020EDF6205D08751240FD96E41
:102C9000DA6ADF6A8751240FD96EDA6A010EDF62C1
:102CA00003D08751240F20D8872B090E8765E6D7DC
:102CB000876B8751D00FD96EDA6A020EDF6205D0BA
:102CC0008751D00FD96EDA6ADF6A8751D00FD96E7B
:102CD000DA6A010EDF6203D08751D00F05D8872B47
:102CE0008751D8A41200E5D7D96EDA6A020EDF6EDA
:102CF000020C8F6B906B916B926B8E518B118C11C0
:102D00008D1129E0010E936F06D0D8908B378C3748
:102D10008D378E37932B8EAFF8D7D8908F3790376B
:102D2000913792378B51875D8C5188598D518959D4
:102D30008E518A5909E38B51875F8C51885B8D5185
:102D4000895B8E518A5B8F81D8908E338D338C3323
:102D50008B33932FE2D78FC087F090C088F091C05B
:102D600089F092C08AF01200DACF84F0F3CF85F0B8
:102D7000F4CF86F09DB29EA209D03C4A3D2A0001C4
:102D8000C64BC72BBFEC0EF0BC6A9E927DB07EA0F6
:102D900017D00001C951C8110FE0C807D8A0C90752
:102DA0008988CE2BCE05806F80A102D0899801D072
:102DB000898800F000F001D089980F01536B7E9054
:102DC00086C0F4FF85C0F3FF84C0DAFF83C0D9FF5B
:102DD00082C0E2FF81C0E1FF11000001C551471828
:102DE00008E1C451461805E1C351451802E1C2513A
:102DF0004418D8B41200C2C044F0C3C045F0C4C0E7
:102E000046F0C5C047F00101010ED86FB40ED76F70
:102E1000FF0EDA6FF70ED96FC2C0DBF1C3C0DCF171
:102E2000C4C0DDF1C5C0DEF1FAEC01F0010E000115
:102E3000AB6F990EAA6F010EAD6FB40EAC6F97EF2A
:102E400011F000018D6F8C6A9568400ED65D03E22B
:102E50008B868B9405D03F0ED66502D08B968B84E3
:102E60008D828D848F6B01D08F2B070E8F65FCD7E1
:102E70008D808F6B01D08F2B070E8F65FCD783CF92
:102E80008EF08D908F6B01D08F2B070E8F65FCD746
:102E9000956A8D6702D0D62B05D0D7C089F0D65160
:102EA000B6EC17F000018E5112008E518B118C116F
:102EB0008D1123E0010E8F6F06D0D8908B378C37A1
:102EC0008D378E378F2B8EAFF8D78B51875D8C5116
:102ED00088598D5189598E518A5908E38B51875FE2
:102EE0008C51885B8D51895B8E518A5BD8908E3373
:102EF0008D338C338B338F2FE8D787C087F088C012
:102F000088F089C089F08AC08AF01200086E0850E3
:102F1000D96EDA6A0150DE1A000EDD1A076A08500F
:102F2000D96EDA6ADF50010B066E0850D96EDA6A84
:102F3000DECF02F0DDCF03F0D8900330056E023013
:102F4000046E0850D96EDA6A04C0DEFF05C0DDFFEA
:102F5000065007E00850D96EDA6A010EDE1AA00E9C
:102F6000DD1A072A070E0764DAD7070C8C6F8A6B05
:102F70007F0E8C6501D08C6B3F0E896501D0896B0B
:102F80008CC0D6F089C0D7F08939E8461F0BD86FBE
:102F90003F0E8C6504D0400E8C5F010E8A6F8C5101
:102FA00040098B6F8AC087F08B51A2EC1AF00001A8
:102FB000D851B8098B6F876B8B51A2EC1AF0010EB8
:102FC0000001876F8B51A2EF1AF0936F90C089F0C8
:102FD0009351B6EC17F0010E21EC17F0946F010E2F
:102FE00021EC17F0946F90C091F016D802D0D890D1
:102FF0009237912FFCD792519415D8B4120090C0FB
:1030000091F00AD802D0D8909237912FFCD7921D18
:10301000941794514FEF19F0070E9117010E926F0C
:10302000912B010C110E53EC1BF0106A0CD009C04F
:10303000D9FF0AC0DAFFDF50016E110E86EC17F0DF
:10304000094A0A2A102A0B50105CF1E309C0D9FF83
:103050000AC0DAFF094A0A2A1150DF62000C09C0CF
:10306000D9FF0AC0DAFFDF500C6E12C00DF00DC0A0
:103070000EF00F6A0E500C1801E1010C000C0E6AE4
:103080000F6A1B0E0E24F66EF30E0F20F76E08006B
:10309000F5CF0CF00EC006F00FC007F00D0E086E55
:1030A000010E096EDBEC1AF00C500D180AE00EC090
:1030B00008F00FC009F00C0E0A6E010E0B6E51ECF9
:1030C0001AF00E4A0F2A000E0E5C010E0F58D8B0EF
:1030D0001200D7D7100E53EC1BF00F6A0CD009C0AA
:1030E000D9FF0AC0DAFFDF50016E100E86EC17F030
:1030F000094A0A2A0F2A0B500F5CF1E311C00CF0A9
:103100000CC00DF00E6A0D5009C0D9FF0AC0DAFFDD
:10311000DF6E094A0A2A09C0D9FF0AC0DAFF10C0C7
:10312000DFFF1200936F90C089F09351B6EC17F057
:10313000010E21EC17F0946F010E21EC17F0946F43
:1031400090C091F00AD89415D8A4120090C091F0C4
:1031500004D8941394514FEF19F0070E9117010EF4
:10316000926F912B02D0D8909237912FFCD7925129
:1031700012004DEC14F0000906E0CC0E7EEC12F0CB
:10318000440E7EEC12F0886B100E876F37EC1BF04C
:1031900010D802D0D8908E378D2FFCD78E1D941664
:1031A00008D802D0D8908E378D2FFCD78E518B1235
:1031B0001200D3C08DF0010E8E6F8D2B010C8AAFE3
:1031C00009D0876D881FD8B0882B891FD8B0892B6C
:1031D000800E8A578EAF09D08B6D8C1FD8B08C2B88
:1031E0008D1FD8B08D2B800E8E57800E8A1B8E1BA4
:1031F0008B51875D8C5188598D5189598E518A59CF
:1032000002E2D8901200D88012000001956B925112
:10321000800AF36E800EF35C000ED8B4915D05E277
:10322000916D921FD8B0922B952B91C087F092C0D0
:1032300088F0896B8A6B960E8B6F95C08CF046EC8C
:1032400013F087C091F088C092F089C093F08AC0D3
:1032500094F01200949694949490969096929694EA
:103260008B80010E67EC1AF0D66BD76BD86B876B2F
:103270003F0EA2EC1AF0010E0001876F3F0EA2EC88
:103280001AF00001876BC00EA2EC1AF0010E0001CB
:10329000876FC00EA2EC1AF0000E0BEF1AF0896FC8
:1032A0007F0ED66501D07F0C400ED65D03E28B8683
:1032B0008B9405D03F0ED66502D08B968B84D65169
:1032C000400A05E1010E876F400EA2EC1AF08D92C4
:1032D0008D84956A89C08CFF3AEC1AF00001D62BD8
:1032E0008C6A120002C004F004C005F0066A0550A2
:1032F000030BAA6E01C0A9FF03C0A8FFA69EA69C4F
:10330000A684000EF2BE010E076EF29E550EA76E49
:10331000AA0EA76EA682A6B2FED707B002D0F29E72
:1033200001D0F28EA69412006BEC1BF0020138055E
:1033300004E10A0E2BEC1BF0897C0201400504E13C
:103340000A0E2BEC1BF0897E0201300504E10A0E07
:103350002BEC1BF08A7E02010005D8A412000A0E95
:103360002BEC1BF08A7C12000001876B8751240F25
:10337000D96EDA6ADF6A872B090E8765F7D7876B04
:103380008751D00FD96EDA6ADF6A872B8751F8E050
:10339000876B87512E0FD96EDA6ADF6A872B030E8F
:1033A0008765F7D7030C0101800ED61BCFC1BAF099
:1033B000D0C1BBF0D1C1BCF0D2C1BDF0D3C1BEF011
:1033C000D4C1BFF0D5C1C0F0D6C1C1F0BEEC0AF087
:1033D000BAC0CFF1BBC0D0F1BCC0D1F1BDC0D2F1F9
:1033E00012008C6F8E6B8B5114E0010E8D6F03D029
:1033F000D8908B378D2B8BAFFBD7D8908E378B51D6
:103400008C5D03E38B518C5F8E81D8908B338D2F35
:10341000F4D78E51120000018D6F8F6B8F51080D04
:10342000F3CF89F0000EB6EC17F000018E6B8D51D2
:103430004FEC19F08E2B7F0E8E65F9D78F2B070E70
:103440008F65ECD7070C91C087F092C088F093C0CD
:1034500089F094C08AF0960E8B6F000E8C6B46EC50
:1034600013F087C091F088C092F089C093F08AC0B1
:1034700094F01200050E0001D26F000100F000F080
:1034800000F000F000F0D22F3EEF1AF08D8000F037
:1034900000F000F000F000F0D22F47EF1AF08D900E
:1034A000050C10D066EC1BF00B500824016E000ECA
:1034B0000920026E0A500B24D96EDA6ADF50036EBF
:1034C00072EC19F00B060B28D8B41200EBD7876FFB
:1034D000040E886FFA0ED26F000100F000F000F0C9
:1034E00000F000F0D22F6DEF1AF000F00001882FED
:1034F000F1D7872FEDD7FA0C886F080E896F8A6B8A
:10350000D89088358A358A6FD890883787518A5DF8
:1035100002E387518A5F892FF3D78A511200000195
:1035200020EE87F0DE50DE10DE10DE1002E0800EAE
:103530008A1B87C087F088C088F089C089F08AC05C
:103540008AF01200886F876703D08B868B9404D033
:10355000870502E18B968B848D928D94956A88C045
:103560008CFF3AEC1AF08C6A120087518903F3CF72
:103570008BF0F4CF8CF087518A03F3508C2788515D
:103580008903F3508C278BC087F08CC088F0120021
:10359000436A016A026A00F09EBA07D0014A022A11
:1035A000100E015C270E0258F6E39EBA5CEF1BF08A
:1035B000010E436E000C0DD008500924D96EDA6A52
:1035C00009500624016E000E0720026EEEEC1AF080
:1035D000DF6E09060928D8B41200EED702C003F046
:1035E00003C004F0056A0450030BAA6E01C0A9FFD2
:1035F000A69CA69EA68000F000F0A8501200000134
:10360000896F886B3A0E895D05E22F0E896502D0BD
:10361000010E886F88C087F087311200670EAF6E89
:10362000AC94B896AC98AB8EAB88AB9A9D989D9AAB
:10363000AC9CAB9CAC9AAC8A670CC26AC16AC06A8B
:10364000C08EC050C70B0809C06EC050F80B0109EE
:10365000C06EC28012000001876F92988751280DBA
:10366000F3CFC8F0F4CFC9F0010E406E010C01D0C9
:1036700000F000018707D8A088078729D8B48829D7
:10368000D8B41200F5D7016E0150240FD96EDA6A52
:10369000010EDF6E010C016E01502E0FD96EDA6A39
:1036A000010EDF6E010C016E0150D96EDA6ADE6820
:1036B000DD68FF0C01D000F09EAAFDD7AE501200CD
:1036C000016EACA2FED701C0ADFF1200A6A212008F
:1036D000FDD70000C8C2BEEF09F0FF00FF00FF00E9
:10F21000FF00FF00FF00FF00FF0000005EBCE26196
:10F220003FDD83C29C7E20A3FD1F419DC3217FFC47
:10F23000A2401E5F01E3BD3E6082DC237D9FC14290
:10F240001CFEA0E1BF5D0380DE3C62BEE0025CDF2D
:10F2500081633D7C22C09E1D43A1FF4618FAA4276E
:10F26000799BC584DA3866E5BB5907DB856739BA0F
:10F27000E406581947A5FB7826C49A653BD987044C
:10F280005AB8E6A7F91B45C6987A24F8A6441A99F5
:10F29000C7257B3A6486D85B05E7B98CD2306EED22
:10F2A000B3510F4E10F2AC2F7193CD114FADF370DF
:10F2B0002ECC92D38D6F31B2EC0E50AFF1134DCEF8
:10F2C00090722C6D33D18F0C52B0EE326C8ED053C5
:10F2D0000DEFB1F0AE4C1291CF2D73CA947628ABDE
:10F2E000F517490856B4EA6937D58B5709EBB53697
:10F2F000688AD495CB2977F4AA4816E9B7550B88C4
:10F30000D6346A2B7597C94A14F6A8742AC896157C
:10F310004BA9F7B6E80A54D7896B35010001000202
:10F32000001606250B160F1606250A14000000000D
:10F33000000000803F000000000000803F0000004F
:10F34000000000803F1606250000000000000000BD
:10F3500000803F0807B80B00004006F00A00006676
:10F3600066263F1B2F5D3D3333F33F6666263F42E3
:10F3700060653C000080400080BB4500000041000B
:10F38000000042F00A02A4707D3FA4707D3F00009F
:10F39000000000000000000000000000000000006D
:10F3A000000000000000000000000000000000005D
:10F3B000000000000000000000000000000000004D
:10F3C000000000000000000000000000000000003D
:10F3D000000000000000000000000000000000002D
:10F3E000000000000000000000000000000000001D
:10F3F000000000000000000000000000000000000D
:10F4000000000000000000000000000000000000FC
:10F4100000000000000000000000000000803FCD60
:10F42000CCCC3D0AD7233C6F12833A17B7D138AC06
:10F43000C52737BD37863595BFD63377CC2B325F9E
:10F44000708930FFE6DB2E08E53C1E6042A20D000D
:10F4500000803F000020410000C84200007A4400C4
:10F46000401C460050C347002474498096184B2026
:10F47000BCBE4C286B6E4EF9021550EC78AD60CADC
:10F48000F249710D101B0400000000000000000094
:10F49000000000000000000000000000000000006C
:10F4A0000004000000006000600060006000600078
:10F4B0006000600000006000000000000600000026
:10F4C000006C006C006C00000000000000000000F8
:10F4D00000000000000000080000000036003600B8
:10F4E0007F003600360036007F0036003600000010
:10F4F0000000070000000018003C007E0078003883
:10F50000001C001E007E003C0018000000090000E6
:10F51000000038006D803B0006000C00180037002A
:10F520006D80070000000000070000000030007838
:10F53000007800300030007E006C006C003E00005F
:10F540000000000300000000600060006000000098
:10F5500000000000000000000000000000000400A7
:10F56000000000300060006000600060006000602B
:10F5700000600060006000300004000000006000D7
:10F5800030003000300030003000300030003000FB
:10F5900030006000050000000078003000780000B6
:10F5A0000000000000000000000000000000000754
:10F5B00000000000000000000000180018007E009D
:10F5C0001800180000000000000004000000000007
:10F5D00000000000000000000000000000000030FB
:10F5E00000600000000400000000000000000000B7
:10F5F000000000007000000000000000000000009B
:10F6000004000000000000000000000000000000F6
:10F610000000000000600000000000060000000084
:10F620000C000C000C0018001800300030006000C6
:10F6300060000000000007000000003C006600665B
:10F6400000660066006600660066003C0000000080
:10F6500000070000000018007800180018001800CB
:10F660001800180018001800000000000700000033
:10F67000003C006600060006000C00180030006028
:10F68000007E000000000007000000003C00660053
:10F69000060006001C000600060066003C00000094
:10F6A000000007000000000C001C001C003C003C97
:10F6B000006C007E000C000C000000000007000041
:10F6C00000007E00600060007C006600060006000E
:10F6D00066003C000000000007000000003C0066DF
:10F6E00000600060007C006600660066003C000070
:10F6F00000000007000000007E0006000C000C0067
:10F700001800180030003000300000000000070032
:10F710000000003C006600660066003C0066006673
:10F720000066003C000000000007000000003C00F4
:10F730006600660066003E000600060066003C00AB
:10F740000000000004000000000000000000006055
:10F750000000000000000000006000000000000445
:10F760000000000000000000000030000000000069
:10F7700000000000300060000000070000000000F2
:10F780000000000C00180030006000300018000C71
:10F790000000000000070000000000000000000062
:10F7A00000007E0000007E0000000000000000005D
:10F7B0000700000000000000006000300018000C8E
:10F7C000001800300060000000000007000000008A
:10F7D0003C006600060006000C001800180000003F
:10F7E0001800000000000C000000000F8038E0301E
:10F7F0006067B06DB06DB067F0300038000FC000CA
:10F80000000800000000180018003C003C006600E2
:10F8100066007E00C300C300000000000800000076
:10F82000007C006600660066007C0066006600667C
:10F83000007C000000000008000000003E006300A3
:10F840006000600060006000600063003E00000037
:10F85000000009000000007C006600630063006394
:10F86000006300630066007C0000000000080000E8
:10F8700000007E006000600060007C0060006000AE
:10F8800060007E000000000007000000007E0060B5
:10F8900000600060007C00600060006000600000AC
:10F8A00000000009000000003E00630060006000EE
:10F8B0006F006300630067003F0000000000090064
:10F8C00000000063006300630063007F0063006367
:10F8D00000630063000000000004000000006000FE
:10F8E0006000600060006000600060006000600018
:10F8F00000000000060000000018001800180018A2
:10F900000018001800D800D800700000000000089F
:10F910000000000066006C00780070007000780045
:10F920006C0066006300000000000700000000603B
:10F930000060006000600060006000600060007EA9
:10F9400000000000000A00000000618061807380F8
:10F9500073807F807F806D806D80618000000000FB
:10F9600009000000006300730073007B007B006FE0
:10F97000006700670063000000000009000000004D
:10F980003E00630063006300630063006300630084
:10F990003E000000000008000000007E00630063DD
:10F9A0000063007E006000600060006000000000F6
:10F9B0000009000000003E00630063006300630074
:10F9C00063006F0067003E000300000009000000B4
:10F9D000007E006300630063007E006300630063D9
:10F9E0000063000000000008000000003C0066000A
:10F9F000600060003C000600060066003C0000005D
:10FA0000000008000000007E001800180018001810
:10FA1000001800180018001800000000000900007D
:10FA20000000630063006300630063006300630021
:10FA300063003E00000000000800000000C300C397
:10FA4000006600660066003C003C001800180000DC
:10FA50000000000C00000000C030C030666066602E
:10FA600066603FC03FC01980198000000000080098
:10FA7000000000C300C30066003C0018003C0066A4
:10FA800000C300C300000000000800000000C30025
:10FA9000C30066003C001800180018001800180089
:10FAA000000000000800000000FF00030006000C3A
:10FAB00000180030006000C000FF000000000004DB
:10FAC00000000000700060006000600060006000E6
:10FAD00060006000600060007000060000000060D0
:10FAE000006000600030003000180018000C000CAE
:10FAF0000000000000040000000070003000300032
:10FB00003000300030003000300030003000700035
:10FB100007000018003C0066000000000000000024
:10FB200000000000000000000000000700000000CE
:10FB300000000000000000000000000000000000C5
:10FB400000000000FE000400000000600030000023
:10FB500000000000000000000000000000000000A5
:10FB60000007000000000000000000003C0006004C
:10FB70003E00660066003E00000000000700000036
:10FB8000006000600060007C006600660066006641
:10FB9000007C0000000000070000000000000000E2
:10FBA00000003C0066006000600066003C00000051
:10FBB000000007000000000600060006003E006688
:10FBC000006600660066003E0000000000070000BE
:10FBD00000000000000000003C0066007E006000A5
:10FBE00066003C00000000000400000000300060DF
:10FBF0000060007000600060006000600060000055
:10FC000000000007000000000000000000003E00AF
:10FC100066006600660066003E0006007C00070085
:10FC20000000006000600060007C007600660066F6
:10FC30000066006600000000000300000000600095
:10FC40000000000060006000600060006000600074
:10FC500000000000030000000060000000000060E1
:10FC600000600060006000600060006000600007ED
:10FC7000000000006000600060006C007800700010
:10FC800078006C00660000000000030000000060C7
:10FC90000060006000600060006000600060006064
:10FCA000000000000009000000000000000000004B
:10FCB0007F006D806D806D806D806D800000000024
:10FCC00007000000000000000000007C00760066D5
:10FCD00000660066006600000000000700000000EB
:10FCE0000000000000003C00660066006600660040
:10FCF0003C000000000007000000000000000000C1
:10FD0000007C0066006600660066007C00600060A3
:10FD10000007000000000000000000003E00660038
:10FD20006600660066003E00060006000400000053
:10FD300000000000000000700060006000600060D3
:10FD4000006000000000000600000000000000004D
:10FD5000000038006C00300018006C003800000013
:10FD600000000400000000000060006000700060FF
:10FD7000006000600060003000000000000700002C
:10FD800000000000000000006600660066006600DB
:10FD90006E003E00000000000700000000000000B0
:10FDA000000000660066003C003C001800180000DF
:10FDB00000000009000000000000000000006D804D
:10FDC0006D807F807F8033003300000000000600DC
:10FDD0000000000000000000006C006C00380038DB
:10FDE000006C006C00000000000600000000000035
:10FDF000000000006C006C006C006C0038003000EB
:10FE00003000E00006000000000000000000007C60
:10FE1000000C001800300060007C000000000005AD
:10FE2000000018003000300030003000600030006A
:10FE300030003000300018000000030000000060B7
:10FE400000600060006000600060006000600060B2
:10FE5000006000000005000060003000300030004D
:10FE6000300018003000300030003000600000002A
:10FE7000080000000000003B006E000000000000D1
:10FE8000000000000000000000000004000000006E
:10FE90000000F000F000F000F000F000F000F000D2
:10FEA000F000000000000A00000000FF0018001829
:10FEB0000018001F00198019801F801F000000001B
:10FEC00000070C0018007E00600060006000600009
:10FED000600060006000600000000000040000009E
:10FEE0000000000000000000000000000000000012
:10FEF0000030006000000006000000000C00180048
:10FF000000007C0060006000600060006000000095
:10FF100000000E02000A800700525032606FB007E6
:10FF2000006FB03260525007000A8002000E03805A
:10FF3000078007800780078007000F807DE0FFF0C3
:10FF4000F778E07CC03C001C0D07000700070007A5
:10FF50000007000700070007003FE01FC00F8007F1
:10FF60000002000D020007000F801FC03FE00700E5
:10FF70000700070007000700070007000700103C04
:10FF80003C2424FFFF800188019C39880180018086
:10FF9000018001FFFFFFFFFFFF0D000002000700CF
:10FFA000070007000A8012401740104048900700E1
:10FFB00010400200100000000000003FFC20042060
:10FFC00004FFFF200420043FFC00000000000001AB
:10FFD0000000000A00000064000000E803000010B8
:10FFE000270000A086010040420F00809698000084
:10FFF000E1F50500CA9A3B543D25322E31660000DA
:020000040030CA
:0E000000FF381F3EFFBD81FF0FC00FE00F4015
:0200000400F00A
:100000000100010002001606250B160F1606250A30
:100010001400000000000000803F0000000000000D
:10002000803F000000000000803F16062500000011
:10003000000000000000803F0807B80B00004006E9
:10004000F00A00006666263F1B2F5D3D3333F33F09
:100050006666263F4260653C000080400080BB45EC
:100060000000004100000042F00A02A4707D3FA49D
:10007000707D3F0000000000000000000000000054
:100080000000000000000000000000000000000070
:100090000000000000000000000000000000000060
:1000A0000000000000000000000000000000000050
:1000B0000000000000000000000000000000000040
:1000C0000000000000000000000000000000000030
:1000D0000000000000000000000000000000000020
:1000E0000000000000000000000000000000000010
:1000F0000000000000000000000000000000000000
:00000001FF
