:10000000F8EF01F0FF00FF00E1CFE8F0E2CFE9F008
:10001000D9CFEAF0E7EF06F0D8CF18F0E8CF19F023
:10002000E0CF1AF0D9CF1BF0DACF1CF0F6CF1DF0DD
:10003000F7CF1EF0F8CF1FF0F5CF20F000F09EBAFA
:100040009DAAC3D16BEC08F00101006F0051EA0AD0
:10005000D8B4FF000051550AD8B4ABB4ADD1ABB29F
:10006000ABD13F5001E0A8D16BEC08F00101016F6A
:10007000ABA4ABB2A1D13F5001E09ED18FD16BECCC
:1000800008F00101026FABA4ABB296D13F5001E082
:1000900093D16BEC08F00101036FABA4ABB28CD130
:1000A0003F5001E089D1236A10D0040E2324D96E79
:1000B000DA6A010EDA226BEC08F0DF6EABA4ABB2A9
:1000C0007BD13F5001E078D1232A01010351136E07
:1000D000146A020E1326000E14222350156E166A9F
:1000E0001650800A176E1350155C1450800A17586A
:1000F000DCE3010E0A6E000E096E0351040F0B6E55
:100100004CEC07F0000901E157D1236A14D0F0EC60
:1001100008F0010121EE02F0DF50DF2A016E026AD1
:10012000040E2324D96EDA6A010EDA22DF50036E40
:1001300015EC08F0232A01010351235CE8E3010ECA
:100140000A6E000E096E020E0B6EA4EC07F0236A15
:100150000101000E2324D96EDA6A010EDA22DF5083
:10016000EAEC08F0232A030E2364F2D725D1020E0D
:10017000236E0101000E2324D96EDA6A010EDA2201
:100180006BEC08F0DF6EABA4ABB216D13F5001E0D0
:1001900013D1232A050E2364ECD70101010E0A6E48
:1001A000000E096E040E0B6E4CEC07F0000901E125
:1001B00003D102C121F003C122F0236A0FD0010153
:1001C000020E2324D96EDA6A010EDA2221C001F070
:1001D000026A91EC08F0DF6E212A232A2250235C68
:1001E000EEE30101010E0A6E000E096E2250020FAD
:1001F0000B6EA4EC07F0236A0BD00101000E232440
:10020000D96EDA6A010EDA22DF50EAEC08F0232A0E
:100210002250136E146A040E1326000E142223506B
:10022000156E166A1650800A176E1350155C14501E
:10023000800A175801E3C0D0E0D7020E236E0101F7
:10024000000E2324D96EDA6A010EDA226BEC08F074
:10025000DF6EABA4ABB2B0D03F5001E0ADD0232AEB
:10026000040E2364ECD70101010E0A6E000E096E24
:10027000030E0B6E4CEC07F0000901E19DD0050E5A
:10028000CBEC08F00101010E0A6E000E096E020EA1
:100290000B6EA4EC07F0236A0101000E2324D96E33
:1002A000DA6A010EDA22DF50EAEC08F0232A030EA4
:1002B0002364F2D781D0020E236E0101000E2324A5
:1002C000D96EDA6A010EDA226BEC08F0DF6EABA4AD
:1002D000ABB272D03F5070E1232A030E2364EDD7F6
:1002E0000101010E0A6E000E096E020E0B6E4CEC3F
:1002F00007F0000961E079EC07F00101010E0A6ED8
:10030000000E096E020E0B6EA4EC07F0236A0101C9
:10031000000E2324D96EDA6A010EDA22DF50EAECED
:1003200008F0232A030E2364F2D746D0020E236E70
:100330000101000E2324D96EDA6A010EDA226BEC79
:1003400008F0DF6EABA4ABB237D03F5035E1232AC3
:10035000040E2364EDD70101010E0A6E000E096E32
:10036000030E0B6E4CEC07F0000926E00CD0010EDA
:10037000D4EC08F010D0020ED4EC08F00CD0030E30
:10038000D4EC08F008D001010251010AF0E0030AA0
:10039000F2E0010AF4E000F000F00ED00151080A8A
:1003A00001E16DD6010A01E1E2D6030A01E145D778
:1003B000010A81E01B0ABAE09EBAAECF3EF09EBAB7
:1003C000AECF3EF0AB9800F0AB8820C0F5FF1FC069
:1003D000F8FF1EC0F7FF1DC0F6FF1CC0DAFF1BC0F0
:1003E000D9FF1AC0E0FF19C0E8FF18C0D8FF1000FD
:1003F000CCEF07F020EE08F0C951D926CA51DA2215
:10040000DECFCFF0DDCFD0F020EE0AF0C951D926F3
:10041000CA51DA22DECFD3F0DDCFD4F020EE1DF0CA
:10042000C951D926CA51DA22DF50D76F20EE08F021
:10043000C751D926C851DA22DECFD8F0DDCFD9F0A6
:1004400020EE0AF0C751D926C851DA22DECFD5F006
:10045000DDCFD6F020EE1DF0C751D926C851DA22E3
:10046000DF50DA6F20EE1EF0C951D926CA51DA22C8
:10047000DF50D16F20EE1EF0C751D926C851DA22C5
:10048000DF50D26FD1C0CBF0A6D8D3C0D9FFD4C033
:10049000DAFFD751DF12B3D895D88BD800F000F02F
:1004A00000F000F000F000F000F000F000F000F0CC
:1004B00000F000F000F000F000F000F000F000F0BC
:1004C00000F000F0D8C0D9FFD9C0DAFF0001DA513E
:1004D000DF12D2C0CBF07FD800F000F000F000F0C7
:1004E00000F000F000F000F000F000F000F000F08C
:1004F00000F000F000F000F000F000F000F000F07C
:10050000C282C2B2FED7000154D882D8040ECE6F88
:10051000CD6B69D8CD5FCC51CE5BD1C0CBF05BD871
:1005200077D86DD8D5C0D9FFD6C0DAFFDA51DF123F
:1005300040D800F000F000F000F000F000F000F013
:1005400000F000F000F000F000F000F000F000F02B
:1005500000F000F000F000F000F0D8C0D9FFD9C0E2
:10056000DAFFDA51DF12D2C0CBF035D800F000F05C
:1005700000F000F000F000F000F000F000F000F0FB
:1005800000F000F000F000F000F000F000F000F0EB
:1005900000F000F0C282C2B2FED7000113D809D821
:1005A00022D8CD27CC51CE23CDC0C7F0CEC0C8F0C5
:1005B0001200DA1DCB6FD8C0D9FFD9C0DAFFCB51FA
:1005C000DF161200DA1DCB6FD5C0D9FFD6C0DAFF17
:1005D000CB51DF161200CB47CB47C250CB19830B50
:1005E000CB19C26E1200C350C4CFCBF0CC6BCBC0C2
:1005F000CCF0CB6BCB27000ECC23CB511200D71DF8
:10060000CB6FCFC0D9FFD0C0DAFFCB51DF161200BD
:10061000D71DCB6FD3C0D9FFD4C0DAFFCB51DF16C3
:100620001200020E916F580E906F700ED36E9B8C5D
:100630009007D8A0910701019029D8B49129F8E139
:10064000D08E030EBA12C80EBB6EBA50870B1809B3
:10065000BA6EBA849F829E929D82030E0F0151133F
:10066000C80E526F51975199519B519D51857F8072
:100670007E907D80B1EC08F02F0E386F396B3A6BAD
:100680003B6B010E3C6F0F0E0101816F8BD8846BA9
:10069000856B87698669896988698A69000EA7EC14
:1006A00004F00F0E816F7ED8010E846F82D8010E88
:1006B000A7EC04F00F0E816F75D8020E846F79D805
:1006C000020EA7EC04F00F0E816F6CD8030E846F3E
:1006D00070D8030EA7EC04F00F0E816F63D8050EDF
:1006E000846F040E66D8040EA7EC04F00F0E816F21
:1006F000960E806F0F0E836F8D0E826F846B050ECA
:1007000058D8050EA7EC04F0806B100E816F020E16
:10071000ABEC06F0010E806F100E816F040EABEC97
:1007200006F0020E806F100E816F000EABEC06F02B
:10073000030E806F100E816F050EABEC06F0040EF9
:10074000806F100E816F010EABEC06F0050E806F0E
:10075000100E816F030EABEC06F0806B180E816FEC
:10076000060EABEC06F0050E806F180E816F070EBB
:10077000ABEC06F0010E806F080E816FABEC06F05B
:10078000030E806F080E816F090EABEC06F0A2EC31
:1007900008F0949C948E9F9A9D8AC76A320EC66E0A
:1007A000F28C320C920E806F0F0E836F890E826F67
:1007B000890C856F87698669896988698A691200E9
:1007C000D0C0D9FFD1C0DAFFDECFD2F0DDCFD3F079
:1007D00020EE04F0D051D926D151DA22DECFD4F068
:1007E000DDCFD5F0D251D45DD66FD351D559D76F67
:1007F000D751800AF36E800EF35C000ED8B4D65D3C
:1008000002E2D66BD76B20EE18F0D051D926D15129
:10081000DA22D6C0DEFFD7C0DDFF65D07BD8D8B4E2
:10082000DF1804E18BD820EE1AF080D820EE04F017
:10083000D051D926D151DA22D0C0E1FFD1C0E2FF98
:10084000DECFE6FFDECFE6FFDECFE6FFDDCFE5FF62
:1008500056D020EE12F0D051D926D151DA22DECF77
:10086000D2F0DDCFD3F0D651D25DD751D3590CE2BF
:1008700051D8D8B4DF180BE120EE1CF0D051D926A6
:10088000D151DA22020EDF6E20EE1AF04FD8D1C01D
:10089000C8F0D0C0C7F0CA6B080EC96F13EC06F0E1
:1008A0002ED020EE14F0D051D926D151DA22DECF4D
:1008B000D2F0DDCFD3F0D251D65DD351D75905E276
:1008C00029D8D8B4DF1804E139D820EE1AF02ED890
:1008D000D1C0C8F0D0C0C7F0030ECA6F200EC96FD8
:1008E00013EC06F00CD020EE1CF0D051D926D151DB
:1008F000DA22DF5093E0010AACE0030AD2E020EEF6
:1009000004F0D051D926D151DA22DE6ADE6ADE6ADD
:10091000DD6A120020EE1AF0D051D926D151DA2228
:10092000DE06000EDD5AD92ADD1CFF0CD051D92677
:10093000D151DA22080EDE6EDD6A080C20EE1CF0C2
:10094000D051D926D151DA22010EDF6E010C8D6F04
:100950008D51200D000EF32401018E6F020EF42044
:100960008F6F8751800A800F010ED8B4865D1AE31D
:1009700020EE12F08E51D9268F51DA2286C1DEFF89
:1009800087C1DDFF873587318C6F86318B6F20EE15
:1009900014F08E51D9268F51DA228BC1DEFF8CC123
:1009A000DDFF12D020EE12F08E51D9268F51DA22BF
:1009B000960EDE6EDD6A20EE14F08E51D9268F5130
:1009C000DA224B0EDE6EDD6A20EE08F08E51D9265B
:1009D0008F51DA2280C1DEFF81C1DDFF20EE0AF0F7
:1009E0008E51D9268F51DA2282C1DEFF83C1DDFF0D
:1009F00020EE1DF08E51D9268F51DA2284C18BF161
:100A0000010E8C6F8B2B02D0D8908C378B2FFCD79C
:100A10008C51DF6E20EE1EF08E51D9268F51DA22D6
:100A200085C1DFFF20EE1CF08E51D9268F51DA22CE
:100A3000DF6A20EE1AF08E51D9268F51DA223A0E53
:100A4000DE6EDD6A8951800A800F010ED8B4885DA0
:100A50000BE320EE10F08E51D9268F51DA2288C197
:100A6000DEFF89C1DDFF09D020EE10F08E51D926BE
:100A70008F51DA22200EDE6EDD6A20EE10F08E51EC
:100A8000D9268F51DA2210EE0EF08E51E1268F51C9
:100A9000E222DECFE6FFDDCFE5FF20EE18F08E513B
:100AA000D9268F51DA22DE6ADD6A20EE04F08E51FB
:100AB000D9268F51DA22DE6ADE6ADE6ADD6A20EE2E
:100AC0000CF08E51D9268F51DA22000EDE6EDD6ECB
:100AD000000C7551200D000EF3240001E56F020E8D
:100AE000F420E66F020EE16FA00EE06F7551050A6B
:100AF00005E1020EE36F000EE26F06D0200EE52541
:100B0000E26F000EE621E36FE46B20EE1CF0E5518E
:100B1000D926E651DA22DF50DB6FDBBF54D0E6C0C6
:100B2000C8F0E5C0C7F0E3C0CAF0E2C0C9F0FAEC13
:100B300001F0C7C0DEF0C8C0DFF062D8DC51800A27
:100B4000DD6FDE51DB5DDF51800ADD590AE220EE08
:100B50000CF0E551D926E651DA22DE2A000EDD221C
:100B600003D020EE0CF057D84BD820EE04F0E5511E
:100B7000D926E651DA22DB51DE26DC51DE22000ED8
:100B8000DCBFFF0EDE22DD2220EE0EF044D8D92A93
:100B9000DD1CFF0ED8B4DF1816E1E6C0D1F0E5C0C9
:100BA000D0F0E0EC03F020EE10F0E551D926E6514C
:100BB000DA2210EE0EF0E551E126E651E222DECF18
:100BC000E6FFDDCFE5FFE6C0E3F0E5C0E2F0E1518E
:100BD000E61902E1E051E51906E1020E0001E66FB7
:100BE000000EE56F04D0200EE527000EE623E42B6F
:100BF000050EE4658AD7752B7565050C756B1200BB
:100C000020EE0CF0E551D926E651DA22DECFDBF0FA
:100C1000DDCFDCF01200E551D926E651DA22DE06FE
:100C2000000EDD5A000C20EE16F0C751D926C8512F
:100C3000DA22DFCFCBF0DE2ADFCFCCF0000EDD22D0
:100C4000C951CB5DCA51CC59D8A0120020EE16F084
:100C5000C751D926C851DA22000EDE6EDD6E030EB2
:100C6000CB6FC7C0D9FFC8C0DAFF1AD8DE5ECD513E
:100C7000DE5ACE51DE5ACF51DD5A030ECB6F20EE35
:100C800004F0C751D926C851DA220AD8DE26CD5140
:100C9000DE22CE51DE22CF51DD22DD52DD521200A6
:100CA000DECFCCF0DECFCDF0DECFCEF0DECFCFF09A
:100CB000CB6701D007D0CF35CF33CE33CD33CC3354
:100CC000CB2FF6D7C7C0D9FFC8C0DAFFCC5112006E
:100CD0000101806B8051600FD96EDA6A020EDF620B
:100CE00004D001018051600F32D801018051600FA2
:100CF000D96EDA6A010EDF6203D08051600F22D80C
:100D00000101802B090E8065E5D7806B8051760F3D
:100D1000D96EDA6A020EDF6204D001018051760FCB
:100D200016D801018051760FD96EDA6A010EDF62A2
:100D300003D08051760F06D80101802B8051D8A4B2
:100D40001200E4D7D96EDA6A020EDF6E020CD96E99
:100D5000DA6ADF6A1200846F8451080DF350770F4E
:100D60000101856F8551D96EDA6A820EDF6E855179
:100D7000D96EDA6AD92A020EDF6E8551D96EDA6A27
:100D8000020ED92681C1DFFF8051200D000E826F37
:100D9000020E836FF3508227F45083238551D96E5E
:100DA000DA6A040ED92682C1DEFF83C1DDFF8551D8
:100DB000D96EDA6A060ED926DE6A190EDD6E855105
:100DC000D96EDA6A030ED926010EDF6E010CDACF76
:100DD000EBF0F3CFECF0F4CFEDF09DB29EA209D092
:100DE0000001724B732B6E4B6F2B69EC05F0BC6AE4
:100DF0009E927DB07EA013D00001715170110BE066
:100E00007007D8A071078988742B7405E76FE7B164
:100E100002D0898801D089980F01536B7E90EDC074
:100E2000F4FFECC0F3FFEBC0DAFFEAC0D9FFE9C082
:100E3000E2FFE8C0E1FF1100086E0850D96EDA6ADF
:100E40000150DE1A000EDD1A076A0850D96EDA6A00
:100E5000DF50010B066E0850D96EDA6ADECF02F061
:100E6000DDCF03F0D8900330056E0230046E0850D9
:100E7000D96EDA6A04C0DEFF05C0DDFF065007E068
:100E80000850D96EDA6A010EDE1AA00EDD1A072AA2
:100E9000070E0764DAD7070C110EDDEC08F0106AB4
:100EA0000CD009C0D9FF0AC0DAFFDF50016E110E65
:100EB0001CEC07F0094A0A2A102A0B50105CF1E3D7
:100EC00009C0D9FF0AC0DAFF094A0A2ADF500C6EAE
:100ED00012C00DF00DC00EF00F6A0E500C1808E194
:100EE000115009C0D9FF0AC0DAFFDF62000C010C03
:100EF000000C0E6A0F6AFF0E0E24F66EFE0E0F2017
:100F0000F76E0800F5CF0CF00EC006F00FC007F02A
:100F10000D0E086E010E096E7EEC08F00C500D18D7
:100F20000AE00EC008F00FC009F00C0E0A6E010EA8
:100F30000B6E55EC08F00E4A0F2A000E0E5C010EE7
:100F40000F58D8B01200D7D7100EDDEC08F00F6A9A
:100F50000CD009C0D9FF0AC0DAFFDF50016E100EB5
:100F60001CEC07F0094A0A2A0F2A0B500F5CF1E328
:100F700011C00CF00CC00DF00E6A0D5009C0D9FF65
:100F80000AC0DAFFDF6E094A0A2A09C0D9FF0AC07F
:100F9000DAFF10C0DFFF120003EE00F011EE00F0E8
:100FA000EE6AE550E150FCE1E250FAE102EE00F0B9
:100FB000C00EEE6AE806FDE101EE00F0800EEE6A7A
:100FC000E806FDE100EE60F0670EEE6AE806FDE17E
:100FD00000EE24F01C0EEE6AE806FDE1000EF86E4D
:100FE000000137EF08F00101806B8051600FD96E6E
:100FF000DA6ADF6A0101802B090E8065F6D7806B03
:101000008051760FD96EDA6ADF6A0101802B805138
:10101000F7E0806B80516A0FD96EDA6ADF6A0101EE
:10102000802B030E8065F6D7030C02C004F004C0C9
:1010300005F0066A0550030BAA6E01C0A9FF03C0A4
:10104000A8FFA69EA69CA684000EF2BE010E076E07
:10105000F29E550EA76EAA0EA76EA682A6B2FED766
:1010600007B002D0F29E01D0F28EA694120000F0DA
:10107000F3EC07F011EC03F000F000F0F28EF4EC6A
:1010800008F0F3EC08F00A0EBFEC08F000F000F0F6
:10109000ABB402D0ABA203D0AB9800F0AB88D1A028
:1010A000D180040068EC06F0EAD710D0F0EC08F02C
:1010B0000B500824016E000E0920026E0A500B240A
:1010C000D96EDA6ADF50036E15EC08F00B060B28B8
:1010D000D8B41200EBD73F6A016A026A00F09EBAE8
:1010E00007D0014A022A100E015C270E0258F6E3CF
:1010F0009EBAE6EF08F0010E3F6E000C0DD00850CE
:101100000924D96EDA6A09500624016E000E072000
:10111000026E91EC08F0DF6E09060928D8B41200BF
:10112000EED702C003F003C004F0056A0450030BBD
:10113000AA6E01C0A9FFA69CA69EA68000F000F0A2
:10114000A8501200CF0EAF6EAC84B896AC98AB8EA0
:10115000AB88AB9A9D989D9AAC9CAB9CAC9AAC8AA0
:10116000CF0CC26AC16AC06AC08EC050C70B0809E2
:10117000C06EC050F80B0109C06EC28012000101A0
:10118000806F92988051280DF3CF70F0F4CF71F0FA
:10119000010E3C6E010C016E01500001600FD96E12
:1011A000DA6A010EDF6E010C016E015000016A0F58
:1011B000D96EDA6A010EDF6E010C016E0150D96E34
:1011C000DA6ADE68DD68FF0C01D000F09EAAFDD768
:1011D000AE501200016EACA2FED701C0ADFF1200EE
:1011E000A6A21200FDD712001200FF00FF00FF00B0
:10FEF000FF00FF00FF00FF00FF00FF00FF00000108
:10FF000000010002001606250B160F1606250A141E
:10FF100000000000000000803F00000000000080A2
:10FF20003F000000000000803F1606250000000092
:10FF30000000000000803F0807B80B00004006F0FA
:10FF40000A00006666263F1B2F5D3D3333F33F6694
:10FF500066263F4260653C000080400080BB450053
:10FF600000004100000042F00A02A4707D3FA4702E
:10FF70007D3F0000000000000000000000000000C5
:10FF80000000000000000000000000000000000071
:10FF90000000000000000000000000000000000061
:10FFA0000000000000000000000000000000000051
:10FFB0000000000000000000000000000000000041
:10FFC0000000000000000000000000000000000031
:10FFD0000000000000000000000000000000000021
:10FFE0000000000000000000000000000000000011
:10FFF0000000000000000000000000000000000001
:020000040030CA
:0E000000FF381F3EFFBD81FF0FC00FE00F4015
:0200000400F00A
:100000000100010002001606250B160F1606250A30
:100010001400000000000000803F0000000000000D
:10002000803F000000000000803F16062500000011
:10003000000000000000803F0807B80B00004006E9
:10004000F00A00006666263F1B2F5D3D3333F33F09
:100050006666263F4260653C000080400080BB45EC
:100060000000004100000042F00A02A4707D3FA49D
:10007000707D3F0000000000000000000000000054
:100080000000000000000000000000000000000070
:100090000000000000000000000000000000000060
:1000A0000000000000000000000000000000000050
:1000B0000000000000000000000000000000000040
:1000C0000000000000000000000000000000000030
:1000D0000000000000000000000000000000000020
:1000E0000000000000000000000000000000000010
:1000F0000000000000000000000000000000000000
:00000001FF
