:10000000F8EF01F0FF00FF00E1CF81F0E2CF82F0D6
:10001000D9CF83F046EF19F0D8CF3EF0E8CF3FF0CC
:10002000E0CF40F0D9CF41F0DACF42F0F6CF43F045
:10003000F7CF44F0F8CF45F0F5CF46F000F09EBA88
:100040009DAAC3D16FEC1DF001010D6F0D51EA0A9D
:10005000D8B4FF000D51550AD8B4ABB4ADD1ABB292
:10006000ABD1265001E0A8D16FEC1DF001010E6F5D
:10007000ABA4ABB2A1D1265001E09ED18FD16FECE1
:100080001DF001010F6FABA4ABB296D1265001E079
:1000900093D16FEC1DF00101106FABA4ABB28CD10A
:1000A000265001E089D1496A10D0110E4924D96E39
:1000B000DA6A010EDA226FEC1DF0DF6EABA4ABB290
:1000C0007BD1265001E078D1492A01011051396EC7
:1000D0003A6A020E3926000E3A2249503B6E3C6ABB
:1000E0003C50800A3D6E39503B5C3A50800A3D5886
:1000F000DCE3010E306E0D0E2F6E1051040F316EC9
:10010000D6EC1AF0000901E157D1496A14D00DEC80
:100110001EF0010121EE0FF0DF50DF2A276E286A62
:10012000110E4924D96EDA6A010EDA22DF50296EE7
:1001300036EC1CF0492A01011051495CE8E3010E3C
:10014000306E0D0E2F6E020E316E2EEC1BF0496AD2
:1001500001010D0E4924D96EDA6A010EDA22DF5050
:1001600007EC1EF0492A030E4964F2D725D1020E8E
:10017000496E01010D0E4924D96EDA6A010EDA22A8
:100180006FEC1DF0DF6EABA4ABB216D1265001E0D0
:1001900013D1492A050E4964ECD70101010E306ED6
:1001A0000D0E2F6E040E316ED6EC1AF0000901E12F
:1001B00003D10FC147F010C148F0496A0FD00101C7
:1001C0000F0E4924D96EDA6A010EDA2247C027F0F1
:1001D000286A95EC1DF0DF6E472A492A4850495C91
:1001E000EEE30101010E306E0D0E2F6E4850020F2E
:1001F000316E2EEC1BF0496A0BD001010D0E492423
:10020000D96EDA6A010EDA22DF5007EC1EF0492AB5
:100210004850396E3A6A040E3926000E3A22495087
:100220003B6E3C6A3C50800A3D6E39503B5C3A5014
:10023000800A3D5801E3C0D0E0D7020E496E0101AB
:100240000D0E4924D96EDA6A010EDA226FEC1DF028
:10025000DF6EABA4ABB2B0D0265001E0ADD0492ADE
:10026000040E4964ECD70101010E306E0D0E2F6EA5
:10027000030E316ED6EC1AF0000901E19DD0050E97
:10028000EAEC1DF00101010E306E0D0E2F6E020E14
:10029000316E2EEC1BF0496A01010D0E4924D96E16
:1002A000DA6A010EDA22DF5007EC1EF0492A030E4B
:1002B0004964F2D781D0020E496E01010D0E492426
:1002C000D96EDA6A010EDA226FEC1DF0DF6EABA494
:1002D000ABB272D0265070E1492A030E4964EDD7C3
:1002E0000101010E306E0D0E2F6E020E316ED6EC36
:1002F0001AF0000961E003EC1BF00101010E306E01
:100300000D0E2F6E020E316E2EEC1BF0496A0101AC
:100310000D0E4924D96EDA6A010EDA22DF5007EC9D
:100320001EF0492A030E4964F2D746D0020E496EE8
:1003300001010D0E4924D96EDA6A010EDA226FEC42
:100340001DF0DF6EABA4ABB237D0265035E1492AA1
:10035000040E4964EDD70101010E306E0D0E2F6EB3
:10036000030E316ED6EC1AF0000926E00CD0010E17
:10037000F2EC1DF010D0020EF2EC1DF00CD0030ECA
:10038000F2EC1DF008D001010F51010AF0E0030A60
:10039000F2E0010AF4E000F000F00ED00E51080A7D
:1003A00001E16DD6010A01E1E2D6030A01E145D778
:1003B000010A81E01B0ABAE09EBAAECF25F09EBAD0
:1003C000AECF25F0AB9800F0AB8846C0F5FF45C036
:1003D000F8FF44C0F7FF43C0F6FF42C0DAFF41C058
:1003E000D9FF40C0E0FF3FC0E8FF3EC0D8FF10008B
:1003F00014EF17F0010E0201C16FDD0EC06F60EF48
:1004000006F0D751250A0BE0D9C1D9FFDAC1DAFFCE
:10041000D7C2DFFF0101D94BDA2B60EF06F0CF6BBB
:10042000D06BCD6BCE6B05D00201CD850101DB4BCE
:10043000DC2B01019EEC06F0300AF6E09EEC06F0A3
:10044000A6EC1DF030E30201CF6BD06BCFC287F07A
:10045000D0C288F000018A6B0A0E896F5CEC1DF037
:1004600087C0CFF288C0D0F2D00E0101EF6FF069E3
:100470009EEC06F0F16FF26BEF51F127F051F22391
:10048000F1510201CF270101F2510201D0230101F4
:10049000DB4BDC2BDBC1F6FFDCC1F7FF0800F550BE
:1004A000A6EC1DF0D3E29EEC06F02E0A2BE1020131
:1004B000CE8D0101DB4BDC2B0201D56BD66B1BD043
:1004C000D5C287F0D6C288F08A6B0A0E896F5CECC1
:1004D0001DF09EEC06F000018727000E8823D00E49
:1004E00087250201D56FFF0E000188210201D66F1A
:1004F0000101DB4BDC2B01019EEC06F0A6EC1DF0AC
:100500000BE3DED70201D56BD66BCE8905D0CE8545
:100510000DD0C00ECD130AD0B8EC06F0D75101E1D2
:10052000D3D3660AF4E0130AF4E0CAD3070ECE155B
:1005300001E1C3D2CEA903D0D66B060ED56FC0C2DF
:10054000D9FFC1C2DAFFDECFD1F2DECFD2F2DECFE9
:10055000D3F2DECFD4F2040EC027000EC123D4AFF5
:1005600015D0D1C287F0D2C288F0D3C289F0D4C2EC
:100570008AF036EC1DF087C0D1F288C0D2F289C073
:10058000D3F28AC0D4F2030E0201CD13CB6BCC6B35
:1005900022EED1F0DE50DE10DE10DE106BE0D3353F
:1005A000D435820FCB6FCC6BFF0ECC23CB07D8A0FA
:1005B000CC07CBC287F0CCC288F000018A6B030E57
:1005C000896F5CEC1DF087C0CBF288C0CCF2CBC247
:1005D0008DF0CCC28EF0906B0A0E8F6FFCEC17F092
:1005E0008DC0CBF28EC0CCF2ECDB000ED8B4CB5D6C
:1005F00003E2CB07D8A0CC07CB510008E8EC06F00B
:10060000A9C0C2F2AAC0C3F2ABC0C4F2ACC0C5F26A
:10061000C2C296F0C3C297F0C4C298F0C5C299F0A6
:10062000D1C29AF0D2C29BF0D3C29CF0D4C29DF04A
:10063000CFEC13F096C0C2F297C0C3F298C0C4F2D8
:1006400099C0C5F2A1DB800E8D6F3F0E8E6FA3ECBB
:100650001BF005E20201CB07D8A0CC070BD094DB3E
:10066000200E8D6F410E8E6FA3EC1BF003E3020191
:10067000CB4BCC2B0201D651800AF36E800EF35C7B
:100680000D0ED8B4D55D1DE2D1C2C2F1D2C2C3F104
:10069000D3C2C4F1D4C2C5F1D55185EC0BF0A9C0C9
:1006A000C6F1AAC0C7F1ABC0C8F1ACC0C9F166ECD5
:1006B0000CF0C2C1D1F2C3C1D2F2C4C1D3F2C5C1E0
:1006C000D4F27FDB0A0ED8B4CB5D26E222EED1F065
:1006D000DE50DE10DE10DE106EE0D1C2BAF1D2C202
:1006E000BBF1D3C2BCF1D4C2BDF1ACEC15F0BAC1C0
:1006F000EFF1BBC1F0F1BCC1F1F1BDC1F2F1F251BA
:10070000EF11F011F11157E10201CC51800A800F75
:10071000020ED8B4CB5D4FE3C2C287F0C3C288F0EB
:10072000C4C289F0C5C28AF05F0E00018B6F700EE3
:100730008C6F890E8D6F400E8E6FA3EC1BF003E261
:100740000201F70E02D00201F80ECB27FF0ECC23D8
:10075000CB51E8EC06F0A9C0C2F2AAC0C3F2ABC00C
:10076000C4F2ACC0C5F2D1C287F0D2C288F0D3C205
:1007700089F0D4C28AF0C2C28BF0C3C28CF0C4C26A
:100780008DF0C5C28EF053EC14F087C0B4F288C06F
:10079000B5F289C0B6F28AC0B7F2B4C2C6F2B5C229
:1007A000C7F2B6C2C8F2B7C2C9F20201D16BD26BAE
:1007B000D36BD46B39D0D1C2BAF1D2C2BBF1D3C2A0
:1007C000BCF1D4C2BDF1ACEC15F0BAC1C6F2BBC1EC
:1007D000C7F2BCC1C8F2BDC1C9F2D1C2D1F1D2C207
:1007E000D2F1D3C2D3F1D4C2D4F1C6C291F0C7C200
:1007F00092F0C8C293F0C9C294F0B0EC1CF091C062
:10080000D5F192C0D6F193C0D7F194C0D8F177EC6E
:100810001CF0D1C1D1F2D2C1D2F2D3C1D3F2D4C132
:10082000D4F20201CB6BCC6B010ED76F72DA94DA83
:1008300004E3D72BD7510A0AF9E1D7C2EFF101013E
:10084000F06BEFBFF0070201D5510101EF27020164
:10085000D6510101F0230201CB510101EF27020122
:10086000CC510101F023EF510201CF5F0101F051A2
:100870000201D05BD651D51103E0CF07D8A0D00735
:10088000CDC2EFF1030E0101EF1704E00201CF0723
:10089000D8A0D0070201CDA522D0CDC2EFF1030E22
:1008A0000101EF170DE0D9C1D9FFDAC1DAFF2D0E32
:1008B000DF6ED94BDA2B04D036DACF07D8A0D007B9
:1008C0000201D05172DAD8B4CF5D44E3F5D7D9C173
:1008D000D9FFDAC1DAFF200E38DAD8A0D007D0511C
:1008E00064DAD8B4CF5DF3E2CDC2EFF1030E0101BB
:1008F000EF1730E0D9C1D9FFDAC1DAFF2D0EDF6E74
:100900000101D94BDA2B26D0E6D90BEC19F087C0C0
:10091000B8F288C0B9F289C0BAF28AC0BBF2B8C2D4
:1009200094F0B9C295F0BAC296F0BBC297F037DA2C
:10093000EAEC19F094C0B8F295C0B9F296C0BAF2D8
:1009400097C0BBF20201B851300FD9C1D9FFDAC14B
:10095000DAFFD5D70201D707D72905E0D5D7E3D9E4
:10096000CB07D8A0CC07CC5120DAD8B4CB5DF7E2C6
:10097000D651800A800F090ED8B4D55D03E3080E66
:10098000D76F02D0D5C2D7F2D751D55F000ED7BFEF
:10099000FF0ED65BD75109E0D9C1D9FFDAC1DAFF22
:1009A0002E0EDF6E0101D94BDA2B0201D751E8EC94
:1009B00006F0A9C0B0F2AAC0B1F2ABC0B2F2ACC0AE
:1009C000B3F2D1C29AF0D2C29BF0D3C29CF0D4C28F
:1009D0009DF0B0C296F0B1C297F0B2C298F0B3C227
:1009E00099F0CFEC13F096C0BAF197C0BBF198C064
:1009F000BCF199C0BDF1ACEC15F0BAC1C6F2BBC1F7
:100A0000C7F2BCC1C8F2BDC1C9F249D064D90BEC70
:100A100019F087C0BCF288C0BDF289C0BEF28AC09E
:100A2000BFF2BCC294F0BDC295F0BEC296F0BFC288
:100A300097F0B5D9EAEC19F094C0BCF295C0BDF2BC
:100A400096C0BEF297C0BFF20201BC51300FD9C1AF
:100A5000D9FFDAC1DAFFDF6E0101D94BDA2BC6C24A
:100A600094F0C7C295F0C8C296F0C9C297F00201CF
:100A700050D90001F5CF98F00900F5CF99F00900A1
:100A8000F5CF9AF00A00F5CF9BF0EAEC19F094C08C
:100A9000C6F295C0C7F296C0C8F297C0C9F202016B
:100AA000D707D72905E0B2D73ED9D507D8A0D607B2
:100AB000D651D51101E104D1F7D7C0C2D9FFC1C2C7
:100AC000DAFFDECFEFF1DDCFF0F1EFC1C6F2F0C11A
:100AD000C7F2C86BC96B020EC027000EC123D651E6
:100AE000D51107E1C951C611C711C81102E1D54B93
:100AF000D62B010ED76F0DD92FD904E3D72BD751A1
:100B00000A0AF9E157D9D551D75DD651800A0101BA
:100B1000EF5903E2D5C2D7F214D00201D651800AB0
:100B20000101EF6F0201D751D55D800ED7BF7F0E57
:100B30000101EF5906E20201D751D56FD66BD5BF3F
:100B4000D6070201D051CF110AE0CDC2EFF1030E5A
:100B50000101EF1704E00201CF07D8A0D00702017E
:100B6000CEAD15D0D651800A0101EF6F0201CF51F1
:100B7000D55DD051800A0101EF5906E20201D5513D
:100B8000CF5FD651D05B03D00201CF6BD06B12D9AF
:100B9000CF51D75DD051800A0101EF5908E202011F
:100BA000D751CF5F000ED7BFFF0ED05B03D002013D
:100BB000CF6BD06BCDA517D0CDC2EFF1030E0101E5
:100BC000EF1708E0D9C1D9FFDAC1DAFF2D0EDF6EC9
:100BD000D94BDA2B0201D051CF116AE0A4D8CF074C
:100BE000D8A0D007F7D7D051CF110BE0D9C1D9FF8A
:100BF000DAC1DAFF200EA9D8D8A0D007D051CF1182
:100C0000F5E1CDC2EFF1030E0101EF1751E0D9C1BB
:100C1000D9FFDAC1DAFF2D0EDF6E0101D94BDA2BD5
:100C200047D0D5C2EFF1D6C2F0F10101D890EF372D
:100C3000F037D890EF37F0379E0EEF25F66EFF0EA7
:100C4000F021F76E09000001F5CF8BF00900F5CF18
:100C50008CF00900F5CF8DF00A00F5CF8EF0C6C2FA
:100C600087F0C7C288F0C8C289F0C9C28AF00BEC0D
:100C700019F087C094F088C095F089C096F08AC0BA
:100C800097F08DD8EAEC19F094C0F1F195C0F2F12B
:100C900096C0F3F197C0F4F10101F151300F020158
:100CA000D76FD9C1D9FFDAC1DAFFD7C2DFFFB5D715
:100CB0000201D507D8A0D607D529D8B4D629B1E1E5
:100CC00057D8D76701EF02F0D9C1D9FFDAC1DAFFEF
:100CD000000EDF6E000CC6C287F0C7C288F0C8C223
:100CE00089F0C9C28AF0D751040D9E0EF324F66E26
:100CF000FF0EF420F76E09000001F5CF8BF009001C
:100D0000F5CF8CF00900F5CF8DF00A00F5CF8EF00D
:100D10001200D751040D9E0EF324F66EFF0EF42040
:100D2000F76E09001200D9C1D9FFDAC1DAFF300E1F
:100D3000DF6E0101D94BDA2B0201300CDBC1F6FF6B
:100D4000DCC1F7FF0800F5501200DF6E0101D94B3E
:100D5000DA2B0201CF071200F550C65D0900F550ED
:100D6000C7590900F550C8590900F550C959120072
:100D70000101DBC1F6FFDCC1F7FFDB4BDC2B080018
:100D8000F5CFD7F202011200C2C287F0C3C288F0C9
:100D9000C4C289F0C5C28AF08B6B8C6B12000A0E3C
:100DA000986F996B9A6B9B6B000C800AF36E800EA8
:100DB000F35C010C800ED7BF7F0E0101EF6F0201C3
:100DC00012000201CC51800AF36E800EF35C120017
:100DD0000101B96FB9AF73D0B96DB951800A120F63
:100DE0003BE356D938D987BF88078CEC18F087C009
:100DF0008DF088C08EF0FCEC17F0F4D8A70E8D258E
:100E0000F66EDC0E24D9CED8906B640E3AD98DBF25
:100E10008E07FCEC17F0D89010D9A70E8D25F66E32
:100E2000DC0EDCD8CBD8CFEC13F0E7D887BF88072F
:100E30008CEC18F0FBD8A70E8725F66EDC0ECAD80E
:100E4000B1D8CFEC13F096C0A9F097C0AAF098C023
:100E5000ABF099C0ACF01200B951800A750F28E3CD
:100E60000001906B0A0E0DD98DBF8E07FCEC17F0B8
:100E7000B9D8A70E8D25F66EDC0EB0D89FD88A6B38
:100E80000A0EE9D887BF88078CEC18F0CFD8A70ED8
:100E90008725F66EDC0E9ED885D8CFEC13F096C071
:100EA000A9F097C0AAF098C0ABF099C0ACF01200BE
:100EB000B951040DA70EF324F66EDC0E71D0B951B2
:100EC000800A120F3BE3E4D8C6D887BF88078CECB2
:100ED00018F087C08DF088C08EF0FCEC17F082D837
:100EE000DB0E8D25F66EDC0EB2D85CD8906B640EEE
:100EF000C8D88DBF8E07FCEC17F0D8909ED8DB0EBB
:100F00008D25F66EDC0E6AD859D8CFEC13F075D863
:100F100087BF88078CEC18F089D8DB0E8725F66E22
:100F2000DC0E58D83FD8CFEC13F096C0A9F097C08C
:100F3000AAF098C0ABF099C0ACF01200B951800A89
:100F4000750F28E30001906B0A0E9BD88DBF8E07AA
:100F5000FCEC17F047D8DB0E8D25F66EDC0E3ED884
:100F60002DD88A6B0A0E77D887BF88078CEC18F0CB
:100F70005DD8DB0E8725F66EDC0E2CD813D8CFECAF
:100F800013F096C0A9F097C0AAF098C0ABF099C032
:100F9000ACF01200B951040DDB0EF324F66EDC0E3A
:100FA000F42060D0F5CF9AF00900F5CF9BF009004E
:100FB000F5CF9CF00A00F5CF9DF01200F5CF96F02A
:100FC0000900F5CF97F00900F5CF98F00A00F5CFAA
:100FD00099F012008821F76E090012008E21F76E39
:100FE00009001200D8908D378E37D8908D378E3704
:100FF000240E8D27000E8E23000C96C0B5F197C0ED
:10100000B6F198C0B7F199C0B8F1B5C196F0B6C1C4
:1010100097F0B7C198F0B8C199F08A6B0A0E896F42
:101020000101B9510001876F886B1200D890873792
:101030008837D8908737883712008D378E37D89009
:101040008D378E37480E8D27000E8E23000C8E2193
:10105000F76E09001200896F0101B9510001876F15
:10106000886B1200F76E09000001F5CFA9F00900A6
:10107000F5CFAAF00900F5CFABF00A00F5CFACF040
:1010800012008F6F0101B95100018D6F8E6B12003C
:101090000001906B0A0E8F6F8A6B640C020E986FC2
:1010A000580E976F700ED36E9B8C9707D8A0980739
:1010B00000019729D8B49829F8E1D08E030EBA120E
:1010C000C80EBB6EBA50870B1809BA6EBA849F82DD
:1010D0009E929D82030E0F015113640E526F519721
:1010E0005199519B519D51857F807E907D80C4ECAC
:1010F0001DF0386B396B3A6B3B6B3C6B546B0F0ECE
:101100000001886FDDD88B6B0C0ED3D8000EFBEC82
:101110000DF00F0E886FD4D8010E8B6F0A0EC9D850
:10112000010EFBEC0DF00F0E886FCAD8020E8B6F0C
:10113000080EBFD8020EFBEC0DF00F0E886FC0D862
:10114000050E8B6F0D0EB5D8030EFBEC0DF00F0ED8
:10115000886FBDD88B6B8C6B8E698D6990698F6938
:101160009169040EFBEC0DF00F0E886FB0D8010EE4
:101170008B6F9FD8050EFBEC0DF00F0E886FA0D87B
:10118000040E8B6F0B0E95D8060EFBEC0DF00F0EB8
:10119000886F96D8030E8B6F090E8BD8070EFBEC69
:1011A0000DF00F0E886F93D8020E8B6F82D8080E49
:1011B000FBEC0DF00F0E886F8AD8030E8B6F79D879
:1011C000090EFBEC0DF00F0E886F81D8050E8B6FAA
:1011D000040E6FD80A0EFBEC0DF0876B100E886FB3
:1011E000000E46EC18F0010E876F100E886F010E8E
:1011F00046EC18F0020E876F100E886F020E46EC58
:1012000018F0030E876F100E886F030E46EC18F06F
:10121000040E876F100E886F040E46EC18F0050E52
:10122000876F100E886F050E46EC18F0060E876F5C
:10123000100E886F060E46EC18F0070E876F100E22
:10124000886F070E46EC18F0080E876F100E886F37
:10125000080E46EC18F0090E876F100E886F090E05
:1012600046EC18F00A0E876F100E886F0A0E46ECD7
:1012700018F0020E876F080E886F0B0E46EC18F000
:10128000030E876F080E886F0C0E46EC18F0B5EC55
:101290001DF0949C948E9F9A9D8A939C939E929C01
:1012A000929E8A9C8A9E899C899E94988B88F28CB7
:1012B00012008C6F8E698D6990698F699169120037
:1012C000930E876F0F0E8A6F8A0E896F8A0C920EAB
:1012D000876F0F0E8A6F890E896F890C20EE08F0D8
:1012E0006251D9266351DA22DECF68F0DDCF69F092
:1012F00020EE0AF06251D9266351DA22DECF6CF07B
:10130000DDCF6DF020EE1DF06251D9266351DA2257
:10131000DF50706F20EE08F06051D9266151DA225B
:10132000DECF71F0DDCF72F020EE0AF06051D926E9
:101330006151DA22DECF6EF0DDCF6FF020EE1DF0CE
:101340006051D9266151DA22DF50736F20EE1EF012
:101350006251D9266351DA22DF506A6F20EE1EF007
:101360006051D9266151DA22DF506B6F6AC064F098
:10137000A6D86CC0D9FF6DC0DAFF7051DF12B3D8A8
:1013800095D88BD800F000F000F000F000F000F0ED
:1013900000F000F000F000F000F000F000F000F0CD
:1013A00000F000F000F000F000F000F071C0D9FF94
:1013B00072C0DAFF00017351DF126BC064F07FD896
:1013C00000F000F000F000F000F000F000F000F09D
:1013D00000F000F000F000F000F000F000F000F08D
:1013E00000F000F000F000F0C282C2B2FED70001AF
:1013F00054D882D8040E676F666B69D8665F6551F2
:10140000675B6AC064F05BD877D86DD86EC0D9FFCF
:101410006FC0DAFF7351DF1240D800F000F000F027
:1014200000F000F000F000F000F000F000F000F03C
:1014300000F000F000F000F000F000F000F000F02C
:1014400000F071C0D9FF72C0DAFF7351DF126BC0B8
:1014500064F035D800F000F000F000F000F000F08B
:1014600000F000F000F000F000F000F000F000F0FC
:1014700000F000F000F000F000F000F0C282C2B214
:10148000FED7000113D809D822D8662765516723F3
:1014900066C060F067C061F01200731D646F71C0B8
:1014A000D9FF72C0DAFF6451DF161200731D646F3A
:1014B0006EC0D9FF6FC0DAFF6451DF1612006447B7
:1014C0006447C2506419830B6419C26E1200C35082
:1014D000C4CF64F0656B64C065F0646B6427000E74
:1014E000652364511200701D646F68C0D9FF69C024
:1014F000DAFF6451DF161200701D646F6CC0D9FFF3
:101500006DC0DAFF6451DF161200020E0001946F05
:10151000000E936F906B916B8D6B20EE04F09351E6
:10152000D9269451DA22DECF8BF0DDCF8CF020EE7D
:101530001CF08B51D9268C51DA22DF50926F9251D8
:1015400001E1BFD020EE02F09351D9269451DA2266
:10155000DF508F6F20EE01F09351D9269451DA229B
:10156000DF508E6F8FA737D08E51020A04E1C5D8A5
:10157000190EDD6E30D020EE06F09351D92694512D
:10158000DA22DE52DD50800A800F010ED8B4DF5C13
:10159000010ED8A0020E8E6F20EE06F09351D926D0
:1015A0009451DA22DECF87F0DDCF88F08851800AAF
:1015B000F36E7B0EF35C000ED8B4875D03E29DD81A
:1015C000050EDD6E20EE06F09351D9269451DA22F5
:1015D000DE06000EDD5A8FA908D093C0D9FF94C053
:1015E000DAFFDF508E15D8A48E8F93C0D9FF94C038
:1015F000DAFF8EC0DFFF8FA122D020EE03F09351DF
:10160000D9269451DA22DF50921910E09251020A41
:101610000DE16CD8DF6208D020EE01F09351D9269D
:101620009451DA22020E01D061D8DF6E20EE03F071
:101630009351D9269451DA2292C0DFFF42D08FA570
:1016400033D020EE01F09351D9269451DA22020EC4
:10165000DF6E9251020A35E19151901105E194C07B
:1016600091F093C090F02DD020EE18F08B51D92638
:101670008C51DA22DECF87F0DDCF88F020EE04F047
:101680009051D9269151DA2210EE18F0DE50E12661
:10169000DD50E222E6CF89F0E5CF8AF08751895DFF
:1016A00088518A59DCE30DD09251020A02E11ED81A
:1016B00007D020EE01F09351D9269451DA22020E80
:1016C000DF6E080E9327000E94238D2B0C0E8D6574
:1016D00024D791519011D8B4120020EE01F090510E
:1016E000D9269151DA22010EDF6E010C20EE01F0B5
:1016F0009351D9269451DA22010C20EE06F0935131
:10170000D9269451DA22DE6A12000101C16F6D0EF2
:10171000C1655DD00A0E00018B6F640E876F0101F9
:10172000C15122EC1DF095EC1CF0BCD8240EB5275D
:10173000000EB623A1D8D2EC07F0640E8B6F010126
:10174000C15195EC1CF0B8D8480EA3D89ED8DEEC59
:1017500007F0CFEC13F096C0BDF197C0BEF198C072
:10176000BFF199C0C0F10A0E876F0101C15122EC8F
:101770001DF098D881D8D2EC07F0BDC196F0BEC15B
:1017800097F0BFC198F0C0C199F0CFEC13F096C0AC
:10179000B9F197C0BAF198C0BBF199C0BCF1B9C119
:1017A00096F0BAC197F0BBC198F0BCC199F09A6BA2
:1017B0009B6B9C6B3F0E9D6FCFEC13F096C0A9F016
:1017C00097C0AAF098C0ABF099C0ACF012000A0E16
:1017D000C16538D00001876F0101C15122EC1DF0B5
:1017E00061D84AD8D2EC07F00A0E8B6F0101C151C3
:1017F00095EC1CF061D8240E4CD847D8DEEC07F0ED
:10180000CFEC13F096C0BDF197C0BEF198C0BFF108
:1018100099C0C0F1BDC196F0BEC197F0BFC198F0AC
:10182000C0C199F09A6B9B6B9C6B3F0E9D6FCFEC88
:1018300013F096C0A9F097C0AAF098C0ABF099C079
:10184000ACF01200C151040DA70EF324F66EDC0EAD
:10185000F4201BD8DEEC07F09A6B9B6B9C6B3F0E61
:101860009D6FCFEC13F096C0A9F097C0AAF098C076
:10187000ABF099C0ACF01200A70EB525F66EDC0EE9
:10188000B621F76E090000011200F76E0900000191
:101890001200B727000EB823A70EB725F66EDC0E90
:1018A000B82112000101B56FB66BD890B537B637C5
:1018B000D890B537B63712000101B76FB86BD89022
:1018C000B737B837D890B737B83712000101C2C15F
:1018D000CAF1C3C1CBF1C4C1CCF1C5C1CDF1180E61
:1018E00001D0BCD8E82EFDD7CA51D06FC6C1CAF10D
:1018F000C7C1CBF1C8C1CCF1C9C1CDF1180E01D01F
:10190000ADD8E82EFDD7CA51CF6FD05109E0CF51E5
:10191000D05D0FE2D051CF5DCA6F210ECA5D09E3E1
:10192000C6C1C2F1C7C1C3F1C8C1C4F1C9C1C5F1C3
:101930001200CF5109E0D051CF5D0FE2CF51D05D01
:10194000CA6F210ECA5D09E3C2C1C2F1C3C1C3F1AE
:10195000C4C1C4F1C5C1C5F11200060ECE6FC5BF2A
:10196000CE8FC9BFCE8DC48FC56BC88FC96BCF5109
:10197000D05D1AE2D890C637C737C837C937CF0706
:10198000CF51D0190DE0CE07CEC1CAF1070ECA174C
:1019900007E0F0D7D890C533C433C333C233D02B5C
:1019A000CF51D063F7D71CD0D051CF5D19E2D8907A
:1019B000C237C337C437C537D007CF51D0190DE070
:1019C000CE07CEC1CAF1070ECA1707E0F0D7D890EC
:1019D000C933C833C733C633CF2BCF51D063F7D702
:1019E000CEAF09D0C21FC31FC41FC51FC22B000E1C
:1019F000C323C423C523CEAD02D0C61F26D8CE6BC9
:101A0000C251C627C351C723C451C823C551C923D6
:101A1000C9AF04D0C61F19D8010ECE6FC6C187F05A
:101A2000C7C188F0C8C189F0C9C18AF0D0C18BF0A4
:101A3000CEC18CF00DEC16F087C0C2F188C0C3F1A6
:101A400089C0C4F18AC0C5F11200C71FC81FC91FD1
:101A5000C62B000EC723C823C923000CD890CD3352
:101A6000CC33CB33CA33120069C0D9FF6AC0DAFF66
:101A7000DECF6BF0DDCF6CF020EE04F06951D9269B
:101A80006A51DA22DECF6DF0DDCF6EF06B516D5D05
:101A90006F6F6C516E59706F7051800AF36E800ECB
:101AA000F35C000ED8B46F5D02E26F6B706B20EEDA
:101AB00018F06951D9266A51DA226FC0DEFF70C072
:101AC000DDFF65D07BD8D8B4DF1804E18BD820EED9
:101AD0001AF080D820EE04F06951D9266A51DA2232
:101AE00069C0E1FF6AC0E2FFDECFE6FFDECFE6FFBE
:101AF000DECFE6FFDDCFE5FF56D020EE12F06951D4
:101B0000D9266A51DA22DECF6BF0DDCF6CF06F514F
:101B10006B5D70516C590CE251D8D8B4DF180BE1F1
:101B200020EE1CF06951D9266A51DA22020EDF6ECE
:101B300020EE1AF04FD86AC061F069C060F0636BA4
:101B4000080E626F6CEC16F02ED020EE14F0695186
:101B5000D9266A51DA22DECF6BF0DDCF6CF06B5103
:101B60006F5D6C51705905E229D8D8B4DF1804E1D3
:101B700039D820EE1AF02ED86AC061F069C060F042
:101B8000030E636F200E626F6CEC16F00CD020EE2B
:101B90001CF06951D9266A51DA22DF5093E0010A1C
:101BA000ACE0030AD2E020EE04F06951D9266A5174
:101BB000DA22DE6ADE6ADE6ADD6A120020EE1AF0E0
:101BC0006951D9266A51DA22DE06000EDD5AD92A79
:101BD000DD1CFF0C6951D9266A51DA22080EDE6E2F
:101BE000DD6A080C20EE1CF06951D9266A51DA2210
:101BF000010EDF6E010C946F9451200D000EF32442
:101C0000956F040EF420966F8E51800A800F010E9E
:101C1000D8B48D5D1AE320EE12F09551D926965175
:101C2000DA228DC0DEFF8EC0DDFF8E358E31936FE0
:101C30008D31926F20EE14F09551D9269651DA220B
:101C400092C0DEFF93C0DDFF0FD020EE12F08CD8E3
:101C5000030EDD6E20EE14F09551D9269651DA224E
:101C6000900EDE6E010EDD6E20EE08F09551D92645
:101C70009651DA2287C0DEFF88C0DDFF20EE0AF031
:101C80009551D9269651DA2289C0DEFF8AC0DDFF40
:101C900020EE1DF09551D9269651DA228BC092F094
:101CA000010E936F922B02D0D8909337922FFCD7CE
:101CB0009351DF6E20EE1EF09551D9269651DA220F
:101CC0008CC0DFFF20EE1CF09551D9269651DA2208
:101CD000DF6A20EE1AF09551D9269651DA223A0E93
:101CE000DE6EDD6A9051800A800F010ED8B48F5DE0
:101CF0000BE320EE10F09551D9269651DA228FC0D1
:101D0000DEFF90C0DDFF04D020EE10F02DD8DD6A9C
:101D100020EE10F09551D9269651DA2210EE0EF0F1
:101D20009551E1269651E222DECFE6FFDDCFE5FFB9
:101D300020EE18F09551D9269651DA22DE6ADD6A36
:101D400020EE04F09551D9269651DA22DE6ADE6A39
:101D5000DE6ADD6A20EE0CF09551D9269651DA2222
:101D6000000EDE6EDD6E000C9551D9269651DA22FA
:101D7000200EDE6E200C8DD000F0010E0001CE6F23
:101D80007DEC1BF0F2AE03D0010ED06F01D0D06B12
:101D9000F29EBBC0C5F0BCC0C6F0010EC86F100EED
:101DA000C76F8AD8820EF35CEE0ED8B4DF5D05E211
:101DB0000001D005D8B4F28E12008ED8D8B4F28EBD
:101DC00000F0CEEC10F0D1C1B7F0D2C1B8F0D3C161
:101DD000B9F0D4C1BAF000F000F0000184D8D8B452
:101DE000DE18700ED8B4DE18C20ED8B4DE181EE0AD
:101DF0007AD8D8B4DE18AA0ED8B4DE18420ED8B4F9
:101E0000DE1814E0F2AE03D0010ED06F01D0D06B1B
:101E1000F29EB7C0D5F0B8C0D6F0B9C0D7F0BAC0FE
:101E2000D8F0D005D8B4F28ED16B13D0D12B040EDC
:101E3000D1650FD0D16BF2AE03D0010ED06F01D0BF
:101E4000D06BF29ED56BD66BD76BD86BD005D8B460
:101E5000F28EF2AE03D0010ED06F01D0D06BF29EA5
:101E6000BBC0C5F0BCC0C6F0010EC86F280EC76F5E
:101E700023D8800EF35C640ED8B4DF5D05E2000168
:101E8000D005D8B4F28E120027D8D8B4F28E00F064
:101E900073D7C7C0DFF1C8C0E0F10101E05103E032
:101EA000010A03E069D7DF5167D7DF51100A01E16A
:101EB00078D7380ADDE060D70001BBC0DFF1BCC0D5
:101EC000E0F1C5510101DF5F0001C6510101E05B96
:101ED000E051800AF36E1200BBC0C5F0BCC0C6F072
:101EE0000001D005120020EEB7F0000EDE18000C45
:101EF00000F00001D8510101FA190EE10001D7519B
:101F00000101F91909E10001D6510101F81904E1B3
:101F10000001D5510101F71901E18CD0D5C0F7F1CD
:101F2000D6C0F8F1D7C0F9F1D8C0FAF1010EDA6FD6
:101F30008D0ED96FFF0EDC6FF30EDB6FD5C0DDF1B8
:101F4000D6C0DEF1D7C0DFF1D8C0E0F1FAEC01F085
:101F5000020E0001AB6F8C0EAA6F010EAD6F8D0EDD
:101F6000AC6F15EC12F066D000F0F2AE04D0010EAA
:101F70000001CF6F02D00001CF6BF29EBBC0C1F059
:101F8000BCC0C2F0C46BF70EC36F0001BBC0F5F15B
:101F9000BCC0F6F1C1510101F55F0001C251010160
:101FA000F65BF651800AF36E810EF35CF40ED8B442
:101FB000F55D05E20001CF05D8B4F28E1200BBC07A
:101FC000C1F0BCC0C2F00001CF05D8B4F28E00F061
:101FD0000101010EDA6F8D0ED96FFF0EDC6FC60E98
:101FE000DB6FAEC0DDF1DE6BAFC0DFF1E06BB0C028
:101FF000E1F1E26BB1C0E3F1E46BB2C0E5F1E66B95
:10200000B3C0E7F1E86BB4C0E9F1EA6BB5C0EBF13E
:10201000EC6BB6C0EDF1EE6BFAEC01F0020E0001D4
:10202000AB6F680EAA6F010EAD6F8D0EAC6F15EC25
:1020300012F09AD7C3C0F5F1C4C0F6F10101F65110
:1020400093E1F55191E0F70AA0E08ED7CA51200D37
:10205000000EF3247E6F040EF4207F6F050E7A6F5E
:10206000400E796FCA510A0A05E1040E7C6F000E1A
:102070007B6F06D0200E7E257B6F000E7F217C6F4C
:102080007D6B20EE1CF07E51D9267F51DA22DF5085
:10209000746F74BF54D07FC061F07EC060F07CC0AC
:1020A00063F07BC062F06EEC09F060C077F061C055
:1020B00078F061D87551800A766F7751745D7851E8
:1020C000800A76590AE220EE0CF07E51D9267F5123
:1020D000DA22DE2A000EDD2203D020EE0CF056D8E4
:1020E0004AD820EE04F07E51D9267F51DA2274516D
:1020F000DE267551DE22000E75BFFF0EDE22DD22C8
:1021000020EE0EF043D8D92ADD1CFF0ED8B4DF181C
:1021100016E17FC06AF07EC069F034EC0DF020EE6D
:1021200010F07E51D9267F51DA2210EE0EF07E514A
:10213000E1267F51E222DECFE6FFDDCFE5FF7FC063
:102140007CF07EC07BF07A517F1902E179517E19D3
:1021500005E1040E7F6F000E7E6F04D0200E7E27F7
:10216000000E7F237D2B0A0E7D658BD7CA2BCA6597
:102170000A0CCA6B120020EE0CF07E51D9267F515A
:10218000DA22DECF74F0DDCF75F012007E51D92651
:102190007F51DA22DE06000EDD5A000CCEC0D5F1EA
:1021A000010E0101D66FD52B02D0D890D637D52F8E
:1021B000FCD7D651941265EC17F0000907E0CC0E5D
:1021C00045EC15F0BE0E45EC15F003D0000E0101F4
:1021D0007BD00101DD6BDE6B7ED8C1EC16F0DF6ECB
:1021E000010179D8DF50DD19D56FD66BA70ED52543
:1021F000F66EDA0ED621F76E0800F5CFDDF1DE2B94
:10220000080EDE65E9D7DD6702D0076702D0000E51
:102210005BD0005101C1D5F1D66BD5C1D6F1D56BDC
:10222000D511D76FD651D86F0F0ED7150001916F0A
:10223000926BC9EC1BF091C096F092C097F093C0DE
:1022400098F094C099F09A6B9B6B800E9C6F3D0E3A
:102250009D6FCFEC13F096C0D9F197C0DAF198C01A
:10226000DBF199C0DCF1D9C1C2F1DAC1C3F1DBC144
:10227000C4F1DCC1C5F10101040ED56FD835D833E6
:10228000D733D52FFBD7D7C191F0D8C192F0C9EC85
:102290001BF091C0C6F192C0C7F193C0C8F194C0C1
:1022A000C9F166EC0CF0C2C1D9F1C3C1DAF1C4C105
:1022B000DBF1C5C1DCF1D9C1D1F1DAC1D2F1DBC1A9
:1022C000D3F1DCC1D4F11200D16FD26F700ED36F95
:1022D000C20ED46FC20C000EDE25D96EDA6A010E72
:1022E000DA22120014EC1EF0020138050AE10A0E8F
:1022F000D2EC1DF0010EB01BB0B102D0899C01D010
:10230000898C020140050AE10A0ED2EC1DF0010E93
:10231000B11BB1B102D0899E01D0898E0201300576
:102320000AE10A0ED2EC1DF0010EAE1BAEB102D0D6
:102330008A9E01D08A8E020100050AE10A0ED2ECC3
:102340001DF0010EAF1BAFB102D08A9C01D08A8C68
:10235000020110050BE10001B36706D00A0ED2ECB2
:102360001DF0010EB41B02D0B36BB46B0201180553
:1023700008E10A0ED2EC1DF01F0EB36FB351D8A4C2
:10238000B46B0201580508E10001B35105E00A0EE3
:10239000D2EC1DF0B307B46B020160050BE11F0E18
:1023A0000001B35D04E20A0ED2EC1DF0B32BB35171
:1023B000D8A4B46B0201080505E10A0ED2EC1DF0A9
:1023C000010EB21B0201480507E10001B65104E00D
:1023D0000A0ED2EC1DF0B6070201500508E1020E0C
:1023E0000001B65D04E20A0ED2EC1DF0B62B02012C
:1023F000200508E10A0ED2EC1DF0B551010ED8A45B
:10240000000EB56F02012805D8A412000A0ED2EC06
:102410001DF0B55103E0956B966B04D0000E966FDE
:10242000020E956F95C0B5F012000101B96B000165
:1024300020EE01F0AA51D926AB51DA22DF50896F84
:10244000AAC0D9FFABC0DAFFDF507AEC1AF0010165
:10245000BA6B58D064D8DF5003E1010E0101B96FA7
:102460000101B90503E15BD8200EDF6E010157D8E9
:10247000DF500101B56FBA510001AA250101B66F05
:10248000000E0001AB210101B76F050EB625D96E14
:10249000000EB721DA6EDF50B5192AE054D8976BD9
:1024A0000101BA5144D8D96E000EB621DA6EDF5060
:1024B00047EC13F00101B86FB8510001D25F010180
:1024C0002ED80101BA5133D8E16E000EB621E26E6A
:1024D000DFCFE7FF38D8010E976F0101BA5127D837
:1024E000D96E000EB621DA6EDF5047EC13F008D03B
:1024F0002AD8020E976F010112D8DF5047EC13F073
:102500000101BA2B000120EE02F0AA51D926AB51ED
:10251000DA22DF500101BA5DD8B012009BD7BA5160
:102520000001AC25D96E000EAD21DA6E120000015B
:10253000AA250101B56F000E0001AB210101B66FA4
:10254000050EB5251200000120EE03F0AA51D92690
:10255000AB51DA22DECF95F0DDCF96F0120000F01D
:1025600058EC1CF04EEC08F0EEEC1BF0020E0101F2
:10257000BC6F8C0EBB6FBD6BBE6BF40EC06F520E8A
:10258000BF6F060EC16F7FEC19F0020E0101BC6F28
:10259000680EBB6FBD6B0A0EBE6FF40EC06F520E9D
:1025A000BF6F160EC16F7FEC19F0010EDA6F8D0E42
:1025B000D96FFF0EDC6FFB0EDB6FFAEC01F0020E41
:1025C0000001AB6F8C0EAA6F010EAD6F8D0EAC6F5C
:1025D00015EC12F0320E0001896F140E7AEC1AF02D
:1025E0004ED8410E47EC13F0280E896F010E7AEC9D
:1025F0001AF03DD8420E47EC13F01E0E896F640EA0
:102600007AEC1AF034D85E0E47EC13F0896B640E46
:102610007AEC1AF034D8890E47EC13F01E0E956F41
:102620003C0E966F976F050EB1EC17F0230E956F69
:102630000F0E966F976F3C0E4BEC1AF000F000F007
:10264000F28E0A0ED2EC1DF078EC0FF072EC11F065
:10265000BBEC0EF000F000F0ABB402D0ABA203D0A4
:10266000AB9800F0AB880400CEEC18F0EDD7DD0E8F
:102670000001966F0F0E956F010E976F010CF40E0F
:102680000001966F520E956F010E976F010C0001BD
:102690009A6FA16B95C0F6FF96C0F7FF0800F5CFC3
:1026A0009BF0952969D8F5CF9CF0E00E9A25A86F8C
:1026B000A96BFF0EA923A8C087F0A9C088F0020E5D
:1026C00095255AD8F550896F8A6B5CEC1DF087C050
:1026D000A8F088C0A9F0030EA827000EA92356D899
:1026E00098C0F6FF99C0F7FF0800F5CFA4F04ED8C8
:1026F00098299D6F000E99219E6FD3C0A3F0D2C080
:10270000A2F0A3C0A5F0A06B2DD0A2C0A6F0A76B2D
:102710009F6B23D0A7670BD09DC0F6FF9EC0F7FF2D
:102720000800F5CFA1F09D4B9E2B800EA76FA15105
:10273000A7150FE0970506E1A5C090F0A65156EC4D
:102740001BF007D0976705D0A5C090F0A651A9EC63
:102750001AF0A62BD890A7339F2B9C519F5DDAE3EC
:10276000A52BA02B9B51A05DD0E3A251A425D26F35
:10277000A3C0D3F0A4511200986F000E9621996F58
:1027800098C0F6FF99C0F7FF0800120095C098F0B6
:1027900096C099F0A8519827A9519923120096C084
:1027A0009EF097C09FF098C0A0F099C0A1F0180EBD
:1027B00001D073D8E82EFDD79E51A26F0001A26709
:1027C00005D0966B976B986B996B12009AC09EF030
:1027D0009BC09FF09CC0A0F09DC0A1F0180E01D03E
:1027E0005CD8E82EFDD79E51A86F0001A86705D0E0
:1027F000966B976B986B996B1200A8517B0FA22771
:1028000099C0A8F09D51A81B800EA817988F9C8F87
:102810009D6BA36BA46BA56BA66B070EA76F96A110
:1028200002D09A512BD832D89A379B379C379D3794
:10283000A72FF5D7110EA76F96A102D09A511ED8D7
:1028400025D8A633A533A433A333A72FF5D7A3C028
:1028500087F0A4C088F0A5C089F0A6C08AF0A2C005
:102860008BF0A8C08CF00DEC16F087C096F088C0F5
:1028700097F089C098F08AC099F01200A3279B5165
:10288000A4239C51A5239D51A6231200D8909933CF
:10289000983397339633D8901200D890A133A03351
:1028A0009F339E33120087C08FF088C090F089C09C
:1028B00091F08AC092F0180E01D072D8E82EFDD7A0
:1028C0008F51986F0001986705D0876B886B896B73
:1028D0008A6B12008BC08FF08CC090F08DC091F08D
:1028E0008EC092F0180E01D05BD8E82EFDD78F5124
:1028F000976F0001976701D0E8D7898F8A6B8D8F1A
:102900008E6B936B946B956B966B7F0E985F975164
:10291000A00F985F200E976FD89093379437953714
:1029200096378B51875D8C5188598D5189598E51BD
:102930008A5909E38B51875F8C51885B8D51895B84
:102940008E518A5B9381D8908737883789378A3749
:10295000972FE2D798AF0FD09851800A8F6FE10E72
:10296000800A8F5DB2E3D8909633953394339333D6
:10297000983FF9D70CD01F0E986507D0A6D7D890EE
:10298000933794379537963798079867F8D793C059
:1029900087F094C088F095C089F096C08AF0120044
:1029A000D8909233913390338F331200000189C055
:1029B0008FF0906B916B88358F3701E390818F5149
:1029C000976F0001976705D0876B886B896B8A6B5F
:1029D00012008DC08FF0906B916B8C358F3701E3B7
:1029E00090818F51966F0001966701D0EDD7888F47
:1029F000896B8C8F8D6B926B936B946B956B7F0E49
:102A0000975F9651980F975F180E966FD8909237F0
:102A10009337943795378B51875D8C5188598D51F9
:102A2000895907E38B51875F8C51885B8D51895B96
:102A30009281D890873788378937962FE7D797AF15
:102A40000FD09751800A8F6FE90E800A8F5DBCE32B
:102A5000D8909533943393339233973FF9D70CD072
:102A6000170E976507D0B0D7D89092379337943721
:102A7000953797079767F8D792C087F093C088F08B
:102A800094C089F095C08AF012008B6F000EF2BEE0
:102A9000010ECC6FF29E54D88B128C6BCEC089F095
:102AA000010E8A6F892B02D0D8908A37892FFCD7E4
:102AB0008A1D9416CEC089F0010E8A6F892B02D030
:102AC000D8908A37892FFCD78A1D8B16886B050E04
:102AD000876FDEEC1DF08CC089F0010E8A6F892BA8
:102AE00002D0D8908A37892FFCD78A518B1503E002
:102AF00027D88B120CD0CEC089F0010E8A6F892B9B
:102B000002D0D8908A37892FFCD78A1D8B16886B04
:102B10004E0E876FDEEC1DF013D88B12886B3C0EC7
:102B2000876FDEEC1DF08C2B070E8C65B7D7CCA120
:102B300001D0F28ECCB101D0F29E02D894121200D4
:102B4000CEC089F0010E8A6F892B02D0D8908A37C7
:102B5000892FFCD78A5112000101BAC1BEF1BBC155
:102B6000BFF1BCC1C0F1BDC1C1F1180E01D04FD839
:102B7000E82EFDD7BE51C36F0101C36705D0BA6B04
:102B8000BB6BBC6BBD6B1200BAC1BEF1BBC1BFF168
:102B9000BCC1C0F1BDC1C1F1200E01D038D8E82EB2
:102BA000FDD7BE51C26FBC8FBD6B960EC35FC3AF66
:102BB0000FD0C351800ABE6FE90E800ABE5DDFE30D
:102BC000D890BD33BC33BB33BA33C33FF9D70CD035
:102BD0001F0EC36507D0D3D7D890BA37BB37BC37E1
:102BE000BD37C307C367F8D7C25108E0BD1FBC1F7C
:102BF000BB1FBA6D000EBB23BC23BD23BAC1BAF103
:102C0000BBC1BBF1BCC1BCF1BDC1BDF11200D890CC
:102C1000C133C033BF33BE33120000018B5105E016
:102C20008A5187118811891107E1876B886B896B3D
:102C30008A6B12008B2B4AD88D6B8E6B8F6BFE0EBE
:102C40008A15906F90518D118E118F1108E0F2D777
:102C50008B2B872B000E882389238A2337D88D6BF3
:102C60008E6B8F6B8A51906F90518D118E118F11D9
:102C700007E0EED78B07D8908737883789378A37B0
:102C800089AFF8D78BB102D07F0E8917D8908B33DC
:102C90008BC08DF08E6B8F6B906B8DC090F08F6BB7
:102CA0008E6B8D6B8D5187138E5188138F518913C5
:102CB00090518A138C51D8A48A8F87C087F088C01E
:102CC00088F089C089F08AC08AF01200D8908A33CF
:102CD000893388338733120020EE16F06051D926ED
:102CE0006151DA22DFCF64F0DE2ADFCF65F0000E1B
:102CF000DD226251645D63516559D8A0120020EE57
:102D000016F06051D9266151DA22000EDE6EDD6EBA
:102D1000030E646F60C0D9FF61C0DAFF1AD8DE5EAF
:102D20006651DE5A6751DE5A6851DD5A030E646FF0
:102D300020EE04F06051D9266151DA220AD8DE264D
:102D40006651DE226751DE226851DD22DD52DD52FE
:102D50001200DECF65F0DECF66F0DECF67F0DECFAB
:102D600068F0646701D007D068356833673366332D
:102D70006533642FF6D760C0D9FF61C0DAFF6551B3
:102D8000120000018B6B000EF2BE010ECC6FF29EA2
:102D90003FD88B128C6BCEC089F0010E8A6F892BC5
:102DA00002D0D8908A37892FFCD78A1D9416CEC0BE
:102DB00089F0010E8A6F892B02D0D8908A37892F2B
:102DC000FCD78A1D8B16886B050E876FDEEC1DF015
:102DD0001FD89412886B100E876FDEEC1DF0D89010
:102DE0008B3316D8821402E08B8F01D08B9F886BB7
:102DF0004E0E876FDEEC1DF08C2B070E8C65CBD74B
:102E0000CCA101D0F28ECCB101D0F29E8B51120038
:102E1000CEC089F0010E8A6F892B02D0D8908A37F4
:102E2000892FFCD78A51120004EE00F011EE60F0F9
:102E3000EE6AE550E150FCE1E250FAE103EE00F009
:102E400011EE00F0EE6AE550E150FCE1E250FAE1EB
:102E500002EE00F0B00EEE6AE806FDE101EE00F0D1
:102E6000B50EEE6AE806FDE100EEAEF0270EEE6A62
:102E7000E806FDE100EE01F0260EEE6AE806FDE14F
:102E8000240EF66E3C0EF76E000EF86E01EEF7F0B3
:102E900010EE04F00900F5CFEEFFE550E150FAE145
:102EA000200EF66E3C0EF76E000EF86E00EED5F0BA
:102EB00010EE04F00900F5CFEEFFE550E150FAE125
:102EC000000EF86E0001AFEF12F032D8941600F049
:102ED0002FD88B16010E886F270E876FDEEC1DF042
:102EE000010E886F270E876FDEEC1DF0000EF2BE1C
:102EF000010ECC6FF29E29D89412886B4E0E876F0C
:102F0000DEEC1DF022D88214010ED8A4000E8B6FC7
:102F1000CCA101D0F28ECCB101D0F29E010E886F0F
:102F2000270E876FDEEC1DF08B5101E0010C000CC9
:102F3000CEC089F0010E00018A6F892B02D0D89093
:102F40008A37892FFCD78A1D1200CEC089F0010E66
:102F50008A6F892B02D0D8908A37892FFCD78A5163
:102F600012009B6F9B51965D06E29BC09AF096C043
:102F70009BF09AC096F09551975D06E295C09AF045
:102F800097C095F09AC097F09B51965D986F9551B8
:102F9000975D996F986703D0996701D01200995196
:102FA000985D15E39A6B0ED095C090F09B5156EC4E
:102FB0001BF09B2B99519A2798519A5D03E39851E6
:102FC0009A5F952B96519B5DD8B01200EDD79A6B06
:102FD0000ED095C090F09B5156EC1BF0952B98515C
:102FE0009A2799519A5D03E399519A5F9B2B9751C8
:102FF000955DD8B01200EDD7926B9051800AF36EB8
:10300000800EF35C000ED8B48F5D06E28F6D901FCA
:10301000D8B0902B010E926F8E51800AF36E800E05
:10302000F35C000ED8B48D5D06E28D6D8E1FD8B0B6
:103030008E2B010E921B936B946B90518F111BE0A2
:10304000010E916F04D0D8908F379037912B90AFAD
:10305000FAD7D890933794378F518D5D90518E5910
:1030600005E38F518D5F90518E5B9381D8909033A3
:103070008F33912FEED7925104E0936D941FD8B007
:10308000942B93C08DF094C08EF012008B6F8B51F7
:10309000080D000EF32400018C6F020EF4208D6FDA
:1030A0008CC0D9FF8DC0DAFF820EDF6E20EE01F0FA
:1030B0008C51D9268D51DA22020EDF6E20EE02F0FD
:1030C0008C51D9268D51DA2288C0DFFF8751200D1F
:1030D000000E896F040E8A6FF3508927F4508A23FB
:1030E00020EE04F08C51D9268D51DA2289C0DEFF02
:1030F0008AC0DDFF20EE06F08C51D9268D51DA22F0
:10310000DE6A190EDD6E20EE03F08C51D9268D514A
:10311000DA22010EDF6E010C8C6B8851800AF36E8F
:10312000800EF35C000ED8B4875D06E2876D881FC1
:10313000D8B0882B010E8C6F8A51800AF36E800EF6
:10314000F35C000ED8B4895D04E2896D8A1FD8B0A3
:103150008A2B8A51891117E0010E8B6F04D0D89009
:1031600089378A378B2B8AAFFAD78951875D8A5185
:10317000885904E38951875F8A51885BD8908A33E4
:1031800089338B2FF2D78C5104E0876D881FD8B01C
:10319000882B87C087F088C088F012000001876BF9
:1031A0008751010FD96EDA6A020EDF6205D08751AE
:1031B000010FD96EDA6ADF6A8751010FD96EDA6AB8
:1031C000010EDF6203D08751010F20D8872B090E33
:1031D0008765E6D7876B8751CB0FD96EDA6A020E07
:1031E000DF6205D08751CB0FD96EDA6ADF6A87516B
:1031F000CB0FD96EDA6A010EDF6203D08751CB0F95
:1032000005D8872B8751D8A41200E5D7D96EDA6A82
:10321000020EDF6E020C8F6B906B916B926B8E5176
:103220008B118C118D1129E0010E936F06D0D8906F
:103230008B378C378D378E37932B8EAFF8D7D8904E
:103240008F379037913792378B51875D8C518859E2
:103250008D5189598E518A5909E38B51875F8C5161
:10326000885B8D51895B8E518A5B8F81D8908E33BC
:103270008D338C338B33932FE2D78FC087F090C080
:1032800088F091C089F092C08AF01200DACF84F001
:10329000F3CF85F0F4CF86F09DB29EA209D0000155
:1032A000BF4BC02BBB4BBC2B26EC10F0BC6A9E92D4
:1032B0007DB07EA017D00001BE51BD110FE0BD074B
:1032C000D8A0BE078988C92BC905806F80A102D00C
:1032D000899801D0898800F000F001D089980F0109
:1032E000536B7E9086C0F4FF85C0F3FF84C0DAFF85
:1032F00083C0D9FF82C0E2FF81C0E1FF110020EE50
:1033000002F0BB51D926BC51DA22C1C1DFFF20EE49
:1033100003F0BB51D926BC51DA22BFC1DEFFC0C1C8
:10332000DDFFBBC1D9FFBCC1DAFFBDC1DFFF20EEAD
:1033300001F0BB51D926BC51DA22BEC1DFFF20EE1D
:1033400005F0BB51D926BC51DA22DF6ABCC1ABF013
:10335000BBC1AAF0050E0101BB250001AC6F000E38
:103360000101BC210001AD6F15EF12F000018D6F5E
:103370008C6A9568400ED25D03E28B868B9405D0F3
:103380003F0ED26502D08B968B848D828D848F6B9D
:1033900001D08F2B070E8F65FCD78D808F6B01D0EE
:1033A0008F2B070E8F65FCD783CF8EF08D908F6BA0
:1033B00001D08F2B070E8F65FCD7956A8D6702D0E1
:1033C000D22B05D0D3C089F0D2517AEC1AF000018B
:1033D0008E5112009B51981199119A1123E0010E00
:1033E0009C6F06D0D890983799379A379B379C2B8B
:1033F0009BAFF8D79851945D995195599A51965928
:103400009B51975908E39851945F9951955B9A5154
:10341000965B9B51975BD8909B339A339933983343
:103420009C2FE8D794C094F095C095F096C096F084
:1034300097C097F012002E6E2E50D96EDA6A275080
:10344000DE1A000EDD1A2D6A2E50D96EDA6ADF50B0
:10345000010B2C6E2E50D96EDA6ADECF28F0DDCF4C
:1034600029F0D89029302B6E28302A6E2E50D96E34
:10347000DA6A2AC0DEFF2BC0DDFF2C5007E02E5099
:10348000D96EDA6A010EDE1AA00EDD1A2D2A070E99
:103490002D64DAD7070C9D6F95C09FF014D09DC0A6
:1034A0009EF006D09FC090F09E5156EC1BF09E2BD4
:1034B00096519DC098F0996B9827000E99239E51C4
:1034C0000ED8F0E39F2B975195C098F0996B9827F1
:1034D000000E99239F5103D8D8B01200E0D79A6FFD
:1034E0009B6B9B51800A9C6F98519A5D9951800A01
:1034F0009C5912008C6F8A6B7F0E8C6501D08C6B8F
:103500003F0E896501D0896B8CC0D2F089C0D3F0A1
:103510008939E8461F0BD46F3F0E8C6504D0400EEE
:103520008C5F010E8A6F8C5140098B6F8AC087F0C7
:103530008B5149EC1DF00001D451B8098B6F876B9A
:103540008B5149EC1DF0010E0001876F8B5149EF43
:103550001DF0936F90C089F093517AEC1AF0010E30
:10356000B6EC19F0946F010EB6EC19F0946F90C0A0
:1035700091F016D802D0D8909237912FFCD7925163
:103580009415D8B4120090C091F00AD802D0D89007
:103590009237912FFCD7921D9417945113EF1CF082
:1035A000070E9117010E926F912B010C370EFAEC5A
:1035B0001DF0366A0CD02FC0D9FF30C0DAFFDF50C3
:1035C000276E370E1BEC1AF02F4A302A362A31505C
:1035D000365CF1E32FC0D9FF30C0DAFF2F4A302A22
:1035E0003750DF62000C2FC0D9FF30C0DAFFDF5048
:1035F000326E38C033F033C034F0356A345032188C
:1036000001E1010C000C346A356AA70E3424F66E11
:10361000DB0E3520F76E0800F5CF32F034C02CF009
:1036200035C02DF0330E2E6E010E2F6E82EC1DF084
:10363000325033180AE034C02EF035C02FF0320E6D
:10364000306E010E316EF7EC1CF0344A352A000E54
:10365000345C010E3558D8B01200D7D7360EFAECCC
:103660001DF0356A0CD02FC0D9FF30C0DAFFDF5013
:10367000276E360E1BEC1AF02F4A302A352A3150AD
:10368000355CF1E337C032F032C033F0346A335086
:103690002FC0D9FF30C0DAFFDF6E2F4A302A2FC08B
:1036A000D9FF30C0DAFF36C0DFFF1200936F90C041
:1036B00089F093517AEC1AF0010EB6EC19F0946F80
:1036C000010EB6EC19F0946F90C091F00AD89415E1
:1036D000D8A4120090C091F004D89413945113EF21
:1036E0001CF0070E9117010E926F912B02D0D8900B
:1036F0009237912FFCD79251120065EC17F0000918
:1037000006E0CC0E45EC15F0440E45EC15F0886B48
:10371000100E876FDEEC1DF010D802D0D8908E37D7
:103720008D2FFCD78E1D941608D802D0D8908E37D6
:103730008D2FFCD78E518B121200CEC08DF0010E52
:103740008E6F8D2B010C8AAF09D0876D881FD8B082
:10375000882B891FD8B0892B800E8A578EAF09D04D
:103760008B6D8C1FD8B08C2B8D1FD8B08D2B800EFD
:103770008E57800E8A1B8E1B8B51875D8C5188590A
:103780008D5189598E518A5902E2D8901200D88001
:1037900012000001956B9251800AF36E800EF35C6B
:1037A000000ED8B4915D05E2916D921FD8B0922BB6
:1037B000952B91C087F092C088F0896B8A6B960E2A
:1037C0008B6F95C08CF00DEC16F087C091F088C01F
:1037D00092F089C093F08AC094F012009496949469
:1037E00094909690969296948B80010E0DEC1DF01D
:1037F000D26BD36BD46B876B3F0E49EC1DF0010E7F
:103800000001876F3F0E49EC1DF00001876BC00E71
:1038100049EC1DF0010E0001876FC00E49EC1DF050
:10382000000EC8EF1CF0896F7F0ED26501D07F0CAF
:10383000400ED25D03E28B868B9405D03F0ED2659D
:1038400002D08B968B84D251400A05E1010E876F1E
:10385000400E49EC1DF08D928D84956A89C08CFFD5
:10386000E0EC1CF00001D22B8C6A120028C02AF078
:103870002AC02BF02C6A2B50030BAA6E27C0A9FF7D
:1038800029C0A8FFA69EA69CA684000EF2BE010E2B
:103890002D6EF29E550EA76EAA0EA76EA682A6B238
:1038A000FED72DB002D0F29E01D0F28EA694120067
:1038B0000001876B8751010FD96EDA6ADF6A872BA7
:1038C000090E8765F7D7876B8751CB0FD96EDA6AF8
:1038D000DF6A872B8751F8E0876B87510B0FD96E12
:1038E000DA6ADF6A872B030E8765F7D7030C0101BD
:1038F000800ED81BD1C1C2F1D2C1C3F1D3C1C4F172
:10390000D4C1C5F1D5C1C6F1D6C1C7F1D7C1C8F17F
:10391000D8C1C9F166EC0CF0C2C1D1F1C3C1D2F17A
:10392000C4C1D3F1C5C1D4F1120000018C6F8E6BFC
:103930008B5114E0010E8D6F03D0D8908B378D2BF7
:103940008BAFFBD7D8908E378B518C5D03E38B51B7
:103950008C5F8E81D8908B338D2FF4D78E511200CF
:1039600091C087F092C088F093C089F094C08AF02B
:10397000960E00018B6F000E8C6B0DEC16F087C05D
:1039800091F088C092F089C093F08AC094F0120040
:1039900000018D6F8F6B8F51080DF3CF89F0000EF2
:1039A0007AEC1AF000018E6B8D5113EC1CF08E2B0B
:1039B0007F0E8E65F9D78F2B070E8F65ECD7070C1E
:1039C000010E0001CD6F000100F000F000F000F0EA
:1039D00000F0CD2FE4EF1CF08D8000F000F000F03F
:1039E00000F000F0CD2FEDEF1CF08D90010C10D009
:1039F0000DEC1EF031502E24276E000E2F20286E65
:103A000030503124D96EDA6ADF50296E36EC1CF062
:103A100031063128D8B41200EBD7876F040E886FB7
:103A2000FA0ECD6F000100F000F000F000F000F0A1
:103A3000CD2F13EF1DF000F00001882FF1D7872F55
:103A4000EDD7FA0C0001886F080E896F8A6BD89049
:103A500088358A358A6FD890883787518A5D02E326
:103A600087518A5F892FF3D78A511200000120EE17
:103A700087F0DE50DE10DE10DE1002E0800E8A1BC2
:103A800087C087F088C088F089C089F08AC08AF032
:103A90001200886F876703D08B868B9404D08705CC
:103AA00002E18B968B848D928D94956A88C08CFFF1
:103AB000E0EC1CF08C6A120087518903F3CF8BF085
:103AC000F4CF8CF087518A03F3508C2788518903F7
:103AD000F3508C278BC087F08CC088F01200266AC8
:103AE000276A286A00F09EBA07D0274A282A100EB3
:103AF000275C270E2858F6E39EBA03EF1EF0010E4E
:103B0000266E000C0DD02E502F24D96EDA6A2F505D
:103B10002C24276E000E2D20286E95EC1DF0DF6EF4
:103B20002F062F28D8B41200EED728C029F029C0BC
:103B30002AF02B6A2A50030BAA6E27C0A9FFA69C65
:103B4000A69EA68000F000F0A85012000001896F28
:103B5000886B3A0E895D05E22F0E896502D0010E51
:103B6000886F88C087F087311200670EAF6EAC9403
:103B7000B896AC98AB8EAB88AB9A9D989D9AAC9C4E
:103B8000AB9CAC9AAC8A670CC26AC16AC06AC08E30
:103B9000C050C70B0809C06EC050F80B0109C06EB9
:103BA000C28012000001876F92988751280DF3CFD1
:103BB000BDF0F4CFBEF0010E236E010C01D000F079
:103BC00000018707D8A088078729D8B48829D8B4E6
:103BD0001200F5D7276E2750010FD96EDA6A010E51
:103BE000DF6E010C276E27500B0FD96EDA6A010EBB
:103BF000DF6E010C276E2750D96EDA6ADE68DD6849
:103C0000FF0C01D000F09EAAFDD7AE501200276E27
:103C1000ACA2FED727C0ADFF1200A6A21200FDD7AE
:103C20000000A0410000C8C285EF0AF0FF00FF00BD
:10DAA000FF00FF00FF0000005EBCE2613FDD83C2BB
:10DAB0009C7E20A3FD1F419DC3217FFCA2401E5FD1
:10DAC00001E3BD3E6082DC237D9FC1421CFEA0E1DC
:10DAD000BF5D0380DE3C62BEE0025CDF81633D7CB3
:10DAE00022C09E1D43A1FF4618FAA427799BC58436
:10DAF000DA3866E5BB5907DB856739BAE406581999
:10DB000047A5FB7826C49A653BD987045AB8E6A78F
:10DB1000F91B45C6987A24F8A6441A99C7257B3A7A
:10DB20006486D85B05E7B98CD2306EEDB3510F4EE9
:10DB300010F2AC2F7193CD114FADF3702ECC92D368
:10DB40008D6F31B2EC0E50AFF1134DCE90722C6D43
:10DB500033D18F0C52B0EE326C8ED0530DEFB1F04A
:10DB6000AE4C1291CF2D73CA947628ABF5174908A5
:10DB700056B4EA6937D58B5709EBB536688AD49520
:10DB8000CB2977F4AA4816E9B7550B88D6346A2B07
:10DB90007597C94A14F6A8742AC896154BA9F7B602
:10DBA000E80A54D7896B350100000000000000002E
:10DBB0000000000000000000000000000000000065
:10DBC0000000000000000000000000000000000055
:10DBD0000000000000000000000000000000000045
:10DBE0000000000000000000000000000000000035
:10DBF0000000000000000000000000000000000025
:10DC00000000000000000000000000000000000014
:10DC10000000000000000000000000000000000004
:10DC200000000000000000000000000000000000F4
:10DC300000000000000000000000000000000000E4
:10DC400000000000000000000000000000000000D4
:10DC500000000000000000000000000000000000C4
:10DC600000000000000000000000000000000000B4
:10DC700000000000000000000000000000000000A4
:10DC80000000000000000000000000000000000094
:10DC90000000000000000000000000000000000084
:10DCA000000000000000000000803FCDCCCC3D0A09
:10DCB000D7233C6F12833A17B7D138ACC52737BD8D
:10DCC00037863595BFD63377CC2B325F708930FFDE
:10DCD000E6DB2E08E53C1E6042A20D0000803F00FE
:10DCE0000020410000C84200007A4400401C460069
:10DCF00050C347002474498096184B20BCBE4C2862
:10DD00006B6E4EF9021550EC78AD60CAF24971178E
:10DD1000205D07000000000000000000000000007F
:10DD200000000000000000000000000000000000F3
:10DD300000000000000000000000000000000000E3
:10DD400000000000000000000000000000000000D3
:10DD500000000000000000000000000000000000C3
:10DD600000000000000000000000000000000007AC
:10DD700000000000000000000000000000000000A3
:10DD80000000000070000000700000007000000043
:10DD900070000000700000007000000070000000C3
:10DDA0007000000070000000700000000000000023
:10DDB0000000000070000000700000000000000083
:10DDC000000000000000000000000000090000004A
:10DDD00000000000000000000000000000770000CC
:10DDE0000077000000770000007700000077000057
:10DDF0000000000000000000000000000000000023
:10DE00000000000000000000000000000000000012
:10DE10000000000000000000000000000000000002
:10DE200000000000000000000010000000000000E2
:10DE300000000000000000000000000000000318C7
:10DE4000000003180000073000001FFC00001FFC4A
:10DE5000000006300000063000000C6000007FF873
:10DE600000007FF800000C6000000C60000018C08B
:10DE7000000018C0000000000000000000000000CA
:10DE80000000000000000C00000000000000000086
:10DE90000000000000000000000000060000000676
:10DEA0000000001FC000003FC00000764000007668
:10DEB0000000007E0000003FC000001FE0000007DF
:10DEC000E0000046E0000066E000007FC000003F88
:10DED00080000006000000060000000600000000B0
:10DEE000000000170000000000000000000000001B
:10DEF00000000000000000001E0300003F060000BC
:10DF000073860000738C0000738C00007398F0001F
:10DF10007399F8003F339C001E339C0000639C0003
:10DF200000639C0000C39C0000C1F8000180F00069
:10DF300000000000000000000000000000000000E1
:10DF40000F000000000000000000000000000000C2
:10DF500000000000000F8000001FE0000038E0001B
:10DF60000038E000003CE000001FC000001F1C0063
:10DF7000003F9C000073DC000071F8000070F800A6
:10DF800000787800003FFE00000F9F0000000000B6
:10DF9000000000000000000000000000000500007C
:10DFA0000000000000000000000000000000700001
:10DFB00000007000000070000000700000007000A1
:10DFC0000000000000000000000000000000000051
:10DFD0000000000000000000000000000000000041
:10DFE0000000000000000000000000000000000031
:10DFF0000000000000000000000009000000000018
:10E0000000000000000000000000000F0000001EE3
:10E010000000001C0000003C000000380000003838
:10E020000000007000000070000000700000007030
:10E030000000007000000070000000700000003858
:10E04000000000380000003C0000001C0000001E22
:10E050000000000F000000090000000000000000A8
:10E060000000000000000000780000003C000000FC
:10E070001C0000001E0000000E0000000E0000004A
:10E080000700000007000000070000000700000074
:10E090000700000007000000070000000E0000005D
:10E0A0000E0000001E0000001C0000003C000000EC
:10E0B000780000000C0000000000000000000000DC
:10E0C0000000000000060000002640000076E0008E
:10E0D000001F8000000F0000001F80000076E0009D
:10E0E00000264000000600000000000000000000C4
:10E0F0000000000000000000000000000000000020
:10E10000000000000000000000000000000000000F
:10E1100000100000000000000000000000000000EF
:10E12000000000000000000000000000000001806E
:10E1300000000180000001800000018000000180DB
:10E1400000003FFC00003FFC000001800000018057
:10E15000000001800000018000000180000000003C
:10E1600000000000000000000000000000000600A9
:10E17000000000000000000000000000000000009F
:10E18000000000000000000000000000000000008F
:10E19000000000000000000000000000000000007F
:10E1A00000000000000000000000003800000070C7
:10E1B000000000700000006000000060000000E04F
:10E1C000000000C000000000000000080000000087
:10E1D000000000000000000000000000000000003F
:10E1E000000000000000000000000000000000002F
:10E1F0000000000000000000000000007E000000A1
:10E200007E0000007E000000000000000000000012
:10E2100000000000000000000000000000000000FE
:10E2200000000000000000000600000000000000E8
:10E2300000000000000000000000000000000000DE
:10E2400000000000000000000000000000000000CE
:10E2500000000000000000000000000000000000BE
:10E26000000000000070000000700000007000005E
:10E27000007000000000000000000000000000002E
:10E2800000000000000B0000000000000000000083
:10E290000000000000000380000003800000070071
:10E2A000000007000000070000000E0000000E0044
:10E2B00000000E0000000E0000001C0000001C000A
:10E2C00000001C0000001C000000380000003800A6
:10E2D0000000380000007000000070000000000026
:10E2E00000000C0000000000000000000000000022
:10E2F000000000000000000F0000003FC0000039D7
:10E30000C0000070E0000070E0000070E0000070ED
:10E31000E0000070E0000070E0000070E0000070BD
:10E32000E0000039C000003FC000000F0000000006
:10E330000000000000000000000000000000000CD1
:10E3400000000000000000000000000000000000CD
:10E350000000000007000000070000003F00000070
:10E360003F00000007000000070000000700000059
:10E370000700000007000000070000000700000081
:10E38000070000003FE000003FE000000000000048
:10E390000000000000000000000000000C00000071
:10E3A000000000000000000000000000000000006D
:10E3B000003F8000007FC0000061E0000040E000FE
:10E3C0000000E0000000E0000001E0000003C000E9
:10E3D00000078000000F0000001E0000003C00004D
:10E3E000007FF000007FF00000000000000000004F
:10E3F0000000000000000000000C00000000000011
:10E4000000000000000000000000000000003F804D
:10E4100000007FC0000060E0000040E0000001E07C
:10E4200000000F8000000FC0000001E0000000E0CD
:10E43000000000E0000040E0000061E000007FC05C
:10E4400000003F000000000000000000000000008D
:10E450000000000000000C000000000000000000B0
:10E46000000000000000000000000001C0000003E8
:10E47000C0000007C0000007C000000DC000001968
:10E48000C0000019C0000031C0000061C000007F62
:10E49000F000007FF0000001C0000001C00000019A
:10E4A000C0000000000000000000000000000000AC
:10E4B0000000000C00000000000000000000000050
:10E4C00000000000000000003FE000003FE000000E
:10E4D0003800000038000000380000003F800000D5
:10E4E0003FC0000001E0000000E0000000E000008C
:10E4F00040E0000061C000007FC000003F0000005D
:10E50000000000000000000000000000000000000B
:10E510000C000000000000000000000000000000EF
:10E52000000000000007C000001FC000003C000009
:10E53000003800000070000000778000007FC000FD
:10E540000071E0000070E0000070E0000070E0008A
:10E550000039E000003FC000000F80000000000014
:10E56000000000000000000000000000000C00009F
:10E57000000000000000000000000000000000009B
:10E5800000007FE000007FE0000000E0000001C02C
:10E59000000001C000000380000007000000070029
:10E5A00000000E0000000E0000001C0000003800FB
:10E5B00000003800000070000000000000000000B3
:10E5C000000000000000000000000C00000000003F
:10E5D0000000000000000000000000000000001F1C
:10E5E0008000003FC0000070E0000070E00000709C
:10E5F000E000003FC000001F8000003FC00000712D
:10E60000E0000070E0000070E0000079E000003FF2
:10E61000C000001F8000000000000000000000009B
:10E62000000000000000000C0000000000000000DE
:10E630000000000000000000000000000F000000CB
:10E640003FC0000039C0000070E0000070E0000032
:10E6500070E0000078E000003FE000001EE00000F5
:10E6600000E0000001C0000003C000003F80000087
:10E670003E0000000000000000000000000000005C
:10E680000000000007000000000000000000000083
:10E69000000000000000000000000000000000007A
:10E6A00000000000000000000038000000380000FA
:10E6B00000380000003800000000000000000000EA
:10E6C000003800000038000000380000003800006A
:10E6D000000000000000000000000000000000003A
:10E6E0000007000000000000000000000000000023
:10E6F000000000000000000000000000000000001A
:10E700000000000000003800000038000000380061
:10E7100000003800000000000000000000001C00A5
:10E720000000380000003800000030000000300019
:10E7300000007000000060000000000000001000F9
:10E7400000000000000000000000000000000000C9
:10E7500000000000000000000000000004000000B5
:10E760003C000000FC000003F800001FC000003F58
:10E770000000003F0000001FC0000003F800000080
:10E78000FC0000003C00000004000000000000004D
:10E790000000000000000000000000100000000069
:10E7A0000000000000000000000000000000000069
:10E7B0000000000000000000000000000000000059
:10E7C0003FF800003FF800000000000000000000DB
:10E7D000000000003FF800003FF8000000000000CB
:10E7E0000000000000000000000000000000000029
:10E7F0000000000000000000100000000000000009
:10E800000000000000000000000000000000000008
:10E810000000000000200000003C0000003F00005D
:10E82000001FC0000003F8000000FC000000FC0016
:10E830000003F800001FC000003F0000003C000083
:10E8400000200000000000000000000000000000A8
:10E8500000000000000B00000000000000000000AD
:10E86000000000000000000000003F0000007F806A
:10E8700000007FC0000043C0000001C0000001C0D4
:10E880000000038000000F0000001E0000001C00BC
:10E8900000001C000000000000001C0000001C0024
:10E8A0000000000000000000000000000000000068
:10E8B0000000110000000000000000000000000047
:10E8C0000000000000000003E000000FF800001C42
:10E8D0001C00003806000031F6000063F3000066FB
:10E8E00033000066330000663300006633000063C7
:10E8F000FE000033FE0000380000001C1000000F76
:10E90000F0000003F0000000000000000000000D17
:10E9100000000000000000000000000000000000F7
:10E92000000000000F8000000F8000000F8000003A
:10E930001DC000001DC000001DC0000038E0000028
:10E9400038E0000038E000007FF000007FF00000B9
:10E9500070700000F0780000E03800000000000057
:10E960000000000000000000000000000D0000009A
:10E970000000000000000000000000000000000097
:10E98000007F8000007FC0000071E0000070E000A8
:10E990000070E0000071C000007F8000007FE00098
:10E9A0000070F00000707000007070000070F000E7
:10E9B000007FE000007FC0000000000000000000B9
:10E9C0000000000000000000000D0000000000003A
:10E9D000000000000000000000000000000007E050
:10E9E00000001FF000003C300000381000007000F4
:10E9F0000000700000007000000070000000700057
:10EA0000000070000000381000003C3000001FF0D3
:10EA1000000007E00000000000000000000000000F
:10EA20000000000000000E000000000000000000D8
:10EA300000000000000000000000007F8000007F58
:10EA4000E0000070F000007070000070380000708E
:10EA50003800007038000070380000703800007016
:10EA60003800007070000070F000007FE000007F50
:10EA70008000000000000000000000000000000016
:10EA80000000000C0000000000000000000000007A
:10EA900000000000000000007FE000007FE00000B8
:10EAA0007000000070000000700000007FE00000B7
:10EAB0007FE00000700000007000000070000000A7
:10EAC00070000000700000007FE000007FE00000A8
:10EAD0000000000000000000000000000000000036
:10EAE0000B0000000000000000000000000000001B
:10EAF00000000000007FE000007FE00000700000E8
:10EB00000070000000700000007FE000007FE00067
:10EB10000070000000700000007000000070000035
:10EB20000070000000700000007000000000000095
:10EB3000000000000000000000000000000E0000C7
:10EB400000000000000000000000000000000000C5
:10EB5000000007E000001FF800003C380000380803
:10EB60000000700000007000000071F8000071F8F3
:10EB700000007038000070380000383800003C3861
:10EB800000001FF8000007E0000000000000000087
:10EB9000000000000000000000000F000000000066
:10EBA00000000000000000000000000000000070F5
:10EBB0001C0000701C0000701C0000701C00007025
:10EBC0001C00007FFC00007FFC0000701C00007037
:10EBD0001C0000701C0000701C0000701C00007005
:10EBE0001C0000701C00000000000000000000007D
:10EBF000000000000000000900000000000000000C
:10EC00000000000000000000000000007F00000085
:10EC10007F0000001C0000001C0000001C00000021
:10EC20001C0000001C0000001C0000001C00000074
:10EC30001C0000001C0000001C0000007F00000001
:10EC40007F00000000000000000000000000000045
:10EC5000000000000A0000000000000000000000AA
:10EC60000000000000000000003F8000003F800026
:10EC70000003800000038000000380000003800088
:10EC80000003800000038000000380000003800078
:10EC9000000380000007800000FF000000FC00006F
:10ECA0000000000000000000000000000000000064
:10ECB000000D000000000000000000000000000047
:10ECC0000000000000007078000070F0000071E0AB
:10ECD000000073C0000073800000778000007F0098
:10ECE00000007F0000007B80000073C0000071E026
:10ECF000000070E0000070F000007078000000007C
:10ED000000000000000000000000000000000B00F8
:10ED100000000000000000000000000000000000F3
:10ED20000000007000000070000000700000007023
:10ED30000000007000000070000000700000007013
:10ED40000000007000000070000000700000007003
:10ED50000000007FE000007FE000000000000000F5
:10ED60000000000000000000000000110000000092
:10ED70000000000000000000000000000000000093
:10ED8000780F00007C0F00007C1F00007E1F000039
:10ED90007E3F000076370000777700007367000041
:10EDA00073E7000073E7000071C700007007000000
:10EDB0007007000070070000000000000000000065
:10EDC00000000000000000000F0000000000000034
:10EDD000000000000000000000000000007C1C009B
:10EDE000007C1C00007E1C00007F1C0000771C00C3
:10EDF00000779C0000739C000071DC000071FC0037
:10EE00000070FC0000707C0000707C0000703C0012
:10EE100000703C0000000000000000000000000046
:10EE200000000000000F00000000000000000000D3
:10EE30000000000000000000000007C000001FF0FC
:10EE400000003C78000038380000701C0000701C86
:10EE50000000701C0000701C0000701C0000701C82
:10EE60000000383800003C7800001FF0000007C0A8
:10EE70000000000000000000000000000000000092
:10EE800000000C0000000000000000000000000076
:10EE9000000000000000007FC000007FE000007064
:10EEA000F000007070000070700000707000007062
:10EEB000E000007FE000007F800000700000007034
:10EEC00000000070000000700000007000000000F2
:10EED0000000000000000000000000000000000F23
:10EEE0000000000000000000000000000000000022
:10EEF0000000000007C000001FF000003C78000088
:10EF000038380000701C0000701C0000701C0000ED
:10EF1000701C0000701C0000701C000038380000DD
:10EF20003C7800001FF0000007C0000001C0000096
:10EF300001C0000000FC0000007C00000E0000008A
:10EF400000000000000000000000000000000000C1
:10EF5000007FC000007FE0000070F00000707000D3
:10EF600000707000007070000070E000007FC00052
:10EF7000007FC0000071C0000071E0000070F00070
:10EF80000070780000703C000000000000000000ED
:10EF90000000000000000000000C00000000000065
:10EFA00000000000000000000000000000001F80C2
:10EFB00000003FC0000078C00000704000007000FA
:10EFC00000007E0000003F8000001FE0000007E01E
:10EFD000000000E0000040E0000061E000007FC0B1
:10EFE00000003F00000000000000000000000000E2
:10EFF0000000000000000C00000000000000000005
:10F000000000000000000000000000FFE00000FF22
:10F01000E000000E0000000E0000000E0000000ED8
:10F020000000000E0000000E0000000E0000000EA8
:10F030000000000E0000000E0000000E0000000E98
:10F0400000000000000000000000000000000000C0
:10F050000000000E000000000000000000000000A2
:10F060000000000000000000703800007038000050
:10F0700070380000703800007038000070380000F0
:10F0800070380000703800007038000070380000E0
:10F0900070380000387000003FF000000FC0000022
:10F0A0000000000000000000000000000000000060
:10F0B0000D00000000000000000000000000000043
:10F0C0000000000000E03800007070000070700068
:10F0D000007070000038E0000038E0000038E00008
:10F0E000001DC000001DC000001DC000000D8000FC
:10F0F000000F8000000F80000007000000000000EB
:10F1000000000000000000000000000000140000EB
:10F1100000000000000000000000000000000000EF
:10F120000000E0F07000E0F0700070F0E00070F0BF
:10F13000E00071F8E00071F8E0003999C0003B9DF3
:10F14000C0003B9DC0001B0D80001B0F80001F0FE7
:10F1500080001E0F80000E0700000000000000006D
:10F16000000000000000000000000D000000000092
:10F17000000000000000000000000000000000E0AF
:10F180003800007070000038E000003DE000001D15
:10F19000C000000F80000007000000070000000F03
:10F1A0008000001DC000003DE0000038E00000705D
:10F1B000700000E0380000000000000000000000C7
:10F1C000000000000000000D000000000000000032
:10F1D000000000000000000000000000F0780000C7
:10F1E0007070000038E0000038E000001DC0000032
:10F1F0001FC000000F800000070000000700000093
:10F2000007000000070000000700000007000000E2
:10F2100007000000000000000000000000000000E7
:10F22000000000000C0000000000000000000000D2
:10F230000000000000000000007FE000007FE00010
:10F240000000E0000001C000000380000003800017
:10F2500000070000000E0000001C0000001C000061
:10F260000038000000700000007FE000007FE00038
:10F27000000000000000000000000000000000008E
:10F280000008000000000000000000000000000076
:10F2900000000000000000000000380000003800FE
:10F2A0000000380000007F0000007F0000003800F0
:10F2B000000038000000380000003800000038006E
:10F2C0000000380000003F0000001F0000000000A8
:10F2D000000000000000000000000000000010001E
:10F2E000000000000000000000000000000000001E
:10F2F000000000000000000000000000000000000E
:10F30000000000000000001E0600003F0600003361
:10F3100086000061CC000060FC0000607800000006
:10F3200000000000000000000000000000000000DD
:10F3300000000000000000000000000A00000000C3
:10F3400000000000000000000000000000000000BD
:10F350001E0000003F00000061800000618000008E
:10F36000718000003F0000001E000000000000004F
:10F37000000000000000000000000000000000008D
:10F38000000000000000000000000000000000007D
:10F390000000000000000000083F0000003F0000E7
:10F3A000003E0000007E0000007C0000007C0000A9
:10F3B00000780000007800000073000000FF0000EB
:10F3C00000FA000000F6000000C60000000C00007B
:10F3D000000C0000001800000018000000FF0000F2
:10F3E000007E0000007C00000038000000300000BB
:10F3F00000000000002000C0000004C8000006D883
:10F40000000013F2000011E20000B0C34000F8C792
:10F41000C00078C78000FCCFC000CFFCC00007F858
:10F42000000003F0000007F80000CFFCC000FCCF94
:10F43000C00078C78000F8C7C000B1E3400013F2F5
:10F44000000006D8000004C8000000C00000000052
:10F4500000000D101B040000000000000000000070
:10F46000000000000000000000000000000000009C
:10F470000400000000600060006000600060006048
:10F4800000600000006000000000000600000000B6
:10F490006C006C006C000000000000000000000028
:10F4A0000000000000000800000000360036007F69
:10F4B000003600360036007F0036003600000000BF
:10F4C00000070000000018003C007E0078003800B3
:10F4D0001C001E007E003C00180000000900000017
:10F4E0000038006D803B0006000C00180037006DEE
:10F4F00080070000000000070000000030007800D6
:10F500007800300030007E006C006C003E0000008F
:10F5100000000300000000600060006000000000C8
:10F5200000000000000000000000000000040000D7
:10F53000000030006000600060006000600060005B
:10F5400060006000600030000400000000600030D7
:10F55000003000300030003000300030003000302B
:10F560000060000500000000780030007800000016
:10F570000000000000000000000000000000070084
:10F58000000000000000000000180018007E0018B5
:10F59000001800000000000000040000000000004F
:10F5A000000000000000000000000000000030002B
:10F5B00060000000040000000000000000000000E7
:10F5C00000000070000000000000000000000004C7
:10F5D000000000000000000000000000000000002B
:10F5E0000000000060000000000006000000000CA9
:10F5F000000C000C001800180030003000600060A3
:10F60000000000000007000000003C0066006600EB
:10F61000660066006600660066003C0000000000B0
:10F6200007000000001800780018001800180018E3
:10F63000001800180018000000000007000000007B
:10F640003C006600060006000C0018003000600058
:10F650007E000000000007000000003C006600067D
:10F660000006001C000600060066003C00000000CA
:10F670000007000000000C001C001C003C003C00C7
:10F680006C007E000C000C00000000000700000071
:10F69000007E00600060007C0066000600060066D8
:10F6A000003C000000000007000000003C00660075
:10F6B000600060007C006600660066003C000000A0
:10F6C000000007000000007E0006000C000C00187F
:10F6D000001800300030003000000000000700007B
:10F6E00000003C006600660066003C0066006600A4
:10F6F00066003C000000000007000000003C0066BF
:10F7000000660066003E000600060066003C000041
:10F710000000000400000000000000000000600085
:10F720000000000000000000600000000000040075
:10F730000000000000000000003000000000000099
:10F740000000003000600000000700000000000022
:10F7500000000C00180030006000300018000C00A1
:10F760000000000007000000000000000000000092
:10F77000007E0000007E0000000000000000000786
:10F7800000000000000000006000300018000C00C5
:10F790001800300060000000000007000000003C7E
:10F7A000006600060006000C001800180000001893
:10F7B00000000000000C000000000F8038E0306006
:10F7C00067B06DB06DB067F0300038000FC000005A
:10F7D0000800000000180018003C003C00660066AD
:10F7E000007E00C300C3000000000008000000000D
:10F7F0007C006600660066007C00660066006600AD
:10F800007C000000000008000000003E0063006073
:10F8100000600060006000600063003E00000000C7
:10F820000009000000007C006600630063006300C4
:10F830006300630066007C00000000000800000018
:10F84000007E006000600060007C0060006000607E
:10F85000007E000000000007000000007E00600045
:10F86000600060007C0060006000600060000000DC
:10F87000000009000000003E006300600060006FAF
:10F88000006300630067003F000000000009000003
:10F89000000063006300630063007F006300630097
:10F8A00063006300000000000400000000600060CE
:10F8B00000600060006000600060006000600000A8
:10F8C00000000006000000001800180018001800D2
:10F8D00018001800D800D8007000000000000800D0
:10F8E00000000066006C0078007000700078006C0A
:10F8F00000660063000000000007000000006000D8
:10F9000060006000600060006000600060007E00D9
:10F91000000000000A0000000061806180738073B5
:10F92000807F807F806D806D806180000000000995
:10F93000000000006300730073007B007B006F0019
:10F940006700670063000000000009000000003E3F
