:10000000A4EF00F0FF00FF00FACF6AF0FBCF6BF027
:10001000E9CF6CF048EF27F0D8CF06F0E8CF07F033
:10002000E0CF08F0FACF09F0FBCF0AF0E9CF0BF0F0
:10003000EACF0CF0E1CF0DF0E2CF0EF0D9CF0FF008
:10004000DACF10F0F3CF11F0F4CF12F0F6CF13F0B7
:10005000F7CF14F0F8CF15F0F5CF16F000F09EBAF8
:100060009DAA4FD0000E176E35D01750010D01011B
:10007000000EF324D96E0101010EF420DA6EC2ECF9
:100080002BF0DF6EABA4ABB233D04550D8A430D048
:1000900017660ED01750010D0101000EF324D96E22
:1000A0000101010EF420DA6EDF503E0AD8A420D000
:1000B0001704D8A40ED01750010D0101000EF3242F
:1000C000D96E0101010EF420DA6EDF50500AD8A477
:1000D0000FD0172A350E1764C8D70301030E056E1B
:1000E0000301A80E046E50EC2CF0000E90EC2CF0E6
:1000F0009EBAAECF44F09EBAAECF44F0AB9800F0BB
:10010000AB8816C0F5FF15C0F8FF14C0F7FF13C089
:10011000F6FF12C0F4FF11C0F3FF10C0DAFF0FC0EA
:10012000D9FF0EC0E2FF0DC0E1FF0CC0EAFF0BC01B
:10013000E9FF0AC0FBFF09C0FAFF08C0E0FF07C0E3
:10014000E8FF06C0D8FF1000D3EF28F00001000E32
:100150000101D66F0001C20E0101D56FC6EF07F095
:100160000101EB51250AD8B40CD0BEC0D9FFBFC0E5
:10017000DAFF0101EBC1DFFF0001BE4BBF2BC6EF71
:1001800007F0000E0101E46F000E0101E36F000EA5
:100190000101DE6F000E0101DD6F05D00101DD857B
:1001A0000001C04BC12B0001C0C0F6FF0001C1C05F
:1001B000F7FF0800F550300AD8B4F0D70001C0C0EE
:1001C000F6FF0001C1C0F7FF0800F55026EC2CF047
:1001D000D8A047D0000E0101E46F000E0101E36FCB
:1001E000E3C178F0E4C179F0000E00017B6F0A0EE4
:1001F00000017A6FA7EC2BF0000178C0E3F1000159
:1002000079C0E4F1D00E0101BF6FFF0EC06F000195
:10021000C0C0F6FF0001C1C0F7FF0800F5500101A2
:10022000C16FC26B0101BF510101C1270101C05162
:100230000101C2230101C1510101E3270101C251A2
:100240000101E4230001C04BC12B0001C0C0F6FF37
:100250000001C1C0F7FF0800F55026EC2CF0D8B023
:10026000BFD70001C0C0F6FF0001C1C0F7FF080002
:10027000F5502E0AD8A43FD00101DE8D0001C04BFD
:10028000C12B000E0101EA6F000E0101E96F26D0BB
:10029000E9C178F0EAC179F0000E00017B6F0A0E27
:1002A00000017A6FA7EC2BF00001C0C0F6FF00013F
:1002B000C1C0F7FF0800F55000017827000E0001CB
:1002C0007923D00E000178250101E96FFF0E0001AE
:1002D00079210101EA6F0001C04BC12B0001C0C0B0
:1002E000F6FF0001C1C0F7FF0800F55026EC2CF026
:1002F000D8A08BD0CDD7000E0101EA6F000E01010E
:10030000E96F0101DE8981D00101DE859BD0010109
:10031000EA51E911D8B40ED00101E7510101E95DBC
:100320000101E8510101EA59D8B004D0E9C1E7F16F
:10033000EAC1E8F10101E3510101E75D0101E45186
:100340000101E859D8B00AD0010121EEE7F0DE50F2
:100350000101E35FDD500101E45B10D0000E0101FB
:10036000E46F000E0101E36F09D0BEC0D9FFBFC02A
:10037000DAFF200EDF6E0001BE4BBF2B0101E30749
:10038000D8A0E4070101E329D8B4E429D8B411D0F6
:10039000ECD7E5C1D9FFE6C1DAFFBEC0E1FFBFC0BF
:1003A000E2FFDFCFE7FF0101E54BE62B0001BE4B8B
:1003B000BF2B0101E707D8A0E8070101E729D8B45E
:1003C000E829D8B4C6EF07F0E4D7D5C1D9FFD6C124
:1003D000DAFFDF500101EB6F020E0101D527000E9D
:1003E0000101D6230101010E0101E66F0101EB0EAF
:1003F0000101E56F000E0101E86F010E0101E76FD9
:1004000086D7C00E0101DD131DD00001C0C0F6FF6C
:100410000001C1C0F7FF0001C04BC12B0800010162
:10042000F5CFEBF10101EB51000AD8B4D7EF07F09B
:10043000630AD8B4CAD7050AD8B466D7130AD8B4A1
:10044000E0D7D0D7070E0101DE15D8B42DEF06F0A6
:100450000101DEA906D0000E0101EA6F060E0101BE
:10046000E96FD5C1D9FFD6C1DAFF0101DECFDFF1D7
:100470000101DECFE0F10101DECFE1F10101DECFCC
:10048000E2F1040E0101D527000E0101D62301017E
:10049000E2AF15D0DFC178F0E0C179F0E1C17AF0C8
:1004A000E2C17BF089EC2BF078C0DFF179C0E0F19C
:1004B0007AC0E1F17BC0E2F1030E0101DD13000E11
:1004C0000101DC6F000E0101DB6F010121EEDFF0A5
:1004D000DE50DE10DE10DE10D8B4A1D00101E1350F
:1004E0000101E235820F0101DB6F0101DC6BFF0EC0
:1004F000DC230101DB07D8A0DC07DBC178F0DCC11D
:1005000079F0000E00017B6F030E00017A6FA7ECFB
:100510002BF0000178C0DBF1000179C0DCF1DBC118
:100520007EF0DCC17FF0000E0001816F0A0E000139
:10053000806F3EEC25F000017EC0DBF100017FC042
:10054000DCF10101DC51800AF36E800EF35C000ED9
:10055000D8B4DB5DD8B004D00101DB07D8A0DC073C
:100560000101DB510008DEEC07F09AC0D7F19BC017
:10057000D8F19CC0D9F19DC0DAF1D7C187F0D8C1BC
:1005800088F0D9C189F0DAC18AF0DFC18BF0E0C10F
:100590008CF0E1C18DF0E2C18EF0B7EC1CF087C0A9
:1005A000D7F188C0D8F189C0D9F18AC0DAF1D7C1B2
:1005B00078F0D8C179F0D9C17AF0DAC17BF0000EB9
:1005C00000017C6F000E00017D6F800E00017E6FC8
:1005D0003F0E00017F6FB1EC23F0D8B005D00101D0
:1005E000DB07D8A0DC071BD0D7C178F0D8C179F0E1
:1005F000D9C17AF0DAC17BF0000E00017C6F000EE9
:1006000000017D6F200E00017E6F410E00017F6FA3
:10061000B1EC23F0D8A003D00101DB4BDC2B0101AE
:10062000EA51800AF36E800EF35C0D0ED8B4E95DDA
:10063000D8B01ED0DFC1A7F0E0C1A8F0E1C1A9F099
:10064000E2C1AAF00101E951AFEC0FF09AC0ABF0A2
:100650009BC0ACF09CC0ADF09DC0AEF0D1EC12F0F0
:10066000A7C0DFF1A8C0E0F1A9C0E1F1AAC0E2F1A2
:100670000101DC51800AF36E800EF35C0A0ED8B4DF
:10068000DB5DD8B02BD0010121EEDFF0DE50DE10B3
:10069000DE10DE10D8B47FD0DFC1A3F0E0C1A4F03B
:1006A000E1C1A5F0E2C1A6F0AAEC21F0A3C0BFF120
:1006B000A4C0C0F1A5C0C1F1A6C0C2F10101C251E0
:1006C000BF11C011C111D8A466D00101DC51800A4C
:1006D000800F020ED8B4DB5DD8A05DD0D7C178F012
:1006E000D8C179F0D9C17AF0DAC17BF05F0E000190
:1006F0007C6F700E00017D6F890E00017E6F400ED1
:1007000000017F6FB1EC23F0D8B003D00101F70EE8
:1007100002D00101F80E0101DB27FF0E0101DC23ED
:100720000101DB51DEEC07F09AC0D7F19BC0D8F194
:100730009CC0D9F19DC0DAF1DFC178F0E0C179F059
:10074000E1C17AF0E2C17BF0D7C17CF0D8C17DF085
:10075000D9C17EF0DAC17FF0BBEC16F078C0C9F1E8
:1007600079C0CAF17AC0CBF17BC0CCF1C9C1E5F147
:10077000CAC1E6F1CBC1E7F1CCC1E8F1000E01013D
:10078000DF6F000E0101E06F000E0101E16F000E4E
:100790000101E26F3CD0DFC1A3F0E0C1A4F0E1C1F0
:1007A000A5F0E2C1A6F0AAEC21F0A3C0E5F1A4C037
:1007B000E6F1A5C0E7F1A6C0E8F1DFC1B6F0E0C1FF
:1007C000B7F0E1C1B8F0E2C1B9F0E5C182F0E6C12D
:1007D00083F0E7C184F0E8C185F0DCEC2BF082C047
:1007E000BAF083C0BBF084C0BCF085C0BDF0F6ECAD
:1007F0002AF0B6C0DFF1B7C0E0F1B8C0E1F1B9C08E
:10080000E2F1000E0101DC6F000E0101DB6F010E51
:100810000101EB6F0101EB510A0AD8B41ED00101AE
:10082000EB51040DDA0EF324F66EF30EF420F76E9E
:100830000900F5500101E55D0900F5500101E65997
:100840000900F5500101E7590900F5500101E85987
:10085000D8A003D00101EB2BDDD70101EBC1BFF123
:100860000101C06BBFBFC0070101E9510101BF27F2
:100870000101EA510101C0230101DB510101BF2740
:100880000101DC510101C0230101BF510101E35FFE
:100890000101C0510101E45B0101EA51E911D8B441
:1008A00004D00101E307D8A0E407030E0101DD1520
:1008B0000101BF6F000E0101DE150101C06F0101D2
:1008C000C051BF11D8B404D00101E307D8A0E40798
:1008D0000101DDA53FD0030E0101DD150101BF6F50
:1008E000000E0101DE150101C06F0101C051BF11F1
:1008F000D8B417D0BEC0D9FFBFC0DAFF2D0EDF6E4F
:100900000001BE4BBF2B0DD0BEC0D9FFBFC0DAFF68
:10091000300EDF6E0001BE4BBF2B0101E307D8A0F4
:10092000E4070101E451800AF36E800EF35C010ECE
:10093000D8B4E35DD8A082D0E7D7BEC0D9FFBFC08E
:10094000DAFF200EDF6E0001BE4BBF2B0101E30773
:10095000D8A0E4070101E451800AF36E800EF35C35
:10096000010ED8B4E35DD8B0E8D7030E0101DD1560
:100970000101BF6F000E0101DE150101C06F010111
:10098000C051BF11D8B45AD0BEC0D9FFBFC0DAFF22
:100990002D0E50D0E5C178F0E6C179F0E7C17AF0CC
:1009A000E8C17BF00101EB51040DDA0EF324F66E81
:1009B000F30EF420F76E09000001F5CF7CF009007A
:1009C0000001F5CF7DF009000001F5CF7EF00A00AF
:1009D0000001F5CF7FF01CEC26F078C0CDF179C096
:1009E000CEF17AC0CFF17BC0D0F1CDC185F0CEC1C0
:1009F00086F0CFC187F0D0C188F00A0E0001896F60
:100A0000000E00018A6F000E00018B6F000E0001C6
:100A10008C6FA5EC27F085C0CDF186C0CEF187C0E4
:100A2000CFF188C0D0F10101CD51300FBEC0D9FF48
:100A3000BFC0DAFFDF6E0001BE4BBF2B0101EB0729
:100A40000101EB29D8B40ED0A5D7BEC0D9FFBFC0D5
:100A5000DAFF300EDF6E0001BE4BBF2B0101DB075A
:100A6000D8A0DC070101DC51800AF36E800EF35C34
:100A7000010ED8B4DB5DD8B0E8D70101EA51800A95
:100A8000800F090ED8B4E95DD8A004D0080E01018A
:100A9000EB6F02D0E9C1EBF10101EB510101E95F1C
:100AA000000E0101EBBFFF0E0101EA5B0101EB51FA
:100AB000D8B409D0BEC0D9FFBFC0DAFF2E0EDF6E9A
:100AC0000001BE4BBF2B0101EB51DEEC07F09AC0D9
:100AD000C5F19BC0C6F19CC0C7F19DC0C8F1DFC184
:100AE0008BF0E0C18CF0E1C18DF0E2C18EF0C5C1A8
:100AF00087F0C6C188F0C7C189F0C8C18AF0B7ECD9
:100B00001CF087C0A3F088C0A4F089C0A5F08AC0FB
:100B1000A6F0AAEC21F0A3C0E5F1A4C0E6F1A5C0BF
:100B2000E7F1A6C0E8F17FD0E5C178F0E6C179F041
:100B3000E7C17AF0E8C17BF00101EB51040DDA0E58
:100B4000F324F66EF30EF420F76E09000001F5CFE2
:100B50007CF009000001F5CF7DF009000001F5CF20
:100B60007EF00A000001F5CF7FF01CEC26F078C083
:100B7000D1F179C0D2F17AC0D3F17BC0D4F1D1C127
:100B800085F0D2C186F0D3C187F0D4C188F00A0EB7
:100B90000001896F000E00018A6F000E00018B6F4B
:100BA000000E00018C6FA5EC27F085C0D1F186C046
:100BB000D2F187C0D3F188C0D4F10101D151300FF7
:100BC000BEC0D9FFBFC0DAFFDF6E0001BE4BBF2B36
:100BD000E5C185F0E6C186F0E7C187F0E8C188F09D
:100BE0000101EB51040DDA0EF324F66EF30EF4203E
:100BF000F76E09000001F5CF89F009000001F5CF7B
:100C00008AF009000001F5CF8BF00A000001F5CF52
:100C10008CF0A5EC27F085C0E5F186C0E6F187C031
:100C2000E7F188C0E8F10101EB070101EB29D8B435
:100C30000ED07AD7BEC0D9FFBFC0DAFF300EDF6E4C
:100C40000001BE4BBF2B0101E907D8A0EA07010153
:100C5000EA51E911D8B49AD1EDD7D5C1D9FFD6C19F
:100C6000DAFFDECFBFF1DDCFC0F10101BFC1E5F199
:100C70000101C0C1E6F10101E76B0101E86B020E61
:100C80000101D527000E0101D6230101EA51E91126
:100C9000D8A40AD00101E851E511E611E711D8A462
:100CA00003D00101E94BEA2B010E0101EB6F0101B9
:100CB000EB510A0AD8B41ED00101EB51040DDA0E33
:100CC000F324F66EF30EF420F76E0900F5500101DF
:100CD000E55D0900F5500101E6590900F5500101F3
:100CE000E7590900F5500101E859D8A003D00101E6
:100CF000EB2BDDD7800E0101EBBF7F0E0101BF6F33
:100D00000101E9510101EB5D0101EA51800A010194
:100D1000BF59D8B003D0E9C1EBF11AD00101EA51B3
:100D2000800A0101BF6F0101EB510101E95D800EF5
:100D30000101EBBF7F0E0101BF59D8B009D00101FD
:100D4000EB510101E96F0101EA6B0101E9BFEA071B
:100D50000101E451E311D8B413D0030E0101DD15F4
:100D60000101BF6F000E0101DE150101C06F01011D
:100D7000C051BF11D8B404D00101E307D8A0E407E3
:100D80000101DEAD1FD00101EA51800A0101BF6FF0
:100D90000101E3510101E95D0101E451800A010112
:100DA000BF59D8B009D00101E9510101E35F010148
:100DB000EA510101E45B06D0000E0101E46F000E70
:100DC0000101E36F800E0101EBBF7F0E0101BF6FD8
:100DD0000101E3510101EB5D0101E451800A0101D0
:100DE000BF59D8B00BD00101EB510101E35F000EF8
:100DF0000101EBBFFF0E0101E45B06D0000E010113
:100E0000E46F000E0101E36F0101DDA52CD0030E9C
:100E10000101DD150101BF6F000E0101DE150101A9
:100E2000C06F0101C051BF11D8B409D0BEC0D9FFF5
:100E3000BFC0DAFF2D0EDF6E0001BE4BBF2B0101DC
:100E40000101E451E311D8B497D0BEC0D9FFBFC0AF
:100E5000DAFF300EDF6E0001BE4BBF2B0101E3074E
:100E6000D8A0E407EDD70101E451E311D8B412D0C2
:100E7000BEC0D9FFBFC0DAFF200EDF6E0001BE4B3F
:100E8000BF2B0101E307D8A0E4070101E451E311FE
:100E9000D8A4EED7030E0101DD150101BF6F000ECE
:100EA0000101DE150101C06F0101C051BF11D8B4AD
:100EB00063D0BEC0D9FFBFC0DAFF2D0EDF6E59D0A0
:100EC0000101E9C1BFF10101EAC1C0F10101D890FE
:100ED000BF37C0370101D890BF37C037DA0E0101E4
:100EE000BF25F66EF30EC021F76E09000001F5CFA5
:100EF0007CF009000001F5CF7DF009000001F5CF7D
:100F00007EF00A000001F5CF7FF0E5C178F0E6C180
:100F100079F0E7C17AF0E8C17BF01CEC26F078C0EC
:100F200085F079C086F07AC087F07BC088F00A0E21
:100F30000001896F000E00018A6F000E00018B6FA7
:100F4000000E00018C6FA5EC27F085C0C1F186C0B2
:100F5000C2F187C0C3F188C0C4F10101C151300F93
:100F60000101EB6FBEC0D9FFBFC0DAFF0101EBC1C9
:100F7000DFFF0001BE4BBF2B0101E907D8A0EA0744
:100F80000101E929D8B4EA29D8A49AD70001C0C040
:100F9000F6FF0001C1C0F7FF0001C04BC12B0800E4
:100FA0000101F5CFEBF10101EB67B0EF00F0BEC03E
:100FB000D9FFBFC0DAFF000EDF6E12000001A26F82
:100FC0000001A2AF65D10001A26D0001A251800A0B
:100FD000120FD8A0CAD0000E0001816F0A0E0001C6
:100FE000806F000E00017B6F640E00017A6F0001BC
:100FF000A2510001786F0001796B000178BF790779
:1010000086EC26F0000178C07EF0000179C07FF008
:101010003EEC25F00001D8907E377F370001D89054
:101020007E377F37240E00017E27000E00017F23CC
:10103000720E00017E25F66EF30E00017F21F76E21
:1010400009000001F5CF8BF009000001F5CF8CF00D
:1010500009000001F5CF8DF00A000001F5CF8EF0F8
:10106000000E0001816F640E0001806F0001A2512B
:1010700000017E6F00017F6B00017EBF7F073EECA9
:1010800025F00001D8907E377F370001D8907E3759
:101090007F37480E00017E27000E00017F23720E6D
:1010A00000017E25F66EF30E00017F21F76E090028
:1010B0000001F5CF87F009000001F5CF88F00900A5
:1010C0000001F5CF89F00A000001F5CF8AF0B7ECF6
:1010D0001CF087C09EF088C09FF089C0A0F08AC035
:1010E000A1F09EC087F09FC088F0A0C089F0A1C089
:1010F0008AF0000E00017B6F0A0E00017A6F00017A
:10110000A2510001786F0001796B000178BF790767
:1011100086EC26F00001D890783779370001D89016
:1011200078377937720E00017825F66EF30E0001DC
:101130007921F76E09000001F5CF8BF0090000015D
:10114000F5CF8CF009000001F5CF8DF00A00000109
:10115000F5CF8EF0B7EC1CF087C09AF088C09BF0FA
:1011600089C09CF08AC09DF012000001A251800A43
:10117000750FD8A073D0000E0001816F0A0E000118
:10118000806F0001A25100017E6F00017F6B0001A2
:101190007EBF7F073EEC25F00001D8907E377F3779
:1011A0000001D8907E377F37240E00017E27000E85
:1011B00000017F23720E00017E25F66EF30E000102
:1011C0007F21F76E09000001F5CF87F009000001CB
:1011D000F5CF88F009000001F5CF89F00A00000181
:1011E000F5CF8AF0000E00017B6F0A0E00017A6FC6
:1011F0000001A2510001786F0001796B000178BFF6
:10120000790786EC26F00001D8907837793700010D
:10121000D89078377937720E00017825F66EF30E84
:1012200000017921F76E09000001F5CF8BF009006C
:101230000001F5CF8CF009000001F5CF8DF00A0018
:101240000001F5CF8EF0B7EC1CF087C09AF088C093
:101250009BF089C09CF08AC09DF012000001A25151
:10126000040D720EF324F66EF30EF420F76E0900EF
:101270000001F5CF9AF009000001F5CF9BF00900BD
:101280000001F5CF9CF00A000001F5CF9DF012009F
:101290000001A251800A120FD8A0CAD0000E00018E
:1012A000816F0A0E0001806F000E00017B6F640EDB
:1012B00000017A6F0001A2510001786F0001796B83
:1012C000000178BF790786EC26F0000178C07EF037
:1012D000000179C07FF03EEC25F00001D8907E3708
:1012E0007F370001D8907E377F37240E00017E279C
:1012F000000E00017F23A60E00017E25F66EF30E80
:1013000000017F21F76E09000001F5CF8BF0090085
:101310000001F5CF8CF009000001F5CF8DF00A0037
:101320000001F5CF8EF0000E0001816F640E000108
:10133000806F0001A25100017E6F00017F6B0001F0
:101340007EBF7F073EEC25F00001D8907E377F37C7
:101350000001D8907E377F37480E00017E27000EAF
:1013600000017F23A60E00017E25F66EF30E00011C
:101370007F21F76E09000001F5CF87F00900000119
:10138000F5CF88F009000001F5CF89F00A000001CF
:10139000F5CF8AF0B7EC1CF087C09EF088C09FF0B4
:1013A00089C0A0F08AC0A1F09EC087F09FC088F0DD
:1013B000A0C089F0A1C08AF0000E00017B6F0A0E68
:1013C00000017A6F0001A2510001786F0001796B72
:1013D000000178BF790786EC26F00001D8907837B5
:1013E00079370001D89078377937A60E0001782533
:1013F000F66EF30E00017921F76E09000001F5CFBA
:101400008BF009000001F5CF8CF009000001F5CF49
:101410008DF00A000001F5CF8EF0B7EC1CF087C00C
:101420009AF088C09BF089C09CF08AC09DF01200A1
:101430000001A251800A750FD8A073D0000E0001E0
:10144000816F0A0E0001806F0001A25100017E6FC2
:1014500000017F6B00017EBF7F073EEC25F000019D
:10146000D8907E377F370001D8907E377F37240EA3
:1014700000017E27000E00017F23A60E00017E25BD
:10148000F66EF30E00017F21F76E09000001F5CF23
:1014900087F009000001F5CF88F009000001F5CFC1
:1014A00089F00A000001F5CF8AF0000E00017B6F81
:1014B0000A0E00017A6F0001A2510001786F00014D
:1014C000796B000178BF790786EC26F00001D8908F
:1014D000783779370001D89078377937A60E000130
:1014E0007825F66EF30E00017921F76E09000001F0
:1014F000F5CF8BF009000001F5CF8CF00900000159
:10150000F5CF8DF00A000001F5CF8EF0B7EC1CF09E
:1015100087C09AF088C09BF089C09CF08AC09DF07B
:1015200012000001A251040DA60EF324F66EF30E74
:10153000F420F76E09000001F5CF9AF009000001D0
:10154000F5CF9BF009000001F5CF9CF00A000001E7
:10155000F5CF9DF0120000F0010E0101736F94D2DF
:1015600000F0F2AE02D0010E01D0000E0101726F48
:10157000F29E5CC166F15DC167F1010E0101696F08
:10158000080E0101686F010166C1ECF1010167C13C
:10159000EDF10101EC1FED1FEC4BED2B01015C5156
:1015A0000101EC2701015D510101ED230101ED5124
:1015B000800AF36E810EF35CF40ED8B4EC5DD8B003
:1015C00006D001017205D8A41200F28E12005CC18F
:1015D00066F15DC167F101017205D8B4F28E00F0C9
:1015E0000101742B0101F1510101F5190EE1010115
:1015F000F0510101F41909E10101EF510101F31961
:1016000004E10101EE510101F219D8B44CD0EEC150
:10161000F2F1EFC1F3F1F0C1F4F1F1C1F5F1010123
:1016200021EEEEF0DE50DE10DE10DE10D8B419D060
:101630000501050E0001BF6F0501000E0001BE6F20
:10164000FF0E0001C16FDF0E0001C06FEEC1C2F0DE
:10165000EFC1C3F0F0C1C4F0F1C1C5F0A6EC00F0D9
:1016600010D00501050E0001BF6F0501000E00013D
:10167000BE6FFF0E0001C16FEE0E0001C06FA6EC41
:1016800000F00101010E00019C6F01019B0E0001A1
:101690009B6F0501050E00019E6F0501000E000104
:1016A0009D6FD5EC19F00501050E0001BF6F050116
:1016B000000E0001BE6FFF0E0001C16FC70E0001DA
:1016C000C06F0101000109C1C2F00001C36B01013B
:1016D00000010AC1C4F00001C56B010100010CC189
:1016E000C6F00001C76BA6EC00F00201020E00017B
:1016F0009C6F02018C0E00019B6F0501050E00011D
:101700009E6F0501000E00019D6FD5EC19F00501DB
:10171000050E0001BF6F0501000E0001BE6FFF0E38
:101720000001C16FD30E0001C06F0101000111C1A2
:10173000C2F00001C36B0101000112C1C4F000013D
:10174000C56B0101000114C1C6F00001C76BA6EC16
:1017500000F00201020E00019C6F0201B00E0001B8
:101760009B6F0501050E00019E6F0501000E000133
:101770009D6FD5EC19F0000E0101736F010E010190
:10178000696F2A0E0101686F0101736701D01200B1
:1017900000F001017651000120EED9F0DF6206D0A1
:1017A0000001DA5101017519D8B450D0D9C076F1D1
:1017B000DAC075F1320E00017A6F280E60EC29F064
:1017C000F40E0001876F220E0001866F000E0001EB
:1017D000886F890E8AEC1EF00001D951D8B40DD063
:1017E000F40E0001876F220E0001866F010E0001CA
:1017F000886F890E8AEC1EF00CD0F40E0001876F02
:10180000220E0001866F000E0001886F890E8AEC9F
:101810001EF00001DA51D8B40DD0F40E0001876F2C
:10182000220E0001866F010E0001886F890E8AEC7E
:101830001EF00CD0F40E0001876F220E0001866F9F
:10184000000E0001886F890E8AEC1EF0000E010167
:10185000736F010E0101696F4D0E0101686F010187
:10186000736701D0120000F00001DC510101F6198C
:10187000D8B48CD0DCC0F6F10001DC6711D00501D2
:10188000050E0001BF6F0501000E0001BE6FFF0EC7
:101890000001C16FF00E0001C06FA6EC00F064D033
:1018A0000001DC05D8A417D00501050E0001BF6FAB
:1018B0000501000E0001BE6FFF0E0001C16FFA0EA0
:1018C0000001C06F000E0001C36F840E0001C26FE3
:1018D000A6EC00F049D00001DC51020AD8A41DD0CA
:1018E0000501050E0001BF6F0501000E0001BE6F6E
:1018F000FF0E0001C16FF40E0001C06F000E000169
:10190000C36F840E0001C26F000E0001C56F840E0C
:101910000001C46FA6EC00F027D00001DC51030ADF
:10192000D8A422D00501050E0001BF6F0501000EED
:101930000001BE6FFF0E0001C16FE70E0001C06F16
:10194000000E0001C36F840E0001C26F000E000183
:10195000C56F840E0001C46F000E0001C76F840EB6
:101960000001C66FA6EC00F00101010E00019C6FA2
:101970000101770E00019B6F0501050E00019E6FAE
:101980000501000E00019D6FD5EC19F0000E01015C
:10199000736F010E0101696F610E0101686F010132
:1019A000736701D0120000F00001DB510101F7194B
:1019B000D8B45BD0DBC0F7F10001DB05D8A417D0A9
:1019C0000501050E0001BF6F0501000E0001BE6F8D
:1019D000FF0E0001C16FEB0E0001C06F000E000191
:1019E000C36F850E0001C26FA6EC00F02CD0000181
:1019F000DB51020AD8A417D00501050E0001BF6F04
:101A00000501000E0001BE6FFF0E0001C16FEB0E5D
:101A10000001C06F000E0001C36F850E0001C26F90
:101A2000A6EC00F010D00501050E0001BF6F050106
:101A3000000E0001BE6FFF0E0001C16FF20E00012B
:101A4000C06FA6EC00F00201020E00019C6F0201C3
:101A5000D40E00019B6F0501050E00019E6F05016C
:101A6000000E00019D6FD5EC19F0000E0101736F9F
:101A7000010E0101696F730E0101686F0101736747
:101A800001D0120000F06CD5010168C1ECF1010138
:101A900069C1EDF10101ED51000AD8B404D0010A89
:101AA000D8B405D05DD50101EC51000A59D501012A
:101AB000EC51080AD8B467D5220AD8B465D6670AAB
:101AC000D8B4CDD62C0AD8B46AD7120AD8B4D6D78F
:101AD00047D5020E0001896F580E0001886F700E05
:101AE000D36E9B8C00018807D8A089070001882944
:101AF000D8B48929D8A4F6D7D08E030EBA12C80E4E
:101B0000BB6EBA50870B1809BA6EBA849F829E9238
:101B10009D82030E0F015113640E0F01526F0F01CE
:101B200051970F0151990F01519B0F01519D0F01C9
:101B300051857F807E907D8062EC2CF0000E0F013D
:101B4000386F000E0F01396F000E0F013A6F000E53
:101B50000F013B6F000E0F013C6F000E0F01546F21
:101B60000F0E0001796F930E0001786F0F0E0001C8
:101B70007B6F8A0E00017A6F000E00017C6F0C0EE5
:101B800000017D6FFF0E00017F6F00017E69FF0E77
:101B90000001816F00018069FF0E0001826F000E5D
:101BA000A4EC15F00F0E0001796F930E0001786F11
:101BB0000F0E00017B6F8A0E00017A6F010E00018B
:101BC0007C6F0A0E00017D6FFF0E00017F6F000128
:101BD0007E69FF0E0001816F00018069FF0E000128
:101BE000826F010EA4EC15F00F0E0001796F930EB9
:101BF0000001786F0F0E00017B6F8A0E00017A6F73
:101C0000020E00017C6F080E00017D6FFF0E0001C7
:101C10007F6F00017E69FF0E0001816F0001806906
:101C2000FF0E0001826F020EA4EC15F00F0E0001F2
:101C3000796F930E0001786F0F0E00017B6F8A0E93
:101C400000017A6F050E00017C6F0D0E00017D6FA3
:101C5000FF0E00017F6F00017E69FF0E0001816FA2
:101C600000018069FF0E0001826F030EA4EC15F0E5
:101C70000F0E0001796F920E0001786F0F0E0001B8
:101C80007B6F890E00017A6F000E00017C6F000EE1
:101C900000017D6FFF0E00017F6F00017E69FF0E66
:101CA0000001816F00018069FF0E0001826F040E48
:101CB000A4EC15F00F0E0001796F920E0001786F01
:101CC0000F0E00017B6F890E00017A6F010E00017B
:101CD0007C6F010E00017D6FFF0E00017F6F000120
:101CE0007E69FF0E0001816F00018069FF0E000117
:101CF000826F050EA4EC15F00F0E0001796F930EA4
:101D00000001786F0F0E00017B6F8A0E00017A6F61
:101D1000040E00017C6F0B0E00017D6FFF0E0001B1
:101D20007F6F00017E69FF0E0001816F00018069F5
:101D3000FF0E0001826F060EA4EC15F00F0E0001DD
:101D4000796F930E0001786F0F0E00017B6F8A0E82
:101D500000017A6F030E00017C6F090E00017D6F98
:101D6000FF0E00017F6F00017E69FF0E0001816F91
:101D700000018069FF0E0001826F070EA4EC15F0D0
:101D80000F0E0001796F920E0001786F0F0E0001A7
:101D90007B6F890E00017A6F020E00017C6F020ECC
:101DA00000017D6FFF0E00017F6F00017E69FF0E55
:101DB0000001816F00018069FF0E0001826F080E33
:101DC000A4EC15F00F0E0001796F920E0001786FF0
:101DD0000F0E00017B6F890E00017A6F030E000168
:101DE0007C6F030E00017D6FFF0E00017F6F00010D
:101DF0007E69FF0E0001816F00018069FF0E000106
:101E0000826F090EA4EC15F00F0E0001796F920E8F
:101E10000001786F0F0E00017B6F890E00017A6F51
:101E2000050E00017C6F040E00017D6FFF0E0001A6
:101E30007F6F00017E69FF0E0001816F00018069E4
:101E4000FF0E0001826F0A0EA4EC15F0000E0001D7
:101E5000786F100E0001796F000EE8EC26F0010E8D
:101E60000001786F100E0001796F010EE8EC26F08A
:101E7000020E0001786F100E0001796F020EE8EC7F
:101E800026F0030E0001786F100E0001796F030E2B
:101E9000E8EC26F0040E0001786F100E0001796F57
:101EA000040EE8EC26F0050E0001786F100E00011C
:101EB000796F050EE8EC26F0060E0001786F100E23
:101EC0000001796F060EE8EC26F0070E0001786F2E
:101ED000100E0001796F070EE8EC26F0080E0001E5
:101EE000786F100E0001796F080EE8EC26F0090EED
:101EF0000001786F100E0001796F090EE8EC26F0F2
:101F00000A0E0001786F100E0001796F0A0EE8ECDE
:101F100026F0020E0001786F080E0001796F0B0E9B
:101F2000E8EC26F0030E0001786F080E0001796FCF
:101F30000C0EE8EC26F073EC2CF0949C948E9F9A97
:101F40009D8A8B9A949A939C939E929C929E8A9C33
:101F50008A9E899C899E94988B88F28C120000013D
:101F6000A66F6D0E0001A665DCD0000E0001816F2A
:101F70000A0E0001806F000E00017B6F640E0001ED
:101F80007A6F0001A6C078F00001796B86EC26F02C
:101F9000000178C07EF0000179C07FF03EEC25F0B2
:101FA0000001D8907E377F370001D8907E377F3789
:101FB000240E00017E27000E00017F23720E000117
:101FC0007E25F66EF30E00017F21F76E09000001F9
:101FD000F5CF8BF009000001F5CF8CF0090000016E
:101FE000F5CF8DF00A000001F5CF8EF0000E000154
:101FF000816F640E0001806F0001A6C07EF00001B9
:102000007F6B3EEC25F00001D8907E377F370001D2
:10201000D8907E377F37480E00017E27000E0001E2
:102020007F23720E00017E25F66EF30E00017F21E4
:10203000F76E09000001F5CF87F009000001F5CF28
:1020400088F009000001F5CF89F00A000001F5CF02
:102050008AF0B7EC1CF087C0A2F088C0A3F089C05A
:10206000A4F08AC0A5F0000E00017B6F0A0E0001EB
:102070007A6F0001A6C078F00001796B86EC26F03B
:102080000001D890783779370001D89078377937C0
:10209000720E00017825F66EF30E00017921F76EBD
:1020A00009000001F5CF8BF009000001F5CF8CF09D
:1020B00009000001F5CF8DF00A000001F5CF8EF088
:1020C000A2C087F0A3C088F0A4C089F0A5C08AF0A0
:1020D000B7EC1CF087C09EF088C09FF089C0A0F0CC
:1020E0008AC0A1F09EC087F09FC088F0A0C089F090
:1020F000A1C08AF0000E00018B6F000E00018C6FF2
:10210000000E00018D6F3F0E00018E6FB7EC1CF0CA
:1021100087C09AF088C09BF089C09CF08AC09DF06F
:1021200012000A0E0001A66589D0000E00017B6F27
:102130000A0E00017A6F0001A6C078F00001796BE9
:1021400086EC26F00001D890783779370001D890D6
:1021500078377937720E00017825F66EF30E00019C
:102160007921F76E09000001F5CF8BF0090000011D
:10217000F5CF8CF009000001F5CF8DF00A000001C9
:10218000F5CF8EF0000E0001816F0A0E0001806F06
:102190000001A6C07EF000017F6B3EEC25F000013F
:1021A000D8907E377F370001D8907E377F37240E56
:1021B00000017E27000E00017F23720E00017E25A4
:1021C000F66EF30E00017F21F76E09000001F5CFD6
:1021D00087F009000001F5CF88F009000001F5CF74
:1021E00089F00A000001F5CF8AF0B7EC1CF087C037
:1021F000A2F088C0A3F089C0A4F08AC0A5F0A2C054
:1022000087F0A3C088F0A4C089F0A5C08AF0000EB2
:1022100000018B6F000E00018C6F000E00018D6FAE
:102220003F0E00018E6FB7EC1CF087C09AF088C09B
:102230009BF089C09CF08AC09DF012000001A6515D
:10224000040D720EF324F66EF30EF420F76E0900FF
:102250000001F5CF87F009000001F5CF88F00900F3
:102260000001F5CF89F00A000001F5CF8AF0000ED9
:1022700000018B6F000E00018C6F000E00018D6F4E
:102280003F0E00018E6FB7EC1CF087C09AF088C03B
:102290009BF089C09CF08AC09DF012000201020EE2
:1022A0000001856F0201000E0001846F000E000125
:1022B000826F000E0001816F000E00017E6F5CD105
:1022C000000120EE04F000018451D926000185515F
:1022D000DA220001DECF7CF00001DDCF7DF00001CD
:1022E00020EE1CF000017C51D92600017D51DA223C
:1022F000DF500001836F00018351D8B435D1000154
:1023000020EE02F000018451D92600018551DA2225
:10231000DF500001806F000120EE01F000018451C8
:10232000D92600018551DA22DF5000017F6F0001BC
:1023300080A75BD000017F51020AD8A40ED0000113
:1023400020EE06F000018451D92600018551DA22E1
:10235000000EDE6E190EDD6E48D0000120EE06F094
:1023600000018451D92600018551DA22DE52DD5068
:10237000800A800F010ED8B4DF5CD8A002D0010E15
:1023800001D0020E00017F6F000120EE06F0000177
:102390008451D92600018551DA22DECF78F0DDCFD5
:1023A00079F000017951800AF36E7B0EF35C000E28
:1023B000D8B4785DD8B00DD0000120EE06F0000151
:1023C0008451D92600018551DA22000EDE6E050EF9
:1023D000DD6E000120EE06F000018451D9260001D7
:1023E0008551DA22DE06000EDD5A000180A90CD0EC
:1023F00084C0D9FF85C0DAFFDF5000017F150009D6
:10240000D8B402D000017F8F84C0D9FF85C0DAFF25
:1024100000017FC0DFFF000180A142D0000120EE5B
:1024200003F000018451D92600018551DA22DF50E2
:1024300000018319D8B427D000018351020AD8A41F
:1024400022D0000120EE01F000018451D9260001C4
:102450008551DA22010EDF620BD0000120EE01F07F
:1024600000018451D92600018551DA22020E0AD0DA
:10247000000120EE01F000018451D92600018551B0
:10248000DA22010EDF6E000120EE03F0000184511C
:10249000D92600018551DA22000183C0DFFF64D014
:1024A000000180A546D0000120EE01F0000184511A
:1024B000D92600018551DA22020EDF6E0001835118
:1024C000020AD8A451D0000182518111D8B42AD077
:1024D000000120EE18F000017C51D92600017D5149
:1024E000DA22DECF78F0DDCF79F0000120EE04F0C3
:1024F00000018151D92600018251DA2210EE18F034
:10250000DE50E126DD50E222E6CF7AF0E5CF7BF027
:102510000001785100017A5D0001795100017B5979
:10252000D8B022D0000185C082F0000184C081F0C3
:102530001BD000018351020AD8A40BD0000120EE69
:1025400001F000018451D92600018551DA22010EE3
:102550000AD0000120EE01F000018451D9260001CB
:102560008551DA22020EDF6E080E00018427000E6C
:102570000001852300017E2B0C0E00017E65A0D694
:10258000000182518111D8B41200000120EE01F047
:1025900000018151D92600018251DA22010EDF6E3D
:1025A00012000001A7C0AFF00001A8C0B0F0000108
:1025B000A9C0B1F00001AAC0B2F0180E06D0000107
:1025C000D890B233B133B033AF33E82EF8D700012F
:1025D000AF510001B56F0001ABC0AFF00001ACC05E
:1025E000B0F00001ADC0B1F00001AEC0B2F0180E05
:1025F00006D00001D890B233B133B033AF33E82EF8
:10260000F8D70001AF510001B46F0001B551D8B443
:1026100012D00001B4510001B55DD8B015D0000151
:10262000B55100080001B4250001AF6F210E000173
:10263000AF5DD8A009D0ABC0A7F0ACC0A8F0ADC0CA
:10264000A9F0AEC0AAF012000001B451D8B412D063
:102650000001B5510001B45DD8B015D00001B451EE
:1026600000080001B5250001AF6F210E0001AF5D2C
:10267000D8A009D0A7C0A7F0A8C0A8F0A9C0A9F009
:10268000AAC0AAF01200060E0001B36F0001AAAFA3
:1026900002D00001B38F0001AEAF02D00001B38DB4
:1026A0000001A98FFF0E0001A717FF0E0001A81758
:1026B000FF0E0001A917000E0001AA170001AD8F3F
:1026C000FF0E0001AB17FF0E0001AC17FF0E00015B
:1026D000AD17000E0001AE170001B4510001B55D49
:1026E000D8B02ED00001D8900001AB370001AC3734
:1026F0000001AD370001AE370001B4070001B4514D
:102700000001B519D8B416D00001B307B3C0AFF0BB
:10271000070E0001AF17D8B40DD0E4D70001D89050
:102720000001AA330001A9330001A8330001A73337
:102730000001B52B0001B4510001B563EFD733D0D0
:102740000001B5510001B45DD8B02DD00001D89082
:102750000001A7370001A8370001A9370001AA37F7
:102760000001B5070001B4510001B519D8B416D065
:102770000001B307B3C0AFF0070E0001AF17D8B424
:102780000DD0E4D70001D8900001AE330001AD3385
:102790000001AC330001AB330001B42B0001B45194
:1027A0000001B563EFD70001B3AF16D0FF0E0001F3
:1027B000A71BFF0E0001A81BFF0E0001A91BFF0EA7
:1027C0000001AA1B010E0001A727000E0001A8238B
:1027D0000001A9230001AA230001B3AD16D0FF0E0A
:1027E0000001AB1BFF0E0001AC1BFF0E0001AD1B77
:1027F000FF0E0001AE1B010E0001AB27000E000111
:10280000AC230001AD230001AE23000E0001B36F25
:102810000001A7510001AB270001A8510001AC2322
:102820000001A9510001AD230001AA510001AE230E
:102830000001AEAF19D0FF0E0001AB1BFF0E00016F
:10284000AC1BFF0E0001AD1BFF0E0001AE1B010E05
:102850000001AB27000E0001AC230001AD230001F5
:10286000AE23010E0001B36FABC078F0ACC079F0BD
:10287000ADC07AF0AEC07BF0B5C07CF0B3C07DF0E7
:102880002FEC20F078C0A7F079C0A8F07AC0A9F0AA
:102890007BC0AAF0120020EE08F01A50D9261B5077
:1028A000DA22DECF20F0DDCF21F020EE0AF01A5040
:1028B000D9261B50DA22DECF24F0DDCF25F020EE22
:1028C0001DF01A50D9261B50DA22DF50286E20EE58
:1028D00008F01850D9261950DA22DECF29F0DDCFC2
:1028E0002AF020EE0AF01850D9261950DA22DECF4D
:1028F00026F0DDCF27F020EE1DF01850D926195014
:10290000DA22DF502B6E20EE1EF01A50D9261B5013
:10291000DA22DF50226E20EE1EF01850D926195010
:10292000DA22DF50236E22C01CF01C461C46C25027
:102930001C18830B1C18C26E24C0D9FF25C0DAFFF7
:102940002850DF122850FF0A1C6E20C0D9FF21C07A
:10295000DAFF1C50DF162B50FF0A1C6E26C0D9FF71
:1029600027C0DAFF1C50DF162B50FF0A1C6E29C04F
:10297000D9FF2AC0DAFF1C50DF1600F000F000F08B
:1029800000F000F000F000F000F000F000F000F0C7
:1029900000F000F000F000F000F000F000F000F0B7
:1029A00000F029C0D9FF2AC0DAFF2B50DF1223C064
:1029B0001CF01C461C46C2501C18830B1C18C26E0F
:1029C00000F000F000F000F000F000F000F000F087
:1029D00000F000F000F000F000F000F000F000F077
:1029E00000F000F000F000F0C282C2B2FED72B501F
:1029F000FF0A1C6E29C0D9FF2AC0DAFF1C50DF165F
:102A00002850FF0A1C6E24C0D9FF25C0DAFF1C50D5
:102A1000DF16040E1F6E000E1E6EC350C4CF1CF0D6
:102A20001D6A1CC01DF01C6A1C26000E1D221C50B5
:102A30001E5E1D501F5A22C01CF01C461C46C25070
:102A40001C18830B1C18C26E2850FF0A1C6E24C071
:102A5000D9FF25C0DAFF1C50DF162850FF0A1C6E74
:102A600020C0D9FF21C0DAFF1C50DF1626C0D9FFD5
:102A700027C0DAFF2B50DF122B50FF0A1C6E29C033
:102A8000D9FF2AC0DAFF1C50DF1600F000F000F07A
:102A900000F000F000F000F000F000F000F000F0B6
:102AA00000F000F000F000F000F000F000F000F0A6
:102AB00000F029C0D9FF2AC0DAFF2B50DF1223C053
:102AC0001CF01C461C46C2501C18830B1C18C26EFE
:102AD00000F000F000F000F000F000F000F000F076
:102AE00000F000F000F000F000F000F000F000F066
:102AF00000F000F000F000F0C282C2B2FED72B500E
:102B0000FF0A1C6E26C0D9FF27C0DAFF1C50DF1653
:102B10002B50FF0A1C6E29C0D9FF2AC0DAFF1C50B7
:102B2000DF16C350C4CF1CF01D6A1CC01DF01C6A08
:102B30001C26000E1D221C501E261D501F221EC0CA
:102B400018F01FC019F012000001856F00018551B7
:102B5000200D1E0EF3240001866F050EF4200001E7
:102B6000876F00017F51800A800F010ED8B47E5D0F
:102B7000D8A027D0000120EE12F000018651D926FE
:102B800000018751DA2200017EC0DEFF00017FC014
:102B9000DDFF00017F3500017F310001846F0001FE
:102BA0007E310001836F000120EE14F00001865198
:102BB000D92600018751DA2283C0DEFF84C0DDFF01
:102BC0001AD0000120EE12F000018651D926000132
:102BD0008751DA22200EDE6E030EDD6E000120EE3C
:102BE00014F000018651D92600018751DA22900E97
:102BF000DE6E010EDD6E000120EE08F00001865150
:102C0000D92600018751DA22000178C0DEFF0001D9
:102C100079C0DDFF000120EE0AF000018651D926BF
:102C200000018751DA2200017AC0DEFF00017BC07B
:102C3000DDFF000120EE1DF000018651D9260001C4
:102C40008751DA227CC083F0010E0001846F0001FD
:102C5000832B03D00001D89084370001832FFAD74B
:102C600000018451DF6E000120EE1EF0000186514C
:102C7000D92600018751DA2200017DC0DFFF000163
:102C800020EE1CF000018651D92600018751DA227E
:102C9000000EDF6E000120EE1AF000018651D926E9
:102CA00000018751DA223A0EDE6E000EDD6E000161
:102CB0008151800A800F010ED8B4805DD8A010D059
:102CC000000120EE10F000018651D9260001875145
:102CD000DA22000180C0DEFF000181C0DDFF0DD0DF
:102CE000000120EE10F000018651D9260001875125
:102CF000DA22200EDE6E000EDD6E000120EE10F0F6
:102D000000018651D92600018751DA22000110EE18
:102D10000EF000018651E12600018751E222DECF4C
:102D2000E6FFDDCFE5FF000120EE18F0000186513F
:102D3000D92600018751DA22000EDE6E000EDD6E0C
:102D4000000120EE04F000018651D92600018751D0
:102D5000DA22DE6ADE6ADE6ADD6A000120EE0CF04D
:102D600000018651D92600018751DA22000EDE6E5D
:102D7000000EDD6E1200000178C080F0000179C005
:102D800081F000017AC082F000017BC083F0180E50
:102D900006D00001D8908333823381338033E82E0C
:102DA000F8D7000180510001896F000189670DD0BB
:102DB000000E0001786F000E0001796F000E000117
:102DC0007A6F000E00017B6F120000017CC080F062
:102DD00000017DC081F000017EC082F000017FC053
:102DE00083F0180E06D00001D890833382338133EC
:102DF0008033E82EF8D7000180510001886F000170
:102E000088670DD0000E0001786F000E0001796F09
:102E1000000E00017A6F000E00017B6F12000001AE
:102E20007A8FFF0E00017817FF0E00017917FF0E51
:102E300000017A17000E00017B1700017E8FFF0E44
:102E400000017C17FF0E00017D17FF0E00017E17A9
:102E5000000E00017F17000E0001846F000E0001BC
:102E6000856F000E0001866F000E0001876F7F0ED8
:102E70000001895F00018851A00F0001895F200EC9
:102E80000001886F0001D890000184370001853768
:102E9000000186370001873700017C510001785D11
:102EA00000017D510001795900017E5100017A59DC
:102EB00000017F5100017B59D8A012D000017C5144
:102EC0000001785F00017D510001795B00017E51B6
:102ED00000017A5B00017F5100017B5B000184816E
:102EE0000001D890000178370001793700017A3766
:102EF00000017B370001882FC5D7000189AF26D09C
:102F000000018951800A0001806FE10E800A0001F2
:102F1000805DD8B00DD0000E0001786F000E00016A
:102F2000796F000E00017A6F000E00017B6F1200B6
:102F30000001D890000187330001863300018533FA
:102F4000000184330001893FF3D720D01F0E000118
:102F5000896519D0000E0001786F000E0001796FAD
:102F6000000E00017A6F000E00017B6F120000015D
:102F7000D8900001843700018537000186370001B1
:102F800087370001890700018967F1D784C078F08D
:102F900085C079F086C07AF087C07BF0120020EE01
:102FA00004F02150D9262250DA22DECF23F0DDCFE3
:102FB00024F021C0D9FF22C0DAFFDECF25F0DDCF1B
:102FC00026F0251E261E254A262A23502524276E54
:102FD00024502620286E2850800AF36E800EF35C61
:102FE000000ED8B4275CD8B004D0000E286E000EB6
:102FF000276E20EE18F02150D9262250DA2227C061
:10300000DEFF28C0DDFFB4D020EE1AF02150D92613
:103010002250DA22DE06000EDD5AD92ADD50FF0AE0
:10302000FF0ED8B4DF18D8A412D020EE1CF0215027
:10303000D9262250DA22010EDF6E20EE1AF021503E
:10304000D9262250DA22080EDE6E000EDD6E20EE4A
:1030500004F02150D9262250DA2221C0E1FF22C0FB
:10306000E2FFDECFE6FFDECFE6FFDECFE6FFDDCF1D
:10307000E5FFE552E5528CD020EE12F02150D92622
:103080002250DA22DECF23F0DDCF24F02750235C5C
:1030900028502458D8B019D020EE1AF02150D92643
:1030A0002250DA22DE06000EDD5AD92ADD50FF0A50
:1030B000FF0ED8B4DF18D8A412D020EE1CF0215097
:1030C000D9262250DA22020EDF6E20EE1AF02150AD
:1030D000D9262250DA22080EDE6E000EDD6E22C0E6
:1030E00019F021C018F0000E1B6E080E1A6EAFEC1E
:1030F00025F04ED020EE14F02150D9262250DA22AD
:10310000DECF23F0DDCF24F02350275C2450285855
:10311000D8B019D020EE1AF02150D9262250DA2248
:10312000DE06000EDD5AD92ADD50FF0AFF0ED8B4A4
:10313000DF18D8A412D020EE1CF02150D92622503E
:10314000DA22010EDF6E20EE1AF02150D92622502D
:10315000DA22080EDE6E000EDD6E22C019F021C0EC
:1031600018F0030E1B6E200E1A6EAFEC25F010D077
:1031700020EE1CF02150D9262250DA22DF50000A1E
:10318000D8B442D7010AD8B477D7030AD8B4B2D793
:1031900020EE04F02150D9262250DA22DE6ADE6ABF
:1031A000DE6ADD6A1200010E0001E36FE4D000F078
:1031B000010E0001E16F2FEC2AF0F2AE02D0010EF9
:1031C00001D0000E0001E26FF29E5CC1DDF05DC136
:1031D000DEF0010E3C6E850E3B6E0001DDC0C4F0DA
:1031E0000001DEC0C5F00001C41FC51FC44BC52BC4
:1031F00001015C510001C42701015D510001C5239B
:103200000001C551800AF36E820EF35CEE0ED8B455
:10321000C45DD8B006D00001E205D8A41200F28E39
:1032200012005CC1DDF05DC1DEF00001E205D8B442
:10323000F28E00F0A6EC1DF0B6C033F0B7C034F04B
:10324000B8C035F0B9C036F000F000F020EE33F031
:10325000000EDE18000ED8B4DE18700ED8B4DE18DA
:10326000C20ED8B4DE18D8B427D020EE33F0000E4A
:10327000DE18000ED8B4DE18AA0ED8B4DE18420E3E
:10328000D8B4DE18D8B418D0F2AE02D0010E01D0F6
:10329000000E0001E26FF29E33C0EEF134C0EFF198
:1032A00035C0F0F136C0F1F10001E205D8B4F28E7C
:1032B000000E0001E46F21D00001E42B040E000198
:1032C000E4651BD0000E0001E46FF2AE02D0010EE7
:1032D00001D0000E0001E26FF29E000E0101EE6FC0
:1032E000000E0101EF6F000E0101F06F000E0101F1
:1032F000F16F0001E205D8B4F28EF2AE02D0010EF9
:1033000001D0000E0001E26FF29E5CC1DDF05DC1F4
:10331000DEF0010E3C6E9D0E3B6E0001DDC0C4F080
:103320000001DEC0C5F00001C41FC51FC44BC52B82
:1033300001015C510001C42701015D510001C52359
:103340000001C551800AF36E800EF35C640ED8B4A0
:10335000C45DD8B006D00001E205D8A41200F28EF8
:1033600012005CC1DDF05DC1DEF00001E205D8B401
:10337000F28E00F01CD73BC0C4F03CC0C5F0000189
:10338000C551000AD8B404D0010AD8B405D00FD76B
:103390000001C451000A0BD70001C451850AD8B4FA
:1033A0001CD7180AD8B4B9D702D7000E0001A16FF4
:1033B000000120EE01F000019B51D92600019C5133
:1033C000DA22DF5000017A6F9BC0D9FF9CC0DAFF80
:1033D000DF5060EC29F0000E0001A26FD1D0000197
:1033E000A251010DF35000019D25D96EF45000014A
:1033F0009E21DA6EDF50D8A403D0010E0001A16F28
:103400000001A105D8A40DD00001A251010DF35077
:1034100000019D25D96EF45000019E21DA6E200E28
:10342000DF6E0001A251010DF35000019D25D96E00
:10343000F45000019E21DA6EDF5000019F6F000101
:10344000A251010D050EF326000EF422F3500001E7
:103450009B25D96EF45000019C21DA6EDF500001EB
:103460009F19D8B46BD0000120EE03F000019B51EE
:10347000D92600019C51DA220001DECF86F000013E
:10348000DDCF87F0000E0001886F0001A251010D11
:10349000050EF326000EF422F35000019B25D96E91
:1034A000F45000019C21DA6EDF508AEC1EF000011E
:1034B000A06F0001A0510001E55F0001A251010DC4
:1034C000F35000019D25D96EF45000019E21DA6E63
:1034D0000001A251010D050EF326000EF422F35057
:1034E00000019B25E16EF45000019C21E26EDFCFCC
:1034F000E7FF000120EE03F000019B51D9260001F7
:103500009C51DA220001DECF86F00001DDCF87F08A
:10351000010E0001886F0001A251010D050EF32676
:10352000000EF422F35000019B25D96EF4500001E7
:103530009C21DA6EDF508AEC1EF020D0000120EED4
:1035400003F000019B51D92600019C51DA220001B1
:10355000DECF86F00001DDCF87F0020E0001886F1C
:103560000001A251010DF35000019D25D96EF450C8
:1035700000019E21DA6EDF508AEC1EF00001A22BC2
:10358000000120EE02F000019B51D92600019C5160
:10359000DA22DF500001A25DD8B0120020D73E50E1
:1035A000200D1E0EF3240001676F050EF4200001AC
:1035B000686F060E0001636F5E0E0001626F3E5081
:1035C0000A0AD8A407D0050E0001656F1E0E00017F
:1035D000646F0AD0200E000167250001646F000EA1
:1035E000000168210001656F000E0001666FC4D004
:1035F000000120EE1CF000016751D926000168513E
:10360000DA22DF502C6E2CBE97D0000168C019F072
:10361000000167C018F0000165C01BF0000164C024
:103620001AF04BEC14F018C060F019C061F0000102
:1036300020EE0CF000016751D92600016851DA2212
:10364000DECF2CF0DDCF2DF02D50800A2E6E000144
:1036500060512C5C00016151800A2E58D8B00DD009
:10366000000120EE0CF000016751D92600016851DD
:10367000DA22DE2A000EDD220CD0000120EE0CF052
:1036800000016751D92600016851DA22DE06000EDA
:10369000DD5A000120EE0CF000016751D92600012F
:1036A0006851DA22DECF2CF0DDCF2DF0000120EEC4
:1036B00004F000016751D92600016851DA222C502C
:1036C000DE262D50DE22000E2DBEFF0EDE22DD2274
:1036D000DD52DD52000120EE0EF000016751D926C7
:1036E00000016851DA22DE06000EDD5AD92ADD50CB
:1036F000FF0AFF0ED8B4DF18D8A41ED0000168C09E
:1037000022F0000167C021F0CFEC17F0000120EE9D
:1037100010F000016751D92600016851DA2200013A
:1037200010EE0EF000016751E12600016851E2221F
:10373000DECFE6FFDDCFE5FF000168C065F00001E8
:1037400067C064F0000163510001681904E10001E1
:10375000625100016719D8A407D0050E0001686FF7
:103760001E0E0001676F06D0200E00016727000EB5
:10377000000168230001662B0A0E0001666538D738
:103780003E2A0A0E3E641200000E3E6E1200000138
:103790007AC080F00001816B826B000179350001F5
:1037A000803701E38181000180510001886F0001B1
:1037B00088670DD0000E0001786F000E0001796F50
:1037C000000E00017A6F000E00017B6F12000001F5
:1037D0007EC080F00001816B826B00017D350001AD
:1037E000803701E38181000180510001876F000172
:1037F00087670DD0000E0001786F000E0001796F11
:10380000000E00017A6F000E00017B6F12000001B4
:10381000798FFF0E00017817FF0E00017917000E57
:1038200000017A1700017D8FFF0E00017C17FF0E4B
:1038300000017D17000E00017E17000E0001836F4E
:10384000000E0001846F000E0001856F000E000164
:10385000866F7F0E0001885F00018751980F00017D
:10386000885F180E0001876F0001D8900001833730
:1038700000018437000185370001863700017C5143
:103880000001785D00017D510001795900017E51F0
:1038900000017A59D8A00ED000017C510001785F58
:1038A00000017D510001795B00017E5100017A5BCE
:1038B000000183810001D890000178370001793739
:1038C00000017A370001872FCFD7000188AF26D0BB
:1038D00000018851800A0001806FE90E800A000112
:1038E000805DD8B00DD0000E0001786F000E000191
:1038F000796F000E00017A6F000E00017B6F1200DD
:103900000001D89000018633000185330001843323
:10391000000183330001883FF3D720D0170E000148
:10392000886519D0000E0001786F000E0001796FD4
:10393000000E00017A6F000E00017B6F1200000183
:10394000D8900001833700018437000185370001DA
:1039500086370001880700018867F1D783C078F0B7
:1039600084C079F085C07AF086C07BF01200000137
:1039700087C08FF0000188C090F0000189C091F0ED
:1039800000018AC092F0180E06D00001D890923340
:10399000913390338F33E82EF8D700018F51000117
:1039A000936F000193670DD0000E0001876F000E2A
:1039B0000001886F000E0001896F000E00018A6F00
:1039C000120000018BC08FF000018CC090F000014C
:1039D0008DC091F000018EC092F0180E06D000014B
:1039E000D8909233913390338F33E82EF8D700017B
:1039F0008F510001996F000199670DD0000E0001F1
:103A0000876F000E0001886F000E0001896F000EA5
:103A100000018A6F1200000199517B0F000193276A
:103A20008AC099F000018E510001991B800E00019F
:103A300099170001898F00018D8FFF0E00018B17F0
:103A4000FF0E00018C17FF0E00018D17000E000104
:103A50008E17000E0001946F000E0001956F000E8E
:103A60000001966F000E0001976F070E0001986F1E
:103A7000000187A110D000018B51000194270001A3
:103A80008C510001952300018D5100019623000106
:103A90008E51000197230001D89000018A33000164
:103AA000893300018833000187330001D890000179
:103AB0008B3700018C3700018D3700018E370001F4
:103AC000982FD6D7110E0001986F000187A110D052
:103AD00000018B510001942700018C5100019523B6
:103AE00000018D510001962300018E5100019723A2
:103AF0000001D89000018A33000189330001883326
:103B0000000187330001D8900001973300019633FC
:103B100000019533000194330001982FD6D794C04B
:103B200078F095C079F096C07AF097C07BF093C09A
:103B30007CF099C07DF02FEC20F078C087F079C040
:103B400088F07AC089F07BC08AF01200E1C0BAF038
:103B5000010E0001BB6F0001BA2B03D00001D89009
:103B6000BB370001BA2FFAD70001BB51941239ECD0
:103B700024F00009D8B407D0CC0E6CEC1FF0BE0EB8
:103B80006CEC1FF00DD0000E0001B66F000E0001AE
:103B9000B76F700E0001B86FC20E0001B96F12004E
:103BA000000E0001C26F000E0001C36F2CD0000197
:103BB000C351010D0101410EF324D96E0101010E23
:103BC000F420DA6E19EC23F0DF6E0001C351010D11
:103BD0000101410EF324D96E0101010EF420DA6EC9
:103BE000DF500001C2190001BA6FBB6B3C0E00012F
:103BF000BA25F66EF10EBB21F76E08000001F5CF75
:103C0000C2F00001C32B080E0001C365D0D700012C
:103C1000C26703D0010148670DD0000E0001B66FE6
:103C2000000E0001B76F700E0001B86FC20E0001E8
:103C3000B96F120001014151010142C1BAF0000106
:103C4000BB6BBAC0BBF00001BA6B0001BA11000136
:103C5000BC6F0001BB510001BD6F0F0E0001BC1510
:103C60000001826F0001836B99EC2AF082C087F01B
:103C700083C088F084C089F085C08AF0000E0001FE
:103C80008B6F000E00018C6F800E00018D6F3D0E5A
:103C900000018E6FB7EC1CF087C0BEF088C0BFF08B
:103CA00089C0C0F08AC0C1F00001040E0001BA6FE3
:103CB0000001BD350001BD330001BC330001BA2F46
:103CC000F7D7BCC082F0BDC083F099EC2AF082C067
:103CD000A7F083C0A8F084C0A9F085C0AAF0BEC038
:103CE000ABF0BFC0ACF0C0C0ADF0C1C0AEF0D1EC25
:103CF00012F0A7C0BEF0A8C0BFF0A9C0C0F0AAC013
:103D0000C1F0BEC0B6F0BFC0B7F0C0C0B8F0C1C00F
:103D1000B9F0120000018B6F000E0001976F000ECA
:103D20000001926F000186C0F6FF000187C0F7FF17
:103D300008000001F5CF8CF0010E0001862500017E
:103D4000896F000E0001872100018A6F89C0F6FF8C
:103D50008AC0F7FF08000001F5CF8DF0E00E0001EA
:103D60008B250001996F00019A6BFF0E9A2399C071
:103D700078F09AC079F0020E000186250001896F63
:103D8000000E0001872100018A6F89C0F6FF8AC0FA
:103D9000F7FF0800F55000017A6F00017B6BA7EC7C
:103DA0002BF0000178C099F0000179C09AF0030E61
:103DB00000019927000E00019A23000186C089F0B6
:103DC000000187C08AF00001995100018927000194
:103DD0009A5100018A2389C0F6FF8AC0F7FF0800C4
:103DE0000001F5CF95F0010E000199250001896FC2
:103DF000000E00019A2100018A6F00018951000123
:103E0000862500018E6F00018A5100018721000183
:103E10008F6FE6C094F0E5C093F094C096F0000E6A
:103E20000001916F48D093C097F0000E0001986F89
:103E3000000E0001906F35D00001986710D000018E
:103E40008EC0F6FF00018FC0F7FF08000001F5CF1C
:103E500092F000018E4B8F2B800E0001986F0001B5
:103E60009251000198150009D8B414D000018805BA
:103E7000D8A407D096C081F000019751EBEC29F04F
:103E800009D00001886706D096C081F000019751E3
:103E9000A6EC29F00001972B0001D890983300017F
:103EA000902B00018D510001905DD8A0C5D7000175
:103EB000962B0001912B00018C510001915DD8A03F
:103EC000B2D700019351000195250001E56F94C020
:103ED000E6F000019551120000017C6F000EF2BE69
:103EE000010E0001E06FF29EE1C07AF0010E0001C8
:103EF0007B6F00017A2B03D00001D8907B37000143
:103F00007A2FFAD700017B518B12000E00017D6FD2
:103F100088D0E1C07AF0010E00017B6F00017A2B9E
:103F200003D00001D8907B3700017A2FFAD7000127
:103F30007B51FF0A9416E1C07AF0010E00017B6FFD
:103F400000017A2B03D00001D8907B3700017A2F33
:103F5000FAD700017B51FF0A8B16000E0001796F22
:103F6000050E0001786FABEC2CF07DC07AF0010EED
:103F700000017B6F00017A2B03D00001D8907B37C2
:103F800000017A2FFAD700017B5100017C1500094E
:103F9000D8B412D0E1C07AF0010E00017B6F0001AD
:103FA0007A2B03D00001D8907B3700017A2FFAD703
:103FB00000017B518B1212D0E1C07AF0010E00019A
:103FC0007B6F00017A2B03D00001D8907B37000172
:103FD0007A2FFAD700017B51FF0A8B16000E0001E1
:103FE000796F4E0E0001786FABEC2CF0E1C07AF0E7
:103FF000010E00017B6F00017A2B03D00001D890E5
:104000007B3700017A2FFAD700017B518B12000E0B
:104010000001796F3C0E0001786FABEC2CF00001D1
:104020007D2B070E00017D6574D70001E0A101D052
:10403000F28E0001E0B101D0F29EE1C07AF0010EF3
:1040400000017B6F00017A2B03D00001D8907B37F1
:1040500000017A2FFAD700017B519412120000015F
:104060007C51D8B407D000017B51781179117A11B5
:10407000D8A419D0000E0001786F000E0001796FEE
:10408000000E00017A6F000E00017B6F120000012C
:104090007C2B0001D89000017B3300017A330001B2
:1040A000793300017833000E0001781500017E6F2E
:1040B000000E0001791500017F6F000E00017A15D6
:1040C0000001806FFE0E00017B150001816F000171
:1040D00081517E117F118011D8B417D0D8D700013B
:1040E0007C2B010E00017827000E000179230001CE
:1040F0007A2300017B230001D89000017B3300016B
:104100007A330001793300017833000E000178150D
:1041100000017E6F000E0001791500017F6F000E17
:1041200000017A150001806FFF0E00017B15000170
:10413000816F000181517E117F118011D8B40DD0A3
:10414000CED700017C070001D8900001783700012C
:10415000793700017A3700017B3700017AAFF1D758
:1041600000017CB10CD0FF0E00017817FF0E00019A
:1041700079177F0E00017A17FF0E00017B170001EF
:10418000D8907C3300017CC07EF000017F6B806B97
:10419000816B7EC081F00001806B7F6B7E6B0001C4
:1041A0007E510001781300017F5100017913000155
:1041B000805100017A130001815100017B1300013D
:1041C0007D51D8B402D000017B8F78C078F079C0DF
:1041D00079F07AC07AF07BC07BF0120000F08BECB3
:1041E00028F069EC0DF066EC2AF00101010E0001E7
:1041F000A46F01019B0E0001A36F000E0001A56FCB
:10420000000E0001A66FF40E0001A86F220E00013F
:10421000A76F0A0E0001A96FF7EC27F00201020E4A
:104220000001A46F0201680E0001A36F000E0001DF
:10423000A56F160E0001A66FF40E0001A86F220EE6
:104240000001A76F160E0001A96FF7EC27F001011E
:10425000010E0001A46F0101770E0001A36F550E3E
:104260000001A56F330E0001A66FF40E0001A86FC8
:10427000220E0001A76F040E0001A96FF7EC27F0D2
:104280000201020E0001A46F0201D40E0001A36F0F
:10429000050E0001A56F330E0001A66FF40E00019C
:1042A000A86F220E0001A76F040E0001A96FF7ECA2
:1042B00027F00201020E0001A46F02018C0E000122
:1042C000A36F000E0001A56F0B0E0001A66FF40E88
:1042D0000001A86F220E0001A76F0A0E0001A96F4E
:1042E000F7EC27F00201020E0001A46F0201B00EEC
:1042F0000001A36F3F0E0001A56F0B0E0001A66F1A
:10430000F40E0001A86F220E0001A76F0A0E000133
:10431000A96FF7EC27F000F000F00A0E9EEC2CF0ED
:10432000ABEC0AF064EC22F0D3EC18F01AEC29F0B4
:1043300082EC2CF000F000F0ABB402D0ABA203D0C2
:10434000AB9800F0AB888B9A0400F2AEF28EBEEC14
:1043500024F0E6D70001A3C0A7F00001A4C0A8F094
:104360000001A5C0A9F00001A6C0AAF0180E06D051
:104370000001D890AA33A933A833A733E82EF8D781
:104380000001A7510001AC6F0001AC670DD0000E19
:104390000001A36F000E0001A46F000E0001A56FC5
:1043A000000E0001A66F12000001A3C0A7F00001DB
:1043B000A4C0A8F00001A5C0A9F00001A6C0AAF001
:1043C000200E06D00001D890AA33A933A833A73312
:1043D000E82EF8D70001A7510001AB6F0001A58FAF
:1043E000FF0E0001A317FF0E0001A417FF0E00012E
:1043F000A517000E0001A617960E0001AC5F000184
:10440000ACAF26D00001AC51800A0001A76FE90EC5
:10441000800A0001A75DD8B00DD0000E0001A36F87
:10442000000E0001A46F000E0001A56F000E000138
:10443000A66F12000001D8900001A6330001A53339
:104440000001A4330001A3330001AC3FF3D720D017
:104450001F0E0001AC6519D0000E0001A36F000E05
:104460000001A46F000E0001A56F000E0001A66FF1
:1044700012000001D8900001A3370001A437000109
:10448000A5370001A6370001AC070001AC67F1D7E2
:104490000001AB51D8B40FD00001A61F0001A51F29
:1044A0000001A41F0001A36D000E0001A423000160
:1044B000A5230001A623A3C0A3F0A4C0A4F0A5C017
:1044C000A5F0A6C0A6F01200CFEC2CF00201380532
:1044D000D8A40CD00A0E9EEC2CF0010E0001D61BC5
:1044E0000001D6B102D0899C01D0898C020140051F
:1044F000D8A40CD00A0E9EEC2CF0010E0001D71BA4
:104500000001D7B102D0899E01D0898E0201300509
:10451000D8A40CD00A0E9EEC2CF0010E0001D41B86
:104520000001D4B102D08A9E01D08A8E020100051A
:10453000D8A40CD00A0E9EEC2CF0010E0001D51B65
:104540000001D5B102D08A9C01D08A8C02011005ED
:10455000D8A410D00A0E9EEC2CF00001D96704D02C
:10456000010E0001DA1B06D0000E0001D96F000E0B
:104570000001DA6F02011805D8A40DD00A0E9EECD6
:104580002CF01F0E0001D96F0001D951D8B403D00F
:10459000000E0001DA6F02010805D8A406D00A0E49
:1045A0009EEC2CF0010E0001D81B02014805D8A496
:1045B00009D00001DC51D8B405D00A0E9EEC2CF0D5
:1045C0000001DC0702015005D8A40AD0030E000147
:1045D000DC5DD8B005D00A0E9EEC2CF00001DC2B7F
:1045E00002012005D8A40CD00A0E9EEC2CF000018C
:1045F000DB51D8A402D0010E01D0000E0001DB6F08
:1046000002012805D8A412000A0E9EEC2CF000012D
:10461000DB51D8B405D0000E0001876F000E04D026
:10462000000E0001876F020E0001866F86C0DBF06E
:104630001200000E00017C6F000EF2BE010E0001A0
:10464000E06FF29EE1C07AF0010E00017B6F000185
:104650007A2B03D00001D8907B3700017A2FFAD74C
:1046600000017B518B12000E00017D6F6BD0E1C009
:104670007AF0010E00017B6F00017A2B03D000015C
:10468000D8907B3700017A2FFAD700017B51FF0ABF
:104690009416E1C07AF0010E00017B6F00017A2BC5
:1046A00003D00001D8907B3700017A2FFAD70001A0
:1046B0007B51FF0A8B16000E0001796F050E000179
:1046C000786FABEC2CF0E1C07AF0010E00017B6F4B
:1046D00000017A2B03D00001D8907B3700017A2F9C
:1046E000FAD700017B519412000E0001796F100E71
:1046F0000001786FABEC2CF00001D8907C33E1C066
:104700007AF0010E00017B6F00017A2B03D00001CB
:10471000D8907B3700017A2FFAD700017B518214A1
:104720000009D8B403D000017C8F02D000017C9F27
:10473000000E0001796F4E0E0001786FABEC2CF08B
:1047400000017D2B070E00017D6591D70001E0A1DE
:1047500001D0F28E0001E0B101D0F29E00017C5147
:10476000120000017BAF2AD0000178C080F0000168
:1047700079C081F000017AC082F000017BC083F033
:104780000001801F811F821F831F802B000E812349
:1047900082238323000E000180250001786F000E24
:1047A000000181210001796F000E000182210001CA
:1047B0007A6F800E0001832100017B6F00017FAFC3
:1047C0002AD000017CC080F000017DC081F0000192
:1047D0007EC082F000017FC083F00001801F811F36
:1047E000821F831F802B000E812382238323000ED0
:1047F0000001802500017C6F000E00018121000175
:104800007D6F000E0001822100017E6F800E00018D
:10481000832100017F6F000E0001781B000E000154
:10482000791B000E00017A1B800E00017B1B000E1D
:1048300000017C1B000E00017D1B000E00017E1B91
:10484000800E00017F1B00017C510001785D00019A
:104850007D510001795900017E5100017A59000112
:104860007F5100017B59D8B002D0D8901200D88077
:104870001200E1C07AF0010E00017B6F00017A2B7B
:1048800003D00001D8907B3700017A2FFAD70001BE
:104890007B51FF0A941600F0E1C07AF0010E00018E
:1048A0007B6F00017A2B03D00001D8907B37000189
:1048B0007A2FFAD700017B51FF0A8B16010E0001F7
:1048C000796F270E0001786FABEC2CF0010E000120
:1048D000796F270E0001786FABEC2CF0000EF2BE62
:1048E000010E0001E06FF29EE1C07AF0010E0001BE
:1048F0007B6F00017A2B03D00001D8907B37000139
:104900007A2FFAD700017B519412000E0001796FC3
:104910004E0E0001786FABEC2CF0E1C07AF0010E86
:1049200000017B6F00017A2B03D00001D8907B3708
:1049300000017A2FFAD700017B5182140009D8A414
:1049400002D0010E01D0000E00017C6F0001E0A139
:1049500001D0F28E0001E0B101D0F29E010E000103
:10496000796F270E0001786FABEC2CF000017C51C1
:10497000D8B402D0010E1200000E1200000E000189
:10498000786F38D000017851010D0101370EF32402
:10499000D96E0101010EF420DA6E020EDF620DD035
:1049A00000017851010D0101370EF324D96E010188
:1049B000010EF420DA6E000EDF6E00017851010D59
:1049C0000101370EF324D96E0101010EF420DA6ED5
:1049D000010EDF620DD000017851010D0101370E8B
:1049E000F324D96E0101010EF420DA6E020EDF6E9F
:1049F0000001782B090E00017865C4D7000E000174
:104A0000786F00017851D8A4120000017851010D8F
:104A10000001DF0EF324D96E0001000EF420DA6EDF
:104A2000020EDF620DD000017851010D0001DF0E92
:104A3000F324D96E0001000EF420DA6E000EDF6E52
:104A400000017851010D0001DF0EF324D96E000141
:104A5000000EF420DA6E010EDF620DD000017851F5
:104A6000010D0001DF0EF324D96E0001000EF420C9
:104A7000DA6E020EDF6E0001782BC3D7000E000144
:104A8000836F00018151800AF36E800EF35C000E8B
:104A9000D8B4805DD8B009D00001806D0001811FBD
:104AA000D8B0812B010E0001836F00017F51800A75
:104AB000F36E800EF35C000ED8B47E5DD8B009D0E2
:104AC00000017E6D00017F1FD8B07F2B010E000119
:104AD000831B000E0001856F000E0001846F000132
:104AE00081518011D8B42CD0010E0001826F06D004
:104AF0000001D890803781370001822B000181AFFF
:104B0000F7D70001D8908437853700018051000124
:104B10007E5D0001815100017F59D8A00AD00001BB
:104B2000805100017E5F0001815100017F5B000127
:104B300084810001D890813380330001822FE1D736
:104B400000018351D8B406D00001846D0001851F97
:104B5000D8B0852B84C07EF085C07FF0120020EE97
:104B600016F01850D9261950DA22DFCF1CF0010EAA
:104B7000DE26DFCF1DF0000EDD221A501C5C1B501C
:104B80001D58D8A0120020EE16F01850D926195042
:104B9000DA22000EDE6E000EDD6E030E1C6E18C0F3
:104BA000D9FF19C0DAFFDECF1DF0DECF1EF0DECF59
:104BB0001FF0DECF20F01C6601D007D02034203259
:104BC0001F321E321D321C2EF6D718C0D9FF19C055
:104BD000DAFF1D50DE5E1E50DE5A1F50DE5A205096
:104BE000DD5ADD52DD52030E1C6E20EE04F018502B
:104BF000D9261950DA22DECF1DF0DECF1EF0DECF2F
:104C00001FF0DECF20F01C6601D007D02034203208
:104C10001F321E321D321C2EF6D718C0D9FF19C004
:104C2000DAFF1D50DE261E50DE221F50DE222050ED
:104C3000DD22DD52DD521200000E0001806F000EF9
:104C40000001816F000E0001826F000E0001836F72
:104C500000017F517C117D117E11D8B44ED0010E20
:104C60000001846F0CD00001D89000017C37000156
:104C70007D3700017E3700017F370001842B000162
:104C80007FAFF1D70001D890000180370001813754
:104C9000000182370001833700017C510001785DFB
:104CA00000017D510001795900017E5100017A59BE
:104CB00000017F5100017B59D8A012D000017C5126
:104CC0000001785F00017D510001795B00017E5198
:104CD00000017A5B00017F5100017B5B0001808154
:104CE0000001D89000017F3300017E3300017D3345
:104CF00000017C330001842FC5D780C078F081C0CB
:104D000079F082C07AF083C07BF01200000E0001BF
:104D10007D6F00017951800AF36E800EF35C000E06
:104D2000D8B4785DD8B009D00001786D0001791F42
:104D3000D8B0792B010E00017D6F00017B51800AF4
:104D4000F36E800EF35C000ED8B47A5DD8B006D056
:104D500000017A6D00017B1FD8B07B2B00017B51D5
:104D60007A11D8B426D0010E00017C6F06D0000164
:104D7000D8907A377B3700017C2B00017BAFF7D7C7
:104D800000017A510001785D00017B5100017959E1
:104D9000D8A008D000017A510001785F00017B5152
:104DA0000001795B0001D8907B337A3300017C2FBE
:104DB000E7D700017D51D8B406D00001786D00011D
:104DC000791FD8B0792B78C078F079C079F01200CB
:104DD00000017C6F00017C51080D0201000EF324DC
:104DE00000017D6F0201020EF42000017E6F7DC084
:104DF000D9FF7EC0DAFF820EDF6E000120EE01F0E7
:104E000000017D51D92600017E51DA22020EDF6EAB
:104E1000000120EE02F000017D51D92600017E51F3
:104E2000DA22000179C0DFFF00017851200D1E0E4B
:104E300000017A6F050E7B6FF35000017A27F45062
:104E400000017B23000120EE04F000017D51D926F2
:104E500000017E51DA227AC0DEFF7BC0DDFF000157
:104E600020EE06F000017D51D92600017E51DA22A4
:104E7000000EDE6E190EDD6E000120EE03F0000163
:104E80007D51D92600017E51DA22010EDF6E12001B
:104E9000EACF6DF0E1CF6EF0E2CF6FF0D9CF70F0D6
:104EA000DACF71F0F3CF72F0F4CF73F0F6CF74F085
:104EB000F7CF75F0F8CF76F0F5CF77F09DB29EA2E0
:104EC0000AD0394A3A2A01015C4B5D2BCFEC1AF02B
:104ED000000EBC6E9E927DB07EA01AD03850371066
:104EE000D8B411D03706D8A0380689883D2A3D04A9
:104EF0000001696F000169A102D0899801D08988F9
:104F000000F000F001D08998000E0F01536F7E90E1
:104F100077C0F5FF76C0F8FF75C0F7FF74C0F6FFE5
:104F200073C0F4FF72C0F3FF71C0DAFF70C0D9FF25
:104F30006FC0E2FF6EC0E1FF6DC0EAFF6CC0E9FF29
:104F40006BC0FBFF6AC0FAFF110000018C51891190
:104F50008A118B11D8B442D0010E00018D6F0CD094
:104F60000001D8900001893700018A3700018B3792
:104F700000018C3700018D2B00018CAFF1D70001AF
:104F800089510001855D00018A51000186590001A7
:104F90008B510001875900018C5100018859D8A01C
:104FA00010D0000189510001855F00018A51000184
:104FB000865B00018B510001875B00018C51000171
:104FC000885B0001D89000018C3300018B33000115
:104FD0008A330001893300018D2FD1D785C085F038
:104FE00086C086F087C087F088C088F01200000174
:104FF00020EE02F00001A351D9260001A451DA22CB
:105000000001A9C0DFFF000120EE03F00001A35161
:10501000D9260001A451DA220001A7C0DEFF000159
:10502000A8C0DDFFA3C0D9FFA4C0DAFF0001A5C05E
:10503000DFFF000120EE01F00001A351D92600019D
:10504000A451DA220001A6C0DFFF000120EE05F026
:105050000001A351D9260001A451DA22000EDF6E0F
:105060000001A4C09CF00001A3C09BF0050E00014C
:10507000A32500019D6F000E0001A42100019E6F79
:10508000D5EC19F0120000017E6F000E8C6E956851
:10509000400E0001E55DD8B003D08B868B9406D01E
:1050A0003F0E0001E56502D08B968B848D828D8446
:1050B000000E0001806F02D00001802B070E00015E
:1050C0008065FAD78D80000E0001806F02D000014C
:1050D000802B070E00018065FAD783CF7FF08D907B
:1050E000000E0001806F02D00001802B070E00012E
:1050F0008065FAD7000E956E00017E6703D000012F
:10510000E52B06D0E6C07AF00001E55160EC29F00D
:1051100000017F511200000E0001786F0FD00001D6
:105120007851010D0101370EF324D96E0101010EF2
:10513000F420DA6E000EDF6E0001782B090E0001FC
:105140007865EDD7000E0001786F00017851D8A482
:1051500010D000017851010D0001DF0EF324D96E4B
:105160000001000EF420DA6E000EDF6E0001782BD5
:10517000ECD7000E0001786F030E0001786501D0B6
:10518000120000017851010D2F0EF324D96E000E8C
:10519000F420DA6E000EDF6E0001782B030E0001A2
:1051A0007865EFD7120005EE1EF011EE60F0EE6AA2
:1051B000E550E150FCE1E250FAE104EE00F011EEBE
:1051C00000F0EE6AE550E150FCE1E250FAE103EE56
:1051D00000F0E70EEE6AE806FDE102EE00F0F80EE0
:1051E000EE6AE806FDE101EE00F0BF0EEE6AE806A9
:1051F000FDE100EED4F0140EEE6AE806FDE100EEEB
:105200002FF0190EEE6AE806FDE1940EF66E590EC7
:10521000F76E000EF86E01EEEEF010EE0AF00900E7
:10522000F5CFEEFFE550E150FAE1000EF86E000117
:10523000EEEF20F0000E68EC2BF00009D8B412005D
:1052400000F000F00301030E0001BF6F0301A80E80
:105250000001BE6FFF0E0001C16F6E0E0001C06F36
:105260000001D4C0C2F00001C36B0001D5C0C4F07E
:105270000001C56B0001D6C0C6F00001C76B00017C
:10528000D7C0C8F00001C96B0001D8C0CAF0000146
:10529000CB6B0001D9C0CCF00001CD6B0001DAC0AE
:1052A000CEF00001CF6B0001DBC0D0F00001D16B6C
:1052B0000001DCC0D2F00001D36BA6EC00F01200BC
:1052C00000017D6F000E00017B6F7F0E00017D6588
:1052D00003D0000E00017D6F3F0E00017A6503D000
:1052E000000E00017A6F7DC0E5F07AC0E6F00001A3
:1052F0007A39E8461F0B0001E76F3F0E00017D651C
:1053000006D0400E00017D5F010E00017B6F0001A1
:105310007D51400900017C6F7BC078F000017C5119
:10532000F5EC2BF00001E751B80900017C6F000E8D
:105330000001786F00017C51F5EC2BF0010E0001AB
:10534000786F00017C51F5EC2BF012000001846FA6
:1053500081C07AF00001845160EC29F0010E43EC29
:1053600028F00001856F010E43EC28F00001856FE5
:1053700081C082F0070E00018217010E0001836FC9
:105380000001822B03D00001D89083370001822FC7
:10539000FAD700018351000185150009D8B4120025
:1053A00081C082F0070E00018217010E0001836F99
:1053B0000001822B03D00001D89083370001822F97
:1053C000FAD700018351FF0A0001851700018551BA
:1053D000C9EC2AF012000001846F81C07AF000014C
:1053E000845160EC29F0010E43EC28F00001856F38
:1053F000010E43EC28F00001856F81C082F0070E9A
:1054000000018217010E0001836F0001822B03D07F
:105410000001D89083370001822FFAD70001835111
:10542000000185150009D8A4120081C082F0070E82
:1054300000018217010E0001836F0001822B03D04F
:105440000001D89083370001822FFAD700018351E1
:105450000001851300018551C9EC2AF0120039ECD6
:1054600024F00009D8B406D0CC0E6CEC1FF0440E2A
:105470006CEC1FF0000E0001796F100E0001786FC8
:10548000ABEC2CF0E1C07EF0010E00017F6F00015B
:105490007E2B03D00001D8907F3700017E2FFAD7F2
:1054A00000017F51FF0A9416E1C07EF0010E000159
:1054B0007F6F00017E2B03D00001D8907F37000161
:1054C0007E2FFAD700017F518B121200949694948C
:1054D00094909690969296948B90020E0EEC2CF0EF
:1054E0008B80010E0EEC2CF0000E0001E56F000E1B
:1054F0000001E66F000E0001E76F000E0001786FFB
:105500003F0EF5EC2BF0010E0001786F3F0EF5EC2D
:105510002BF0000E0001786FC00EF5EC2BF0010EA1
:105520000001786FC00EF5EC2BF0000E1DEC2BF097
:105530001200000E0001866F00018351800AF36E95
:10554000800EF35C000ED8B4825DD8B008D00001A4
:10555000826D0001831FD8B0832B0001862B0001D0
:1055600082C078F0000183C079F000017A6B0001FD
:105570007B6B960E00017C6F86C07DF02FEC20F0D7
:1055800078C082F079C083F07AC084F07BC085F067
:10559000120000017A6F7F0E0001E56501D0120054
:1055A000400E0001E55DD8B003D08B868B9406D009
:1055B0003F0E0001E56502D08B968B840001E5511A
:1055C000400AD8A406D0010E0001786F400EF5EC19
:1055D0002BF08D928D84000E956E7AC08CFF44EC7A
:1055E0002BF00001E52B000E8C6E1200000E000166
:1055F000BA1B000E0001BB1B000E0001BC1B800E7D
:105600000001BD1BB6C0A7F0B7C0A8F0B8C0A9F094
:10561000B9C0AAF0BAC0ABF0BBC0ACF0BCC0ADF032
:10562000BDC0AEF0D1EC12F0A7C0B6F0A8C0B7F084
:10563000A9C0B8F0AAC0B9F0120000017E6F000E38
:105640000001806F070E0001806501D0120000018B
:105650008051080DF3CF7AF0000E60EC29F0000EB7
:1056600000017F6F06D000017E51C9EC2AF00001D5
:105670007F2B7F0E00017F65F6D70001802B070E80
:1056800000018065E4D71200050E436E000100F0B2
:1056900000F000F000F000F0432F47EF2BF08D807A
:1056A000050E436E000100F000F000F000F000F085
:1056B000432F53EF2BF08D90050E436E000100F049
:1056C00000F000F000F000F0432F5FEF2BF012002D
:1056D0000001786F00017851010D0101370EF324AC
:1056E000D96E0101010EF420DA6E020EDF620FD0D6
:1056F00000017851010D0101370EF324D96E01012B
:10570000010EF420DA6E000EDF6E010E1200000EA4
:105710001200000120EE78F0DE50DE10DE10DE1008
:10572000D8B40CD0000E0001781B000E0001791BCC
:10573000000E00017A1B800E00017B1B78C078F000
:1057400079C079F07AC07AF07BC07BF0120000015A
:10575000785100017A03F3CF7CF0F4CF7DF00001A3
:10576000785100017B03F35000017D27000179513E
:1057700000017A03F35000017D277CC078F07DC0E2
:1057800079F01200000E456E000E026E000E016EE2
:1057900000F09EBA08D0014A022A100E015C270EC2
:1057A0000258D8A0F5D79EAA03D0C4EC2CF0120062
:1057B000010E456E000E120082C078F083C079F0B1
:1057C00084C07AF085C07BF0960E00017C6F000EDD
:1057D00000017D6F2FEC20F078C082F079C083F05B
:1057E0007AC084F07BC085F012000001796F00015F
:1057F000786703D08B868B9406D000017805D8A4F7
:1058000002D08B968B848D928D94000E956E79C00C
:105810008CFF44EC2BF0000E8C6E12000001786FB0
:10582000040E0001796FFA0E436E000100F000F0E3
:1058300000F000F000F0432F16EF2CF000F0000114
:10584000792FF1D70001782FEBD7120000017A6F82
:10585000000E0001796F3A0E00017A5DD8B007D0D2
:105860002F0E00017A6503D0010E0001796F79C017
:1058700078F0000178311200016E040E026EFA0E0B
:10588000436E000100F000F000F000F000F0432F44
:1058900042EF2CF000F0022EF2D7012EEED71200CC
:1058A00009D004C0D9FF05C0DAFFDF50B8EC2CF0F6
:1058B000044A052A04C0D9FF05C0DAFFDF50D8B476
:1058C0001200EFD7000EC26E000EC16E000EC06E49
:1058D000C08EC050C70B0809C06EC050F80B01093C
:1058E000C06EC2801200670EAF6EAC94B896AC98D2
:1058F000AB8EAB88AB9A9D989D9AAC9CAB9CAC9AB6
:10590000AC8A12003A500101651903E139500101D6
:105910006419D8B4120039C064F13AC065F11200BC
:10592000016E0150010D0101370EF324D96E010102
:10593000010EF420DA6E010EDF6E12000001786FA6
:10594000929800017851280DF3CF37F0F4CF38F05A
:10595000010E416E120001D000F000017807D8A0BE
:10596000790700017829D8B47929D8B41200F4D77E
:10597000036E8BBA04D08B8A050E3CEC2CF0ACA2E3
:10598000FED703C0ADFF120001D000F09EAAFDD7E4
:10599000AE5012000000A0410000C8C2050A4EEC43
:1059A00011F01200FF00FF00FF00FF00FF00FF00EA
:10C42000FF00FF00FF00FF00FF00FF00FF000017FC
:10C43000205D070000000000000000000000000078
:10C4400000000000000000000000000000000000EC
:10C4500000000000000000000000000000000000DC
:10C4600000000000000000000000000000000000CC
:10C4700000000000000000000000000000000000BC
:10C4800000000000000000000000000000000007A5
:10C49000000000000000000000000000000000009C
:10C4A000000000007000000070000000700000003C
:10C4B00070000000700000007000000070000000BC
:10C4C000700000007000000070000000000000001C
:10C4D000000000007000000070000000000000007C
:10C4E0000000000000000000000000000900000043
:10C4F00000000000000000000000000000770000C5
:10C50000007700000077000000770000007700004F
:10C51000000000000000000000000000000000001B
:10C52000000000000000000000000000000000000B
:10C5300000000000000000000000000000000000FB
:10C5400000000000000000000010000000000000DB
