:10000000F8EF01F0FF00FF00E1CFCBF0E2CFCCF042
:10001000D9CFCDF02CEF08F0D8CF18F0E8CF19F0F9
:10002000E0CF1AF0D9CF1BF0DACF1CF0F6CF1DF0DD
:10003000F7CF1EF0F8CF1FF0F5CF20F000F09EBAFA
:100040009DAAC3D155EC0BF00101006F0051EA0AE3
:10005000D8B4FF000051550AD8B4ABB4ADD1ABB29F
:10006000ABD13F5001E0A8D155EC0BF00101016F7D
:10007000ABA4ABB2A1D13F5001E09ED18FD155ECE2
:100080000BF00101026FABA4ABB296D13F5001E07F
:1000900093D155EC0BF00101036FABA4ABB28CD143
:1000A0003F5001E089D1236A10D0040E2324D96E79
:1000B000DA6A010EDA2255EC0BF0DF6EABA4ABB2BC
:1000C0007BD13F5001E078D1232A01010351136E07
:1000D000146A020E1326000E14222350156E166A9F
:1000E0001650800A176E1350155C1450800A17586A
:1000F000DCE3010E0A6E000E096E0351040F0B6E55
:1001000062EC09F0000901E157D1236A14D0DAEC5E
:100110000BF0010121EE02F0DF50DF2A016E026ACE
:10012000040E2324D96EDA6A010EDA22DF50036E40
:1001300079EC0AF0232A01010351235CE8E3010E64
:100140000A6E000E096E020E0B6EBAEC09F0236AFD
:100150000101000E2324D96EDA6A010EDA22DF5083
:10016000D4EC0BF0232A030E2364F2D725D1020E20
:10017000236E0101000E2324D96EDA6A010EDA2201
:1001800055EC0BF0DF6EABA4ABB216D13F5001E0E3
:1001900013D1232A050E2364ECD70101010E0A6E48
:1001A000000E096E040E0B6E62EC09F0000901E10D
:1001B00003D102C121F003C122F0236A0FD0010153
:1001C000020E2324D96EDA6A010EDA2221C001F070
:1001D000026A7BEC0BF0DF6E212A232A2250235C7B
:1001E000EEE30101010E0A6E000E096E2250020FAD
:1001F0000B6EBAEC09F0236A0BD00101000E232428
:10020000D96EDA6A010EDA22DF50D4EC0BF0232A21
:100210002250136E146A040E1326000E142223506B
:10022000156E166A1650800A176E1350155C14501E
:10023000800A175801E3C0D0E0D7020E236E0101F7
:10024000000E2324D96EDA6A010EDA2255EC0BF087
:10025000DF6EABA4ABB2B0D03F5001E0ADD0232AEB
:10026000040E2364ECD70101010E0A6E000E096E24
:10027000030E0B6E62EC09F0000901E19DD0050E42
:10028000B5EC0BF00101010E0A6E000E096E020EB4
:100290000B6EBAEC09F0236A0101000E2324D96E1B
:1002A000DA6A010EDA22DF50D4EC0BF0232A030EB7
:1002B0002364F2D781D0020E236E0101000E2324A5
:1002C000D96EDA6A010EDA2255EC0BF0DF6EABA4C0
:1002D000ABB272D03F5070E1232A030E2364EDD7F6
:1002E0000101010E0A6E000E096E020E0B6E62EC29
:1002F00009F0000961E08FEC09F00101010E0A6EBE
:10030000000E096E020E0B6EBAEC09F0236A0101B1
:10031000000E2324D96EDA6A010EDA22DF50D4EC03
:100320000BF0232A030E2364F2D746D0020E236E6D
:100330000101000E2324D96EDA6A010EDA2255EC8F
:100340000BF0DF6EABA4ABB237D03F5035E1232AC0
:10035000040E2364EDD70101010E0A6E000E096E32
:10036000030E0B6E62EC09F0000926E00CD0010EC2
:10037000BEEC0BF010D0020EBEEC0BF00CD0030E56
:10038000BEEC0BF008D001010251010AF0E0030AB3
:10039000F2E0010AF4E000F000F00ED00151080A8A
:1003A00001E16DD6010A01E1E2D6030A01E145D778
:1003B000010A81E01B0ABAE09EBAAECF3EF09EBAB7
:1003C000AECF3EF0AB9800F0AB8820C0F5FF1FC069
:1003D000F8FF1EC0F7FF1DC0F6FF1CC0DAFF1BC0F0
:1003E000D9FF1AC0E0FF19C0E8FF18C0D8FF1000FD
:1003F000E2EF09F020EE08F0AC51D926AD51DA2237
:10040000DECFB2F0DDCFB3F020EE0AF0AC51D9264A
:10041000AD51DA22DECFB6F0DDCFB7F020EE1DF021
:10042000AC51D926AD51DA22DF50BA6F20EE08F078
:10043000AA51D926AB51DA22DECFBBF0DDCFBCF01A
:1004400020EE0AF0AA51D926AB51DA22DECFB8F05D
:10045000DDCFB9F020EE1DF0AA51D926AB51DA223A
:10046000DF50BD6F20EE1EF0AC51D926AD51DA221F
:10047000DF50B46F20EE1EF0AA51D926AB51DA221C
:10048000DF50B56FB4C0AEF0A6D8B6C0D9FFB7C0C4
:10049000DAFFBA51DF12B3D895D88BD800F000F04C
:1004A00000F000F000F000F000F000F000F000F0CC
:1004B00000F000F000F000F000F000F000F000F0BC
:1004C00000F000F0BBC0D9FFBCC0DAFF0001BD5195
:1004D000DF12B5C0AEF07FD800F000F000F000F001
:1004E00000F000F000F000F000F000F000F000F08C
:1004F00000F000F000F000F000F000F000F000F07C
:10050000C282C2B2FED7000154D882D8040EB16FA5
:10051000B06B69D8B05FAF51B15BB4C0AEF05BD81F
:1005200077D86DD8B8C0D9FFB9C0DAFFBD51DF1296
:1005300040D800F000F000F000F000F000F000F013
:1005400000F000F000F000F000F000F000F000F02B
:1005500000F000F000F000F000F0BBC0D9FFBCC01C
:10056000DAFFBD51DF12B5C0AEF035D800F000F0B3
:1005700000F000F000F000F000F000F000F000F0FB
:1005800000F000F000F000F000F000F000F000F0EB
:1005900000F000F0C282C2B2FED7000113D809D821
:1005A00022D8B027AF51B123B0C0AAF0B1C0ABF090
:1005B0001200BD1DAE6FBBC0D9FFBCC0DAFFAE518B
:1005C000DF161200BD1DAE6FB8C0D9FFB9C0DAFF8B
:1005D000AE51DF161200AE47AE47C250AE19830BC4
:1005E000AE19C26E1200C350C4CFAEF0AF6BAEC036
:1005F000AFF0AE6BAE27000EAF23AE511200BA1DA6
:10060000AE6FB2C0D9FFB3C0DAFFAE51DF16120031
:10061000BA1DAE6FB6C0D9FFB7C0DAFFAE51DF1654
:100620001200B3C0D9FFB4C0DAFFDECFB5F0DDCF22
:10063000B6F020EE04F0B351D926B451DA22DECF61
:10064000B7F0DDCFB8F0B551B75DB96FB651B85955
:10065000BA6FBA51800AF36E800EF35C000ED8B404
:10066000B95D02E2B96BBA6B20EE18F0B351D9262E
:10067000B451DA22B9C0DEFFBAC0DDFF65D07BD845
:10068000D8B4DF1804E18BD820EE1AF080D820EE21
:1006900004F0B351D926B451DA22B3C0E1FFB4C09B
:1006A000E2FFDECFE6FFDECFE6FFDECFE6FFDDCF07
:1006B000E5FF56D020EE12F0B351D926B451DA221C
:1006C000DECFB5F0DDCFB6F0B951B55DBA51B65950
:1006D0000CE251D8D8B4DF180BE120EE1CF0B35176
:1006E000D926B451DA22020EDF6E20EE1AF04FD86E
:1006F000B4C0ABF0B3C0AAF0AD6B080EAC6F00ECA9
:1007000007F02ED020EE14F0B351D926B451DA22DE
:10071000DECFB5F0DDCFB6F0B551B95DB651BA59FF
:1007200005E229D8D8B4DF1804E139D820EE1AF050
:100730002ED8B4C0ABF0B3C0AAF0030EAD6F200E3C
:10074000AC6F00EC07F00CD020EE1CF0B351D926B2
:10075000B451DA22DF5093E0010AACE0030AD2E0A0
:1007600020EE04F0B351D926B451DA22DE6ADE6AF3
:10077000DE6ADD6A120020EE1AF0B351D926B451B8
:10078000DA22DE06000EDD5AD92ADD1CFF0CB35139
:10079000D926B451DA22080EDE6EDD6A080C20EE8E
:1007A0001CF0B351D926B451DA22010EDF6E010CD0
:1007B000020E0101DC6F580EDB6F700ED36E9B8C46
:1007C000DB07D8A0DC070101DB29D8B4DC29F8E17C
:1007D000D08E030EBA12C80EBB6EBA50870B180922
:1007E000BA6EBA849F829E929D82030E0F015113AE
:1007F000640E526F51975199519B519D51857F8045
:100800007E907D809BEC0BF0386B396B3A6B3B6BC9
:100810003C6B83D8D46BD56BD769D669D969D86955
:10082000DA69000E9EEC04F078D8010ED46F7FD800
:10083000010E9EEC04F071D8020ED46F78D8020E2F
:100840009EEC04F06AD8030ED46F71D8030E9EECB0
:1008500004F063D8050ED46F040E69D8040E9EEC24
:1008600004F00F0E0101D16F960ED06F0F0ED36FF3
:100870008D0ED26FD46B050E5AD8050E9EEC04F087
:10088000D16B100ED26F020EA9EC07F0010ED16FE2
:10089000100ED26F040EA9EC07F0020ED16F100EED
:1008A000D26F000EA9EC07F0030ED16F100ED26FBD
:1008B000050EA9EC07F0040ED16F100ED26F010ED9
:1008C000A9EC07F0050ED16F100ED26F030EA9EC44
:1008D00007F0D16B180ED26F060EA9EC07F0050ECB
:1008E000D16F180ED26F070EA9EC07F0010ED16F71
:1008F000080ED26FA9EC07F0030ED16F080ED26F6D
:10090000090EA9EC07F08CEC0BF0949C948E9F9A46
:100910009D8A94988B88F28C12000F0E0101D16F82
:10092000920ED06F0F0ED36F890ED26F890CD56FD8
:10093000D769D669D969D869DA6912000001D36F1D
:10094000D351200D000EF324D46F020EF420D56F86
:100950000101D751800A800F010ED8B4D65D19E38A
:10096000A6D80101D6C1DEFFD7C1DDFFD735D7310B
:100970000001D26F0101D6310001D16F20EE14F0D9
:10098000D451D926D551DA22D1C0DEFFD2C0DDFF45
:100990000DD08DD8960EDE6EDD6A20EE14F0D451A7
:1009A000D926D551DA224B0EDE6EDD6A20EE08F034
:1009B000D451D926D551DA22D0C1DEFFD1C1DDFF15
:1009C000000120EE0AF0D451D926D551DA22D2C145
:1009D000DEFFD3C1DDFF20EE1DF0D451D926D55165
:1009E000DA22D4C1D1F0010ED26FD12B02D0D8902F
:1009F000D237D12FFCD7D251DF6E20EE1EF0D4516A
:100A0000D926D551DA22D5C1DFFF000120EE1CF036
:100A1000D451D926D551DA22DF6A20EE1AF0D4510A
:100A2000D926D551DA223A0EDE6EDD6A0101D9519E
:100A3000800A800F010ED8B4D85D06E330D8D8C143
:100A4000DEFFD9C1DDFF04D02AD8200EDE6EDD6ABC
:100A500026D810EE0EF0D451E126D551E222DECF99
:100A6000E6FFDDCFE5FF20EE18F0D451D926D551B1
:100A7000DA22DE6ADD6A20EE04F0D451D926D5519F
:100A8000DA22DE6ADE6ADE6ADD6A20EE0CF0D4511C
:100A9000D926D551DA22000EDE6EDD6E000C000183
:100AA00020EE10F0D451D926D551DA2212000001DF
:100AB00020EE12F0D451D926D551DA221200755108
:100AC000200D000EF3240001C86F020EF420C96F40
:100AD000020EC46FA00EC36F7551050A05E1020E28
:100AE000C66F000EC56F06D0200EC825C56F000E5C
:100AF000C921C66FC76B20EE1CF0C851D926C95159
:100B0000DA22DF50BE6FBEBF54D0C9C0ABF0C8C040
:100B1000AAF0C6C0ADF0C5C0ACF0FAEC01F0AAC0B6
:100B2000C1F0ABC0C2F062D8BF51800AC06FC151E2
:100B3000BE5DC251800AC0590AE220EE0CF0C851D5
:100B4000D926C951DA22DE2A000EDD2203D020EE9A
:100B50000CF057D84BD820EE04F0C851D926C95113
:100B6000DA22BE51DE26BF51DE22000EBFBFFF0ECD
:100B7000DE22DD2220EE0EF044D8D92ADD1CFF0E45
:100B8000D8B4DF1816E1C9C0B4F0C8C0B3F011EC96
:100B900003F020EE10F0C851D926C951DA2210EE28
:100BA0000EF0C851E126C951E222DECFE6FFDDCFCB
:100BB000E5FFC9C0C6F0C8C0C5F0C451C91902E1FB
:100BC000C351C81906E1020E0001C96F000EC86FBB
:100BD00004D0200EC827000EC923C72B050EC765F9
:100BE0008AD7752B7565050C756B120020EE0CF01D
:100BF000C851D926C951DA22DECFBEF0DDCFBFF011
:100C00001200C851D926C951DA22DE06000EDD5A7B
:100C1000000CDC6FE36BD7C1F6FFD8C1F7FF08000B
:100C2000F5CFDDF1D7296CD8F5CFDEF1E00EDC256C
:100C3000EA6FEB6BFF0EEB23EAC1D1F0EBC1D2F010
:100C4000020ED7255DD8F5500001D36FD46B42EC6E
:100C50000BF0D1C0EAF1D2C0EBF1030E0101EA279B
:100C6000000EEB2357D8DAC1F6FFDBC1F7FF08000F
:100C7000F5CFE6F14FD8DA29DF6F000EDB21E06F08
:100C8000A8C0E5F1A7C0E4F1E5C1E7F1E26B2CD023
:100C9000E4C1E8F1E96BE16B22D0E9670BD0DFC179
:100CA000F6FFE0C1F7FF0800F5CFE3F1DF4BE02BE3
:100CB000800EE96FE351E9150DE0D95106E0E7C177
:100CC000D7F0E85109EC0AF005D0E7C1D7F0E851B8
:100CD00035EC09F00101E82BD890E933E12BDE5126
:100CE000E15DDBE3E72BE22BDD51E25DD1E3E45193
:100CF000E6250001A76FE5C1A8F00101E651120049
:100D0000DA6F000ED821DB6FDAC1F6FFDBC1F7FF27
:100D100008001200D7C1DAF1D8C1DBF1EA51DA27B5
:100D2000EB51DB2312000101EE6FEC6B43D8D5ECE5
:100D300008F00101ED6B07D04AD8D96BEE5159D8B4
:100D400009EC06F0ED2B4DD8F7E334D8D5EC08F0DC
:100D50000101ED6B2BD00001D8510101ED25D96EB9
:100D6000DA6ADF5002E1010EEC6FEC670FD0000190
:100D7000D8510101ED25D96EDA6AEE51ED25E16E0B
:100D8000E26A050EE126DFCFE7FF08D0EE51ED2540
:100D9000D96EDA6A050ED926200EDF6E18D8010E3C
:100DA000D96FEE5126D809EC06F0ED2B1AD8D8B041
:100DB0001200D1D7EE51D96EDA6AD92ADF5000017C
:100DC000D36F0101EE51D96EDA6ADF501200EE5195
:100DD000D96EDA6A030ED926DECFD7F1DDCFD8F18E
:100DE000030CEE51D96EDA6A020ED926DF50ED5DA2
:100DF0001200ED25D96EDA6A050ED926DF501200F1
:100E000020EE16F0AA51D926AB51DA22DFCFAEF090
:100E1000DE2ADFCFAFF0000EDD22AC51AE5DAD516A
:100E2000AF59D8A0120020EE16F0AA51D926AB5126
:100E3000DA22000EDE6EDD6E030EAE6FAAC0D9FFA1
:100E4000ABC0DAFF1AD8DE5EB051DE5AB151DE5ABD
:100E5000B251DD5A030EAE6F20EE04F0AA51D9262E
:100E6000AB51DA220AD8DE26B051DE22B151DE22A1
:100E7000B251DD22DD52DD521200DECFAFF0DECF07
:100E8000B0F0DECFB1F0DECFB2F0AE6701D007D068
:100E9000B235B233B133B033AF33AE2FF6D7AAC0C9
:100EA000D9FFABC0DAFFAF51120000F09BEC0AF0A3
:100EB000D8EC03F030EC0AF0EF6B1E0EF06FF40E7E
:100EC000F26FAB0EF16F0A0EF36F0001780E65EC56
:100ED00008F0FF0E0001D26FF70ED16F930EBAEC3F
:100EE0000AF0930ED86F780E93EC06F0320E0001E4
:100EF000D36F280ED5EC08F024D8890E09EC06F043
:100F0000320E0001D36F220ED5EC08F01AD88A0EEB
:100F100009EC06F000F000F0F28E0A0EA9EC0BF0DE
:100F2000DEEC0BF0DDEC0BF000F000F0ABB402D027
:100F3000ABA203D0AB9800F0AB880400EFEC07F055
:100F4000EFD7F40E0101D86FAB0ED76F010ED96F3A
:100F5000010CD56FD551080D800EF3240001D66F1A
:100F6000010EF420D76FD6C0D9FFD7C0DAFF820EAA
:100F7000DF6E20EE01F0D651D926D751DA22020ECB
:100F8000DF6E20EE02F0D651D926D751DA22D2C038
:100F9000DFFFD151200D000ED36F020ED46FF3503E
:100FA000D327F450D42320EE04F0D651D926D751BC
:100FB000DA22D3C0DEFFD4C0DDFF20EE06F0D6512A
:100FC000D926D751DA22DE6A190EDD6E20EE03F043
:100FD000D651D926D751DA22010EDF6E010C00015D
:100FE000D16BD151600FD96EDA6A020EDF6205D083
:100FF000D151600FD96EDA6ADF6AD151600FD96EB4
:10100000DA6A010EDF6203D0D151600F20D8D12BF4
:10101000090ED165E6D7D16BD151760FD96EDA6A58
:10102000020EDF6205D0D151760FD96EDA6ADF6A1F
:10103000D151760FD96EDA6A010EDF6203D0D15139
:10104000760F05D8D12BD151D8A41200E5D7D96E8F
:10105000DA6A020EDF6E020CDACFCEF0F3CFCFF0F9
:10106000F4CFD0F09DB29EA209D00001724B732B39
:101070006E4B6F2B5FEC05F0BC6A9E927DB07EA03C
:1010800017D00001715170110FE07007D8A07107DF
:101090008988742B7405CA6FCAA102D0899801D0BF
:1010A000898800F000F001D089980F01536B7E9081
:1010B000D0C0F4FFCFC0F3FFCEC0DAFFCDC0D9FF60
:1010C000CCC0E2FFCBC0E1FF11000101F56FF5518B
:1010D000D96EDA6A020ED926F3C1DFFFF551D96E57
:1010E000DA6A030ED926F1C1DEFFF2C1DDFFF55148
:1010F000D96EDA6AEFC1DFFFF551D96EDA6AD92A03
:10110000F0C1DFFFF46B09D0F551F425D96EDA6A2E
:10111000050ED926200EDF6EF42BF551D96EDA6A52
:10112000020ED926DF50F45DEFE3F551050F000103
:10113000D86F0101F55193EF06F00101D06F8C6A71
:101140009568400E0001A75D03E28B868B9405D065
:101150003F0EA76502D08B968B848D828D84010112
:10116000D26B01D0D22B070ED265FCD78D80D26B0B
:1011700001D0D22B070ED265FCD783CFD1F18D9051
:10118000D26B01D0D22B070ED265FCD7956AD067FF
:1011900003D00001A72B06D0A8C0D3F00001A751AF
:1011A000D5EC08F00101D15112000001D66FD46BCB
:1011B0007F0ED66501D0D66B3F0ED36501D0D36BC1
:1011C000D6C0A7F0D3C0A8F0D339E8461F0BA96F4B
:1011D0003F0ED66504D0400ED65F010ED46FD651B7
:1011E0004009D56FD4C0D1F0D5512FEC0BF00001E0
:1011F000A951B809D56FD16BD5512FEC0BF0010E69
:101200000001D16FD5512FEF0BF0086E0850D96E49
:10121000DA6A0150DE1A000EDD1A076A0850D96E2C
:10122000DA6ADF50010B066E0850D96EDA6ADECF3B
:1012300002F0DDCF03F0D8900330056E0230046E6B
:101240000850D96EDA6A04C0DEFF05C0DDFF065023
:1012500007E00850D96EDA6A010EDE1AA00EDD1A18
:10126000072A070E0764DAD7070CD56FD7C0D3F06B
:10127000D551D5EC08F0010E9DEC08F0D66F010EAB
:101280009DEC08F0D66FD7C0D3F116D802D0D89015
:10129000D437D32FFCD7D451D615D8B41200D7C029
:1012A000D3F10AD802D0D890D437D32FFCD7D41D8D
:1012B000D617D65155EF0AF0070ED317010ED46F8B
:1012C000D32B010C110EC7EC0BF0106A0CD009C027
:1012D000D9FF0AC0DAFFDF50016E110E05EC09F0EC
:1012E000094A0A2A102A0B50105CF1E309C0D9FF01
:1012F0000AC0DAFF094A0A2ADF500C6E12C00DF04C
:101300000DC00EF00F6A0E500C1808E1115009C004
:10131000D9FF0AC0DAFFDF62000C010C000C0E6A74
:101320000F6AAB0E0E24F66EF30E0F20F76E080058
:10133000F5CF0CF00EC006F00FC007F00D0E086ED2
:10134000010E096E68EC0BF00C500D180AE00EC08F
:1013500008F00FC009F00C0E0A6E010E0B6E04ECC3
:101360000BF00E4A0F2A000E0E5C010E0F58D8B07B
:101370001200D7D7100EC7EC0BF00F6A0CD009C0C3
:10138000D9FF0AC0DAFFDF50016E100E05EC09F03C
:10139000094A0A2A0F2A0B500F5CF1E311C00CF026
:1013A0000CC00DF00E6A0D5009C0D9FF0AC0DAFF5B
:1013B000DF6E094A0A2A09C0D9FF0AC0DAFF10C045
:1013C000DFFF120003EE00F011EE00F0EE6AE550D0
:1013D000E150FCE1E250FAE102EE00F0C00EEE6AEC
:1013E000E806FDE101EE00F0D00EEE6AE806FDE150
:1013F00000EE60F04A0EEE6AE806FDE100EE24F031
:101400001C0EEE6AE806FDE1000EF86E000155EFD5
:1014100007F0D56FD7C0D3F0D551D5EC08F0010E49
:101420009DEC08F0D66F010E9DEC08F0D66FD7C08A
:10143000D3F10AD8D615D8A41200D7C0D3F104D856
:10144000D613D65155EF0AF0070ED317010ED46FFD
:10145000D32B02D0D890D437D32FFCD7D45112003D
:101460009496949494909690969296948B80010E74
:101470001AEC0BF0A76BA86BA96BD16B3F0E2FEC8E
:101480000BF0010E0001D16F3F0E2FEC0BF00001AD
:10149000D16BC00E2FEC0BF0010E0001D16FC00E0E
:1014A0002FEC0BF0000ED4EF0AF00001D36F7F0E8B
:1014B000A76501D07F0C400EA75D03E28B868B945D
:1014C00005D03F0EA76502D08B968B84A751400AAA
:1014D00005E1010ED16F400E2FEC0BF08D928D8443
:1014E000956AD3C08CFFEDEC0AF00001A72B8C6A43
:1014F000120002C004F004C005F0066A0550030B98
:10150000AA6E01C0A9FF03C0A8FFA69EA69CA68440
:10151000000EF2BE010E076EF29E550EA76EAA0EC9
:10152000A76EA682A6B2FED707B002D0F29E01D067
:10153000F28EA69412000001D16BD151600FD96ECA
:10154000DA6ADF6AD12B090ED165F7D7D16BD15199
:10155000760FD96EDA6ADF6AD12BD151F8E0D16B00
:10156000D1516A0FD96EDA6ADF6AD12B030ED165C9
:10157000F7D7030CD46F06D0D451D96EDA6AD3C032
:10158000DFFFD42BD1C0F6FFD2C0F7FFD14BD22B57
:101590000800F5CFD3F00001D367EED7D451D96E50
:1015A000DA6A000EDF6E000C0101D06FD26BD251EF
:1015B000080DF3CFD3F0000ED5EC08F00101D16B8C
:1015C000D05155EC0AF00101D12B7F0ED165F8D72F
:1015D000D22B070ED265EBD7070C050E0001776FF3
:1015E000000100F000F000F000F000F0772FF1EFC4
:1015F0000AF08D8000F000F000F000F000F0772F8E
:10160000FAEF0AF08D90050C10D0DAEC0BF00B50CD
:101610000824016E000E0920026E0A500B24D96EB8
:10162000DA6ADF50036E79EC0AF00B060B28D8B4A7
:101630001200EBD7D16F040ED26FFA0E776F000154
:1016400000F000F000F000F000F0772F20EF0BF03A
:1016500000F00001D22FF1D7D12FEDD7FA0CD26FC5
:10166000D16703D08B868B9404D0D10502E18B9691
:101670008B848D928D94956AD2C08CFFEDEC0AF02C
:101680008C6A1200D151D303F3CFD5F0F4CFD6F04A
:10169000D151D403F350D627D251D303F350D627D8
:1016A000D5C0D1F0D6C0D2F012003F6A016A026AFA
:1016B00000F09EBA07D0014A022A100E015C270EE4
:1016C0000258F6E39EBAD0EF0BF0010E3F6E000C0D
:1016D0000DD008500924D96EDA6A09500624016E2B
:1016E000000E0720026E7BEC0BF0DF6E0906092866
:1016F000D8B41200EED702C003F003C004F0056AAC
:101700000450030BAA6E01C0A9FFA69CA69EA6804A
:1017100000F000F0A8501200CF0EAF6EAC84B89667
:10172000AC98AB8EAB88AB9A9D989D9AAC9CAB9CC9
:10173000AC9AAC8ACF0CC26AC16AC06AC08EC05073
:10174000C70B0809C06EC050F80B0109C06EC280FB
:1017500012000001D16F9298D151280DF3CF70F093
:10176000F4CF71F0010E3C6E010C016E01500001CE
:10177000600FD96EDA6A010EDF6E010C016E015046
:1017800000016A0FD96EDA6A010EDF6E010C016E7C
:101790000150D96EDA6ADE68DD68FF0C01D000F016
:1017A0009EAAFDD7AE501200016EACA2FED701C0BA
:1017B000ADFF1200A6A21200FDD712001200FF001A
:10F3A000FF00FF00FF00FF00FF000001000100025E
:10F3B000001606250B160F1606250A14000000007D
:10F3C000000000803F000000000000803F000000BF
:10F3D000000000803F16062500000000000000002D
:10F3E00000803F0807B80B00004006F00A000066E6
:10F3F00066263F1B2F5D3D3333F33F6666263F4253
:10F4000060653C000080400080BB4500000041007A
:10F41000000042F00A02A4707D3FA4707D3F00000E
:10F4200000000000000000000000000000000000DC
:10F4300000000000000000000000000000000000CC
:10F4400000000000000000000000000000000000BC
:10F4500000000000000000000000000000000000AC
:10F46000000000000000000000000000000000009C
:10F47000000000000000000000000000000000008C
:10F48000000000000000000000000000000000007C
:10F49000000000000000000000000000000000006C
:10F4A00000000000000000000000000D101B040020
:10F4B000000000000000000000000000000000004C
:10F4C00000000000000000000004000000006000D8
:10F4D000600060006000600060006000000060008C
:10F4E0000000000006000000006C006C006C0000D2
:10F4F0000000000000000000000000000000000804
:10F5000000000000360036007F003600360036006E
:10F510007F003600360000000000070000000018E1
:10F52000003C007E00780038001C001E007E003C7D
:10F530000018000000090000000038006D803B004A
:10F5400006000C00180037006D8007000000000066
:10F550000700000000300078007800300030007EA6
:10F56000006C006C003E0000000000030000000082
:10F57000600060006000000000000000000000006B
:10F580000000000000000400000000300060006087
:10F59000006000600060006000600060006000309B
:10F5A0000004000000006000300030003000300037
:10F5B00030003000300030003000600005000000F6
:10F5C000007800300078000000000000000000001B
:10F5D0000000000000000007000000000000000024
:10F5E0000000180018007E0018001800000000003D
:10F5F0000000040000000000000000000000000007
:10F600000000000000000030006000000004000066
:10F61000000000000000000000000000700000007A
:10F6200000000000000000000400000000000000D6
:10F63000000000000000000000000000006000006A
:10F6400000000006000000000C000C000C00180078
:10F65000180030003000600060000000000007006B
:10F660000000003C006600660066006600660066FA
:10F670000066003C000000000007000000001800C9
:10F68000780018001800180018001800180018005A
:10F690000000000007000000003C006600060006B5
:10F6A000000C001800300060007E00000000000721
:10F6B000000000003C006600060006001C0006007A
:10F6C000060066003C000000000007000000000C7F
:10F6D000001C001C003C003C006C007E000C000C78
:10F6E000000000000007000000007E0060006000D5
:10F6F0007C0066000600060066003C00000000007A
:10F7000007000000003C006600600060007C0066AE
:10F7100000660066003C00000000000700000000DA
:10F720007E0006000C000C001800180030003000AD
:10F7300030000000000007000000003C006600668A
:10F740000066003C006600660066003C00000000A9
:10F750000007000000003C006600660066003E00F6
:10F760000600060066003C000000000004000000E7
:10F770000000000000000060000000000000000029
:10F780000060000000000004000000000000000015
:10F7900000003000000000000000000030006000A9
:10F7A00000000700000000000000000C00180030FE
:10F7B000006000300018000C00000000000700008E
:10F7C000000000000000000000007E0000007E003D
:10F7D0000000000000000000070000000000000022
:10F7E000006000300018000C0018003000600000BD
:10F7F00000000007000000003C0066000600060054
:10F800000C001800180000001800000000000C0098
:10F810000000000F8038E0306067B06DB06DB067F9
:10F82000F0300038000FC000000800000000180091
:10F8300018003C003C00660066007E00C300C30068
:10F840000000000008000000007C00660066006602
:10F85000007C006600660066007C00000000000876
:10F86000000000003E006300600060006000600077
:10F87000600063003E000000000009000000007C02
:10F880000066006300630063006300630066007C41
:10F89000000000000008000000007E006000600022
:10F8A00060007C006000600060007E0000000000DE
:10F8B00007000000007E006000600060007C0060C7
:10F8C000006000600060000000000009000000000F
:10F8D0003E006300600060006F006300630067002B
:10F8E0003F000000000009000000006300630063A7
:10F8F0000063007F0063006300630063000000009A
:10F900000004000000006000600060006000600013
:10F910006000600060006000000000000600000061
:10F9200000180018001800180018001800D800D897
:10F9300000700000000000080000000066006C007D
:10F9400078007000700078006C00660063000000B2
:10F9500000000700000000600060006000600060C0
:10F96000006000600060007E00000000000A0000EF
:10F97000000061806180738073807F807F806D80F4
:10F980006D806180000000000900000000630073CA
:10F990000073007B007B006F00670067006300005E
:10F9A00000000009000000003E00630063006300E7
:10F9B00063006300630063003E0000000000080075
:10F9C0000000007E006300630063007E0060006052
:10F9D00000600060000000000009000000003E0020
:10F9E000630063006300630063006F0067003E0014
:10F9F0000300000009000000007E00630063006354
:10FA0000007E0063006300630063000000000008E4
:10FA1000000000003C006600600060003C00060042
:10FA2000060066003C000000000008000000007EA8
:10FA30000018001800180018001800180018001806
:10FA40000000000000090000000063006300630084
:10FA5000630063006300630063003E000000000079
:10FA60000800000000C300C3006600660066003C9A
:10FA7000003C0018001800000000000C000000000E
:10FA8000C030C0306660666066603FC03FC01980AD
:10FA90001980000000000800000000C300C30066D9
:10FAA000003C0018003C006600C300C300000000DA
:10FAB000000800000000C300C30066003C001800FE
:10FAC00018001800180018000000000008000000CE
:10FAD00000FF00030006000C00180030006000C0AA
:10FAE00000FF000000000004000000007000600043
:10FAF0006000600060006000600060006000600006
:10FB000070000600000000600060006000300030FF
:10FB100000180018000C000C000000000004000099
:10FB20000000700030003000300030003000300045
:10FB3000300030003000700007000018003C006604
:10FB400000000000000000000000000000000000B5
:10FB5000000000070000000000000000000000009E
:10FB6000000000000000000000000000FE00040093
:10FB700000000060003000000000000000000000F5
:10FB8000000000000000000000070000000000006E
:10FB9000000000003C0006003E00660066003E00DB
:10FBA0000000000007000000006000600060007CB2
:10FBB0000066006600660066007C0000000000072A
:10FBC000000000000000000000003C006600600033
:10FBD000600066003C000000000007000000000616
:10FBE00000060006003E0066006600660066003EF5
:10FBF00000000000000700000000000000000000FE
:10FC00003C0066007E00600066003C0000000000D2
:10FC100004000000003000600060007000600060C0
:10FC200000600060006000000000000700000000AD
:10FC30000000000000003E006600660066006600EE
:10FC40003E0006007C0007000000006000600060CD
:10FC5000007C00760066006600660066000000001A
:10FC60000003000000006000000000006000600071
:10FC70006000600060006000000000000300000001
:10FC80000060000000000060006000600060006034
:10FC9000006000600060000700000000600060007D
:10FCA00060006C007800700078006C006600000056
:10FCB0000000030000000060006000600060006061
:10FCC00000600060006000600000000000090000AB
:10FCD00000000000000000007F006D806D806D80DE
:10FCE0006D806D8000000000070000000000000033
:10FCF0000000007C0076006600660066006600007A
:10FD000000000007000000000000000000003C00B0
:10FD100066006600660066003C0000000000070008
:10FD20000000000000000000007C00660066006625
:10FD30000066007C0060006000070000000000001A
:10FD4000000000003E0066006600660066003E009F
:10FD50000600060004000000000000000000007023
:10FD600000600060006000600060000000000006AD
:10FD70000000000000000000000038006C003000AF
:10FD800018006C00380000000000040000000000B3
:10FD90000060006000700060006000600060003083
:10FDA000000000000007000000000000000000004C
:10FDB00066006600660066006E003E0000000000FF
:10FDC0000700000000000000000000660066003C24
:10FDD000003C0018001800000000000900000000AE
:10FDE0000000000000006D806D807F807F80330008
:10FDF00033000000000006000000000000000000CA
:10FE0000006C006C00380038006C006C00000000D2
:10FE10000006000000000000000000006C006C0004
:10FE20006C006C00380030003000E000060000007C
:10FE3000000000000000007C000C00180030006092
:10FE4000007C0000000000050000180030003000B9
:10FE5000300030006000300030003000300018000A
:10FE600000000300000000600060006000600060AF
:10FE7000006000600060006000600000000500009D
:10FE800060003000300030003000180030003000DA
:10FE90003000300060000000080000000000003B5F
:10FEA000006E0000000000000000000000000000E4
:10FEB00000000004000000000000F000F000F0006E
:10FEC000F000F000F000F000F000000000000A0078
:10FED000000000FF001800180018001F001980190A
:10FEE000801F801F0000000000070C0018007E002B
:10FEF0006000600060006000600060006000600002
:10FF000000000000040000000000000000000000ED
:10FF1000000000000000000000300060000000064B
:10FF2000000000000C00180000007C006000600071
:10FF3000600060006000000000000E02000A800700
:10FF400000525032606FB007006FB03260525007FD
:10FF5000000A8002000E0380078007800780078068
:10FF600007000F807DE0FFF0F778E07CC03C001CCC
:10FF70000D0700070007000700070007000700073C
:10FF8000003FE01FC00F80070002000D02000700C5
:10FF90000F801FC03FE007000700070007000700B1
:10FFA000070007000700103C3C2424FFFF80018865
:10FFB000019C398801800180018001FFFFFFFFFF64
:10FFC000FF0D000002000700070007000A80124032
:10FFD0001740104048900700104002001000000039
:10FFE0000000003FFC20042004FFFF200420043F09
:10FFF000FC00000000000055524121212121000099
:020000040030CA
:0E000000FF381F3EFFBD81FF0FC00FE00F4015
:0200000400F00A
:100000000100010002001606250B160F1606250A30
:100010001400000000000000803F0000000000000D
:10002000803F000000000000803F16062500000011
:10003000000000000000803F0807B80B00004006E9
:10004000F00A00006666263F1B2F5D3D3333F33F09
:100050006666263F4260653C000080400080BB45EC
:100060000000004100000042F00A02A4707D3FA49D
:10007000707D3F0000000000000000000000000054
:100080000000000000000000000000000000000070
:100090000000000000000000000000000000000060
:1000A0000000000000000000000000000000000050
:1000B0000000000000000000000000000000000040
:1000C0000000000000000000000000000000000030
:1000D0000000000000000000000000000000000020
:1000E0000000000000000000000000000000000010
:1000F0000000000000000000000000000000000000
:00000001FF
